{
  "contractName": "Bnpl",
  "abi": [
    {
      "inputs": [
        {
          "internalType": "address",
          "name": "_members",
          "type": "address"
        },
        {
          "internalType": "address",
          "name": "_merchants",
          "type": "address"
        }
      ],
      "payable": false,
      "stateMutability": "nonpayable",
      "type": "constructor"
    },
    {
      "anonymous": false,
      "inputs": [
        {
          "indexed": true,
          "internalType": "address",
          "name": "target",
          "type": "address"
        }
      ],
      "name": "BlackListed",
      "type": "event"
    },
    {
      "anonymous": false,
      "inputs": [
        {
          "indexed": false,
          "internalType": "uint256",
          "name": "id",
          "type": "uint256"
        },
        {
          "indexed": false,
          "internalType": "address",
          "name": "buyer",
          "type": "address"
        },
        {
          "indexed": false,
          "internalType": "address",
          "name": "seller",
          "type": "address"
        },
        {
          "indexed": false,
          "internalType": "address",
          "name": "tokenkind",
          "type": "address"
        },
        {
          "indexed": false,
          "internalType": "uint256",
          "name": "totalPrice",
          "type": "uint256"
        },
        {
          "indexed": false,
          "internalType": "uint256",
          "name": "initcost",
          "type": "uint256"
        },
        {
          "indexed": false,
          "internalType": "uint256",
          "name": "installmentPeriod",
          "type": "uint256"
        },
        {
          "indexed": false,
          "internalType": "uint256",
          "name": "timestamp",
          "type": "uint256"
        }
      ],
      "name": "Cancel",
      "type": "event"
    },
    {
      "anonymous": false,
      "inputs": [
        {
          "indexed": true,
          "internalType": "address",
          "name": "target",
          "type": "address"
        }
      ],
      "name": "DeleteFromBlacklist",
      "type": "event"
    },
    {
      "anonymous": false,
      "inputs": [
        {
          "indexed": false,
          "internalType": "address",
          "name": "token",
          "type": "address"
        },
        {
          "indexed": false,
          "internalType": "address",
          "name": "user",
          "type": "address"
        },
        {
          "indexed": false,
          "internalType": "uint256",
          "name": "amount",
          "type": "uint256"
        },
        {
          "indexed": false,
          "internalType": "uint256",
          "name": "balance",
          "type": "uint256"
        }
      ],
      "name": "Deposit",
      "type": "event"
    },
    {
      "anonymous": false,
      "inputs": [
        {
          "indexed": false,
          "internalType": "uint256",
          "name": "id",
          "type": "uint256"
        },
        {
          "indexed": false,
          "internalType": "address",
          "name": "buyer",
          "type": "address"
        },
        {
          "indexed": false,
          "internalType": "address",
          "name": "seller",
          "type": "address"
        },
        {
          "indexed": false,
          "internalType": "address",
          "name": "tokenkind",
          "type": "address"
        },
        {
          "indexed": false,
          "internalType": "uint256",
          "name": "totalPrice",
          "type": "uint256"
        },
        {
          "indexed": false,
          "internalType": "uint256",
          "name": "initcost",
          "type": "uint256"
        },
        {
          "indexed": false,
          "internalType": "uint256",
          "name": "installmentPeriod",
          "type": "uint256"
        },
        {
          "indexed": false,
          "internalType": "uint256",
          "name": "timestamp",
          "type": "uint256"
        }
      ],
      "name": "Fill",
      "type": "event"
    },
    {
      "anonymous": false,
      "inputs": [
        {
          "indexed": false,
          "internalType": "uint256",
          "name": "id",
          "type": "uint256"
        },
        {
          "indexed": false,
          "internalType": "address",
          "name": "buyer",
          "type": "address"
        },
        {
          "indexed": false,
          "internalType": "address",
          "name": "seller",
          "type": "address"
        },
        {
          "indexed": false,
          "internalType": "address",
          "name": "tokenkind",
          "type": "address"
        },
        {
          "indexed": false,
          "internalType": "uint256",
          "name": "totalPrice",
          "type": "uint256"
        },
        {
          "indexed": false,
          "internalType": "uint256",
          "name": "initcost",
          "type": "uint256"
        },
        {
          "indexed": false,
          "internalType": "uint256",
          "name": "installmentPeriod",
          "type": "uint256"
        },
        {
          "indexed": false,
          "internalType": "uint256",
          "name": "timestamp",
          "type": "uint256"
        }
      ],
      "name": "Order",
      "type": "event"
    },
    {
      "anonymous": false,
      "inputs": [
        {
          "indexed": false,
          "internalType": "uint256",
          "name": "id",
          "type": "uint256"
        },
        {
          "indexed": false,
          "internalType": "address",
          "name": "buyer",
          "type": "address"
        },
        {
          "indexed": false,
          "internalType": "address",
          "name": "seller",
          "type": "address"
        },
        {
          "indexed": false,
          "internalType": "address",
          "name": "tokenkind",
          "type": "address"
        },
        {
          "indexed": false,
          "internalType": "uint256",
          "name": "totalPrice",
          "type": "uint256"
        },
        {
          "indexed": false,
          "internalType": "uint256",
          "name": "initcost",
          "type": "uint256"
        },
        {
          "indexed": false,
          "internalType": "uint256",
          "name": "installmentPeriod",
          "type": "uint256"
        },
        {
          "indexed": false,
          "internalType": "uint256",
          "name": "timestamp",
          "type": "uint256"
        }
      ],
      "name": "Trade",
      "type": "event"
    },
    {
      "anonymous": false,
      "inputs": [
        {
          "indexed": false,
          "internalType": "address",
          "name": "beforeAddress",
          "type": "address"
        },
        {
          "indexed": false,
          "internalType": "address",
          "name": "afterAddress",
          "type": "address"
        }
      ],
      "name": "TransferOwnership",
      "type": "event"
    },
    {
      "anonymous": false,
      "inputs": [
        {
          "indexed": false,
          "internalType": "address",
          "name": "token",
          "type": "address"
        },
        {
          "indexed": false,
          "internalType": "address",
          "name": "user",
          "type": "address"
        },
        {
          "indexed": false,
          "internalType": "uint256",
          "name": "amount",
          "type": "uint256"
        },
        {
          "indexed": false,
          "internalType": "uint256",
          "name": "balance",
          "type": "uint256"
        }
      ],
      "name": "Withdraw",
      "type": "event"
    },
    {
      "anonymous": false,
      "inputs": [
        {
          "indexed": false,
          "internalType": "uint256",
          "name": "id",
          "type": "uint256"
        },
        {
          "indexed": false,
          "internalType": "address",
          "name": "user",
          "type": "address"
        },
        {
          "indexed": false,
          "internalType": "address",
          "name": "tokenGet",
          "type": "address"
        },
        {
          "indexed": false,
          "internalType": "uint256",
          "name": "amountGet",
          "type": "uint256"
        },
        {
          "indexed": false,
          "internalType": "address",
          "name": "tokenGive",
          "type": "address"
        },
        {
          "indexed": false,
          "internalType": "uint256",
          "name": "amountGive",
          "type": "uint256"
        },
        {
          "indexed": false,
          "internalType": "uint256",
          "name": "timestamp",
          "type": "uint256"
        }
      ],
      "name": "exCancel",
      "type": "event"
    },
    {
      "anonymous": false,
      "inputs": [
        {
          "indexed": false,
          "internalType": "uint256",
          "name": "id",
          "type": "uint256"
        },
        {
          "indexed": false,
          "internalType": "address",
          "name": "user",
          "type": "address"
        },
        {
          "indexed": false,
          "internalType": "address",
          "name": "tokenGet",
          "type": "address"
        },
        {
          "indexed": false,
          "internalType": "uint256",
          "name": "amountGet",
          "type": "uint256"
        },
        {
          "indexed": false,
          "internalType": "address",
          "name": "tokenGive",
          "type": "address"
        },
        {
          "indexed": false,
          "internalType": "uint256",
          "name": "amountGive",
          "type": "uint256"
        },
        {
          "indexed": false,
          "internalType": "uint256",
          "name": "timestamp",
          "type": "uint256"
        }
      ],
      "name": "exOrder",
      "type": "event"
    },
    {
      "payable": false,
      "stateMutability": "nonpayable",
      "type": "fallback"
    },
    {
      "constant": true,
      "inputs": [
        {
          "internalType": "address",
          "name": "_token",
          "type": "address"
        },
        {
          "internalType": "address",
          "name": "_user",
          "type": "address"
        }
      ],
      "name": "balanceOf",
      "outputs": [
        {
          "internalType": "uint256",
          "name": "",
          "type": "uint256"
        }
      ],
      "payable": false,
      "stateMutability": "view",
      "type": "function"
    },
    {
      "constant": true,
      "inputs": [],
      "name": "dateTime",
      "outputs": [
        {
          "internalType": "contract BokkyPooBahsDateTimeContract",
          "name": "",
          "type": "address"
        }
      ],
      "payable": false,
      "stateMutability": "view",
      "type": "function"
    },
    {
      "constant": false,
      "inputs": [],
      "name": "depositEther",
      "outputs": [],
      "payable": true,
      "stateMutability": "payable",
      "type": "function"
    },
    {
      "constant": false,
      "inputs": [
        {
          "internalType": "address",
          "name": "_token",
          "type": "address"
        },
        {
          "internalType": "uint256",
          "name": "_amount",
          "type": "uint256"
        }
      ],
      "name": "depositToken",
      "outputs": [],
      "payable": false,
      "stateMutability": "nonpayable",
      "type": "function"
    },
    {
      "constant": true,
      "inputs": [
        {
          "internalType": "uint256",
          "name": "",
          "type": "uint256"
        }
      ],
      "name": "exOrderCancelled",
      "outputs": [
        {
          "internalType": "bool",
          "name": "",
          "type": "bool"
        }
      ],
      "payable": false,
      "stateMutability": "view",
      "type": "function"
    },
    {
      "constant": true,
      "inputs": [],
      "name": "exOrderCount",
      "outputs": [
        {
          "internalType": "uint256",
          "name": "",
          "type": "uint256"
        }
      ],
      "payable": false,
      "stateMutability": "view",
      "type": "function"
    },
    {
      "constant": true,
      "inputs": [
        {
          "internalType": "uint256",
          "name": "",
          "type": "uint256"
        }
      ],
      "name": "exOrderFilled",
      "outputs": [
        {
          "internalType": "bool",
          "name": "",
          "type": "bool"
        }
      ],
      "payable": false,
      "stateMutability": "view",
      "type": "function"
    },
    {
      "constant": true,
      "inputs": [
        {
          "internalType": "uint256",
          "name": "",
          "type": "uint256"
        }
      ],
      "name": "exOrders",
      "outputs": [
        {
          "internalType": "uint256",
          "name": "id",
          "type": "uint256"
        },
        {
          "internalType": "address",
          "name": "user",
          "type": "address"
        },
        {
          "internalType": "address",
          "name": "tokenGet",
          "type": "address"
        },
        {
          "internalType": "uint256",
          "name": "amountGet",
          "type": "uint256"
        },
        {
          "internalType": "address",
          "name": "tokenGive",
          "type": "address"
        },
        {
          "internalType": "uint256",
          "name": "amountGive",
          "type": "uint256"
        },
        {
          "internalType": "uint256",
          "name": "timestamp",
          "type": "uint256"
        }
      ],
      "payable": false,
      "stateMutability": "view",
      "type": "function"
    },
    {
      "constant": true,
      "inputs": [],
      "name": "feeAccount",
      "outputs": [
        {
          "internalType": "address",
          "name": "",
          "type": "address"
        }
      ],
      "payable": false,
      "stateMutability": "view",
      "type": "function"
    },
    {
      "constant": true,
      "inputs": [],
      "name": "feePercent",
      "outputs": [
        {
          "internalType": "uint256",
          "name": "",
          "type": "uint256"
        }
      ],
      "payable": false,
      "stateMutability": "view",
      "type": "function"
    },
    {
      "constant": false,
      "inputs": [
        {
          "internalType": "address",
          "name": "_tokenGet",
          "type": "address"
        },
        {
          "internalType": "address",
          "name": "_tokenGive",
          "type": "address"
        },
        {
          "internalType": "uint256",
          "name": "_amountGive",
          "type": "uint256"
        }
      ],
      "name": "makeExchange",
      "outputs": [],
      "payable": false,
      "stateMutability": "nonpayable",
      "type": "function"
    },
    {
      "constant": true,
      "inputs": [],
      "name": "members",
      "outputs": [
        {
          "internalType": "contract Members",
          "name": "",
          "type": "address"
        }
      ],
      "payable": false,
      "stateMutability": "view",
      "type": "function"
    },
    {
      "constant": true,
      "inputs": [],
      "name": "merchants",
      "outputs": [
        {
          "internalType": "contract Merchants",
          "name": "",
          "type": "address"
        }
      ],
      "payable": false,
      "stateMutability": "view",
      "type": "function"
    },
    {
      "constant": true,
      "inputs": [],
      "name": "orderCount",
      "outputs": [
        {
          "internalType": "uint256",
          "name": "",
          "type": "uint256"
        }
      ],
      "payable": false,
      "stateMutability": "view",
      "type": "function"
    },
    {
      "constant": true,
      "inputs": [
        {
          "internalType": "uint256",
          "name": "",
          "type": "uint256"
        }
      ],
      "name": "orders",
      "outputs": [
        {
          "internalType": "uint256",
          "name": "id",
          "type": "uint256"
        },
        {
          "internalType": "address",
          "name": "buyer",
          "type": "address"
        },
        {
          "internalType": "address",
          "name": "seller",
          "type": "address"
        },
        {
          "internalType": "uint256",
          "name": "productNum",
          "type": "uint256"
        },
        {
          "internalType": "uint256",
          "name": "qty",
          "type": "uint256"
        },
        {
          "internalType": "contract Installment",
          "name": "installmentCon",
          "type": "address"
        },
        {
          "internalType": "contract Package",
          "name": "packageCon",
          "type": "address"
        },
        {
          "internalType": "enum Bnpl.ORDERSTATS",
          "name": "status",
          "type": "uint8"
        }
      ],
      "payable": false,
      "stateMutability": "view",
      "type": "function"
    },
    {
      "constant": true,
      "inputs": [],
      "name": "owner",
      "outputs": [
        {
          "internalType": "address",
          "name": "",
          "type": "address"
        }
      ],
      "payable": false,
      "stateMutability": "view",
      "type": "function"
    },
    {
      "constant": true,
      "inputs": [],
      "name": "payee",
      "outputs": [
        {
          "internalType": "address",
          "name": "",
          "type": "address"
        }
      ],
      "payable": false,
      "stateMutability": "view",
      "type": "function"
    },
    {
      "constant": true,
      "inputs": [],
      "name": "ratio",
      "outputs": [
        {
          "internalType": "uint256",
          "name": "",
          "type": "uint256"
        }
      ],
      "payable": false,
      "stateMutability": "view",
      "type": "function"
    },
    {
      "constant": true,
      "inputs": [
        {
          "internalType": "address",
          "name": "",
          "type": "address"
        },
        {
          "internalType": "address",
          "name": "",
          "type": "address"
        }
      ],
      "name": "tokens",
      "outputs": [
        {
          "internalType": "uint256",
          "name": "",
          "type": "uint256"
        }
      ],
      "payable": false,
      "stateMutability": "view",
      "type": "function"
    },
    {
      "constant": false,
      "inputs": [
        {
          "internalType": "address",
          "name": "_new",
          "type": "address"
        }
      ],
      "name": "transferOwnership",
      "outputs": [],
      "payable": false,
      "stateMutability": "nonpayable",
      "type": "function"
    },
    {
      "constant": false,
      "inputs": [
        {
          "internalType": "uint256",
          "name": "_amount",
          "type": "uint256"
        }
      ],
      "name": "withdrawEther",
      "outputs": [],
      "payable": false,
      "stateMutability": "nonpayable",
      "type": "function"
    },
    {
      "constant": false,
      "inputs": [
        {
          "internalType": "address",
          "name": "_token",
          "type": "address"
        },
        {
          "internalType": "uint256",
          "name": "_amount",
          "type": "uint256"
        }
      ],
      "name": "withdrawToken",
      "outputs": [],
      "payable": false,
      "stateMutability": "nonpayable",
      "type": "function"
    },
    {
      "constant": false,
      "inputs": [
        {
          "internalType": "address",
          "name": "_feeAccount",
          "type": "address"
        },
        {
          "internalType": "uint256",
          "name": "_feePercent",
          "type": "uint256"
        }
      ],
      "name": "setFee",
      "outputs": [],
      "payable": false,
      "stateMutability": "nonpayable",
      "type": "function"
    },
    {
      "constant": false,
      "inputs": [
        {
          "internalType": "address",
          "name": "_payee",
          "type": "address"
        }
      ],
      "name": "setPayee",
      "outputs": [],
      "payable": false,
      "stateMutability": "nonpayable",
      "type": "function"
    },
    {
      "constant": false,
      "inputs": [
        {
          "internalType": "address",
          "name": "_dateTime",
          "type": "address"
        }
      ],
      "name": "setDatetime",
      "outputs": [],
      "payable": false,
      "stateMutability": "nonpayable",
      "type": "function"
    }
  ],
  "bytecode": "0x608060405234801561001057600080fd5b506040516127c93803806127c98339818101604052604081101561003357600080fd5b8101908080519060200190929190805190602001909291905050503380806000806101000a81548173ffffffffffffffffffffffffffffffffffffffff021916908373ffffffffffffffffffffffffffffffffffffffff1602179055505060016002819055505081600860006101000a81548173ffffffffffffffffffffffffffffffffffffffff021916908373ffffffffffffffffffffffffffffffffffffffff16021790555080600960006101000a81548173ffffffffffffffffffffffffffffffffffffffff021916908373ffffffffffffffffffffffffffffffffffffffff160217905550505061269c8061012d6000396000f3fe6080604052600436106101655760003560e01c80638ce7d0df116100d1578063ae90b2131161008a578063e55156b511610064578063e55156b514610930578063f2fde38b1461098b578063f5c24614146109dc578063f7888aec14610a5757610165565b8063ae90b2131461082f578063bdd4d18d14610886578063c65f766f146108dd57610165565b80638ce7d0df146105b75780638da5cb5b1461060a57806398ea5fca146106615780639b86fc051461066b5780639e281a9814610696578063a85c38ef146106f157610165565b80634d5f9f5f116101235780634d5f9f5f146103dd578063508493bc1461042e57806365e17c9d146104b357806371ca337d1461050a5780637fd6f15c146105355780638bcc88011461056057610165565b8062a34b81146101775780632453ffa814610274578063338b5dea1461029f5780633bed33ce146102fa578063410459ad1461033557806348c8cd4114610386575b34801561017157600080fd5b50600080fd5b34801561018357600080fd5b506101b06004803603602081101561019a57600080fd5b8101908080359060200190929190505050610adc565b604051808881526020018773ffffffffffffffffffffffffffffffffffffffff1673ffffffffffffffffffffffffffffffffffffffff1681526020018673ffffffffffffffffffffffffffffffffffffffff1673ffffffffffffffffffffffffffffffffffffffff1681526020018581526020018473ffffffffffffffffffffffffffffffffffffffff1673ffffffffffffffffffffffffffffffffffffffff16815260200183815260200182815260200197505050505050505060405180910390f35b34801561028057600080fd5b50610289610b7e565b6040518082815260200191505060405180910390f35b3480156102ab57600080fd5b506102f8600480360360408110156102c257600080fd5b81019080803573ffffffffffffffffffffffffffffffffffffffff16906020019092919080359060200190929190505050610b84565b005b34801561030657600080fd5b506103336004803603602081101561031d57600080fd5b8101908080359060200190929190505050610ef3565b005b34801561034157600080fd5b506103846004803603602081101561035857600080fd5b81019080803573ffffffffffffffffffffffffffffffffffffffff1690602001909291905050506111f9565b005b34801561039257600080fd5b5061039b611296565b604051808273ffffffffffffffffffffffffffffffffffffffff1673ffffffffffffffffffffffffffffffffffffffff16815260200191505060405180910390f35b3480156103e957600080fd5b5061042c6004803603602081101561040057600080fd5b81019080803573ffffffffffffffffffffffffffffffffffffffff1690602001909291905050506112bc565b005b34801561043a57600080fd5b5061049d6004803603604081101561045157600080fd5b81019080803573ffffffffffffffffffffffffffffffffffffffff169060200190929190803573ffffffffffffffffffffffffffffffffffffffff169060200190929190505050611359565b6040518082815260200191505060405180910390f35b3480156104bf57600080fd5b506104c861137e565b604051808273ffffffffffffffffffffffffffffffffffffffff1673ffffffffffffffffffffffffffffffffffffffff16815260200191505060405180910390f35b34801561051657600080fd5b5061051f6113a4565b6040518082815260200191505060405180910390f35b34801561054157600080fd5b5061054a6113aa565b6040518082815260200191505060405180910390f35b34801561056c57600080fd5b506105756113b0565b604051808273ffffffffffffffffffffffffffffffffffffffff1673ffffffffffffffffffffffffffffffffffffffff16815260200191505060405180910390f35b3480156105c357600080fd5b506105f0600480360360208110156105da57600080fd5b81019080803590602001909291905050506113d6565b604051808215151515815260200191505060405180910390f35b34801561061657600080fd5b5061061f6113f6565b604051808273ffffffffffffffffffffffffffffffffffffffff1673ffffffffffffffffffffffffffffffffffffffff16815260200191505060405180910390f35b61066961141b565b005b34801561067757600080fd5b50610680611650565b6040518082815260200191505060405180910390f35b3480156106a257600080fd5b506106ef600480360360408110156106b957600080fd5b81019080803573ffffffffffffffffffffffffffffffffffffffff16906020019092919080359060200190929190505050611656565b005b3480156106fd57600080fd5b5061072a6004803603602081101561071457600080fd5b8101908080359060200190929190505050611a1a565b604051808981526020018873ffffffffffffffffffffffffffffffffffffffff1673ffffffffffffffffffffffffffffffffffffffff1681526020018773ffffffffffffffffffffffffffffffffffffffff1673ffffffffffffffffffffffffffffffffffffffff1681526020018681526020018581526020018473ffffffffffffffffffffffffffffffffffffffff1673ffffffffffffffffffffffffffffffffffffffff1681526020018373ffffffffffffffffffffffffffffffffffffffff1673ffffffffffffffffffffffffffffffffffffffff16815260200182600381111561081457fe5b60ff1681526020019850505050505050505060405180910390f35b34801561083b57600080fd5b50610844611aef565b604051808273ffffffffffffffffffffffffffffffffffffffff1673ffffffffffffffffffffffffffffffffffffffff16815260200191505060405180910390f35b34801561089257600080fd5b5061089b611b15565b604051808273ffffffffffffffffffffffffffffffffffffffff1673ffffffffffffffffffffffffffffffffffffffff16815260200191505060405180910390f35b3480156108e957600080fd5b506109166004803603602081101561090057600080fd5b8101908080359060200190929190505050611b3b565b604051808215151515815260200191505060405180910390f35b34801561093c57600080fd5b506109896004803603604081101561095357600080fd5b81019080803573ffffffffffffffffffffffffffffffffffffffff16906020019092919080359060200190929190505050611b5b565b005b34801561099757600080fd5b506109da600480360360208110156109ae57600080fd5b81019080803573ffffffffffffffffffffffffffffffffffffffff169060200190929190505050611c00565b005b3480156109e857600080fd5b50610a55600480360360608110156109ff57600080fd5b81019080803573ffffffffffffffffffffffffffffffffffffffff169060200190929190803573ffffffffffffffffffffffffffffffffffffffff16906020019092919080359060200190929190505050611d7b565b005b348015610a6357600080fd5b50610ac660048036036040811015610a7a57600080fd5b81019080803573ffffffffffffffffffffffffffffffffffffffff169060200190929190803573ffffffffffffffffffffffffffffffffffffffff169060200190929190505050612541565b6040518082815260200191505060405180910390f35b60036020528060005260406000206000915090508060000154908060010160009054906101000a900473ffffffffffffffffffffffffffffffffffffffff16908060020160009054906101000a900473ffffffffffffffffffffffffffffffffffffffff16908060030154908060040160009054906101000a900473ffffffffffffffffffffffffffffffffffffffff16908060050154908060060154905087565b600e5481565b600073ffffffffffffffffffffffffffffffffffffffff168273ffffffffffffffffffffffffffffffffffffffff161415610bbe57600080fd5b8173ffffffffffffffffffffffffffffffffffffffff166323b872dd3330846040518463ffffffff1660e01b8152600401808473ffffffffffffffffffffffffffffffffffffffff1673ffffffffffffffffffffffffffffffffffffffff1681526020018373ffffffffffffffffffffffffffffffffffffffff1673ffffffffffffffffffffffffffffffffffffffff1681526020018281526020019350505050602060405180830381600087803b158015610c7957600080fd5b505af1158015610c8d573d6000803e3d6000fd5b505050506040513d6020811015610ca357600080fd5b8101908080519060200190929190505050610cbd57600080fd5b610d4c81600160008573ffffffffffffffffffffffffffffffffffffffff1673ffffffffffffffffffffffffffffffffffffffff16815260200190815260200160002060003373ffffffffffffffffffffffffffffffffffffffff1673ffffffffffffffffffffffffffffffffffffffff168152602001908152602001600020546125c890919063ffffffff16565b600160008473ffffffffffffffffffffffffffffffffffffffff1673ffffffffffffffffffffffffffffffffffffffff16815260200190815260200160002060003373ffffffffffffffffffffffffffffffffffffffff1673ffffffffffffffffffffffffffffffffffffffff168152602001908152602001600020819055507fdcbc1c05240f31ff3ad067ef1ee35ce4997762752e3a095284754544f4c709d7823383600160008773ffffffffffffffffffffffffffffffffffffffff1673ffffffffffffffffffffffffffffffffffffffff16815260200190815260200160002060003373ffffffffffffffffffffffffffffffffffffffff1673ffffffffffffffffffffffffffffffffffffffff16815260200190815260200160002054604051808573ffffffffffffffffffffffffffffffffffffffff1673ffffffffffffffffffffffffffffffffffffffff1681526020018473ffffffffffffffffffffffffffffffffffffffff1673ffffffffffffffffffffffffffffffffffffffff16815260200183815260200182815260200194505050505060405180910390a15050565b80600160008073ffffffffffffffffffffffffffffffffffffffff1673ffffffffffffffffffffffffffffffffffffffff16815260200190815260200160002060003373ffffffffffffffffffffffffffffffffffffffff1673ffffffffffffffffffffffffffffffffffffffff168152602001908152602001600020541015610f7c57600080fd5b61100b81600160008073ffffffffffffffffffffffffffffffffffffffff1673ffffffffffffffffffffffffffffffffffffffff16815260200190815260200160002060003373ffffffffffffffffffffffffffffffffffffffff1673ffffffffffffffffffffffffffffffffffffffff168152602001908152602001600020546125e790919063ffffffff16565b600160008073ffffffffffffffffffffffffffffffffffffffff1673ffffffffffffffffffffffffffffffffffffffff16815260200190815260200160002060003373ffffffffffffffffffffffffffffffffffffffff1673ffffffffffffffffffffffffffffffffffffffff168152602001908152602001600020819055503373ffffffffffffffffffffffffffffffffffffffff166108fc829081150290604051600060405180830381858888f193505050501580156110d1573d6000803e3d6000fd5b507ff341246adaac6f497bc2a656f546ab9e182111d630394f0c57c710a59a2cb56760003383600160008073ffffffffffffffffffffffffffffffffffffffff1673ffffffffffffffffffffffffffffffffffffffff16815260200190815260200160002060003373ffffffffffffffffffffffffffffffffffffffff1673ffffffffffffffffffffffffffffffffffffffff16815260200190815260200160002054604051808573ffffffffffffffffffffffffffffffffffffffff1673ffffffffffffffffffffffffffffffffffffffff1681526020018473ffffffffffffffffffffffffffffffffffffffff1673ffffffffffffffffffffffffffffffffffffffff16815260200183815260200182815260200194505050505060405180910390a150565b6000809054906101000a900473ffffffffffffffffffffffffffffffffffffffff1673ffffffffffffffffffffffffffffffffffffffff163373ffffffffffffffffffffffffffffffffffffffff161461125257600080fd5b80600c60006101000a81548173ffffffffffffffffffffffffffffffffffffffff021916908373ffffffffffffffffffffffffffffffffffffffff16021790555050565b600760009054906101000a900473ffffffffffffffffffffffffffffffffffffffff1681565b6000809054906101000a900473ffffffffffffffffffffffffffffffffffffffff1673ffffffffffffffffffffffffffffffffffffffff163373ffffffffffffffffffffffffffffffffffffffff161461131557600080fd5b80600760006101000a81548173ffffffffffffffffffffffffffffffffffffffff021916908373ffffffffffffffffffffffffffffffffffffffff16021790555050565b6001602052816000526040600020602052806000526040600020600091509150505481565b600a60009054906101000a900473ffffffffffffffffffffffffffffffffffffffff1681565b60025481565b600b5481565b600960009054906101000a900473ffffffffffffffffffffffffffffffffffffffff1681565b60066020528060005260406000206000915054906101000a900460ff1681565b6000809054906101000a900473ffffffffffffffffffffffffffffffffffffffff1681565b6114aa34600160008073ffffffffffffffffffffffffffffffffffffffff1673ffffffffffffffffffffffffffffffffffffffff16815260200190815260200160002060003373ffffffffffffffffffffffffffffffffffffffff1673ffffffffffffffffffffffffffffffffffffffff168152602001908152602001600020546125c890919063ffffffff16565b600160008073ffffffffffffffffffffffffffffffffffffffff1673ffffffffffffffffffffffffffffffffffffffff16815260200190815260200160002060003373ffffffffffffffffffffffffffffffffffffffff1673ffffffffffffffffffffffffffffffffffffffff168152602001908152602001600020819055507fdcbc1c05240f31ff3ad067ef1ee35ce4997762752e3a095284754544f4c709d760003334600160008073ffffffffffffffffffffffffffffffffffffffff1673ffffffffffffffffffffffffffffffffffffffff16815260200190815260200160002060003373ffffffffffffffffffffffffffffffffffffffff1673ffffffffffffffffffffffffffffffffffffffff16815260200190815260200160002054604051808573ffffffffffffffffffffffffffffffffffffffff1673ffffffffffffffffffffffffffffffffffffffff1681526020018473ffffffffffffffffffffffffffffffffffffffff1673ffffffffffffffffffffffffffffffffffffffff16815260200183815260200182815260200194505050505060405180910390a1565b60045481565b600073ffffffffffffffffffffffffffffffffffffffff168273ffffffffffffffffffffffffffffffffffffffff16141561169057600080fd5b80600160008473ffffffffffffffffffffffffffffffffffffffff1673ffffffffffffffffffffffffffffffffffffffff16815260200190815260200160002060003373ffffffffffffffffffffffffffffffffffffffff1673ffffffffffffffffffffffffffffffffffffffff16815260200190815260200160002054101561171957600080fd5b6117a881600160008573ffffffffffffffffffffffffffffffffffffffff1673ffffffffffffffffffffffffffffffffffffffff16815260200190815260200160002060003373ffffffffffffffffffffffffffffffffffffffff1673ffffffffffffffffffffffffffffffffffffffff168152602001908152602001600020546125e790919063ffffffff16565b600160008473ffffffffffffffffffffffffffffffffffffffff1673ffffffffffffffffffffffffffffffffffffffff16815260200190815260200160002060003373ffffffffffffffffffffffffffffffffffffffff1673ffffffffffffffffffffffffffffffffffffffff168152602001908152602001600020819055508173ffffffffffffffffffffffffffffffffffffffff1663a9059cbb33836040518363ffffffff1660e01b8152600401808373ffffffffffffffffffffffffffffffffffffffff1673ffffffffffffffffffffffffffffffffffffffff16815260200182815260200192505050602060405180830381600087803b1580156118af57600080fd5b505af11580156118c3573d6000803e3d6000fd5b505050506040513d60208110156118d957600080fd5b81019080805190602001909291905050506118f357600080fd5b7ff341246adaac6f497bc2a656f546ab9e182111d630394f0c57c710a59a2cb567823383600160008773ffffffffffffffffffffffffffffffffffffffff1673ffffffffffffffffffffffffffffffffffffffff16815260200190815260200160002060003373ffffffffffffffffffffffffffffffffffffffff1673ffffffffffffffffffffffffffffffffffffffff16815260200190815260200160002054604051808573ffffffffffffffffffffffffffffffffffffffff1673ffffffffffffffffffffffffffffffffffffffff1681526020018473ffffffffffffffffffffffffffffffffffffffff1673ffffffffffffffffffffffffffffffffffffffff16815260200183815260200182815260200194505050505060405180910390a15050565b600d6020528060005260406000206000915090508060000154908060010160009054906101000a900473ffffffffffffffffffffffffffffffffffffffff16908060020160009054906101000a900473ffffffffffffffffffffffffffffffffffffffff16908060030154908060040154908060050160009054906101000a900473ffffffffffffffffffffffffffffffffffffffff16908060060160009054906101000a900473ffffffffffffffffffffffffffffffffffffffff16908060060160149054906101000a900460ff16905088565b600c60009054906101000a900473ffffffffffffffffffffffffffffffffffffffff1681565b600860009054906101000a900473ffffffffffffffffffffffffffffffffffffffff1681565b60056020528060005260406000206000915054906101000a900460ff1681565b6000809054906101000a900473ffffffffffffffffffffffffffffffffffffffff1673ffffffffffffffffffffffffffffffffffffffff163373ffffffffffffffffffffffffffffffffffffffff1614611bb457600080fd5b81600a60006101000a81548173ffffffffffffffffffffffffffffffffffffffff021916908373ffffffffffffffffffffffffffffffffffffffff16021790555080600b819055505050565b6000809054906101000a900473ffffffffffffffffffffffffffffffffffffffff1673ffffffffffffffffffffffffffffffffffffffff163373ffffffffffffffffffffffffffffffffffffffff1614611c5957600080fd5b60008060009054906101000a900473ffffffffffffffffffffffffffffffffffffffff169050816000806101000a81548173ffffffffffffffffffffffffffffffffffffffff021916908373ffffffffffffffffffffffffffffffffffffffff1602179055507f5c486528ec3e3f0ea91181cff8116f02bfa350e03b8b6f12e00765adbb5af85c816000809054906101000a900473ffffffffffffffffffffffffffffffffffffffff16604051808373ffffffffffffffffffffffffffffffffffffffff1673ffffffffffffffffffffffffffffffffffffffff1681526020018273ffffffffffffffffffffffffffffffffffffffff1673ffffffffffffffffffffffffffffffffffffffff1681526020019250505060405180910390a15050565b6000611d9360016004546125c890919063ffffffff16565b600481905550600073ffffffffffffffffffffffffffffffffffffffff168373ffffffffffffffffffffffffffffffffffffffff161415611dea57611de36002548361260790919063ffffffff16565b9050611e02565b611dff6002548361264190919063ffffffff16565b90505b611e9182600160008673ffffffffffffffffffffffffffffffffffffffff1673ffffffffffffffffffffffffffffffffffffffff16815260200190815260200160002060003373ffffffffffffffffffffffffffffffffffffffff1673ffffffffffffffffffffffffffffffffffffffff168152602001908152602001600020546125e790919063ffffffff16565b600160008573ffffffffffffffffffffffffffffffffffffffff1673ffffffffffffffffffffffffffffffffffffffff16815260200190815260200160002060003373ffffffffffffffffffffffffffffffffffffffff1673ffffffffffffffffffffffffffffffffffffffff16815260200190815260200160002081905550611fc182600160008673ffffffffffffffffffffffffffffffffffffffff1673ffffffffffffffffffffffffffffffffffffffff16815260200190815260200160002060008060009054906101000a900473ffffffffffffffffffffffffffffffffffffffff1673ffffffffffffffffffffffffffffffffffffffff1673ffffffffffffffffffffffffffffffffffffffff168152602001908152602001600020546125c890919063ffffffff16565b600160008573ffffffffffffffffffffffffffffffffffffffff1673ffffffffffffffffffffffffffffffffffffffff16815260200190815260200160002060008060009054906101000a900473ffffffffffffffffffffffffffffffffffffffff1673ffffffffffffffffffffffffffffffffffffffff1673ffffffffffffffffffffffffffffffffffffffff1681526020019081526020016000208190555061211281600160008773ffffffffffffffffffffffffffffffffffffffff1673ffffffffffffffffffffffffffffffffffffffff16815260200190815260200160002060008060009054906101000a900473ffffffffffffffffffffffffffffffffffffffff1673ffffffffffffffffffffffffffffffffffffffff1673ffffffffffffffffffffffffffffffffffffffff168152602001908152602001600020546125e790919063ffffffff16565b600160008673ffffffffffffffffffffffffffffffffffffffff1673ffffffffffffffffffffffffffffffffffffffff16815260200190815260200160002060008060009054906101000a900473ffffffffffffffffffffffffffffffffffffffff1673ffffffffffffffffffffffffffffffffffffffff1673ffffffffffffffffffffffffffffffffffffffff1681526020019081526020016000208190555061224281600160008773ffffffffffffffffffffffffffffffffffffffff1673ffffffffffffffffffffffffffffffffffffffff16815260200190815260200160002060003373ffffffffffffffffffffffffffffffffffffffff1673ffffffffffffffffffffffffffffffffffffffff168152602001908152602001600020546125c890919063ffffffff16565b600160008673ffffffffffffffffffffffffffffffffffffffff1673ffffffffffffffffffffffffffffffffffffffff16815260200190815260200160002060003373ffffffffffffffffffffffffffffffffffffffff1673ffffffffffffffffffffffffffffffffffffffff168152602001908152602001600020819055506040518060e0016040528060045481526020013373ffffffffffffffffffffffffffffffffffffffff1681526020018573ffffffffffffffffffffffffffffffffffffffff1681526020018281526020018473ffffffffffffffffffffffffffffffffffffffff168152602001838152602001428152506003600060045481526020019081526020016000206000820151816000015560208201518160010160006101000a81548173ffffffffffffffffffffffffffffffffffffffff021916908373ffffffffffffffffffffffffffffffffffffffff16021790555060408201518160020160006101000a81548173ffffffffffffffffffffffffffffffffffffffff021916908373ffffffffffffffffffffffffffffffffffffffff1602179055506060820151816003015560808201518160040160006101000a81548173ffffffffffffffffffffffffffffffffffffffff021916908373ffffffffffffffffffffffffffffffffffffffff16021790555060a0820151816005015560c082015181600601559050507f302638cc9cfca424bf992c041c065f3ce84c21dff3170774769f47d6eeedd6be600454338684878742604051808881526020018773ffffffffffffffffffffffffffffffffffffffff1673ffffffffffffffffffffffffffffffffffffffff1681526020018673ffffffffffffffffffffffffffffffffffffffff1673ffffffffffffffffffffffffffffffffffffffff1681526020018581526020018473ffffffffffffffffffffffffffffffffffffffff1673ffffffffffffffffffffffffffffffffffffffff16815260200183815260200182815260200197505050505050505060405180910390a150505050565b6000600160008473ffffffffffffffffffffffffffffffffffffffff1673ffffffffffffffffffffffffffffffffffffffff16815260200190815260200160002060008373ffffffffffffffffffffffffffffffffffffffff1673ffffffffffffffffffffffffffffffffffffffff16815260200190815260200160002054905092915050565b6000808284019050838110156125dd57600080fd5b8091505092915050565b6000828211156125f657600080fd5b600082840390508091505092915050565b60008083141561261a576000905061263b565b600082840290508284828161262b57fe5b041461263657600080fd5b809150505b92915050565b600080821161264f57600080fd5b600082848161265a57fe5b049050809150509291505056fea265627a7a72315820854891d56f945348de479635defd3c594eda276df9d457403c986adf621d022764736f6c63430005100032",
  "source": "pragma solidity ^0.5.0;\n\nimport \"openzeppelin-solidity/contracts/math/SafeMath.sol\";\nimport \"./BokkyPooBahsDateTimeContract.sol\";\nimport \"./usingOraclize.sol\";\n\nimport \"./Owned.sol\";\nimport \"./Token.sol\";\nimport \"./Exchange.sol\";\n\nimport \"./Members.sol\";\nimport \"./Merchants.sol\";\n\nimport \"./Installment.sol\";\nimport \"./Package.sol\";\n\ncontract Bnpl is Exchange {\n  using SafeMath for uint;\n\n  //reference datecontract\n  BokkyPooBahsDateTimeContract public dateTime;\n\n  Members public members;\n  Merchants public merchants;\n\n\n  // Variables\n  address public feeAccount;\n  uint public feePercent; // the fee percentage\n\n  address public payee;\n\n  mapping(uint => _Order) public orders;\n  uint public orderCount;\n\n  //mapping(uint => bool) public orderCancelled;\n  //mapping(uint => bool) public orderFilled;\n\n  //STATUSES public status;\n\n  enum ORDERSTATS {\n      CREATED,    // installment \n      LOADED,     // package \n      DONE,       //  bnpl  \n      CANCELLED   // bnpl  \n  }\n\n  event Fill(\n      uint    id,\n      address buyer,\n      address seller,\n      address tokenkind,\n      uint    totalPrice,\n      uint    initcost,\n      uint    installmentPeriod,\n      uint    timestamp\n  );\n  event Order(\n      uint    id,\n      address buyer,\n      address seller,\n      address tokenkind,\n      uint    totalPrice,\n      uint    initcost,\n      uint    installmentPeriod,\n      uint    timestamp\n  );\n  event Cancel(\n      uint    id,\n      address buyer,\n      address seller,\n      address tokenkind,\n      uint    totalPrice,\n      uint    initcost,\n      uint    installmentPeriod,\n      uint    timestamp\n  );\n  event Trade(\n      uint    id,\n      address buyer,\n      address seller,\n      address tokenkind,\n      uint    totalPrice,\n      uint    initcost,\n      uint    installmentPeriod,\n      uint    timestamp\n\n  );\n\n  event BlackListed(address indexed target);\n  event DeleteFromBlacklist(address indexed target);\n\n\n  // Structs\n  // struct _Order {\n  //     uint    id;\n  //     address buyer;\n  //     address seller;\n  //     uint    productNum;\n  //     uint    qty;\n\n  //     address token;\n  //     uint    totalPrice;\n  //     uint    initcost;\n  //     uint    installmentPeriod;\n  //     uint    timestamp;\n  //     STATUSES  status;\n  // }\n\n  struct _Order {\n    uint        id;\n    address     buyer;\n    address     seller;\n    uint        productNum;\n    uint        qty;\n    Installment installmentCon;\n    Package     packageCon;\n    ORDERSTATS  status;\n  } \n\n  constructor (address _members, address _merchants) Exchange(msg.sender) public {\n    \n    members = Members(_members);\n    merchants = Merchants(_merchants);\n  }\n\n  function setFee(address _feeAccount, uint _feePercent) public onlyOwner {\n    feeAccount = _feeAccount;\n    feePercent = _feePercent;\n  }\n\n  function setPayee(address _payee) public onlyOwner {\n    payee = _payee; \n  }\n\n  // function setMerchants(address _merchants) public onlyOwner {\n  //   merchants = Merchants(_merchants);\n  // }\n\n  // function setMembers(address _members) public onlyOwner {\n  //   members = Members(_members);\n  // }\n\n  function setDatetime(address _dateTime) public onlyOwner {\n    dateTime = BokkyPooBahsDateTimeContract(_dateTime);\n  }\n\n}\n\n\t// function makeBnplOrder\n //  (\n //    address _seller,\n //    uint    _prodNum,\n //    uint    _qty,\n //    address _token,\n //    uint    _initcost\n //  ) public {\n //    //     .\n //    //require(members.isBlacklist(msg.sender) == false);\n\n //    require(merchants.isAuth(_seller) == true);\n\n //    // initcost   .\n //    require(_initcost <= tokens[_token][msg.sender]);\n\n //    // installment period  member  \n //    require(members.memberInfos[msg.sender].rank);\n\n //    //  init  .\n //    tokens[_token][msg.sender] = tokens[_token][msg.sender].add(_initcost);\n //    tokens[_token][payee] = tokens[_token][payee].add(_initcost);\n\n //    string memory _name;\n //    string memory _serial;\n //    uint _prodPrice;\n //    uint _totalPrice;\n\n //    (_name, _serial, _prodPrice) = merchants.getProduct(_seller, _prodNum);\n //    _totalPrice = _prodPrice.mul(_qty);\n\n //    orderCount = orderCount.add(1);\n\n //    // struct _Order {\n //    //   uint    id;\n //    //   address buyer;\n //    //   address seller;\n //    //   uint    productNum;\n //    //   uint    qty;\n //    //   address token;\n //    //   uint    initcost;\n //    //   uint    initimestamp;\n //    //   STATUSES  status;\n //    // } \n\n //    orders[orderCount] = _Order(orderCount, msg.sender, _seller, _prodNum, _qty, _token, _totalPrice, _initcost, now, STATUSES.CREATED);\n //    emit Order(orderCount, msg.sender, _seller, _token, _totalPrice, _initcost, now);\n\t// }\n\n //  function makePackage(uint id) public {\n //    //  id  \n //    _Order storage _order  = orders[id];\n\n //    //    \n\n //    //     \n\n //    string memory _name = 'channel';\n //    string memory _trackNum = 'no5';\n\n //    packages[id] = new Package(_name, _trackNum);\n //  }\n\n //  // // check it should be refunded\n //  function isPackageFilled(uint id) public onlyOwner view returns(bool) {\n //    //  id  \n //    _Order storage _order  = orders[id];\n\n\n //  }\n\n //  function makeInstallmentPlan(\n //      address _buyer, \n //      uint256 _remainCost, \n //      uint8 _remainCnt,\n //      uint256 _paybackCost\n //  ) public onlyOwner {\n //      //      .\n //      require(members.memberInstallments[_buyer].remainCost > 0);\n\n //      // memberInstallments[_buyer].remainCost = _remainCost;\n //      // memberInstallments[_buyer].remainPeriod = _remainPeriod;\n //      // memberInstallments[_buyer].paybackCost = _paybackCost;\n\n //      members.memberInstallments[_buyer] = Installment({\n //          remainCost : _remainCost,     //    \n //          remainCnt : _remainCnt,       //    \n //          paybackCost : _paybackCost,   // 4  \n //          nextDeadline : dateTime.addMonths(now, 1), //    \n //          isLate : false                // \n //      });\n\n //  }\n\n\n\n\n  // if is not refunded\n  // function\n\n\t// function cancelBnplOrder(uint _id) public {\n\t// \t_Order storage _order = orders[_id];\n //        require(address(_order.buyer) == msg.sender || address(_order.seller) == msg.sender );\n //        require(_order.id == _id); // The order must exist\n\n //        // if(_order.status == CREATED){\n //        //     //\n //        // }else if(_order.status == PROCESSING){\n //        //     //\n //        // }else { // DONE, CANCELLED\n //        //     //\n //        // }\n\n //        _order.status = STATUSES.CANCELLED;\n //        //orderCancelled[_id] = true;\n //        emit Cancel(_order.id, _order.buyer, _order.seller, _order.token, _order.totalPrice, _order.initcost, _order.installmentPeriod, now);\n\t// }\n\n\n\n\n\t// function fillBnplOrder(uint _id) public onlyOwner {\n //        require(_id > 0 && _id <= orderCount, 'Error, wrong id');\n //        //require(!orderFilled[_id], 'Error, order already filled');\n //        //require(!orderCancelled[_id], 'Error, order already cancelled');\n\n\n //        //require(address(_order.seller) == msg.sender, \"wrong caller\" );\n //        _Order storage _order = orders[_id];\n        \n //        require(_order.status == STATUSES.CREATED);\n\n //        _bnplTrade(_order.id, _order.buyer, _order.seller, _order.token, _order.totalPrice, _order.initcost, _order.installmentPeriod, now);\n //        _order.status = STATUSES.PROCESSING;\n\n //        emit Fill(_order.id, _order.buyer, _order.seller, _order.token, _order.totalPrice, _order.initcost, _order.installmentPeriod, now);\n\t// }\n\n\t// function _bnplTrade\n //    (   \n //        uint _id, \n //        address _buyer, \n //        address _seller, \n //        address _token, \n //        uint _totalPrice,  \n //        uint _initcost, \n //        uint   _installmentPeriod, \n //        uint timestamp\n //    ) internal {\n\t// \tuint _feeAmount = _totalPrice.mul(feePercent).div(100);\n //        //uint _ratio = exchangeAddr.ratio();\n        \n //        //1 way\t\t\n\t// \ttokens[_token][_buyer] = tokens[_token][_buyer].sub(_initcost);\n //        tokens[_token][feeAccount] = tokens[_token][feeAccount].add(_initcost);\n\n //        //2 way\n\t// \ttokens[_token][_seller] = tokens[_token][_seller].add(_totalPrice.sub(_feeAmount));\n\n\t// \t//3 way\n\t// \t// _seller give product to client\n        \n\n\t// }\n\n    \n    // \n    // if (now > 30 day)    ->   ->  ->       .\n    // block 1 -> block 2 -> block 3 timestamp 1  -> \n\n\n\n    // function blackListing(address _addr) public onlyOwner {\n    //     blackLists[_addr] = 1;\n    //     emit BlackListed(_addr);\n    // }\n\n\n\n    // function cancelOrder(uint _id) public {\n    //     _Order storage _order = orders[_id];\n    //     require(address(_order.user) == msg.sender);\n    //     require(_order.id == _id); // The order must exist\n    //     orderCancelled[_id] = true;\n    //     emit Cancel(_order.id, msg.sender, _order.tokenGet, _order.amountGet, _order.tokenGive, _order.amountGive, now);\n    // }\n\n    // function fillOrder(uint _id) public {\n    //     require(_id > 0 && _id <= orderCount, 'Error, wrong id');\n    //     require(!orderFilled[_id], 'Error, order already filled');\n    //     require(!orderCancelled[_id], 'Error, order already cancelled');\n    //     _Order storage _order = orders[_id];\n    //     _trade(_order.id, _order.user, _order.tokenGet, _order.amountGet, _order.tokenGive, _order.amountGive);\n    //     orderFilled[_order.id] = true;\n    // }\n\n    // function _trade(uint _orderId, address _user, address _tokenGet, uint _amountGet, address _tokenGive, uint _amountGive) internal {\n    //     // Fee paid by the user that fills the order, a.k.a. msg.sender.\n    //     uint _feeAmount = _amountGet.mul(feePercent).div(100);\n\n    //     tokens[_tokenGet][msg.sender] = tokens[_tokenGet][msg.sender].sub(_amountGet.add(_feeAmount));\n    //     tokens[_tokenGet][_user] = tokens[_tokenGet][_user].add(_amountGet);\n    //     tokens[_tokenGet][feeAccount] = tokens[_tokenGet][feeAccount].add(_feeAmount);\n    //     tokens[_tokenGive][_user] = tokens[_tokenGive][_user].sub(_amountGive);\n    //     tokens[_tokenGive][msg.sender] = tokens[_tokenGive][msg.sender].add(_amountGive);\n\n    //     emit Trade(_orderId, _user, _tokenGet, _amountGet, _tokenGive, _amountGive, msg.sender, now);\n    // }\n\n",
  "sourcePath": "/Users/mg/bnpl-dapp/src/contracts/Bnpl.sol",
  "compiler": {
    "name": "solc",
    "version": "0.5.16+commit.9c3226ce.Emscripten.clang"
  },
  "schemaVersion": "3.3.4",
  "updatedAt": "2021-06-20T04:36:53.707Z",
  "devdoc": {
    "methods": {}
  },
  "userdoc": {
    "methods": {}
  }
}