{
  "contractName": "Bnpl",
  "abi": [
    {
      "inputs": [],
      "payable": false,
      "stateMutability": "nonpayable",
      "type": "constructor"
    },
    {
      "anonymous": false,
      "inputs": [
        {
          "indexed": true,
          "internalType": "address",
          "name": "target",
          "type": "address"
        }
      ],
      "name": "BlackListed",
      "type": "event"
    },
    {
      "anonymous": false,
      "inputs": [
        {
          "indexed": false,
          "internalType": "uint256",
          "name": "id",
          "type": "uint256"
        },
        {
          "indexed": false,
          "internalType": "address",
          "name": "buyer",
          "type": "address"
        },
        {
          "indexed": false,
          "internalType": "address",
          "name": "seller",
          "type": "address"
        },
        {
          "indexed": false,
          "internalType": "address",
          "name": "tokenkind",
          "type": "address"
        },
        {
          "indexed": false,
          "internalType": "uint256",
          "name": "totalPrice",
          "type": "uint256"
        },
        {
          "indexed": false,
          "internalType": "uint256",
          "name": "initcost",
          "type": "uint256"
        },
        {
          "indexed": false,
          "internalType": "uint256",
          "name": "installmentPeriod",
          "type": "uint256"
        },
        {
          "indexed": false,
          "internalType": "uint256",
          "name": "timestamp",
          "type": "uint256"
        }
      ],
      "name": "Cancel",
      "type": "event"
    },
    {
      "anonymous": false,
      "inputs": [
        {
          "indexed": true,
          "internalType": "address",
          "name": "target",
          "type": "address"
        }
      ],
      "name": "DeleteFromBlacklist",
      "type": "event"
    },
    {
      "anonymous": false,
      "inputs": [
        {
          "indexed": false,
          "internalType": "address",
          "name": "token",
          "type": "address"
        },
        {
          "indexed": false,
          "internalType": "address",
          "name": "user",
          "type": "address"
        },
        {
          "indexed": false,
          "internalType": "uint256",
          "name": "amount",
          "type": "uint256"
        },
        {
          "indexed": false,
          "internalType": "uint256",
          "name": "balance",
          "type": "uint256"
        }
      ],
      "name": "Deposit",
      "type": "event"
    },
    {
      "anonymous": false,
      "inputs": [
        {
          "indexed": false,
          "internalType": "uint256",
          "name": "id",
          "type": "uint256"
        },
        {
          "indexed": false,
          "internalType": "address",
          "name": "buyer",
          "type": "address"
        },
        {
          "indexed": false,
          "internalType": "address",
          "name": "seller",
          "type": "address"
        },
        {
          "indexed": false,
          "internalType": "address",
          "name": "tokenkind",
          "type": "address"
        },
        {
          "indexed": false,
          "internalType": "uint256",
          "name": "totalPrice",
          "type": "uint256"
        },
        {
          "indexed": false,
          "internalType": "uint256",
          "name": "initcost",
          "type": "uint256"
        },
        {
          "indexed": false,
          "internalType": "uint256",
          "name": "installmentPeriod",
          "type": "uint256"
        },
        {
          "indexed": false,
          "internalType": "uint256",
          "name": "timestamp",
          "type": "uint256"
        }
      ],
      "name": "Fill",
      "type": "event"
    },
    {
      "anonymous": false,
      "inputs": [
        {
          "indexed": false,
          "internalType": "uint256",
          "name": "id",
          "type": "uint256"
        },
        {
          "indexed": false,
          "internalType": "address",
          "name": "buyer",
          "type": "address"
        },
        {
          "indexed": false,
          "internalType": "address",
          "name": "seller",
          "type": "address"
        },
        {
          "indexed": false,
          "internalType": "address",
          "name": "tokenkind",
          "type": "address"
        },
        {
          "indexed": false,
          "internalType": "uint256",
          "name": "totalPrice",
          "type": "uint256"
        },
        {
          "indexed": false,
          "internalType": "uint256",
          "name": "installmentPeriod",
          "type": "uint256"
        },
        {
          "indexed": false,
          "internalType": "uint256",
          "name": "timestamp",
          "type": "uint256"
        }
      ],
      "name": "Order",
      "type": "event"
    },
    {
      "anonymous": false,
      "inputs": [
        {
          "indexed": false,
          "internalType": "uint256",
          "name": "id",
          "type": "uint256"
        },
        {
          "indexed": false,
          "internalType": "address",
          "name": "buyer",
          "type": "address"
        },
        {
          "indexed": false,
          "internalType": "address",
          "name": "seller",
          "type": "address"
        },
        {
          "indexed": false,
          "internalType": "address",
          "name": "tokenkind",
          "type": "address"
        },
        {
          "indexed": false,
          "internalType": "uint256",
          "name": "totalPrice",
          "type": "uint256"
        },
        {
          "indexed": false,
          "internalType": "uint256",
          "name": "initcost",
          "type": "uint256"
        },
        {
          "indexed": false,
          "internalType": "uint256",
          "name": "installmentPeriod",
          "type": "uint256"
        },
        {
          "indexed": false,
          "internalType": "uint256",
          "name": "timestamp",
          "type": "uint256"
        }
      ],
      "name": "Trade",
      "type": "event"
    },
    {
      "anonymous": false,
      "inputs": [
        {
          "indexed": false,
          "internalType": "address",
          "name": "beforeAddress",
          "type": "address"
        },
        {
          "indexed": false,
          "internalType": "address",
          "name": "afterAddress",
          "type": "address"
        }
      ],
      "name": "TransferOwnership",
      "type": "event"
    },
    {
      "anonymous": false,
      "inputs": [
        {
          "indexed": false,
          "internalType": "address",
          "name": "token",
          "type": "address"
        },
        {
          "indexed": false,
          "internalType": "address",
          "name": "user",
          "type": "address"
        },
        {
          "indexed": false,
          "internalType": "uint256",
          "name": "amount",
          "type": "uint256"
        },
        {
          "indexed": false,
          "internalType": "uint256",
          "name": "balance",
          "type": "uint256"
        }
      ],
      "name": "Withdraw",
      "type": "event"
    },
    {
      "anonymous": false,
      "inputs": [
        {
          "indexed": false,
          "internalType": "uint256",
          "name": "id",
          "type": "uint256"
        },
        {
          "indexed": false,
          "internalType": "address",
          "name": "user",
          "type": "address"
        },
        {
          "indexed": false,
          "internalType": "address",
          "name": "tokenGet",
          "type": "address"
        },
        {
          "indexed": false,
          "internalType": "uint256",
          "name": "amountGet",
          "type": "uint256"
        },
        {
          "indexed": false,
          "internalType": "address",
          "name": "tokenGive",
          "type": "address"
        },
        {
          "indexed": false,
          "internalType": "uint256",
          "name": "amountGive",
          "type": "uint256"
        },
        {
          "indexed": false,
          "internalType": "uint256",
          "name": "timestamp",
          "type": "uint256"
        }
      ],
      "name": "exCancel",
      "type": "event"
    },
    {
      "anonymous": false,
      "inputs": [
        {
          "indexed": false,
          "internalType": "uint256",
          "name": "id",
          "type": "uint256"
        },
        {
          "indexed": false,
          "internalType": "address",
          "name": "user",
          "type": "address"
        },
        {
          "indexed": false,
          "internalType": "address",
          "name": "tokenGet",
          "type": "address"
        },
        {
          "indexed": false,
          "internalType": "uint256",
          "name": "amountGet",
          "type": "uint256"
        },
        {
          "indexed": false,
          "internalType": "address",
          "name": "tokenGive",
          "type": "address"
        },
        {
          "indexed": false,
          "internalType": "uint256",
          "name": "amountGive",
          "type": "uint256"
        },
        {
          "indexed": false,
          "internalType": "uint256",
          "name": "timestamp",
          "type": "uint256"
        }
      ],
      "name": "exOrder",
      "type": "event"
    },
    {
      "payable": false,
      "stateMutability": "nonpayable",
      "type": "fallback"
    },
    {
      "constant": true,
      "inputs": [
        {
          "internalType": "address",
          "name": "_token",
          "type": "address"
        },
        {
          "internalType": "address",
          "name": "_user",
          "type": "address"
        }
      ],
      "name": "balanceOf",
      "outputs": [
        {
          "internalType": "uint256",
          "name": "",
          "type": "uint256"
        }
      ],
      "payable": false,
      "stateMutability": "view",
      "type": "function"
    },
    {
      "constant": true,
      "inputs": [],
      "name": "dateTime",
      "outputs": [
        {
          "internalType": "contract BokkyPooBahsDateTimeContract",
          "name": "",
          "type": "address"
        }
      ],
      "payable": false,
      "stateMutability": "view",
      "type": "function"
    },
    {
      "constant": false,
      "inputs": [],
      "name": "depositEther",
      "outputs": [],
      "payable": true,
      "stateMutability": "payable",
      "type": "function"
    },
    {
      "constant": false,
      "inputs": [
        {
          "internalType": "address",
          "name": "_token",
          "type": "address"
        },
        {
          "internalType": "uint256",
          "name": "_amount",
          "type": "uint256"
        }
      ],
      "name": "depositToken",
      "outputs": [],
      "payable": false,
      "stateMutability": "nonpayable",
      "type": "function"
    },
    {
      "constant": true,
      "inputs": [
        {
          "internalType": "uint256",
          "name": "",
          "type": "uint256"
        }
      ],
      "name": "exOrderCancelled",
      "outputs": [
        {
          "internalType": "bool",
          "name": "",
          "type": "bool"
        }
      ],
      "payable": false,
      "stateMutability": "view",
      "type": "function"
    },
    {
      "constant": true,
      "inputs": [],
      "name": "exOrderCount",
      "outputs": [
        {
          "internalType": "uint256",
          "name": "",
          "type": "uint256"
        }
      ],
      "payable": false,
      "stateMutability": "view",
      "type": "function"
    },
    {
      "constant": true,
      "inputs": [
        {
          "internalType": "uint256",
          "name": "",
          "type": "uint256"
        }
      ],
      "name": "exOrderFilled",
      "outputs": [
        {
          "internalType": "bool",
          "name": "",
          "type": "bool"
        }
      ],
      "payable": false,
      "stateMutability": "view",
      "type": "function"
    },
    {
      "constant": true,
      "inputs": [
        {
          "internalType": "uint256",
          "name": "",
          "type": "uint256"
        }
      ],
      "name": "exOrders",
      "outputs": [
        {
          "internalType": "uint256",
          "name": "id",
          "type": "uint256"
        },
        {
          "internalType": "address",
          "name": "user",
          "type": "address"
        },
        {
          "internalType": "address",
          "name": "tokenGet",
          "type": "address"
        },
        {
          "internalType": "uint256",
          "name": "amountGet",
          "type": "uint256"
        },
        {
          "internalType": "address",
          "name": "tokenGive",
          "type": "address"
        },
        {
          "internalType": "uint256",
          "name": "amountGive",
          "type": "uint256"
        },
        {
          "internalType": "uint256",
          "name": "timestamp",
          "type": "uint256"
        }
      ],
      "payable": false,
      "stateMutability": "view",
      "type": "function"
    },
    {
      "constant": true,
      "inputs": [],
      "name": "feeAccount",
      "outputs": [
        {
          "internalType": "address",
          "name": "",
          "type": "address"
        }
      ],
      "payable": false,
      "stateMutability": "view",
      "type": "function"
    },
    {
      "constant": true,
      "inputs": [],
      "name": "feePercent",
      "outputs": [
        {
          "internalType": "uint256",
          "name": "",
          "type": "uint256"
        }
      ],
      "payable": false,
      "stateMutability": "view",
      "type": "function"
    },
    {
      "constant": false,
      "inputs": [
        {
          "internalType": "address",
          "name": "_tokenGet",
          "type": "address"
        },
        {
          "internalType": "address",
          "name": "_tokenGive",
          "type": "address"
        },
        {
          "internalType": "uint256",
          "name": "_amountGive",
          "type": "uint256"
        }
      ],
      "name": "makeExchange",
      "outputs": [],
      "payable": false,
      "stateMutability": "nonpayable",
      "type": "function"
    },
    {
      "constant": true,
      "inputs": [],
      "name": "members",
      "outputs": [
        {
          "internalType": "contract Members",
          "name": "",
          "type": "address"
        }
      ],
      "payable": false,
      "stateMutability": "view",
      "type": "function"
    },
    {
      "constant": true,
      "inputs": [],
      "name": "merchants",
      "outputs": [
        {
          "internalType": "contract Merchants",
          "name": "",
          "type": "address"
        }
      ],
      "payable": false,
      "stateMutability": "view",
      "type": "function"
    },
    {
      "constant": true,
      "inputs": [],
      "name": "orderCount",
      "outputs": [
        {
          "internalType": "uint256",
          "name": "",
          "type": "uint256"
        }
      ],
      "payable": false,
      "stateMutability": "view",
      "type": "function"
    },
    {
      "constant": true,
      "inputs": [
        {
          "internalType": "uint256",
          "name": "",
          "type": "uint256"
        }
      ],
      "name": "orders",
      "outputs": [
        {
          "internalType": "uint256",
          "name": "id",
          "type": "uint256"
        },
        {
          "internalType": "address",
          "name": "buyer",
          "type": "address"
        },
        {
          "internalType": "address",
          "name": "seller",
          "type": "address"
        },
        {
          "internalType": "uint256",
          "name": "productNum",
          "type": "uint256"
        },
        {
          "internalType": "uint256",
          "name": "qty",
          "type": "uint256"
        },
        {
          "internalType": "contract Installment",
          "name": "installmentCon",
          "type": "address"
        },
        {
          "internalType": "contract Package",
          "name": "packageCon",
          "type": "address"
        },
        {
          "internalType": "enum Bnpl.ORDERSTATS",
          "name": "orderStat",
          "type": "uint8"
        },
        {
          "internalType": "uint256",
          "name": "timestamp",
          "type": "uint256"
        }
      ],
      "payable": false,
      "stateMutability": "view",
      "type": "function"
    },
    {
      "constant": true,
      "inputs": [],
      "name": "owner",
      "outputs": [
        {
          "internalType": "address",
          "name": "",
          "type": "address"
        }
      ],
      "payable": false,
      "stateMutability": "view",
      "type": "function"
    },
    {
      "constant": true,
      "inputs": [],
      "name": "payee",
      "outputs": [
        {
          "internalType": "address",
          "name": "",
          "type": "address"
        }
      ],
      "payable": false,
      "stateMutability": "view",
      "type": "function"
    },
    {
      "constant": true,
      "inputs": [],
      "name": "ratio",
      "outputs": [
        {
          "internalType": "uint256",
          "name": "",
          "type": "uint256"
        }
      ],
      "payable": false,
      "stateMutability": "view",
      "type": "function"
    },
    {
      "constant": true,
      "inputs": [
        {
          "internalType": "address",
          "name": "",
          "type": "address"
        },
        {
          "internalType": "address",
          "name": "",
          "type": "address"
        }
      ],
      "name": "tokens",
      "outputs": [
        {
          "internalType": "uint256",
          "name": "",
          "type": "uint256"
        }
      ],
      "payable": false,
      "stateMutability": "view",
      "type": "function"
    },
    {
      "constant": false,
      "inputs": [
        {
          "internalType": "address",
          "name": "_new",
          "type": "address"
        }
      ],
      "name": "transferOwnership",
      "outputs": [],
      "payable": false,
      "stateMutability": "nonpayable",
      "type": "function"
    },
    {
      "constant": false,
      "inputs": [
        {
          "internalType": "uint256",
          "name": "_amount",
          "type": "uint256"
        }
      ],
      "name": "withdrawEther",
      "outputs": [],
      "payable": false,
      "stateMutability": "nonpayable",
      "type": "function"
    },
    {
      "constant": false,
      "inputs": [
        {
          "internalType": "address",
          "name": "_token",
          "type": "address"
        },
        {
          "internalType": "uint256",
          "name": "_amount",
          "type": "uint256"
        }
      ],
      "name": "withdrawToken",
      "outputs": [],
      "payable": false,
      "stateMutability": "nonpayable",
      "type": "function"
    },
    {
      "constant": false,
      "inputs": [
        {
          "internalType": "address",
          "name": "_feeAccount",
          "type": "address"
        },
        {
          "internalType": "uint256",
          "name": "_feePercent",
          "type": "uint256"
        }
      ],
      "name": "setFee",
      "outputs": [],
      "payable": false,
      "stateMutability": "nonpayable",
      "type": "function"
    },
    {
      "constant": false,
      "inputs": [
        {
          "internalType": "address",
          "name": "_payee",
          "type": "address"
        }
      ],
      "name": "setPayee",
      "outputs": [],
      "payable": false,
      "stateMutability": "nonpayable",
      "type": "function"
    },
    {
      "constant": false,
      "inputs": [
        {
          "internalType": "address",
          "name": "_dateTime",
          "type": "address"
        }
      ],
      "name": "setDatetime",
      "outputs": [],
      "payable": false,
      "stateMutability": "nonpayable",
      "type": "function"
    },
    {
      "constant": false,
      "inputs": [
        {
          "internalType": "address",
          "name": "_members",
          "type": "address"
        }
      ],
      "name": "setMembers",
      "outputs": [],
      "payable": false,
      "stateMutability": "nonpayable",
      "type": "function"
    },
    {
      "constant": false,
      "inputs": [
        {
          "internalType": "address",
          "name": "_merchants",
          "type": "address"
        }
      ],
      "name": "setMerchants",
      "outputs": [],
      "payable": false,
      "stateMutability": "nonpayable",
      "type": "function"
    },
    {
      "constant": false,
      "inputs": [
        {
          "internalType": "address",
          "name": "_member",
          "type": "address"
        }
      ],
      "name": "registerMember",
      "outputs": [],
      "payable": false,
      "stateMutability": "nonpayable",
      "type": "function"
    },
    {
      "constant": false,
      "inputs": [
        {
          "internalType": "address",
          "name": "_seller",
          "type": "address"
        },
        {
          "internalType": "uint256",
          "name": "_prodNum",
          "type": "uint256"
        },
        {
          "internalType": "uint256",
          "name": "_qty",
          "type": "uint256"
        },
        {
          "internalType": "address",
          "name": "_token",
          "type": "address"
        },
        {
          "internalType": "uint256",
          "name": "_initCost",
          "type": "uint256"
        }
      ],
      "name": "makeBnplOrder",
      "outputs": [],
      "payable": false,
      "stateMutability": "nonpayable",
      "type": "function"
    },
    {
      "constant": false,
      "inputs": [
        {
          "internalType": "uint256",
          "name": "_initCost",
          "type": "uint256"
        },
        {
          "internalType": "uint256",
          "name": "_totalPrice",
          "type": "uint256"
        },
        {
          "internalType": "uint256",
          "name": "_installmentCnt",
          "type": "uint256"
        },
        {
          "internalType": "uint256",
          "name": "_nextTimestamp",
          "type": "uint256"
        }
      ],
      "name": "makeInstallmentCon",
      "outputs": [
        {
          "internalType": "contract Installment",
          "name": "",
          "type": "address"
        }
      ],
      "payable": false,
      "stateMutability": "nonpayable",
      "type": "function"
    },
    {
      "constant": false,
      "inputs": [
        {
          "internalType": "string",
          "name": "_name",
          "type": "string"
        },
        {
          "internalType": "uint256",
          "name": "_trackingNum",
          "type": "uint256"
        }
      ],
      "name": "makePackageCon",
      "outputs": [
        {
          "internalType": "contract Package",
          "name": "",
          "type": "address"
        }
      ],
      "payable": false,
      "stateMutability": "nonpayable",
      "type": "function"
    },
    {
      "constant": false,
      "inputs": [
        {
          "internalType": "uint256",
          "name": "_id",
          "type": "uint256"
        },
        {
          "internalType": "string",
          "name": "_name",
          "type": "string"
        },
        {
          "internalType": "uint256",
          "name": "_trackingNum",
          "type": "uint256"
        }
      ],
      "name": "acceptOrder",
      "outputs": [],
      "payable": false,
      "stateMutability": "nonpayable",
      "type": "function"
    },
    {
      "constant": false,
      "inputs": [
        {
          "internalType": "uint256",
          "name": "_id",
          "type": "uint256"
        }
      ],
      "name": "orderTimeSub",
      "outputs": [],
      "payable": false,
      "stateMutability": "nonpayable",
      "type": "function"
    },
    {
      "constant": false,
      "inputs": [
        {
          "internalType": "uint256",
          "name": "_id",
          "type": "uint256"
        }
      ],
      "name": "isSellerAccepted",
      "outputs": [],
      "payable": false,
      "stateMutability": "nonpayable",
      "type": "function"
    },
    {
      "constant": false,
      "inputs": [
        {
          "internalType": "uint256",
          "name": "_id",
          "type": "uint256"
        }
      ],
      "name": "cancelOrder",
      "outputs": [],
      "payable": false,
      "stateMutability": "nonpayable",
      "type": "function"
    },
    {
      "constant": false,
      "inputs": [],
      "name": "packageSend",
      "outputs": [],
      "payable": false,
      "stateMutability": "nonpayable",
      "type": "function"
    },
    {
      "constant": false,
      "inputs": [],
      "name": "packageReceived",
      "outputs": [],
      "payable": false,
      "stateMutability": "nonpayable",
      "type": "function"
    },
    {
      "constant": false,
      "inputs": [],
      "name": "checkpayback",
      "outputs": [],
      "payable": false,
      "stateMutability": "nonpayable",
      "type": "function"
    },
    {
      "constant": false,
      "inputs": [],
      "name": "executepayback",
      "outputs": [],
      "payable": false,
      "stateMutability": "nonpayable",
      "type": "function"
    },
    {
      "constant": false,
      "inputs": [],
      "name": "payback",
      "outputs": [],
      "payable": false,
      "stateMutability": "nonpayable",
      "type": "function"
    }
  ],
  "bytecode": "0x608060405234801561001057600080fd5b503380806000806101000a81548173ffffffffffffffffffffffffffffffffffffffff021916908373ffffffffffffffffffffffffffffffffffffffff160217905550506001600281905550506152908061006c6000396000f3fe608060405260043610620002715760003560e01c8063966d2033116200014b578063d0436d4c11620000bb578063f3796bdc1162000079578063f3796bdc1462000fe7578063f5c24614146200103c578063f7888aec14620010bb578063fcb4888e1462001144578063ff52f07714620011995762000271565b8063d0436d4c1462000da3578063d10f2aba1462000dbd578063e55156b51462000ea0578063e8ae4c1b1462000eff578063f2fde38b1462000f925762000271565b8063ae90b2131162000109578063ae90b2131462000c29578063b7399f081462000c83578063bdd4d18d1462000cd8578063c65f766f1462000d32578063cfb37fe51462000d895762000271565b8063966d203314620009a957806398ea5fca1462000a465780639b86fc051462000a525780639e281a981462000a80578063a85c38ef1462000adf5762000271565b8063514fcac711620001e75780638968cbaf11620001a55780638968cbaf14620008205780638a2f9ce9146200085f5780638bcc8801146200089e5780638ce7d0df14620008f85780638da5cb5b146200094f5762000271565b8063514fcac7146200071157806365e17c9d146200075057806371ca337d14620007aa5780637fd6f15c14620007d8578063854bec8714620008065762000271565b80633bed33ce11620002355780633bed33ce1462000545578063410459ad146200058457806348c8cd4114620005d95780634d5f9f5f1462000633578063508493bc14620006885762000271565b8062a34b8114620002845780632453ffa8146200038557806328b477e614620003b3578063338b5dea14620003cd57806336dff220146200042c575b3480156200027e57600080fd5b50600080fd5b3480156200029157600080fd5b50620002c160048036036020811015620002aa57600080fd5b8101908080359060200190929190505050620011b3565b604051808881526020018773ffffffffffffffffffffffffffffffffffffffff1673ffffffffffffffffffffffffffffffffffffffff1681526020018673ffffffffffffffffffffffffffffffffffffffff1673ffffffffffffffffffffffffffffffffffffffff1681526020018581526020018473ffffffffffffffffffffffffffffffffffffffff1673ffffffffffffffffffffffffffffffffffffffff16815260200183815260200182815260200197505050505050505060405180910390f35b3480156200039257600080fd5b506200039d62001255565b6040518082815260200191505060405180910390f35b348015620003c057600080fd5b50620003cb6200125b565b005b348015620003da57600080fd5b506200042a60048036036040811015620003f357600080fd5b81019080803573ffffffffffffffffffffffffffffffffffffffff169060200190929190803590602001909291905050506200125d565b005b3480156200043957600080fd5b5062000503600480360360408110156200045257600080fd5b81019080803590602001906401000000008111156200047057600080fd5b8201836020820111156200048357600080fd5b80359060200191846001830284011164010000000083111715620004a657600080fd5b91908080601f016020809104026020016040519081016040528093929190818152602001838380828437600081840152601f19601f82011690508083019250505050505050919291929080359060200190929190505050620015d3565b604051808273ffffffffffffffffffffffffffffffffffffffff1673ffffffffffffffffffffffffffffffffffffffff16815260200191505060405180910390f35b3480156200055257600080fd5b5062000582600480360360208110156200056b57600080fd5b810190808035906020019092919050505062001684565b005b3480156200059157600080fd5b50620005d760048036036020811015620005aa57600080fd5b81019080803573ffffffffffffffffffffffffffffffffffffffff1690602001909291905050506200198e565b005b348015620005e657600080fd5b50620005f162001a2c565b604051808273ffffffffffffffffffffffffffffffffffffffff1673ffffffffffffffffffffffffffffffffffffffff16815260200191505060405180910390f35b3480156200064057600080fd5b5062000686600480360360208110156200065957600080fd5b81019080803573ffffffffffffffffffffffffffffffffffffffff16906020019092919050505062001a52565b005b3480156200069557600080fd5b50620006fb60048036036040811015620006ae57600080fd5b81019080803573ffffffffffffffffffffffffffffffffffffffff169060200190929190803573ffffffffffffffffffffffffffffffffffffffff16906020019092919050505062001af0565b6040518082815260200191505060405180910390f35b3480156200071e57600080fd5b506200074e600480360360208110156200073757600080fd5b810190808035906020019092919050505062001b15565b005b3480156200075d57600080fd5b506200076862001b23565b604051808273ffffffffffffffffffffffffffffffffffffffff1673ffffffffffffffffffffffffffffffffffffffff16815260200191505060405180910390f35b348015620007b757600080fd5b50620007c262001b49565b6040518082815260200191505060405180910390f35b348015620007e557600080fd5b50620007f062001b4f565b6040518082815260200191505060405180910390f35b3480156200081357600080fd5b506200081e62001b55565b005b3480156200082d57600080fd5b506200085d600480360360208110156200084657600080fd5b810190808035906020019092919050505062001bb1565b005b3480156200086c57600080fd5b506200089c600480360360208110156200088557600080fd5b810190808035906020019092919050505062001cab565b005b348015620008ab57600080fd5b50620008b662001cae565b604051808273ffffffffffffffffffffffffffffffffffffffff1673ffffffffffffffffffffffffffffffffffffffff16815260200191505060405180910390f35b3480156200090557600080fd5b5062000935600480360360208110156200091e57600080fd5b810190808035906020019092919050505062001cd4565b604051808215151515815260200191505060405180910390f35b3480156200095c57600080fd5b506200096762001cf4565b604051808273ffffffffffffffffffffffffffffffffffffffff1673ffffffffffffffffffffffffffffffffffffffff16815260200191505060405180910390f35b348015620009b657600080fd5b5062000a0460048036036080811015620009cf57600080fd5b810190808035906020019092919080359060200190929190803590602001909291908035906020019092919050505062001d19565b604051808273ffffffffffffffffffffffffffffffffffffffff1673ffffffffffffffffffffffffffffffffffffffff16815260200191505060405180910390f35b62000a5062001d74565b005b34801562000a5f57600080fd5b5062000a6a62001fab565b6040518082815260200191505060405180910390f35b34801562000a8d57600080fd5b5062000add6004803603604081101562000aa657600080fd5b81019080803573ffffffffffffffffffffffffffffffffffffffff1690602001909291908035906020019092919050505062001fb1565b005b34801562000aec57600080fd5b5062000b1c6004803603602081101562000b0557600080fd5b81019080803590602001909291905050506200237d565b604051808a81526020018973ffffffffffffffffffffffffffffffffffffffff1673ffffffffffffffffffffffffffffffffffffffff1681526020018873ffffffffffffffffffffffffffffffffffffffff1673ffffffffffffffffffffffffffffffffffffffff1681526020018781526020018681526020018573ffffffffffffffffffffffffffffffffffffffff1673ffffffffffffffffffffffffffffffffffffffff1681526020018473ffffffffffffffffffffffffffffffffffffffff1673ffffffffffffffffffffffffffffffffffffffff16815260200183600381111562000c0757fe5b60ff168152602001828152602001995050505050505050505060405180910390f35b34801562000c3657600080fd5b5062000c4162002458565b604051808273ffffffffffffffffffffffffffffffffffffffff1673ffffffffffffffffffffffffffffffffffffffff16815260200191505060405180910390f35b34801562000c9057600080fd5b5062000cd66004803603602081101562000ca957600080fd5b81019080803573ffffffffffffffffffffffffffffffffffffffff1690602001909291905050506200247e565b005b34801562000ce557600080fd5b5062000cf0620024c2565b604051808273ffffffffffffffffffffffffffffffffffffffff1673ffffffffffffffffffffffffffffffffffffffff16815260200191505060405180910390f35b34801562000d3f57600080fd5b5062000d6f6004803603602081101562000d5857600080fd5b8101908080359060200190929190505050620024e8565b604051808215151515815260200191505060405180910390f35b34801562000d9657600080fd5b5062000da162002508565b005b34801562000db057600080fd5b5062000dbb6200250a565b005b34801562000dca57600080fd5b5062000e9e6004803603606081101562000de357600080fd5b81019080803590602001909291908035906020019064010000000081111562000e0b57600080fd5b82018360208201111562000e1e57600080fd5b8035906020019184600183028401116401000000008311171562000e4157600080fd5b91908080601f016020809104026020016040519081016040528093929190818152602001838380828437600081840152601f19601f820116905080830192505050505050509192919290803590602001909291905050506200250c565b005b34801562000ead57600080fd5b5062000efd6004803603604081101562000ec657600080fd5b81019080803573ffffffffffffffffffffffffffffffffffffffff169060200190929190803590602001909291905050506200260b565b005b34801562000f0c57600080fd5b5062000f90600480360360a081101562000f2557600080fd5b81019080803573ffffffffffffffffffffffffffffffffffffffff1690602001909291908035906020019092919080359060200190929190803573ffffffffffffffffffffffffffffffffffffffff16906020019092919080359060200190929190505050620026b1565b005b34801562000f9f57600080fd5b5062000fe56004803603602081101562000fb857600080fd5b81019080803573ffffffffffffffffffffffffffffffffffffffff16906020019092919050505062003477565b005b34801562000ff457600080fd5b506200103a600480360360208110156200100d57600080fd5b81019080803573ffffffffffffffffffffffffffffffffffffffff169060200190929190505050620035f3565b005b3480156200104957600080fd5b50620010b9600480360360608110156200106257600080fd5b81019080803573ffffffffffffffffffffffffffffffffffffffff169060200190929190803573ffffffffffffffffffffffffffffffffffffffff1690602001909291908035906020019092919050505062003637565b005b348015620010c857600080fd5b506200112e60048036036040811015620010e157600080fd5b81019080803573ffffffffffffffffffffffffffffffffffffffff169060200190929190803573ffffffffffffffffffffffffffffffffffffffff16906020019092919050505062003e0d565b6040518082815260200191505060405180910390f35b3480156200115157600080fd5b5062001197600480360360208110156200116a57600080fd5b81019080803573ffffffffffffffffffffffffffffffffffffffff16906020019092919050505062003e94565b005b348015620011a657600080fd5b50620011b162003fac565b005b60036020528060005260406000206000915090508060000154908060010160009054906101000a900473ffffffffffffffffffffffffffffffffffffffff16908060020160009054906101000a900473ffffffffffffffffffffffffffffffffffffffff16908060030154908060040160009054906101000a900473ffffffffffffffffffffffffffffffffffffffff16908060050154908060060154905087565b600e5481565b565b600073ffffffffffffffffffffffffffffffffffffffff168273ffffffffffffffffffffffffffffffffffffffff1614156200129857600080fd5b8173ffffffffffffffffffffffffffffffffffffffff166323b872dd3330846040518463ffffffff1660e01b8152600401808473ffffffffffffffffffffffffffffffffffffffff1673ffffffffffffffffffffffffffffffffffffffff1681526020018373ffffffffffffffffffffffffffffffffffffffff1673ffffffffffffffffffffffffffffffffffffffff1681526020018281526020019350505050602060405180830381600087803b1580156200135457600080fd5b505af115801562001369573d6000803e3d6000fd5b505050506040513d60208110156200138057600080fd5b81019080805190602001909291905050506200139b57600080fd5b6200142c81600160008573ffffffffffffffffffffffffffffffffffffffff1673ffffffffffffffffffffffffffffffffffffffff16815260200190815260200160002060003373ffffffffffffffffffffffffffffffffffffffff1673ffffffffffffffffffffffffffffffffffffffff1681526020019081526020016000205462003fae90919063ffffffff16565b600160008473ffffffffffffffffffffffffffffffffffffffff1673ffffffffffffffffffffffffffffffffffffffff16815260200190815260200160002060003373ffffffffffffffffffffffffffffffffffffffff1673ffffffffffffffffffffffffffffffffffffffff168152602001908152602001600020819055507fdcbc1c05240f31ff3ad067ef1ee35ce4997762752e3a095284754544f4c709d7823383600160008773ffffffffffffffffffffffffffffffffffffffff1673ffffffffffffffffffffffffffffffffffffffff16815260200190815260200160002060003373ffffffffffffffffffffffffffffffffffffffff1673ffffffffffffffffffffffffffffffffffffffff16815260200190815260200160002054604051808573ffffffffffffffffffffffffffffffffffffffff1673ffffffffffffffffffffffffffffffffffffffff1681526020018473ffffffffffffffffffffffffffffffffffffffff1673ffffffffffffffffffffffffffffffffffffffff16815260200183815260200182815260200194505050505060405180910390a15050565b60008282604051620015e59062004058565b8080602001838152602001828103825284818151815260200191508051906020019080838360005b838110156200162a5780820151818401526020810190506200160d565b50505050905090810190601f168015620016585780820380516001836020036101000a031916815260200191505b509350505050604051809103906000f0801580156200167b573d6000803e3d6000fd5b50905092915050565b80600160008073ffffffffffffffffffffffffffffffffffffffff1673ffffffffffffffffffffffffffffffffffffffff16815260200190815260200160002060003373ffffffffffffffffffffffffffffffffffffffff1673ffffffffffffffffffffffffffffffffffffffff1681526020019081526020016000205410156200170e57600080fd5b6200179f81600160008073ffffffffffffffffffffffffffffffffffffffff1673ffffffffffffffffffffffffffffffffffffffff16815260200190815260200160002060003373ffffffffffffffffffffffffffffffffffffffff1673ffffffffffffffffffffffffffffffffffffffff1681526020019081526020016000205462003fce90919063ffffffff16565b600160008073ffffffffffffffffffffffffffffffffffffffff1673ffffffffffffffffffffffffffffffffffffffff16815260200190815260200160002060003373ffffffffffffffffffffffffffffffffffffffff1673ffffffffffffffffffffffffffffffffffffffff168152602001908152602001600020819055503373ffffffffffffffffffffffffffffffffffffffff166108fc829081150290604051600060405180830381858888f1935050505015801562001866573d6000803e3d6000fd5b507ff341246adaac6f497bc2a656f546ab9e182111d630394f0c57c710a59a2cb56760003383600160008073ffffffffffffffffffffffffffffffffffffffff1673ffffffffffffffffffffffffffffffffffffffff16815260200190815260200160002060003373ffffffffffffffffffffffffffffffffffffffff1673ffffffffffffffffffffffffffffffffffffffff16815260200190815260200160002054604051808573ffffffffffffffffffffffffffffffffffffffff1673ffffffffffffffffffffffffffffffffffffffff1681526020018473ffffffffffffffffffffffffffffffffffffffff1673ffffffffffffffffffffffffffffffffffffffff16815260200183815260200182815260200194505050505060405180910390a150565b6000809054906101000a900473ffffffffffffffffffffffffffffffffffffffff1673ffffffffffffffffffffffffffffffffffffffff163373ffffffffffffffffffffffffffffffffffffffff1614620019e857600080fd5b80600c60006101000a81548173ffffffffffffffffffffffffffffffffffffffff021916908373ffffffffffffffffffffffffffffffffffffffff16021790555050565b600760009054906101000a900473ffffffffffffffffffffffffffffffffffffffff1681565b6000809054906101000a900473ffffffffffffffffffffffffffffffffffffffff1673ffffffffffffffffffffffffffffffffffffffff163373ffffffffffffffffffffffffffffffffffffffff161462001aac57600080fd5b80600760006101000a81548173ffffffffffffffffffffffffffffffffffffffff021916908373ffffffffffffffffffffffffffffffffffffffff16021790555050565b6001602052816000526040600020602052806000526040600020600091509150505481565b62001b208162003fef565b50565b600a60009054906101000a900473ffffffffffffffffffffffffffffffffffffffff1681565b60025481565b600b5481565b6000809054906101000a900473ffffffffffffffffffffffffffffffffffffffff1673ffffffffffffffffffffffffffffffffffffffff163373ffffffffffffffffffffffffffffffffffffffff161462001baf57600080fd5b565b600e5481111562001bc157600080fd5b6000600d60008381526020019081526020016000209050600081600701549050600760009054906101000a900473ffffffffffffffffffffffffffffffffffffffff1673ffffffffffffffffffffffffffffffffffffffff1663c7b6fd6a8260026040518363ffffffff1660e01b8152600401808381526020018281526020019250505060206040518083038186803b15801562001c5e57600080fd5b505afa15801562001c73573d6000803e3d6000fd5b505050506040513d602081101562001c8a57600080fd5b81019080805190602001909291905050509050808260070181905550505050565b50565b600960009054906101000a900473ffffffffffffffffffffffffffffffffffffffff1681565b60066020528060005260406000206000915054906101000a900460ff1681565b6000809054906101000a900473ffffffffffffffffffffffffffffffffffffffff1681565b60008484848460405162001d2d9062004066565b80858152602001848152602001838152602001828152602001945050505050604051809103906000f08015801562001d69573d6000803e3d6000fd5b509050949350505050565b62001e0534600160008073ffffffffffffffffffffffffffffffffffffffff1673ffffffffffffffffffffffffffffffffffffffff16815260200190815260200160002060003373ffffffffffffffffffffffffffffffffffffffff1673ffffffffffffffffffffffffffffffffffffffff1681526020019081526020016000205462003fae90919063ffffffff16565b600160008073ffffffffffffffffffffffffffffffffffffffff1673ffffffffffffffffffffffffffffffffffffffff16815260200190815260200160002060003373ffffffffffffffffffffffffffffffffffffffff1673ffffffffffffffffffffffffffffffffffffffff168152602001908152602001600020819055507fdcbc1c05240f31ff3ad067ef1ee35ce4997762752e3a095284754544f4c709d760003334600160008073ffffffffffffffffffffffffffffffffffffffff1673ffffffffffffffffffffffffffffffffffffffff16815260200190815260200160002060003373ffffffffffffffffffffffffffffffffffffffff1673ffffffffffffffffffffffffffffffffffffffff16815260200190815260200160002054604051808573ffffffffffffffffffffffffffffffffffffffff1673ffffffffffffffffffffffffffffffffffffffff1681526020018473ffffffffffffffffffffffffffffffffffffffff1673ffffffffffffffffffffffffffffffffffffffff16815260200183815260200182815260200194505050505060405180910390a1565b60045481565b600073ffffffffffffffffffffffffffffffffffffffff168273ffffffffffffffffffffffffffffffffffffffff16141562001fec57600080fd5b80600160008473ffffffffffffffffffffffffffffffffffffffff1673ffffffffffffffffffffffffffffffffffffffff16815260200190815260200160002060003373ffffffffffffffffffffffffffffffffffffffff1673ffffffffffffffffffffffffffffffffffffffff1681526020019081526020016000205410156200207657600080fd5b6200210781600160008573ffffffffffffffffffffffffffffffffffffffff1673ffffffffffffffffffffffffffffffffffffffff16815260200190815260200160002060003373ffffffffffffffffffffffffffffffffffffffff1673ffffffffffffffffffffffffffffffffffffffff1681526020019081526020016000205462003fce90919063ffffffff16565b600160008473ffffffffffffffffffffffffffffffffffffffff1673ffffffffffffffffffffffffffffffffffffffff16815260200190815260200160002060003373ffffffffffffffffffffffffffffffffffffffff1673ffffffffffffffffffffffffffffffffffffffff168152602001908152602001600020819055508173ffffffffffffffffffffffffffffffffffffffff1663a9059cbb33836040518363ffffffff1660e01b8152600401808373ffffffffffffffffffffffffffffffffffffffff1673ffffffffffffffffffffffffffffffffffffffff16815260200182815260200192505050602060405180830381600087803b1580156200220f57600080fd5b505af115801562002224573d6000803e3d6000fd5b505050506040513d60208110156200223b57600080fd5b81019080805190602001909291905050506200225657600080fd5b7ff341246adaac6f497bc2a656f546ab9e182111d630394f0c57c710a59a2cb567823383600160008773ffffffffffffffffffffffffffffffffffffffff1673ffffffffffffffffffffffffffffffffffffffff16815260200190815260200160002060003373ffffffffffffffffffffffffffffffffffffffff1673ffffffffffffffffffffffffffffffffffffffff16815260200190815260200160002054604051808573ffffffffffffffffffffffffffffffffffffffff1673ffffffffffffffffffffffffffffffffffffffff1681526020018473ffffffffffffffffffffffffffffffffffffffff1673ffffffffffffffffffffffffffffffffffffffff16815260200183815260200182815260200194505050505060405180910390a15050565b600d6020528060005260406000206000915090508060000154908060010160009054906101000a900473ffffffffffffffffffffffffffffffffffffffff16908060020160009054906101000a900473ffffffffffffffffffffffffffffffffffffffff16908060030154908060040154908060050160009054906101000a900473ffffffffffffffffffffffffffffffffffffffff16908060060160009054906101000a900473ffffffffffffffffffffffffffffffffffffffff16908060060160149054906101000a900460ff16908060070154905089565b600c60009054906101000a900473ffffffffffffffffffffffffffffffffffffffff1681565b80600960006101000a81548173ffffffffffffffffffffffffffffffffffffffff021916908373ffffffffffffffffffffffffffffffffffffffff16021790555050565b600860009054906101000a900473ffffffffffffffffffffffffffffffffffffffff1681565b60056020528060005260406000206000915054906101000a900460ff1681565b565b565b600e548311156200251c57600080fd5b6000600d600085815260200190815260200160002090508060020160009054906101000a900473ffffffffffffffffffffffffffffffffffffffff1673ffffffffffffffffffffffffffffffffffffffff163373ffffffffffffffffffffffffffffffffffffffff16146200259057600080fd5b6200259c8383620015d3565b8160060160006101000a81548173ffffffffffffffffffffffffffffffffffffffff021916908373ffffffffffffffffffffffffffffffffffffffff16021790555060018160060160146101000a81548160ff021916908360038111156200260057fe5b021790555050505050565b6000809054906101000a900473ffffffffffffffffffffffffffffffffffffffff1673ffffffffffffffffffffffffffffffffffffffff163373ffffffffffffffffffffffffffffffffffffffff16146200266557600080fd5b81600a60006101000a81548173ffffffffffffffffffffffffffffffffffffffff021916908373ffffffffffffffffffffffffffffffffffffffff16021790555080600b819055505050565b60011515600860009054906101000a900473ffffffffffffffffffffffffffffffffffffffff1673ffffffffffffffffffffffffffffffffffffffff16639a63d820336040518263ffffffff1660e01b8152600401808273ffffffffffffffffffffffffffffffffffffffff1673ffffffffffffffffffffffffffffffffffffffff16815260200191505060206040518083038186803b1580156200275557600080fd5b505afa1580156200276a573d6000803e3d6000fd5b505050506040513d60208110156200278157600080fd5b810190808051906020019092919050505015151462002808576040517f08c379a000000000000000000000000000000000000000000000000000000000815260040180806020018281038252600f8152602001807f6d656d6265722063616e20626e706c000000000000000000000000000000000081525060200191505060405180910390fd5b60011515600960009054906101000a900473ffffffffffffffffffffffffffffffffffffffff1673ffffffffffffffffffffffffffffffffffffffff16632520e7ff876040518263ffffffff1660e01b8152600401808273ffffffffffffffffffffffffffffffffffffffff1673ffffffffffffffffffffffffffffffffffffffff16815260200191505060206040518083038186803b158015620028ac57600080fd5b505afa158015620028c1573d6000803e3d6000fd5b505050506040513d6020811015620028d857600080fd5b81019080805190602001909291905050501515146200295f576040517f08c379a00000000000000000000000000000000000000000000000000000000081526004018080602001828103825260148152602001807f73656c6c657220697320617574686f72697a656400000000000000000000000081525060200191505060405180910390fd5b600160008373ffffffffffffffffffffffffffffffffffffffff1673ffffffffffffffffffffffffffffffffffffffff16815260200190815260200160002060003373ffffffffffffffffffffffffffffffffffffffff1673ffffffffffffffffffffffffffffffffffffffff1681526020019081526020016000205481111562002a52576040517f08c379a00000000000000000000000000000000000000000000000000000000081526004018080602001828103825260118152602001807f6861766520656e6f756768206d6f6e657900000000000000000000000000000081525060200191505060405180910390fd5b62002ae381600160008573ffffffffffffffffffffffffffffffffffffffff1673ffffffffffffffffffffffffffffffffffffffff16815260200190815260200160002060003373ffffffffffffffffffffffffffffffffffffffff1673ffffffffffffffffffffffffffffffffffffffff1681526020019081526020016000205462003fce90919063ffffffff16565b600160008473ffffffffffffffffffffffffffffffffffffffff1673ffffffffffffffffffffffffffffffffffffffff16815260200190815260200160002060003373ffffffffffffffffffffffffffffffffffffffff1673ffffffffffffffffffffffffffffffffffffffff1681526020019081526020016000208190555062002c1681600160008573ffffffffffffffffffffffffffffffffffffffff1673ffffffffffffffffffffffffffffffffffffffff1681526020019081526020016000206000600c60009054906101000a900473ffffffffffffffffffffffffffffffffffffffff1673ffffffffffffffffffffffffffffffffffffffff1673ffffffffffffffffffffffffffffffffffffffff1681526020019081526020016000205462003fae90919063ffffffff16565b600160008473ffffffffffffffffffffffffffffffffffffffff1673ffffffffffffffffffffffffffffffffffffffff1681526020019081526020016000206000600c60009054906101000a900473ffffffffffffffffffffffffffffffffffffffff1673ffffffffffffffffffffffffffffffffffffffff1673ffffffffffffffffffffffffffffffffffffffff1681526020019081526020016000208190555062002cd06001600e5462003fae90919063ffffffff16565b600e81905550604051806101200160405280600e5481526020013373ffffffffffffffffffffffffffffffffffffffff1681526020018673ffffffffffffffffffffffffffffffffffffffff168152602001858152602001848152602001600073ffffffffffffffffffffffffffffffffffffffff168152602001600073ffffffffffffffffffffffffffffffffffffffff1681526020016000600381111562002d7657fe5b815260200142815250600d6000600e5481526020019081526020016000206000820151816000015560208201518160010160006101000a81548173ffffffffffffffffffffffffffffffffffffffff021916908373ffffffffffffffffffffffffffffffffffffffff16021790555060408201518160020160006101000a81548173ffffffffffffffffffffffffffffffffffffffff021916908373ffffffffffffffffffffffffffffffffffffffff160217905550606082015181600301556080820151816004015560a08201518160050160006101000a81548173ffffffffffffffffffffffffffffffffffffffff021916908373ffffffffffffffffffffffffffffffffffffffff16021790555060c08201518160060160006101000a81548173ffffffffffffffffffffffffffffffffffffffff021916908373ffffffffffffffffffffffffffffffffffffffff16021790555060e08201518160060160146101000a81548160ff0219169083600381111562002ef357fe5b021790555061010082015181600701559050506000806000600960009054906101000a900473ffffffffffffffffffffffffffffffffffffffff1673ffffffffffffffffffffffffffffffffffffffff166369d5f81e89896040518363ffffffff1660e01b8152600401808373ffffffffffffffffffffffffffffffffffffffff1673ffffffffffffffffffffffffffffffffffffffff1681526020018281526020019250505060006040518083038186803b15801562002fb357600080fd5b505afa15801562002fc8573d6000803e3d6000fd5b505050506040513d6000823e3d601f19601f82011682018060405250606081101562002ff357600080fd5b81019080805160405193929190846401000000008211156200301457600080fd5b838201915060208201858111156200302b57600080fd5b82518660018202830111640100000000821117156200304957600080fd5b8083526020830192505050908051906020019080838360005b838110156200307f57808201518184015260208101905062003062565b50505050905090810190601f168015620030ad5780820380516001836020036101000a031916815260200191505b5060405260200180516040519392919084640100000000821115620030d157600080fd5b83820191506020820185811115620030e857600080fd5b82518660018202830111640100000000821117156200310657600080fd5b8083526020830192505050908051906020019080838360005b838110156200313c5780820151818401526020810190506200311f565b50505050905090810190601f1680156200316a5780820380516001836020036101000a031916815260200191505b50604052602001805190602001909291905050509091509050809350506200319c868462003ff290919063ffffffff16565b9250600860009054906101000a900473ffffffffffffffffffffffffffffffffffffffff1673ffffffffffffffffffffffffffffffffffffffff1663ca1f3ac6336040518263ffffffff1660e01b8152600401808273ffffffffffffffffffffffffffffffffffffffff1673ffffffffffffffffffffffffffffffffffffffff16815260200191505060206040518083038186803b1580156200323e57600080fd5b505afa15801562003253573d6000803e3d6000fd5b505050506040513d60208110156200326a57600080fd5b81019080805190602001909291905050509150600760009054906101000a900473ffffffffffffffffffffffffffffffffffffffff1673ffffffffffffffffffffffffffffffffffffffff16634355644d4260016040518363ffffffff1660e01b8152600401808381526020018281526020019250505060206040518083038186803b158015620032fa57600080fd5b505afa1580156200330f573d6000803e3d6000fd5b505050506040513d60208110156200332657600080fd5b81019080805190602001909291905050509050620033478484848462001d19565b600d6000600e54815260200190815260200160002060050160006101000a81548173ffffffffffffffffffffffffffffffffffffffff021916908373ffffffffffffffffffffffffffffffffffffffff160217905550600860009054906101000a900473ffffffffffffffffffffffffffffffffffffffff1673ffffffffffffffffffffffffffffffffffffffff16633395bf493360016003811115620033ea57fe5b6040518363ffffffff1660e01b8152600401808373ffffffffffffffffffffffffffffffffffffffff1673ffffffffffffffffffffffffffffffffffffffff16815260200182815260200192505050600060405180830381600087803b1580156200345457600080fd5b505af115801562003469573d6000803e3d6000fd5b505050505050505050505050565b6000809054906101000a900473ffffffffffffffffffffffffffffffffffffffff1673ffffffffffffffffffffffffffffffffffffffff163373ffffffffffffffffffffffffffffffffffffffff1614620034d157600080fd5b60008060009054906101000a900473ffffffffffffffffffffffffffffffffffffffff169050816000806101000a81548173ffffffffffffffffffffffffffffffffffffffff021916908373ffffffffffffffffffffffffffffffffffffffff1602179055507f5c486528ec3e3f0ea91181cff8116f02bfa350e03b8b6f12e00765adbb5af85c816000809054906101000a900473ffffffffffffffffffffffffffffffffffffffff16604051808373ffffffffffffffffffffffffffffffffffffffff1673ffffffffffffffffffffffffffffffffffffffff1681526020018273ffffffffffffffffffffffffffffffffffffffff1673ffffffffffffffffffffffffffffffffffffffff1681526020019250505060405180910390a15050565b80600860006101000a81548173ffffffffffffffffffffffffffffffffffffffff021916908373ffffffffffffffffffffffffffffffffffffffff16021790555050565b600062003651600160045462003fae90919063ffffffff16565b600481905550600073ffffffffffffffffffffffffffffffffffffffff168373ffffffffffffffffffffffffffffffffffffffff161415620036ac57620036a46002548362003ff290919063ffffffff16565b9050620036c6565b620036c3600254836200403090919063ffffffff16565b90505b6200375782600160008673ffffffffffffffffffffffffffffffffffffffff1673ffffffffffffffffffffffffffffffffffffffff16815260200190815260200160002060003373ffffffffffffffffffffffffffffffffffffffff1673ffffffffffffffffffffffffffffffffffffffff1681526020019081526020016000205462003fce90919063ffffffff16565b600160008573ffffffffffffffffffffffffffffffffffffffff1673ffffffffffffffffffffffffffffffffffffffff16815260200190815260200160002060003373ffffffffffffffffffffffffffffffffffffffff1673ffffffffffffffffffffffffffffffffffffffff168152602001908152602001600020819055506200388982600160008673ffffffffffffffffffffffffffffffffffffffff1673ffffffffffffffffffffffffffffffffffffffff16815260200190815260200160002060008060009054906101000a900473ffffffffffffffffffffffffffffffffffffffff1673ffffffffffffffffffffffffffffffffffffffff1673ffffffffffffffffffffffffffffffffffffffff1681526020019081526020016000205462003fae90919063ffffffff16565b600160008573ffffffffffffffffffffffffffffffffffffffff1673ffffffffffffffffffffffffffffffffffffffff16815260200190815260200160002060008060009054906101000a900473ffffffffffffffffffffffffffffffffffffffff1673ffffffffffffffffffffffffffffffffffffffff1673ffffffffffffffffffffffffffffffffffffffff16815260200190815260200160002081905550620039dc81600160008773ffffffffffffffffffffffffffffffffffffffff1673ffffffffffffffffffffffffffffffffffffffff16815260200190815260200160002060008060009054906101000a900473ffffffffffffffffffffffffffffffffffffffff1673ffffffffffffffffffffffffffffffffffffffff1673ffffffffffffffffffffffffffffffffffffffff1681526020019081526020016000205462003fce90919063ffffffff16565b600160008673ffffffffffffffffffffffffffffffffffffffff1673ffffffffffffffffffffffffffffffffffffffff16815260200190815260200160002060008060009054906101000a900473ffffffffffffffffffffffffffffffffffffffff1673ffffffffffffffffffffffffffffffffffffffff1673ffffffffffffffffffffffffffffffffffffffff1681526020019081526020016000208190555062003b0e81600160008773ffffffffffffffffffffffffffffffffffffffff1673ffffffffffffffffffffffffffffffffffffffff16815260200190815260200160002060003373ffffffffffffffffffffffffffffffffffffffff1673ffffffffffffffffffffffffffffffffffffffff1681526020019081526020016000205462003fae90919063ffffffff16565b600160008673ffffffffffffffffffffffffffffffffffffffff1673ffffffffffffffffffffffffffffffffffffffff16815260200190815260200160002060003373ffffffffffffffffffffffffffffffffffffffff1673ffffffffffffffffffffffffffffffffffffffff168152602001908152602001600020819055506040518060e0016040528060045481526020013373ffffffffffffffffffffffffffffffffffffffff1681526020018573ffffffffffffffffffffffffffffffffffffffff1681526020018281526020018473ffffffffffffffffffffffffffffffffffffffff168152602001838152602001428152506003600060045481526020019081526020016000206000820151816000015560208201518160010160006101000a81548173ffffffffffffffffffffffffffffffffffffffff021916908373ffffffffffffffffffffffffffffffffffffffff16021790555060408201518160020160006101000a81548173ffffffffffffffffffffffffffffffffffffffff021916908373ffffffffffffffffffffffffffffffffffffffff1602179055506060820151816003015560808201518160040160006101000a81548173ffffffffffffffffffffffffffffffffffffffff021916908373ffffffffffffffffffffffffffffffffffffffff16021790555060a0820151816005015560c082015181600601559050507f302638cc9cfca424bf992c041c065f3ce84c21dff3170774769f47d6eeedd6be600454338684878742604051808881526020018773ffffffffffffffffffffffffffffffffffffffff1673ffffffffffffffffffffffffffffffffffffffff1681526020018673ffffffffffffffffffffffffffffffffffffffff1673ffffffffffffffffffffffffffffffffffffffff1681526020018581526020018473ffffffffffffffffffffffffffffffffffffffff1673ffffffffffffffffffffffffffffffffffffffff16815260200183815260200182815260200197505050505050505060405180910390a150505050565b6000600160008473ffffffffffffffffffffffffffffffffffffffff1673ffffffffffffffffffffffffffffffffffffffff16815260200190815260200160002060008373ffffffffffffffffffffffffffffffffffffffff1673ffffffffffffffffffffffffffffffffffffffff16815260200190815260200160002054905092915050565b6000809054906101000a900473ffffffffffffffffffffffffffffffffffffffff1673ffffffffffffffffffffffffffffffffffffffff163373ffffffffffffffffffffffffffffffffffffffff161462003eee57600080fd5b600860009054906101000a900473ffffffffffffffffffffffffffffffffffffffff1673ffffffffffffffffffffffffffffffffffffffff166328631c62826040518263ffffffff1660e01b8152600401808273ffffffffffffffffffffffffffffffffffffffff1673ffffffffffffffffffffffffffffffffffffffff168152602001915050600060405180830381600087803b15801562003f9057600080fd5b505af115801562003fa5573d6000803e3d6000fd5b5050505050565b565b60008082840190508381101562003fc457600080fd5b8091505092915050565b60008282111562003fde57600080fd5b600082840390508091505092915050565b50565b6000808314156200400757600090506200402a565b60008284029050828482816200401957fe5b04146200402557600080fd5b809150505b92915050565b60008082116200403f57600080fd5b60008284816200404b57fe5b0490508091505092915050565b610971806200407583390190565b61087680620049e68339019056fe608060405234801561001057600080fd5b506040516109713803806109718339818101604052604081101561003357600080fd5b810190808051604051939291908464010000000082111561005357600080fd5b8382019150602082018581111561006957600080fd5b825186600182028301116401000000008211171561008657600080fd5b8083526020830192505050908051906020019080838360005b838110156100ba57808201518184015260208101905061009f565b50505050905090810190601f1680156100e75780820380516001836020036101000a031916815260200191505b5060405260200180519060200190929190505050816000908051906020019061011192919061025d565b508060018190555033600260006101000a81548173ffffffffffffffffffffffffffffffffffffffff021916908373ffffffffffffffffffffffffffffffffffffffff1602179055506000600260146101000a81548160ff0219169083600281111561017957fe5b02179055507f1017e91081484254db5f1102b30b3b9093fa9c0153485ddb0ed8c8071222d7df33334260405180806020018573ffffffffffffffffffffffffffffffffffffffff1673ffffffffffffffffffffffffffffffffffffffff1681526020018473ffffffffffffffffffffffffffffffffffffffff1673ffffffffffffffffffffffffffffffffffffffff168152602001838152602001828103825260068152602001807f435245415445000000000000000000000000000000000000000000000000000081525060200194505050505060405180910390a15050610302565b828054600181600116156101000203166002900490600052602060002090601f016020900481019282601f1061029e57805160ff19168380011785556102cc565b828001600101855582156102cc579182015b828111156102cb5782518255916020019190600101906102b0565b5b5090506102d991906102dd565b5090565b6102ff91905b808211156102fb5760008160009055506001016102e3565b5090565b90565b610660806103116000396000f3fe608060405234801561001057600080fd5b50600436106100575760003560e01c806306fdde031461005c578063200d2ed2146100df5780633e58c58c1461010b578063481c6a751461014f578063a3e76c0f14610199575b600080fd5b6100646101a3565b6040518080602001828103825283818151815260200191508051906020019080838360005b838110156100a4578082015181840152602081019050610089565b50505050905090810190601f1680156100d15780820380516001836020036101000a031916815260200191505b509250505060405180910390f35b6100e7610241565b604051808260028111156100f757fe5b60ff16815260200191505060405180910390f35b61014d6004803603602081101561012157600080fd5b81019080803573ffffffffffffffffffffffffffffffffffffffff169060200190929190505050610254565b005b61015761047c565b604051808273ffffffffffffffffffffffffffffffffffffffff1673ffffffffffffffffffffffffffffffffffffffff16815260200191505060405180910390f35b6101a16104a2565b005b60008054600181600116156101000203166002900480601f0160208091040260200160405190810160405280929190818152602001828054600181600116156101000203166002900480156102395780601f1061020e57610100808354040283529160200191610239565b820191906000526020600020905b81548152906001019060200180831161021c57829003601f168201915b505050505081565b600260149054906101000a900460ff1681565b600260009054906101000a900473ffffffffffffffffffffffffffffffffffffffff1673ffffffffffffffffffffffffffffffffffffffff163373ffffffffffffffffffffffffffffffffffffffff16146102ae57600080fd5b600260009054906101000a900473ffffffffffffffffffffffffffffffffffffffff1673ffffffffffffffffffffffffffffffffffffffff168173ffffffffffffffffffffffffffffffffffffffff16141561030957600080fd5b6001600281111561031657fe5b600260149054906101000a900460ff16600281111561033157fe5b141561033c57600080fd5b6001600260146101000a81548160ff0219169083600281111561035b57fe5b021790555080600260006101000a81548173ffffffffffffffffffffffffffffffffffffffff021916908373ffffffffffffffffffffffffffffffffffffffff1602179055507f1017e91081484254db5f1102b30b3b9093fa9c0153485ddb0ed8c8071222d7df33824260405180806020018573ffffffffffffffffffffffffffffffffffffffff1673ffffffffffffffffffffffffffffffffffffffff1681526020018473ffffffffffffffffffffffffffffffffffffffff1673ffffffffffffffffffffffffffffffffffffffff168152602001838152602001828103825260048152602001807f53454e440000000000000000000000000000000000000000000000000000000081525060200194505050505060405180910390a150565b600260009054906101000a900473ffffffffffffffffffffffffffffffffffffffff1681565b600260009054906101000a900473ffffffffffffffffffffffffffffffffffffffff1673ffffffffffffffffffffffffffffffffffffffff163373ffffffffffffffffffffffffffffffffffffffff16146104fc57600080fd5b6001600281111561050957fe5b600260149054906101000a900460ff16600281111561052457fe5b1461052e57600080fd5b60028060146101000a81548160ff0219169083600281111561054c57fe5b02179055507f1017e91081484254db5f1102b30b3b9093fa9c0153485ddb0ed8c8071222d7df33334260405180806020018573ffffffffffffffffffffffffffffffffffffffff1673ffffffffffffffffffffffffffffffffffffffff1681526020018473ffffffffffffffffffffffffffffffffffffffff1673ffffffffffffffffffffffffffffffffffffffff168152602001838152602001828103825260078152602001807f524543454956450000000000000000000000000000000000000000000000000081525060200194505050505060405180910390a156fea265627a7a72315820f8d1e6ea5815742a8b52cd1ca01efd3c058a32b7da86c66979f3eba82fe66e2864736f6c63430005100032608060405234801561001057600080fd5b506040516108763803806108768339818101604052608081101561003357600080fd5b810190808051906020019092919080519060200190929190805190602001909291908051906020019092919050505033806000806101000a81548173ffffffffffffffffffffffffffffffffffffffff021916908373ffffffffffffffffffffffffffffffffffffffff160217905550506100bb84846100f960201b6106d31790919060201c565b600181905550816002819055506100e360025460015461011960201b6106ad1790919060201c565b600381905550806004819055505050505061013f565b60008282111561010857600080fd5b600082840390508091505092915050565b600080821161012757600080fd5b600082848161013257fe5b0490508091505092915050565b6107288061014e6000396000f3fe608060405234801561001057600080fd5b50600436106100b45760003560e01c806378447a741161007157806378447a741461014157806381c17a151461015f5780638da5cb5b14610181578063f2fde38b146101cb578063fea903321461020f578063ff705a161461023d576100b4565b8063022973f3146100b95780630da23182146100c3578063183d0e2e146100cd57806354cba894146100eb5780636bec79ae146101195780637223ad6614610123575b600080fd5b6100c161025b565b005b6100cb6102be565b005b6100d5610380565b6040518082815260200191505060405180910390f35b6101176004803603602081101561010157600080fd5b810190808035906020019092919050505061038a565b005b610121610394565b005b61012b610456565b6040518082815260200191505060405180910390f35b610149610489565b6040518082815260200191505060405180910390f35b610167610493565b604051808215151515815260200191505060405180910390f35b6101896104a0565b604051808273ffffffffffffffffffffffffffffffffffffffff1673ffffffffffffffffffffffffffffffffffffffff16815260200191505060405180910390f35b61020d600480360360208110156101e157600080fd5b81019080803573ffffffffffffffffffffffffffffffffffffffff1690602001909291905050506104c5565b005b61023b6004803603602081101561022557600080fd5b8101908080359060200190929190505050610640565b005b61024561064a565b6040518082815260200191505060405180910390f35b600061027460055460015461065490919063ffffffff16565b905061029e6103e861029060038461067390919063ffffffff16565b6106ad90919063ffffffff16565b90506102b58160055461065490919063ffffffff16565b60058190555050565b6000809054906101000a900473ffffffffffffffffffffffffffffffffffffffff1673ffffffffffffffffffffffffffffffffffffffff163373ffffffffffffffffffffffffffffffffffffffff161461031757600080fd5b61032d60016002546106d390919063ffffffff16565b60028190555060006002541415610360576103556003546001546106d390919063ffffffff16565b60018190555061037e565b6103776003546001546106d390919063ffffffff16565b6001819055505b565b6000600554905090565b8060048190555050565b6000809054906101000a900473ffffffffffffffffffffffffffffffffffffffff1673ffffffffffffffffffffffffffffffffffffffff163373ffffffffffffffffffffffffffffffffffffffff16146103ed57600080fd5b61040360016002546106d390919063ffffffff16565b600281905550600060025414156104365761042b6003546001546106d390919063ffffffff16565b600181905550610454565b61044d6003546001546106d390919063ffffffff16565b6001819055505b565b600080600254141561046b5760009050610486565b60016002541415610480576001549050610486565b60035490505b90565b6000600454905090565b6000806005541015905090565b6000809054906101000a900473ffffffffffffffffffffffffffffffffffffffff1681565b6000809054906101000a900473ffffffffffffffffffffffffffffffffffffffff1673ffffffffffffffffffffffffffffffffffffffff163373ffffffffffffffffffffffffffffffffffffffff161461051e57600080fd5b60008060009054906101000a900473ffffffffffffffffffffffffffffffffffffffff169050816000806101000a81548173ffffffffffffffffffffffffffffffffffffffff021916908373ffffffffffffffffffffffffffffffffffffffff1602179055507f5c486528ec3e3f0ea91181cff8116f02bfa350e03b8b6f12e00765adbb5af85c816000809054906101000a900473ffffffffffffffffffffffffffffffffffffffff16604051808373ffffffffffffffffffffffffffffffffffffffff1673ffffffffffffffffffffffffffffffffffffffff1681526020018273ffffffffffffffffffffffffffffffffffffffff1673ffffffffffffffffffffffffffffffffffffffff1681526020019250505060405180910390a15050565b8060068190555050565b6000600154905090565b60008082840190508381101561066957600080fd5b8091505092915050565b60008083141561068657600090506106a7565b600082840290508284828161069757fe5b04146106a257600080fd5b809150505b92915050565b60008082116106bb57600080fd5b60008284816106c657fe5b0490508091505092915050565b6000828211156106e257600080fd5b60008284039050809150509291505056fea265627a7a723158203b89c07600a6403a3c87d5518559b0836c302438924991d741fae799c185141964736f6c63430005100032a265627a7a72315820c53f041abb5244421059a3c095a4995df12a2f662670e0f0119218ad9d68fd3a64736f6c63430005100032",
  "source": "pragma solidity ^0.5.0;\n\nimport \"openzeppelin-solidity/contracts/math/SafeMath.sol\";\nimport \"./BokkyPooBahsDateTimeContract.sol\";\nimport \"./usingOraclize.sol\";\n\nimport \"./Owned.sol\";\nimport \"./Token.sol\";\nimport \"./Exchange.sol\";\n\nimport \"./Members.sol\";\nimport \"./Merchants.sol\";\n\nimport \"./Installment.sol\";\nimport \"./Package.sol\";\n\ncontract Bnpl is Exchange {\n  using SafeMath for uint;\n\n  enum RANK {\n    BRONZE,\n    SILVER,\n    GOLD\n  }\n\n  enum BNPLSTAT{\n    //UNENROLLED,\n    NONE,\n    PROCESSING,\n    LATE,\n    BANNED\n  }\n\n\n  enum ORDERSTATS {\n      CREATED,    //  -> installment \n      LOADED,     // package \n      DONE,       //  bnpl  \n      CANCELLED   // package    -> initcost  -> \n  }\n\n  // reference datecontract\n  BokkyPooBahsDateTimeContract public dateTime;\n  // make contracts\n  Members public members;\n  Merchants public merchants;\n\n\n  // Variables\n  address public feeAccount;\n  uint public feePercent; // the fee percentage\n\n  address public payee;\n\n  mapping(uint => _Order) public orders;\n  uint public orderCount;\n\n  //mapping(uint => bool) public orderCancelled;\n  //mapping(uint => bool) public orderFilled;\n\n  //STATUSES public status;\n\n\n\n  event Fill(\n      uint    id,\n      address buyer,\n      address seller,\n      address tokenkind,\n      uint    totalPrice,\n      uint    initcost,\n      uint    installmentPeriod,\n      uint    timestamp\n  );\n  event Order(\n      uint    id,\n      address buyer,\n      address seller,\n      address tokenkind,\n      uint    totalPrice,\n      uint    installmentPeriod,\n      uint    timestamp\n  );\n  event Cancel(\n      uint    id,\n      address buyer,\n      address seller,\n      address tokenkind,\n      uint    totalPrice,\n      uint    initcost,\n      uint    installmentPeriod,\n      uint    timestamp\n  );\n  event Trade(\n      uint    id,\n      address buyer,\n      address seller,\n      address tokenkind,\n      uint    totalPrice,\n      uint    initcost,\n      uint    installmentPeriod,\n      uint    timestamp\n\n  );\n\n  event BlackListed(address indexed target);\n  event DeleteFromBlacklist(address indexed target);\n\n  struct _Order {\n    uint        id;\n    address     buyer;\n    address     seller;\n    uint        productNum;\n    uint        qty;\n    Installment installmentCon;\n    Package     packageCon;\n    ORDERSTATS  orderStat;\n    uint256     timestamp;\n  } \n\n  constructor () Exchange(msg.sender) public {\n    \n    // members = new Members(address(this));\n    // merchants = new Merchants(address(this));\n  }\n\n  function setFee(address _feeAccount, uint _feePercent) public onlyOwner {\n    feeAccount = _feeAccount;\n    feePercent = _feePercent;\n  }\n\n  function setPayee(address _payee) public onlyOwner {\n    payee = _payee; \n  }\n\n  function setDatetime(address _dateTime) public onlyOwner {\n    dateTime = BokkyPooBahsDateTimeContract(_dateTime);\n  }\n\n  function setMembers(address _members) public {\n    members = Members(_members);\n  }\n  function setMerchants(address _merchants) public {\n    merchants = Merchants(_merchants);\n  }\n\n  //  bnpl  .\n  function registerMember(address _member) public onlyOwner {\n    members.initMemberBnplInfo(_member);\n  }\n\n  function makeBnplOrder\n  (\n    address _seller,\n    uint    _prodNum,\n    uint    _qty,\n    address _token,\n    uint    _initCost\n  ) public {\n    //     .\n    require(members.canMemberBnpl(msg.sender) == true, 'member can bnpl');\n    require(merchants.isAuth(_seller) == true, 'seller is authorized');\n\n    // // initcost   .\n    require(_initCost <= tokens[_token][msg.sender], 'have enough money');\n\n    //  init  .\n    tokens[_token][msg.sender] = tokens[_token][msg.sender].sub(_initCost);\n    tokens[_token][payee] = tokens[_token][payee].add(_initCost);\n\n    orderCount = orderCount.add(1);\n\n    orders[orderCount] = _Order(\n      orderCount, \n      msg.sender,\n      _seller, \n      _prodNum,\n      _qty,\n      Installment(0x0),\n      Package(0x0),\n      ORDERSTATS.CREATED,\n      now);\n\n\n    uint totalPrice;\n    uint installmentCnt;\n    uint nextTimestamp;\n\n    ( , , totalPrice) = merchants.getProduct(_seller, _prodNum);\n    totalPrice = totalPrice.mul(_qty);\n\n    //  installment period  member  \n    installmentCnt = members.getMemberInstallments(msg.sender);\n\n    nextTimestamp = dateTime.addMonths(now, 1);\n\n    orders[orderCount].installmentCon = makeInstallmentCon(_initCost, totalPrice, installmentCnt, nextTimestamp);\n\n    // msg.sender  bnpl  \n    members.setMemberBnplStat(msg.sender, uint(BNPLSTAT.PROCESSING));\n\n    // event \n    // emit Order(orderCount, msg.sender, _seller, _token, _totalPrice, _initCost, now);\n  }\n\n  function makeInstallmentCon(uint _initCost, uint _totalPrice, uint _installmentCnt, uint _nextTimestamp) public returns(Installment) {\n    return new Installment(_initCost, _totalPrice, _installmentCnt, _nextTimestamp);\n  }\n\n  function makePackageCon(string memory _name, uint256 _trackingNum) public returns(Package) {\n    return new Package(_name, _trackingNum);\n  }\n\n  // seller     \n  function acceptOrder(uint _id, string memory _name, uint _trackingNum) public {\n    //    .\n    require(_id <= orderCount);\n\n    _Order storage order = orders[_id];\n\n    //msg.sender  _id  seller  .\n    require(msg.sender == order.seller);\n\n    order.packageCon = makePackageCon(_name, _trackingNum);\n\n    order.orderStat = ORDERSTATS.LOADED;\n\n  }\n  // it is only for testing!!\n  function orderTimeSub(uint _id) public {\n    //    .\n    require(_id <= orderCount);\n\n    _Order storage order = orders[_id];\n\n    uint timeMachine = order.timestamp;\n    timeMachine = dateTime.subDays(timeMachine, 2);\n    order.timestamp = timeMachine;\n  }\n\n  function isSellerAccepted(uint _id) public {\n    // \n  }\n\n  function cancelOrder(uint _id) public {\n    //\n    _refund(_id);\n  }\n\n  function _refund(uint _id) internal {\n    //\n  }\n\n  function packageSend() public {\n    //     \n  }\n\n  function packageReceived() public {\n    //  \n  }\n\n  function checkpayback() public {\n    //\n  }\n\n  function executepayback() public {\n    //\n  }\n\n  function payback() public onlyOwner {\n    //\n  }\n\n}\n\n\n    //require(members.memberInfos[msg.sender].rank);\n\n\n    // string memory _name;\n    // string memory _serial;\n    // uint _prodPrice;\n    // uint _totalPrice;\n\n    // (_name, _serial, _prodPrice) = merchants.getProduct(_seller, _prodNum);\n\n\n    // // struct _Order {\n    // //   uint    id;\n    // //   address buyer;\n    // //   address seller;\n    // //   uint    productNum;\n    // //   uint    qty;\n    // //   address token;\n    // //   uint    initcost;\n    // //   uint    initimestamp;\n    // //   STATUSES  status;\n    // // } \n\n\n\t\n\n //  function makePackage(uint id) public {\n //    //  id  \n //    _Order storage _order  = orders[id];\n\n //    //    \n\n //    //     \n\n //    string memory _name = 'channel';\n //    string memory _trackNum = 'no5';\n\n //    packages[id] = new Package(_name, _trackNum);\n //  }\n\n //  // // check it should be refunded\n //  function isPackageFilled(uint id) public onlyOwner view returns(bool) {\n //    //  id  \n //    _Order storage _order  = orders[id];\n\n\n //  }\n\n //  function makeInstallmentPlan(\n //      address _buyer, \n //      uint256 _remainCost, \n //      uint8 _remainCnt,\n //      uint256 _paybackCost\n //  ) public onlyOwner {\n //      //      .\n //      require(members.memberInstallments[_buyer].remainCost > 0);\n\n //      // memberInstallments[_buyer].remainCost = _remainCost;\n //      // memberInstallments[_buyer].remainPeriod = _remainPeriod;\n //      // memberInstallments[_buyer].paybackCost = _paybackCost;\n\n //      members.memberInstallments[_buyer] = Installment({\n //          remainCost : _remainCost,     //    \n //          remainCnt : _remainCnt,       //    \n //          paybackCost : _paybackCost,   // 4  \n //          nextDeadline : dateTime.addMonths(now, 1), //    \n //          isLate : false                // \n //      });\n\n //  }\n\n\n\n\n  // if is not refunded\n  // function\n\n\t// function cancelBnplOrder(uint _id) public {\n\t// \t_Order storage _order = orders[_id];\n //        require(address(_order.buyer) == msg.sender || address(_order.seller) == msg.sender );\n //        require(_order.id == _id); // The order must exist\n\n //        // if(_order.status == CREATED){\n //        //     //\n //        // }else if(_order.status == PROCESSING){\n //        //     //\n //        // }else { // DONE, CANCELLED\n //        //     //\n //        // }\n\n //        _order.status = STATUSES.CANCELLED;\n //        //orderCancelled[_id] = true;\n //        emit Cancel(_order.id, _order.buyer, _order.seller, _order.token, _order.totalPrice, _order.initcost, _order.installmentPeriod, now);\n\t// }\n\n\n\n\n\t// function fillBnplOrder(uint _id) public onlyOwner {\n //        require(_id > 0 && _id <= orderCount, 'Error, wrong id');\n //        //require(!orderFilled[_id], 'Error, order already filled');\n //        //require(!orderCancelled[_id], 'Error, order already cancelled');\n\n\n //        //require(address(_order.seller) == msg.sender, \"wrong caller\" );\n //        _Order storage _order = orders[_id];\n        \n //        require(_order.status == STATUSES.CREATED);\n\n //        _bnplTrade(_order.id, _order.buyer, _order.seller, _order.token, _order.totalPrice, _order.initcost, _order.installmentPeriod, now);\n //        _order.status = STATUSES.PROCESSING;\n\n //        emit Fill(_order.id, _order.buyer, _order.seller, _order.token, _order.totalPrice, _order.initcost, _order.installmentPeriod, now);\n\t// }\n\n\t// function _bnplTrade\n //    (   \n //        uint _id, \n //        address _buyer, \n //        address _seller, \n //        address _token, \n //        uint _totalPrice,  \n //        uint _initCost, \n //        uint   _installmentPeriod, \n //        uint timestamp\n //    ) internal {\n\t// \tuint _feeAmount = _totalPrice.mul(feePercent).div(100);\n //        //uint _ratio = exchangeAddr.ratio();\n        \n //        //1 way\t\t\n\t// \ttokens[_token][_buyer] = tokens[_token][_buyer].sub(_initcost);\n //        tokens[_token][feeAccount] = tokens[_token][feeAccount].add(_initcost);\n\n //        //2 way\n\t// \ttokens[_token][_seller] = tokens[_token][_seller].add(_totalPrice.sub(_feeAmount));\n\n\t// \t//3 way\n\t// \t// _seller give product to client\n        \n\n\t// }\n\n    \n    // \n    // if (now > 30 day)    ->   ->  ->       .\n    // block 1 -> block 2 -> block 3 timestamp 1  -> \n\n\n\n    // function blackListing(address _addr) public onlyOwner {\n    //     blackLists[_addr] = 1;\n    //     emit BlackListed(_addr);\n    // }\n\n\n\n    // function cancelOrder(uint _id) public {\n    //     _Order storage _order = orders[_id];\n    //     require(address(_order.user) == msg.sender);\n    //     require(_order.id == _id); // The order must exist\n    //     orderCancelled[_id] = true;\n    //     emit Cancel(_order.id, msg.sender, _order.tokenGet, _order.amountGet, _order.tokenGive, _order.amountGive, now);\n    // }\n\n    // function fillOrder(uint _id) public {\n    //     require(_id > 0 && _id <= orderCount, 'Error, wrong id');\n    //     require(!orderFilled[_id], 'Error, order already filled');\n    //     require(!orderCancelled[_id], 'Error, order already cancelled');\n    //     _Order storage _order = orders[_id];\n    //     _trade(_order.id, _order.user, _order.tokenGet, _order.amountGet, _order.tokenGive, _order.amountGive);\n    //     orderFilled[_order.id] = true;\n    // }\n\n    // function _trade(uint _orderId, address _user, address _tokenGet, uint _amountGet, address _tokenGive, uint _amountGive) internal {\n    //     // Fee paid by the user that fills the order, a.k.a. msg.sender.\n    //     uint _feeAmount = _amountGet.mul(feePercent).div(100);\n\n    //     tokens[_tokenGet][msg.sender] = tokens[_tokenGet][msg.sender].sub(_amountGet.add(_feeAmount));\n    //     tokens[_tokenGet][_user] = tokens[_tokenGet][_user].add(_amountGet);\n    //     tokens[_tokenGet][feeAccount] = tokens[_tokenGet][feeAccount].add(_feeAmount);\n    //     tokens[_tokenGive][_user] = tokens[_tokenGive][_user].sub(_amountGive);\n    //     tokens[_tokenGive][msg.sender] = tokens[_tokenGive][msg.sender].add(_amountGive);\n\n    //     emit Trade(_orderId, _user, _tokenGet, _amountGet, _tokenGive, _amountGive, msg.sender, now);\n    // }\n\n",
  "sourcePath": "/Users/mg/bnpl-dapp/src/contracts/Bnpl.sol",
  "compiler": {
    "name": "solc",
    "version": "0.5.16+commit.9c3226ce.Emscripten.clang"
  },
  "schemaVersion": "3.3.4",
  "updatedAt": "2021-06-21T03:53:05.851Z",
  "devdoc": {
    "methods": {}
  },
  "userdoc": {
    "methods": {}
  }
}