{
  "contractName": "Bnpl",
  "abi": [
    {
      "inputs": [],
      "payable": false,
      "stateMutability": "nonpayable",
      "type": "constructor"
    },
    {
      "anonymous": false,
      "inputs": [
        {
          "indexed": true,
          "internalType": "address",
          "name": "target",
          "type": "address"
        }
      ],
      "name": "BlackListed",
      "type": "event"
    },
    {
      "anonymous": false,
      "inputs": [
        {
          "indexed": false,
          "internalType": "uint256",
          "name": "id",
          "type": "uint256"
        },
        {
          "indexed": false,
          "internalType": "address",
          "name": "buyer",
          "type": "address"
        },
        {
          "indexed": false,
          "internalType": "address",
          "name": "seller",
          "type": "address"
        },
        {
          "indexed": false,
          "internalType": "address",
          "name": "tokenKind",
          "type": "address"
        },
        {
          "indexed": false,
          "internalType": "uint256",
          "name": "totalPrice",
          "type": "uint256"
        },
        {
          "indexed": false,
          "internalType": "uint256",
          "name": "initcost",
          "type": "uint256"
        },
        {
          "indexed": false,
          "internalType": "uint256",
          "name": "installmentPeriod",
          "type": "uint256"
        },
        {
          "indexed": false,
          "internalType": "uint256",
          "name": "timestamp",
          "type": "uint256"
        }
      ],
      "name": "Cancel",
      "type": "event"
    },
    {
      "anonymous": false,
      "inputs": [
        {
          "indexed": true,
          "internalType": "address",
          "name": "target",
          "type": "address"
        }
      ],
      "name": "DeleteFromBlacklist",
      "type": "event"
    },
    {
      "anonymous": false,
      "inputs": [
        {
          "indexed": false,
          "internalType": "uint256",
          "name": "id",
          "type": "uint256"
        },
        {
          "indexed": false,
          "internalType": "address",
          "name": "buyer",
          "type": "address"
        },
        {
          "indexed": false,
          "internalType": "address",
          "name": "seller",
          "type": "address"
        },
        {
          "indexed": false,
          "internalType": "address",
          "name": "tokenKind",
          "type": "address"
        },
        {
          "indexed": false,
          "internalType": "uint256",
          "name": "totalPrice",
          "type": "uint256"
        },
        {
          "indexed": false,
          "internalType": "uint256",
          "name": "initcost",
          "type": "uint256"
        },
        {
          "indexed": false,
          "internalType": "uint256",
          "name": "installmentPeriod",
          "type": "uint256"
        },
        {
          "indexed": false,
          "internalType": "uint256",
          "name": "timestamp",
          "type": "uint256"
        }
      ],
      "name": "Fill",
      "type": "event"
    },
    {
      "anonymous": false,
      "inputs": [
        {
          "indexed": false,
          "internalType": "uint256",
          "name": "id",
          "type": "uint256"
        },
        {
          "indexed": false,
          "internalType": "address",
          "name": "buyer",
          "type": "address"
        },
        {
          "indexed": false,
          "internalType": "address",
          "name": "seller",
          "type": "address"
        },
        {
          "indexed": false,
          "internalType": "address",
          "name": "tokenKind",
          "type": "address"
        },
        {
          "indexed": false,
          "internalType": "uint256",
          "name": "totalPrice",
          "type": "uint256"
        },
        {
          "indexed": false,
          "internalType": "uint256",
          "name": "installmentPeriod",
          "type": "uint256"
        },
        {
          "indexed": false,
          "internalType": "uint256",
          "name": "timestamp",
          "type": "uint256"
        }
      ],
      "name": "Order",
      "type": "event"
    },
    {
      "anonymous": false,
      "inputs": [
        {
          "indexed": false,
          "internalType": "uint256",
          "name": "id",
          "type": "uint256"
        },
        {
          "indexed": false,
          "internalType": "address",
          "name": "buyer",
          "type": "address"
        },
        {
          "indexed": false,
          "internalType": "address",
          "name": "seller",
          "type": "address"
        },
        {
          "indexed": false,
          "internalType": "address",
          "name": "tokenKind",
          "type": "address"
        },
        {
          "indexed": false,
          "internalType": "uint256",
          "name": "totalPrice",
          "type": "uint256"
        },
        {
          "indexed": false,
          "internalType": "uint256",
          "name": "initcost",
          "type": "uint256"
        },
        {
          "indexed": false,
          "internalType": "uint256",
          "name": "installmentPeriod",
          "type": "uint256"
        },
        {
          "indexed": false,
          "internalType": "uint256",
          "name": "timestamp",
          "type": "uint256"
        }
      ],
      "name": "Trade",
      "type": "event"
    },
    {
      "anonymous": false,
      "inputs": [
        {
          "indexed": false,
          "internalType": "address",
          "name": "beforeAddress",
          "type": "address"
        },
        {
          "indexed": false,
          "internalType": "address",
          "name": "afterAddress",
          "type": "address"
        }
      ],
      "name": "TransferOwnership",
      "type": "event"
    },
    {
      "constant": true,
      "inputs": [],
      "name": "dateTime",
      "outputs": [
        {
          "internalType": "contract BokkyPooBahsDateTimeContract",
          "name": "",
          "type": "address"
        }
      ],
      "payable": false,
      "stateMutability": "view",
      "type": "function"
    },
    {
      "constant": true,
      "inputs": [],
      "name": "exchange",
      "outputs": [
        {
          "internalType": "contract Exchange",
          "name": "",
          "type": "address"
        }
      ],
      "payable": false,
      "stateMutability": "view",
      "type": "function"
    },
    {
      "constant": true,
      "inputs": [],
      "name": "feeAccount",
      "outputs": [
        {
          "internalType": "address",
          "name": "",
          "type": "address"
        }
      ],
      "payable": false,
      "stateMutability": "view",
      "type": "function"
    },
    {
      "constant": true,
      "inputs": [],
      "name": "feePercent",
      "outputs": [
        {
          "internalType": "uint256",
          "name": "",
          "type": "uint256"
        }
      ],
      "payable": false,
      "stateMutability": "view",
      "type": "function"
    },
    {
      "constant": true,
      "inputs": [],
      "name": "members",
      "outputs": [
        {
          "internalType": "contract Members",
          "name": "",
          "type": "address"
        }
      ],
      "payable": false,
      "stateMutability": "view",
      "type": "function"
    },
    {
      "constant": true,
      "inputs": [],
      "name": "merchants",
      "outputs": [
        {
          "internalType": "contract Merchants",
          "name": "",
          "type": "address"
        }
      ],
      "payable": false,
      "stateMutability": "view",
      "type": "function"
    },
    {
      "constant": true,
      "inputs": [],
      "name": "orderCount",
      "outputs": [
        {
          "internalType": "uint256",
          "name": "",
          "type": "uint256"
        }
      ],
      "payable": false,
      "stateMutability": "view",
      "type": "function"
    },
    {
      "constant": true,
      "inputs": [
        {
          "internalType": "uint256",
          "name": "",
          "type": "uint256"
        }
      ],
      "name": "orders",
      "outputs": [
        {
          "internalType": "uint256",
          "name": "id",
          "type": "uint256"
        },
        {
          "internalType": "address",
          "name": "buyer",
          "type": "address"
        },
        {
          "internalType": "address",
          "name": "seller",
          "type": "address"
        },
        {
          "internalType": "uint256",
          "name": "productNum",
          "type": "uint256"
        },
        {
          "internalType": "uint256",
          "name": "qty",
          "type": "uint256"
        },
        {
          "internalType": "address",
          "name": "tokenKind",
          "type": "address"
        },
        {
          "internalType": "uint256",
          "name": "initCost",
          "type": "uint256"
        },
        {
          "internalType": "uint256",
          "name": "totalPrice",
          "type": "uint256"
        },
        {
          "internalType": "contract Installment",
          "name": "installmentCon",
          "type": "address"
        },
        {
          "internalType": "contract Package",
          "name": "packageCon",
          "type": "address"
        },
        {
          "internalType": "enum Bnpl.ORDERSTATS",
          "name": "orderStat",
          "type": "uint8"
        },
        {
          "internalType": "uint256",
          "name": "timestamp",
          "type": "uint256"
        }
      ],
      "payable": false,
      "stateMutability": "view",
      "type": "function"
    },
    {
      "constant": true,
      "inputs": [],
      "name": "owner",
      "outputs": [
        {
          "internalType": "address",
          "name": "",
          "type": "address"
        }
      ],
      "payable": false,
      "stateMutability": "view",
      "type": "function"
    },
    {
      "constant": true,
      "inputs": [],
      "name": "payee",
      "outputs": [
        {
          "internalType": "address",
          "name": "",
          "type": "address"
        }
      ],
      "payable": false,
      "stateMutability": "view",
      "type": "function"
    },
    {
      "constant": false,
      "inputs": [
        {
          "internalType": "address",
          "name": "_new",
          "type": "address"
        }
      ],
      "name": "transferOwnership",
      "outputs": [],
      "payable": false,
      "stateMutability": "nonpayable",
      "type": "function"
    },
    {
      "constant": false,
      "inputs": [
        {
          "internalType": "address",
          "name": "_feeAccount",
          "type": "address"
        },
        {
          "internalType": "uint256",
          "name": "_feePercent",
          "type": "uint256"
        }
      ],
      "name": "setFee",
      "outputs": [],
      "payable": false,
      "stateMutability": "nonpayable",
      "type": "function"
    },
    {
      "constant": false,
      "inputs": [
        {
          "internalType": "address",
          "name": "_payee",
          "type": "address"
        }
      ],
      "name": "setPayee",
      "outputs": [],
      "payable": false,
      "stateMutability": "nonpayable",
      "type": "function"
    },
    {
      "constant": false,
      "inputs": [
        {
          "internalType": "address",
          "name": "_dateTime",
          "type": "address"
        }
      ],
      "name": "setDatetime",
      "outputs": [],
      "payable": false,
      "stateMutability": "nonpayable",
      "type": "function"
    },
    {
      "constant": false,
      "inputs": [
        {
          "internalType": "address",
          "name": "_exchange",
          "type": "address"
        }
      ],
      "name": "setExchange",
      "outputs": [],
      "payable": false,
      "stateMutability": "nonpayable",
      "type": "function"
    },
    {
      "constant": false,
      "inputs": [
        {
          "internalType": "address",
          "name": "_members",
          "type": "address"
        }
      ],
      "name": "setMembers",
      "outputs": [],
      "payable": false,
      "stateMutability": "nonpayable",
      "type": "function"
    },
    {
      "constant": false,
      "inputs": [
        {
          "internalType": "address",
          "name": "_merchants",
          "type": "address"
        }
      ],
      "name": "setMerchants",
      "outputs": [],
      "payable": false,
      "stateMutability": "nonpayable",
      "type": "function"
    },
    {
      "constant": false,
      "inputs": [
        {
          "internalType": "address",
          "name": "_member",
          "type": "address"
        }
      ],
      "name": "registerMember",
      "outputs": [],
      "payable": false,
      "stateMutability": "nonpayable",
      "type": "function"
    },
    {
      "constant": false,
      "inputs": [
        {
          "internalType": "address",
          "name": "_seller",
          "type": "address"
        },
        {
          "internalType": "uint256",
          "name": "_prodNum",
          "type": "uint256"
        },
        {
          "internalType": "uint256",
          "name": "_qty",
          "type": "uint256"
        },
        {
          "internalType": "address",
          "name": "_token",
          "type": "address"
        },
        {
          "internalType": "uint256",
          "name": "_initCost",
          "type": "uint256"
        }
      ],
      "name": "makeBnplOrder",
      "outputs": [],
      "payable": false,
      "stateMutability": "nonpayable",
      "type": "function"
    },
    {
      "constant": false,
      "inputs": [
        {
          "internalType": "uint256",
          "name": "_initCost",
          "type": "uint256"
        },
        {
          "internalType": "uint256",
          "name": "_totalPrice",
          "type": "uint256"
        },
        {
          "internalType": "uint256",
          "name": "_installmentCnt",
          "type": "uint256"
        },
        {
          "internalType": "uint256",
          "name": "_nextTimestamp",
          "type": "uint256"
        }
      ],
      "name": "makeInstallmentCon",
      "outputs": [
        {
          "internalType": "contract Installment",
          "name": "",
          "type": "address"
        }
      ],
      "payable": false,
      "stateMutability": "nonpayable",
      "type": "function"
    },
    {
      "constant": false,
      "inputs": [
        {
          "internalType": "string",
          "name": "_name",
          "type": "string"
        },
        {
          "internalType": "uint256",
          "name": "_trackingNum",
          "type": "uint256"
        }
      ],
      "name": "makePackageCon",
      "outputs": [
        {
          "internalType": "contract Package",
          "name": "",
          "type": "address"
        }
      ],
      "payable": false,
      "stateMutability": "nonpayable",
      "type": "function"
    },
    {
      "constant": false,
      "inputs": [
        {
          "internalType": "uint256",
          "name": "_id",
          "type": "uint256"
        },
        {
          "internalType": "string",
          "name": "_name",
          "type": "string"
        },
        {
          "internalType": "uint256",
          "name": "_trackingNum",
          "type": "uint256"
        }
      ],
      "name": "acceptOrder",
      "outputs": [],
      "payable": false,
      "stateMutability": "nonpayable",
      "type": "function"
    },
    {
      "constant": false,
      "inputs": [
        {
          "internalType": "uint256",
          "name": "_id",
          "type": "uint256"
        }
      ],
      "name": "orderTimeSub",
      "outputs": [],
      "payable": false,
      "stateMutability": "nonpayable",
      "type": "function"
    },
    {
      "constant": false,
      "inputs": [
        {
          "internalType": "uint256",
          "name": "_id",
          "type": "uint256"
        }
      ],
      "name": "installTimeSub",
      "outputs": [],
      "payable": false,
      "stateMutability": "nonpayable",
      "type": "function"
    },
    {
      "constant": false,
      "inputs": [
        {
          "internalType": "uint256",
          "name": "_id",
          "type": "uint256"
        }
      ],
      "name": "manageWay1and2",
      "outputs": [],
      "payable": false,
      "stateMutability": "nonpayable",
      "type": "function"
    },
    {
      "constant": false,
      "inputs": [
        {
          "internalType": "uint256",
          "name": "_id",
          "type": "uint256"
        }
      ],
      "name": "payback",
      "outputs": [],
      "payable": false,
      "stateMutability": "nonpayable",
      "type": "function"
    }
  ],
  "bytecode": "0x608060405234801561001057600080fd5b5033806000806101000a81548173ffffffffffffffffffffffffffffffffffffffff021916908373ffffffffffffffffffffffffffffffffffffffff1602179055505061586e806100626000396000f3fe60806040523480156200001157600080fd5b5060043610620001b45760003560e01c8063966d203311620000f3578063d10f2aba11620000a5578063e8ae4c1b116200007b578063e8ae4c1b1462000a2a578063f2fde38b1462000aaf578063f3796bdc1462000af6578063fcb4888e1462000b3d57620001b4565b8063d10f2aba14620008b8578063d2f7265a146200098d578063e55156b514620009d957620001b4565b8063966d2033146200059c578063a846c2fd146200062b578063a85c38ef146200065c578063ae90b21314620007d9578063b7399f081462000825578063bdd4d18d146200086c57620001b4565b806365e17c9d116200016b5780637fd6f15c11620001415780637fd6f15c14620004b35780638968cbaf14620004d35780638bcc880114620005045780638da5cb5b146200055057620001b4565b806365e17c9d14620003ef57806367b1f5df146200043b5780636a36d709146200048257620001b4565b806313bf942014620001b95780632453ffa814620001ea57806336dff220146200020a578063410459ad146200031557806348c8cd41146200035c5780634d5f9f5f14620003a8575b600080fd5b620001e860048036036020811015620001d157600080fd5b810190808035906020019092919050505062000b84565b005b620001f462000d8b565b6040518082815260200191505060405180910390f35b620002d3600480360360408110156200022257600080fd5b81019080803590602001906401000000008111156200024057600080fd5b8201836020820111156200025357600080fd5b803590602001918460018302840111640100000000831117156200027657600080fd5b91908080601f016020809104026020016040519081016040528093929190818152602001838380828437600081840152601f19601f8201169050808301925050505050505091929192908035906020019092919050505062000d91565b604051808273ffffffffffffffffffffffffffffffffffffffff1673ffffffffffffffffffffffffffffffffffffffff16815260200191505060405180910390f35b6200035a600480360360208110156200032d57600080fd5b81019080803573ffffffffffffffffffffffffffffffffffffffff16906020019092919050505062000e42565b005b6200036662000ee0565b604051808273ffffffffffffffffffffffffffffffffffffffff1673ffffffffffffffffffffffffffffffffffffffff16815260200191505060405180910390f35b620003ed60048036036020811015620003c057600080fd5b81019080803573ffffffffffffffffffffffffffffffffffffffff16906020019092919050505062000f06565b005b620003f962000fa4565b604051808273ffffffffffffffffffffffffffffffffffffffff1673ffffffffffffffffffffffffffffffffffffffff16815260200191505060405180910390f35b62000480600480360360208110156200045357600080fd5b81019080803573ffffffffffffffffffffffffffffffffffffffff16906020019092919050505062000fca565b005b620004b1600480360360208110156200049a57600080fd5b81019080803590602001909291905050506200100e565b005b620004bd6200150a565b6040518082815260200191505060405180910390f35b6200050260048036036020811015620004eb57600080fd5b810190808035906020019092919050505062001510565b005b6200050e6200160a565b604051808273ffffffffffffffffffffffffffffffffffffffff1673ffffffffffffffffffffffffffffffffffffffff16815260200191505060405180910390f35b6200055a62001630565b604051808273ffffffffffffffffffffffffffffffffffffffff1673ffffffffffffffffffffffffffffffffffffffff16815260200191505060405180910390f35b620005e960048036036080811015620005b457600080fd5b810190808035906020019092919080359060200190929190803590602001909291908035906020019092919050505062001655565b604051808273ffffffffffffffffffffffffffffffffffffffff1673ffffffffffffffffffffffffffffffffffffffff16815260200191505060405180910390f35b6200065a600480360360208110156200064357600080fd5b8101908080359060200190929190505050620016b0565b005b6200068b600480360360208110156200067457600080fd5b810190808035906020019092919050505062002d0b565b604051808d81526020018c73ffffffffffffffffffffffffffffffffffffffff1673ffffffffffffffffffffffffffffffffffffffff1681526020018b73ffffffffffffffffffffffffffffffffffffffff1673ffffffffffffffffffffffffffffffffffffffff1681526020018a81526020018981526020018873ffffffffffffffffffffffffffffffffffffffff1673ffffffffffffffffffffffffffffffffffffffff1681526020018781526020018681526020018573ffffffffffffffffffffffffffffffffffffffff1673ffffffffffffffffffffffffffffffffffffffff1681526020018473ffffffffffffffffffffffffffffffffffffffff1673ffffffffffffffffffffffffffffffffffffffff168152602001836005811115620007b457fe5b60ff1681526020018281526020019c5050505050505050505050505060405180910390f35b620007e362002e18565b604051808273ffffffffffffffffffffffffffffffffffffffff1673ffffffffffffffffffffffffffffffffffffffff16815260200191505060405180910390f35b6200086a600480360360208110156200083d57600080fd5b81019080803573ffffffffffffffffffffffffffffffffffffffff16906020019092919050505062002e3e565b005b6200087662002e82565b604051808273ffffffffffffffffffffffffffffffffffffffff1673ffffffffffffffffffffffffffffffffffffffff16815260200191505060405180910390f35b6200098b60048036036060811015620008d057600080fd5b810190808035906020019092919080359060200190640100000000811115620008f857600080fd5b8201836020820111156200090b57600080fd5b803590602001918460018302840111640100000000831117156200092e57600080fd5b91908080601f016020809104026020016040519081016040528093929190818152602001838380828437600081840152601f19601f8201169050808301925050505050505091929192908035906020019092919050505062002ea8565b005b6200099762002fa7565b604051808273ffffffffffffffffffffffffffffffffffffffff1673ffffffffffffffffffffffffffffffffffffffff16815260200191505060405180910390f35b62000a2860048036036040811015620009f157600080fd5b81019080803573ffffffffffffffffffffffffffffffffffffffff1690602001909291908035906020019092919050505062002fcd565b005b62000aad600480360360a081101562000a4257600080fd5b81019080803573ffffffffffffffffffffffffffffffffffffffff1690602001909291908035906020019092919080359060200190929190803573ffffffffffffffffffffffffffffffffffffffff1690602001909291908035906020019092919050505062003073565b005b62000af46004803603602081101562000ac757600080fd5b81019080803573ffffffffffffffffffffffffffffffffffffffff16906020019092919050505062003e3a565b005b62000b3b6004803603602081101562000b0e57600080fd5b81019080803573ffffffffffffffffffffffffffffffffffffffff16906020019092919050505062003fb6565b005b62000b826004803603602081101562000b5557600080fd5b81019080803573ffffffffffffffffffffffffffffffffffffffff16906020019092919050505062003ffa565b005b60095481111562000b9457600080fd5b600060086000838152602001908152602001600020905060008160080160009054906101000a900473ffffffffffffffffffffffffffffffffffffffff16905060008173ffffffffffffffffffffffffffffffffffffffff166378447a746040518163ffffffff1660e01b815260040160206040518083038186803b15801562000c1d57600080fd5b505afa15801562000c32573d6000803e3d6000fd5b505050506040513d602081101562000c4957600080fd5b81019080805190602001909291905050509050600160009054906101000a900473ffffffffffffffffffffffffffffffffffffffff1673ffffffffffffffffffffffffffffffffffffffff1663ad203bd48260016040518363ffffffff1660e01b8152600401808381526020018281526020019250505060206040518083038186803b15801562000cd957600080fd5b505afa15801562000cee573d6000803e3d6000fd5b505050506040513d602081101562000d0557600080fd5b810190808051906020019092919050505090508173ffffffffffffffffffffffffffffffffffffffff166354cba894826040518263ffffffff1660e01b815260040180828152602001915050600060405180830381600087803b15801562000d6c57600080fd5b505af115801562000d81573d6000803e3d6000fd5b5050505050505050565b60095481565b6000828260405162000da39062004399565b8080602001838152602001828103825284818151815260200191508051906020019080838360005b8381101562000de857808201518184015260208101905062000dcb565b50505050905090810190601f16801562000e165780820380516001836020036101000a031916815260200191505b509350505050604051809103906000f08015801562000e39573d6000803e3d6000fd5b50905092915050565b6000809054906101000a900473ffffffffffffffffffffffffffffffffffffffff1673ffffffffffffffffffffffffffffffffffffffff163373ffffffffffffffffffffffffffffffffffffffff161462000e9c57600080fd5b80600760006101000a81548173ffffffffffffffffffffffffffffffffffffffff021916908373ffffffffffffffffffffffffffffffffffffffff16021790555050565b600160009054906101000a900473ffffffffffffffffffffffffffffffffffffffff1681565b6000809054906101000a900473ffffffffffffffffffffffffffffffffffffffff1673ffffffffffffffffffffffffffffffffffffffff163373ffffffffffffffffffffffffffffffffffffffff161462000f6057600080fd5b80600160006101000a81548173ffffffffffffffffffffffffffffffffffffffff021916908373ffffffffffffffffffffffffffffffffffffffff16021790555050565b600560009054906101000a900473ffffffffffffffffffffffffffffffffffffffff1681565b80600460006101000a81548173ffffffffffffffffffffffffffffffffffffffff021916908373ffffffffffffffffffffffffffffffffffffffff16021790555050565b6009548111156200101e57600080fd5b600060086000838152602001908152602001600020905042600160009054906101000a900473ffffffffffffffffffffffffffffffffffffffff1673ffffffffffffffffffffffffffffffffffffffff16637217523c83600a015460016040518363ffffffff1660e01b8152600401808381526020018281526020019250505060206040518083038186803b158015620010b757600080fd5b505afa158015620010cc573d6000803e3d6000fd5b505050506040513d6020811015620010e357600080fd5b81019080805190602001909291905050501062001168576040517f08c379a00000000000000000000000000000000000000000000000000000000081526004018080602001828103825260158152602001807f6d757374206578656375746520696e2074696d6521000000000000000000000081525060200191505060405180910390fd5b60008160070154905062001188600654826200411290919063ffffffff16565b9050600160058111156200119857fe5b8260090160149054906101000a900460ff166005811115620011b657fe5b14156200137f57600460009054906101000a900473ffffffffffffffffffffffffffffffffffffffff1673ffffffffffffffffffffffffffffffffffffffff16638a4fe0548360050160009054906101000a900473ffffffffffffffffffffffffffffffffffffffff16600760009054906101000a900473ffffffffffffffffffffffffffffffffffffffff168560020160009054906101000a900473ffffffffffffffffffffffffffffffffffffffff16856040518563ffffffff1660e01b8152600401808573ffffffffffffffffffffffffffffffffffffffff1673ffffffffffffffffffffffffffffffffffffffff1681526020018473ffffffffffffffffffffffffffffffffffffffff1673ffffffffffffffffffffffffffffffffffffffff1681526020018373ffffffffffffffffffffffffffffffffffffffff1673ffffffffffffffffffffffffffffffffffffffff168152602001828152602001945050505050600060405180830381600087803b1580156200133957600080fd5b505af11580156200134e573d6000803e3d6000fd5b5050505060028260090160146101000a81548160ff021916908360058111156200137457fe5b021790555062001505565b6200138a836200413a565b600260009054906101000a900473ffffffffffffffffffffffffffffffffffffffff1673ffffffffffffffffffffffffffffffffffffffff16633395bf498360010160009054906101000a900473ffffffffffffffffffffffffffffffffffffffff1660006003811115620013fb57fe5b6040518363ffffffff1660e01b8152600401808373ffffffffffffffffffffffffffffffffffffffff1673ffffffffffffffffffffffffffffffffffffffff16815260200182815260200192505050600060405180830381600087803b1580156200146557600080fd5b505af11580156200147a573d6000803e3d6000fd5b505050508160080160009054906101000a900473ffffffffffffffffffffffffffffffffffffffff1673ffffffffffffffffffffffffffffffffffffffff166341c0e1b56040518163ffffffff1660e01b8152600401600060405180830381600087803b158015620014eb57600080fd5b505af115801562001500573d6000803e3d6000fd5b505050505b505050565b60065481565b6009548111156200152057600080fd5b6000600860008381526020019081526020016000209050600081600a01549050600160009054906101000a900473ffffffffffffffffffffffffffffffffffffffff1673ffffffffffffffffffffffffffffffffffffffff1663c7b6fd6a8260026040518363ffffffff1660e01b8152600401808381526020018281526020019250505060206040518083038186803b158015620015bd57600080fd5b505afa158015620015d2573d6000803e3d6000fd5b505050506040513d6020811015620015e957600080fd5b810190808051906020019092919050505090508082600a0181905550505050565b600360009054906101000a900473ffffffffffffffffffffffffffffffffffffffff1681565b6000809054906101000a900473ffffffffffffffffffffffffffffffffffffffff1681565b6000848484846040516200166990620043a7565b80858152602001848152602001838152602001828152602001945050505050604051809103906000f080158015620016a5573d6000803e3d6000fd5b509050949350505050565b600954811115620016c057600080fd5b600060086000838152602001908152602001600020905060008160080160009054906101000a900473ffffffffffffffffffffffffffffffffffffffff169050600260058111156200170e57fe5b6008600085815260200190815260200160002060090160149054906101000a900460ff1660058111156200173e57fe5b146200174957600080fd5b428173ffffffffffffffffffffffffffffffffffffffff166378447a746040518163ffffffff1660e01b815260040160206040518083038186803b1580156200179157600080fd5b505afa158015620017a6573d6000803e3d6000fd5b505050506040513d6020811015620017bd57600080fd5b81019080805190602001909291905050501062001842576040517f08c379a000000000000000000000000000000000000000000000000000000000815260040180806020018281038252600d8152602001807f6d75737420696e2074696d65210000000000000000000000000000000000000081525060200191505060405180910390fd5b60008173ffffffffffffffffffffffffffffffffffffffff16637223ad666040518163ffffffff1660e01b815260040160206040518083038186803b1580156200188b57600080fd5b505afa158015620018a0573d6000803e3d6000fd5b505050506040513d6020811015620018b757600080fd5b8101908080519060200190929190505050905060008273ffffffffffffffffffffffffffffffffffffffff1663183d0e2e6040518163ffffffff1660e01b815260040160206040518083038186803b1580156200191357600080fd5b505afa15801562001928573d6000803e3d6000fd5b505050506040513d60208110156200193f57600080fd5b810190808051906020019092919050505090506000600160009054906101000a900473ffffffffffffffffffffffffffffffffffffffff1673ffffffffffffffffffffffffffffffffffffffff16634355644d8573ffffffffffffffffffffffffffffffffffffffff166378447a746040518163ffffffff1660e01b815260040160206040518083038186803b158015620019d957600080fd5b505afa158015620019ee573d6000803e3d6000fd5b505050506040513d602081101562001a0557600080fd5b810190808051906020019092919050505060016040518363ffffffff1660e01b8152600401808381526020018281526020019250505060206040518083038186803b15801562001a5457600080fd5b505afa15801562001a69573d6000803e3d6000fd5b505050506040513d602081101562001a8057600080fd5b810190808051906020019092919050505090506000600160009054906101000a900473ffffffffffffffffffffffffffffffffffffffff1673ffffffffffffffffffffffffffffffffffffffff16637217523c8673ffffffffffffffffffffffffffffffffffffffff166378447a746040518163ffffffff1660e01b815260040160206040518083038186803b15801562001b1a57600080fd5b505afa15801562001b2f573d6000803e3d6000fd5b505050506040513d602081101562001b4657600080fd5b810190808051906020019092919050505060016040518363ffffffff1660e01b8152600401808381526020018281526020019250505060206040518083038186803b15801562001b9557600080fd5b505afa15801562001baa573d6000803e3d6000fd5b505050506040513d602081101562001bc157600080fd5b81019080805190602001909291905050509050600015158573ffffffffffffffffffffffffffffffffffffffff166381c17a156040518163ffffffff1660e01b815260040160206040518083038186803b15801562001c1f57600080fd5b505afa15801562001c34573d6000803e3d6000fd5b505050506040513d602081101562001c4b57600080fd5b810190808051906020019092919050505015151415620027d55760018573ffffffffffffffffffffffffffffffffffffffff1663cc9967bf6040518163ffffffff1660e01b815260040160206040518083038186803b15801562001cae57600080fd5b505afa15801562001cc3573d6000803e3d6000fd5b505050506040513d602081101562001cda57600080fd5b81019080805190602001909291905050501415620022405783600460009054906101000a900473ffffffffffffffffffffffffffffffffffffffff1673ffffffffffffffffffffffffffffffffffffffff1663f7888aec8860050160009054906101000a900473ffffffffffffffffffffffffffffffffffffffff168960010160009054906101000a900473ffffffffffffffffffffffffffffffffffffffff166040518363ffffffff1660e01b8152600401808373ffffffffffffffffffffffffffffffffffffffff1673ffffffffffffffffffffffffffffffffffffffff1681526020018273ffffffffffffffffffffffffffffffffffffffff1673ffffffffffffffffffffffffffffffffffffffff1681526020019250505060206040518083038186803b15801562001e0f57600080fd5b505afa15801562001e24573d6000803e3d6000fd5b505050506040513d602081101562001e3b57600080fd5b8101908080519060200190929190505050106200207657600460009054906101000a900473ffffffffffffffffffffffffffffffffffffffff1673ffffffffffffffffffffffffffffffffffffffff16638a4fe0548760050160009054906101000a900473ffffffffffffffffffffffffffffffffffffffff168860010160009054906101000a900473ffffffffffffffffffffffffffffffffffffffff16600760009054906101000a900473ffffffffffffffffffffffffffffffffffffffff16886040518563ffffffff1660e01b8152600401808573ffffffffffffffffffffffffffffffffffffffff1673ffffffffffffffffffffffffffffffffffffffff1681526020018473ffffffffffffffffffffffffffffffffffffffff1673ffffffffffffffffffffffffffffffffffffffff1681526020018373ffffffffffffffffffffffffffffffffffffffff1673ffffffffffffffffffffffffffffffffffffffff168152602001828152602001945050505050600060405180830381600087803b15801562001fce57600080fd5b505af115801562001fe3573d6000803e3d6000fd5b505050508473ffffffffffffffffffffffffffffffffffffffff16636bec79ae6040518163ffffffff1660e01b8152600401600060405180830381600087803b1580156200203057600080fd5b505af115801562002045573d6000803e3d6000fd5b5050505060048660090160146101000a81548160ff021916908360058111156200206b57fe5b02179055506200223a565b8473ffffffffffffffffffffffffffffffffffffffff1663022973f36040518163ffffffff1660e01b8152600401600060405180830381600087803b158015620020bf57600080fd5b505af1158015620020d4573d6000803e3d6000fd5b50505050600260009054906101000a900473ffffffffffffffffffffffffffffffffffffffff1673ffffffffffffffffffffffffffffffffffffffff16633395bf498760010160009054906101000a900473ffffffffffffffffffffffffffffffffffffffff16600260038111156200214957fe5b6040518363ffffffff1660e01b8152600401808373ffffffffffffffffffffffffffffffffffffffff1673ffffffffffffffffffffffffffffffffffffffff16815260200182815260200192505050600060405180830381600087803b158015620021b357600080fd5b505af1158015620021c8573d6000803e3d6000fd5b505050508473ffffffffffffffffffffffffffffffffffffffff1663fea90332826040518263ffffffff1660e01b815260040180828152602001915050600060405180830381600087803b1580156200222057600080fd5b505af115801562002235573d6000803e3d6000fd5b505050505b620027cf565b83600460009054906101000a900473ffffffffffffffffffffffffffffffffffffffff1673ffffffffffffffffffffffffffffffffffffffff1663f7888aec8860050160009054906101000a900473ffffffffffffffffffffffffffffffffffffffff168960010160009054906101000a900473ffffffffffffffffffffffffffffffffffffffff166040518363ffffffff1660e01b8152600401808373ffffffffffffffffffffffffffffffffffffffff1673ffffffffffffffffffffffffffffffffffffffff1681526020018273ffffffffffffffffffffffffffffffffffffffff1673ffffffffffffffffffffffffffffffffffffffff1681526020019250505060206040518083038186803b1580156200235d57600080fd5b505afa15801562002372573d6000803e3d6000fd5b505050506040513d60208110156200238957600080fd5b8101908080519060200190929190505050106200260a57600460009054906101000a900473ffffffffffffffffffffffffffffffffffffffff1673ffffffffffffffffffffffffffffffffffffffff16638a4fe0548760050160009054906101000a900473ffffffffffffffffffffffffffffffffffffffff168860010160009054906101000a900473ffffffffffffffffffffffffffffffffffffffff16600760009054906101000a900473ffffffffffffffffffffffffffffffffffffffff16886040518563ffffffff1660e01b8152600401808573ffffffffffffffffffffffffffffffffffffffff1673ffffffffffffffffffffffffffffffffffffffff1681526020018473ffffffffffffffffffffffffffffffffffffffff1673ffffffffffffffffffffffffffffffffffffffff1681526020018373ffffffffffffffffffffffffffffffffffffffff1673ffffffffffffffffffffffffffffffffffffffff168152602001828152602001945050505050600060405180830381600087803b1580156200251c57600080fd5b505af115801562002531573d6000803e3d6000fd5b505050508473ffffffffffffffffffffffffffffffffffffffff16636bec79ae6040518163ffffffff1660e01b8152600401600060405180830381600087803b1580156200257e57600080fd5b505af115801562002593573d6000803e3d6000fd5b505050508473ffffffffffffffffffffffffffffffffffffffff166354cba894836040518263ffffffff1660e01b815260040180828152602001915050600060405180830381600087803b158015620025eb57600080fd5b505af115801562002600573d6000803e3d6000fd5b50505050620027ce565b8473ffffffffffffffffffffffffffffffffffffffff1663022973f36040518163ffffffff1660e01b8152600401600060405180830381600087803b1580156200265357600080fd5b505af115801562002668573d6000803e3d6000fd5b50505050600260009054906101000a900473ffffffffffffffffffffffffffffffffffffffff1673ffffffffffffffffffffffffffffffffffffffff16633395bf498760010160009054906101000a900473ffffffffffffffffffffffffffffffffffffffff1660026003811115620026dd57fe5b6040518363ffffffff1660e01b8152600401808373ffffffffffffffffffffffffffffffffffffffff1673ffffffffffffffffffffffffffffffffffffffff16815260200182815260200192505050600060405180830381600087803b1580156200274757600080fd5b505af11580156200275c573d6000803e3d6000fd5b505050508473ffffffffffffffffffffffffffffffffffffffff1663fea90332826040518263ffffffff1660e01b815260040180828152602001915050600060405180830381600087803b158015620027b457600080fd5b505af1158015620027c9573d6000803e3d6000fd5b505050505b5b62002d02565b82600460009054906101000a900473ffffffffffffffffffffffffffffffffffffffff1673ffffffffffffffffffffffffffffffffffffffff1663f7888aec8860050160009054906101000a900473ffffffffffffffffffffffffffffffffffffffff168960010160009054906101000a900473ffffffffffffffffffffffffffffffffffffffff166040518363ffffffff1660e01b8152600401808373ffffffffffffffffffffffffffffffffffffffff1673ffffffffffffffffffffffffffffffffffffffff1681526020018273ffffffffffffffffffffffffffffffffffffffff1673ffffffffffffffffffffffffffffffffffffffff1681526020019250505060206040518083038186803b158015620028f257600080fd5b505afa15801562002907573d6000803e3d6000fd5b505050506040513d60208110156200291e57600080fd5b81019080805190602001909291905050501062002c3157600460009054906101000a900473ffffffffffffffffffffffffffffffffffffffff1673ffffffffffffffffffffffffffffffffffffffff16638a4fe0548760050160009054906101000a900473ffffffffffffffffffffffffffffffffffffffff168860010160009054906101000a900473ffffffffffffffffffffffffffffffffffffffff16600760009054906101000a900473ffffffffffffffffffffffffffffffffffffffff16876040518563ffffffff1660e01b8152600401808573ffffffffffffffffffffffffffffffffffffffff1673ffffffffffffffffffffffffffffffffffffffff1681526020018473ffffffffffffffffffffffffffffffffffffffff1673ffffffffffffffffffffffffffffffffffffffff1681526020018373ffffffffffffffffffffffffffffffffffffffff1673ffffffffffffffffffffffffffffffffffffffff168152602001828152602001945050505050600060405180830381600087803b15801562002ab157600080fd5b505af115801562002ac6573d6000803e3d6000fd5b50505050600260009054906101000a900473ffffffffffffffffffffffffffffffffffffffff1673ffffffffffffffffffffffffffffffffffffffff16633395bf498760010160009054906101000a900473ffffffffffffffffffffffffffffffffffffffff166001600381111562002b3b57fe5b6040518363ffffffff1660e01b8152600401808373ffffffffffffffffffffffffffffffffffffffff1673ffffffffffffffffffffffffffffffffffffffff16815260200182815260200192505050600060405180830381600087803b15801562002ba557600080fd5b505af115801562002bba573d6000803e3d6000fd5b505050508473ffffffffffffffffffffffffffffffffffffffff166354cba894836040518263ffffffff1660e01b815260040180828152602001915050600060405180830381600087803b15801562002c1257600080fd5b505af115801562002c27573d6000803e3d6000fd5b5050505062002d01565b8473ffffffffffffffffffffffffffffffffffffffff1663022973f36040518163ffffffff1660e01b8152600401600060405180830381600087803b15801562002c7a57600080fd5b505af115801562002c8f573d6000803e3d6000fd5b505050508473ffffffffffffffffffffffffffffffffffffffff1663fea90332826040518263ffffffff1660e01b815260040180828152602001915050600060405180830381600087803b15801562002ce757600080fd5b505af115801562002cfc573d6000803e3d6000fd5b505050505b5b50505050505050565b60086020528060005260406000206000915090508060000154908060010160009054906101000a900473ffffffffffffffffffffffffffffffffffffffff16908060020160009054906101000a900473ffffffffffffffffffffffffffffffffffffffff16908060030154908060040154908060050160009054906101000a900473ffffffffffffffffffffffffffffffffffffffff16908060060154908060070154908060080160009054906101000a900473ffffffffffffffffffffffffffffffffffffffff16908060090160009054906101000a900473ffffffffffffffffffffffffffffffffffffffff16908060090160149054906101000a900460ff169080600a015490508c565b600760009054906101000a900473ffffffffffffffffffffffffffffffffffffffff1681565b80600360006101000a81548173ffffffffffffffffffffffffffffffffffffffff021916908373ffffffffffffffffffffffffffffffffffffffff16021790555050565b600260009054906101000a900473ffffffffffffffffffffffffffffffffffffffff1681565b60095483111562002eb857600080fd5b60006008600085815260200190815260200160002090508060020160009054906101000a900473ffffffffffffffffffffffffffffffffffffffff1673ffffffffffffffffffffffffffffffffffffffff163373ffffffffffffffffffffffffffffffffffffffff161462002f2c57600080fd5b62002f38838362000d91565b8160090160006101000a81548173ffffffffffffffffffffffffffffffffffffffff021916908373ffffffffffffffffffffffffffffffffffffffff16021790555060018160090160146101000a81548160ff0219169083600581111562002f9c57fe5b021790555050505050565b600460009054906101000a900473ffffffffffffffffffffffffffffffffffffffff1681565b6000809054906101000a900473ffffffffffffffffffffffffffffffffffffffff1673ffffffffffffffffffffffffffffffffffffffff163373ffffffffffffffffffffffffffffffffffffffff16146200302757600080fd5b81600560006101000a81548173ffffffffffffffffffffffffffffffffffffffff021916908373ffffffffffffffffffffffffffffffffffffffff160217905550806006819055505050565b60011515600260009054906101000a900473ffffffffffffffffffffffffffffffffffffffff1673ffffffffffffffffffffffffffffffffffffffff16639a63d820336040518263ffffffff1660e01b8152600401808273ffffffffffffffffffffffffffffffffffffffff1673ffffffffffffffffffffffffffffffffffffffff16815260200191505060206040518083038186803b1580156200311757600080fd5b505afa1580156200312c573d6000803e3d6000fd5b505050506040513d60208110156200314357600080fd5b8101908080519060200190929190505050151514620031ca576040517f08c379a000000000000000000000000000000000000000000000000000000000815260040180806020018281038252600f8152602001807f6d656d6265722063616e20626e706c000000000000000000000000000000000081525060200191505060405180910390fd5b60011515600360009054906101000a900473ffffffffffffffffffffffffffffffffffffffff1673ffffffffffffffffffffffffffffffffffffffff16632520e7ff876040518263ffffffff1660e01b8152600401808273ffffffffffffffffffffffffffffffffffffffff1673ffffffffffffffffffffffffffffffffffffffff16815260200191505060206040518083038186803b1580156200326e57600080fd5b505afa15801562003283573d6000803e3d6000fd5b505050506040513d60208110156200329a57600080fd5b810190808051906020019092919050505015151462003321576040517f08c379a00000000000000000000000000000000000000000000000000000000081526004018080602001828103825260148152602001807f73656c6c657220697320617574686f72697a656400000000000000000000000081525060200191505060405180910390fd5b600460009054906101000a900473ffffffffffffffffffffffffffffffffffffffff1673ffffffffffffffffffffffffffffffffffffffff1663f7888aec83336040518363ffffffff1660e01b8152600401808373ffffffffffffffffffffffffffffffffffffffff1673ffffffffffffffffffffffffffffffffffffffff1681526020018273ffffffffffffffffffffffffffffffffffffffff1673ffffffffffffffffffffffffffffffffffffffff1681526020019250505060206040518083038186803b158015620033f557600080fd5b505afa1580156200340a573d6000803e3d6000fd5b505050506040513d60208110156200342157600080fd5b8101908080519060200190929190505050811115620034a8576040517f08c379a00000000000000000000000000000000000000000000000000000000081526004018080602001828103825260118152602001807f6861766520656e6f756768206d6f6e657900000000000000000000000000000081525060200191505060405180910390fd5b600460009054906101000a900473ffffffffffffffffffffffffffffffffffffffff1673ffffffffffffffffffffffffffffffffffffffff16638a4fe0548333600760009054906101000a900473ffffffffffffffffffffffffffffffffffffffff16856040518563ffffffff1660e01b8152600401808573ffffffffffffffffffffffffffffffffffffffff1673ffffffffffffffffffffffffffffffffffffffff1681526020018473ffffffffffffffffffffffffffffffffffffffff1673ffffffffffffffffffffffffffffffffffffffff1681526020018373ffffffffffffffffffffffffffffffffffffffff1673ffffffffffffffffffffffffffffffffffffffff168152602001828152602001945050505050600060405180830381600087803b158015620035dc57600080fd5b505af1158015620035f1573d6000803e3d6000fd5b505050506200360d60016009546200418790919063ffffffff16565b6009819055506000806000600360009054906101000a900473ffffffffffffffffffffffffffffffffffffffff1673ffffffffffffffffffffffffffffffffffffffff166369d5f81e89896040518363ffffffff1660e01b8152600401808373ffffffffffffffffffffffffffffffffffffffff1673ffffffffffffffffffffffffffffffffffffffff1681526020018281526020019250505060006040518083038186803b158015620036c057600080fd5b505afa158015620036d5573d6000803e3d6000fd5b505050506040513d6000823e3d601f19601f8201168201806040525060608110156200370057600080fd5b81019080805160405193929190846401000000008211156200372157600080fd5b838201915060208201858111156200373857600080fd5b82518660018202830111640100000000821117156200375657600080fd5b8083526020830192505050908051906020019080838360005b838110156200378c5780820151818401526020810190506200376f565b50505050905090810190601f168015620037ba5780820380516001836020036101000a031916815260200191505b5060405260200180516040519392919084640100000000821115620037de57600080fd5b83820191506020820185811115620037f557600080fd5b82518660018202830111640100000000821117156200381357600080fd5b8083526020830192505050908051906020019080838360005b83811015620038495780820151818401526020810190506200382c565b50505050905090810190601f168015620038775780820380516001836020036101000a031916815260200191505b5060405260200180519060200190929190505050909150905080935050620038a98684620041a790919063ffffffff16565b925060405180610180016040528060095481526020013373ffffffffffffffffffffffffffffffffffffffff1681526020018973ffffffffffffffffffffffffffffffffffffffff1681526020018881526020018781526020018673ffffffffffffffffffffffffffffffffffffffff168152602001858152602001848152602001600073ffffffffffffffffffffffffffffffffffffffff168152602001600073ffffffffffffffffffffffffffffffffffffffff168152602001600060058111156200397357fe5b8152602001428152506008600060095481526020019081526020016000206000820151816000015560208201518160010160006101000a81548173ffffffffffffffffffffffffffffffffffffffff021916908373ffffffffffffffffffffffffffffffffffffffff16021790555060408201518160020160006101000a81548173ffffffffffffffffffffffffffffffffffffffff021916908373ffffffffffffffffffffffffffffffffffffffff160217905550606082015181600301556080820151816004015560a08201518160050160006101000a81548173ffffffffffffffffffffffffffffffffffffffff021916908373ffffffffffffffffffffffffffffffffffffffff16021790555060c0820151816006015560e082015181600701556101008201518160080160006101000a81548173ffffffffffffffffffffffffffffffffffffffff021916908373ffffffffffffffffffffffffffffffffffffffff1602179055506101208201518160090160006101000a81548173ffffffffffffffffffffffffffffffffffffffff021916908373ffffffffffffffffffffffffffffffffffffffff1602179055506101408201518160090160146101000a81548160ff0219169083600581111562003b4e57fe5b021790555061016082015181600a0155905050600260009054906101000a900473ffffffffffffffffffffffffffffffffffffffff1673ffffffffffffffffffffffffffffffffffffffff1663ca1f3ac6336040518263ffffffff1660e01b8152600401808273ffffffffffffffffffffffffffffffffffffffff1673ffffffffffffffffffffffffffffffffffffffff16815260200191505060206040518083038186803b15801562003c0157600080fd5b505afa15801562003c16573d6000803e3d6000fd5b505050506040513d602081101562003c2d57600080fd5b81019080805190602001909291905050509150600160009054906101000a900473ffffffffffffffffffffffffffffffffffffffff1673ffffffffffffffffffffffffffffffffffffffff16634355644d4260016040518363ffffffff1660e01b8152600401808381526020018281526020019250505060206040518083038186803b15801562003cbd57600080fd5b505afa15801562003cd2573d6000803e3d6000fd5b505050506040513d602081101562003ce957600080fd5b8101908080519060200190929190505050905062003d0a8484848462001655565b60086000600954815260200190815260200160002060080160006101000a81548173ffffffffffffffffffffffffffffffffffffffff021916908373ffffffffffffffffffffffffffffffffffffffff160217905550600260009054906101000a900473ffffffffffffffffffffffffffffffffffffffff1673ffffffffffffffffffffffffffffffffffffffff16633395bf49336001600381111562003dad57fe5b6040518363ffffffff1660e01b8152600401808373ffffffffffffffffffffffffffffffffffffffff1673ffffffffffffffffffffffffffffffffffffffff16815260200182815260200192505050600060405180830381600087803b15801562003e1757600080fd5b505af115801562003e2c573d6000803e3d6000fd5b505050505050505050505050565b6000809054906101000a900473ffffffffffffffffffffffffffffffffffffffff1673ffffffffffffffffffffffffffffffffffffffff163373ffffffffffffffffffffffffffffffffffffffff161462003e9457600080fd5b60008060009054906101000a900473ffffffffffffffffffffffffffffffffffffffff169050816000806101000a81548173ffffffffffffffffffffffffffffffffffffffff021916908373ffffffffffffffffffffffffffffffffffffffff1602179055507f5c486528ec3e3f0ea91181cff8116f02bfa350e03b8b6f12e00765adbb5af85c816000809054906101000a900473ffffffffffffffffffffffffffffffffffffffff16604051808373ffffffffffffffffffffffffffffffffffffffff1673ffffffffffffffffffffffffffffffffffffffff1681526020018273ffffffffffffffffffffffffffffffffffffffff1673ffffffffffffffffffffffffffffffffffffffff1681526020019250505060405180910390a15050565b80600260006101000a81548173ffffffffffffffffffffffffffffffffffffffff021916908373ffffffffffffffffffffffffffffffffffffffff16021790555050565b6000809054906101000a900473ffffffffffffffffffffffffffffffffffffffff1673ffffffffffffffffffffffffffffffffffffffff163373ffffffffffffffffffffffffffffffffffffffff16146200405457600080fd5b600260009054906101000a900473ffffffffffffffffffffffffffffffffffffffff1673ffffffffffffffffffffffffffffffffffffffff166328631c62826040518263ffffffff1660e01b8152600401808273ffffffffffffffffffffffffffffffffffffffff1673ffffffffffffffffffffffffffffffffffffffff168152602001915050600060405180830381600087803b158015620040f657600080fd5b505af11580156200410b573d6000803e3d6000fd5b5050505050565b60008082116200412157600080fd5b60008284816200412d57fe5b0490508091505092915050565b600060086000838152602001908152602001600020905060058160090160146101000a81548160ff021916908360058111156200417357fe5b02179055506200418382620041e5565b5050565b6000808284019050838110156200419d57600080fd5b8091505092915050565b600080831415620041bc5760009050620041df565b6000828402905082848281620041ce57fe5b0414620041da57600080fd5b809150505b92915050565b6000600860008381526020019081526020016000209050600460009054906101000a900473ffffffffffffffffffffffffffffffffffffffff1673ffffffffffffffffffffffffffffffffffffffff16638a4fe0548260050160009054906101000a900473ffffffffffffffffffffffffffffffffffffffff16600760009054906101000a900473ffffffffffffffffffffffffffffffffffffffff168460010160009054906101000a900473ffffffffffffffffffffffffffffffffffffffff1685600601546040518563ffffffff1660e01b8152600401808573ffffffffffffffffffffffffffffffffffffffff1673ffffffffffffffffffffffffffffffffffffffff1681526020018473ffffffffffffffffffffffffffffffffffffffff1673ffffffffffffffffffffffffffffffffffffffff1681526020018373ffffffffffffffffffffffffffffffffffffffff1673ffffffffffffffffffffffffffffffffffffffff168152602001828152602001945050505050600060405180830381600087803b1580156200437c57600080fd5b505af115801562004391573d6000803e3d6000fd5b505050505050565b61097180620043b683390190565b610b138062004d278339019056fe608060405234801561001057600080fd5b506040516109713803806109718339818101604052604081101561003357600080fd5b810190808051604051939291908464010000000082111561005357600080fd5b8382019150602082018581111561006957600080fd5b825186600182028301116401000000008211171561008657600080fd5b8083526020830192505050908051906020019080838360005b838110156100ba57808201518184015260208101905061009f565b50505050905090810190601f1680156100e75780820380516001836020036101000a031916815260200191505b5060405260200180519060200190929190505050816000908051906020019061011192919061025d565b508060018190555033600260006101000a81548173ffffffffffffffffffffffffffffffffffffffff021916908373ffffffffffffffffffffffffffffffffffffffff1602179055506000600260146101000a81548160ff0219169083600281111561017957fe5b02179055507f1017e91081484254db5f1102b30b3b9093fa9c0153485ddb0ed8c8071222d7df33334260405180806020018573ffffffffffffffffffffffffffffffffffffffff1673ffffffffffffffffffffffffffffffffffffffff1681526020018473ffffffffffffffffffffffffffffffffffffffff1673ffffffffffffffffffffffffffffffffffffffff168152602001838152602001828103825260068152602001807f435245415445000000000000000000000000000000000000000000000000000081525060200194505050505060405180910390a15050610302565b828054600181600116156101000203166002900490600052602060002090601f016020900481019282601f1061029e57805160ff19168380011785556102cc565b828001600101855582156102cc579182015b828111156102cb5782518255916020019190600101906102b0565b5b5090506102d991906102dd565b5090565b6102ff91905b808211156102fb5760008160009055506001016102e3565b5090565b90565b610660806103116000396000f3fe608060405234801561001057600080fd5b50600436106100575760003560e01c806306fdde031461005c578063200d2ed2146100df5780633e58c58c1461010b578063481c6a751461014f578063a3e76c0f14610199575b600080fd5b6100646101a3565b6040518080602001828103825283818151815260200191508051906020019080838360005b838110156100a4578082015181840152602081019050610089565b50505050905090810190601f1680156100d15780820380516001836020036101000a031916815260200191505b509250505060405180910390f35b6100e7610241565b604051808260028111156100f757fe5b60ff16815260200191505060405180910390f35b61014d6004803603602081101561012157600080fd5b81019080803573ffffffffffffffffffffffffffffffffffffffff169060200190929190505050610254565b005b61015761047c565b604051808273ffffffffffffffffffffffffffffffffffffffff1673ffffffffffffffffffffffffffffffffffffffff16815260200191505060405180910390f35b6101a16104a2565b005b60008054600181600116156101000203166002900480601f0160208091040260200160405190810160405280929190818152602001828054600181600116156101000203166002900480156102395780601f1061020e57610100808354040283529160200191610239565b820191906000526020600020905b81548152906001019060200180831161021c57829003601f168201915b505050505081565b600260149054906101000a900460ff1681565b600260009054906101000a900473ffffffffffffffffffffffffffffffffffffffff1673ffffffffffffffffffffffffffffffffffffffff163373ffffffffffffffffffffffffffffffffffffffff16146102ae57600080fd5b600260009054906101000a900473ffffffffffffffffffffffffffffffffffffffff1673ffffffffffffffffffffffffffffffffffffffff168173ffffffffffffffffffffffffffffffffffffffff16141561030957600080fd5b6001600281111561031657fe5b600260149054906101000a900460ff16600281111561033157fe5b141561033c57600080fd5b6001600260146101000a81548160ff0219169083600281111561035b57fe5b021790555080600260006101000a81548173ffffffffffffffffffffffffffffffffffffffff021916908373ffffffffffffffffffffffffffffffffffffffff1602179055507f1017e91081484254db5f1102b30b3b9093fa9c0153485ddb0ed8c8071222d7df33824260405180806020018573ffffffffffffffffffffffffffffffffffffffff1673ffffffffffffffffffffffffffffffffffffffff1681526020018473ffffffffffffffffffffffffffffffffffffffff1673ffffffffffffffffffffffffffffffffffffffff168152602001838152602001828103825260048152602001807f53454e440000000000000000000000000000000000000000000000000000000081525060200194505050505060405180910390a150565b600260009054906101000a900473ffffffffffffffffffffffffffffffffffffffff1681565b600260009054906101000a900473ffffffffffffffffffffffffffffffffffffffff1673ffffffffffffffffffffffffffffffffffffffff163373ffffffffffffffffffffffffffffffffffffffff16146104fc57600080fd5b6001600281111561050957fe5b600260149054906101000a900460ff16600281111561052457fe5b1461052e57600080fd5b60028060146101000a81548160ff0219169083600281111561054c57fe5b02179055507f1017e91081484254db5f1102b30b3b9093fa9c0153485ddb0ed8c8071222d7df33334260405180806020018573ffffffffffffffffffffffffffffffffffffffff1673ffffffffffffffffffffffffffffffffffffffff1681526020018473ffffffffffffffffffffffffffffffffffffffff1673ffffffffffffffffffffffffffffffffffffffff168152602001838152602001828103825260078152602001807f524543454956450000000000000000000000000000000000000000000000000081525060200194505050505060405180910390a156fea265627a7a72315820f8d1e6ea5815742a8b52cd1ca01efd3c058a32b7da86c66979f3eba82fe66e2864736f6c63430005100032608060405234801561001057600080fd5b50604051610b13380380610b138339818101604052608081101561003357600080fd5b810190808051906020019092919080519060200190929190805190602001909291908051906020019092919050505033806000806101000a81548173ffffffffffffffffffffffffffffffffffffffff021916908373ffffffffffffffffffffffffffffffffffffffff160217905550506100bb848461011460201b6109551790919060201c565b600181905550816002819055506100e360025460015461013460201b61092f1790919060201c565b600381905550806004819055506001600060146101000a81548160ff0219169083151502179055505050505061015a565b60008282111561012357600080fd5b600082840390508091505092915050565b600080821161014257600080fd5b600082848161014d57fe5b0490508091505092915050565b6109aa806101696000396000f3fe608060405234801561001057600080fd5b50600436106100f55760003560e01c80637223ad6611610097578063cc9967bf11610066578063cc9967bf14610238578063f2fde38b14610256578063fea903321461029a578063ff705a16146102c8576100f5565b80637223ad661461019057806378447a74146101ae57806381c17a15146101cc5780638da5cb5b146101ee576100f5565b80632e422c50116100d35780632e422c501461012c57806341c0e1b51461014e57806354cba894146101585780636bec79ae14610186576100f5565b8063022973f3146100fa5780630da2318214610104578063183d0e2e1461010e575b600080fd5b6101026102e6565b005b61010c610369565b005b61011661044b565b6040518082815260200191505060405180910390f35b610134610475565b604051808215151515815260200191505060405180910390f35b61015661048b565b005b6101846004803603602081101561016e57600080fd5b8101908080359060200190929190505050610500565b005b61018e61052a565b005b61019861060c565b6040518082815260200191505060405180910390f35b6101b6610660565b6040518082815260200191505060405180910390f35b6101d461068a565b604051808215151515815260200191505060405180910390f35b6101f66106b8565b604051808273ffffffffffffffffffffffffffffffffffffffff1673ffffffffffffffffffffffffffffffffffffffff16815260200191505060405180910390f35b6102406106dd565b6040518082815260200191505060405180910390f35b6102986004803603602081101561026c57600080fd5b81019080803573ffffffffffffffffffffffffffffffffffffffff169060200190929190505050610707565b005b6102c6600480360360208110156102b057600080fd5b8101908080359060200190929190505050610882565b005b6102d06108ac565b6040518082815260200191505060405180910390f35b60011515600060149054906101000a900460ff1615151461030657600080fd5b600061031f6005546001546108d690919063ffffffff16565b90506103496103e861033b6003846108f590919063ffffffff16565b61092f90919063ffffffff16565b9050610360816005546108d690919063ffffffff16565b60058190555050565b6000809054906101000a900473ffffffffffffffffffffffffffffffffffffffff1673ffffffffffffffffffffffffffffffffffffffff163373ffffffffffffffffffffffffffffffffffffffff16146103c257600080fd5b60011515600060149054906101000a900460ff161515146103e257600080fd5b6103f8600160025461095590919063ffffffff16565b6002819055506000600254141561042b5761042060035460015461095590919063ffffffff16565b600181905550610449565b61044260035460015461095590919063ffffffff16565b6001819055505b565b600060011515600060149054906101000a900460ff1615151461046d57600080fd5b600554905090565b60008060149054906101000a900460ff16905090565b6000809054906101000a900473ffffffffffffffffffffffffffffffffffffffff1673ffffffffffffffffffffffffffffffffffffffff163373ffffffffffffffffffffffffffffffffffffffff16146104e457600080fd5b60008060146101000a81548160ff021916908315150217905550565b60011515600060149054906101000a900460ff1615151461052057600080fd5b8060048190555050565b6000809054906101000a900473ffffffffffffffffffffffffffffffffffffffff1673ffffffffffffffffffffffffffffffffffffffff163373ffffffffffffffffffffffffffffffffffffffff161461058357600080fd5b60011515600060149054906101000a900460ff161515146105a357600080fd5b6105b9600160025461095590919063ffffffff16565b600281905550600060025414156105ec576105e160035460015461095590919063ffffffff16565b60018190555061060a565b61060360035460015461095590919063ffffffff16565b6001819055505b565b600060011515600060149054906101000a900460ff1615151461062e57600080fd5b60006002541415610642576000905061065d565b6001600254141561065757600154905061065d565b60035490505b90565b600060011515600060149054906101000a900460ff1615151461068257600080fd5b600454905090565b600060011515600060149054906101000a900460ff161515146106ac57600080fd5b60006005541015905090565b6000809054906101000a900473ffffffffffffffffffffffffffffffffffffffff1681565b600060011515600060149054906101000a900460ff161515146106ff57600080fd5b600254905090565b6000809054906101000a900473ffffffffffffffffffffffffffffffffffffffff1673ffffffffffffffffffffffffffffffffffffffff163373ffffffffffffffffffffffffffffffffffffffff161461076057600080fd5b60008060009054906101000a900473ffffffffffffffffffffffffffffffffffffffff169050816000806101000a81548173ffffffffffffffffffffffffffffffffffffffff021916908373ffffffffffffffffffffffffffffffffffffffff1602179055507f5c486528ec3e3f0ea91181cff8116f02bfa350e03b8b6f12e00765adbb5af85c816000809054906101000a900473ffffffffffffffffffffffffffffffffffffffff16604051808373ffffffffffffffffffffffffffffffffffffffff1673ffffffffffffffffffffffffffffffffffffffff1681526020018273ffffffffffffffffffffffffffffffffffffffff1673ffffffffffffffffffffffffffffffffffffffff1681526020019250505060405180910390a15050565b60011515600060149054906101000a900460ff161515146108a257600080fd5b8060068190555050565b600060011515600060149054906101000a900460ff161515146108ce57600080fd5b600154905090565b6000808284019050838110156108eb57600080fd5b8091505092915050565b6000808314156109085760009050610929565b600082840290508284828161091957fe5b041461092457600080fd5b809150505b92915050565b600080821161093d57600080fd5b600082848161094857fe5b0490508091505092915050565b60008282111561096457600080fd5b60008284039050809150509291505056fea265627a7a72315820fbe1b9686a64b22d8ecb3de66641162eac9cec892dc4989cc29e66db6cb6873f64736f6c63430005100032a265627a7a72315820be31b608da41f6d43e006dfe7703259bea3be3ad7d3d18b563cee088083f7a8d64736f6c63430005100032",
  "source": "pragma solidity ^0.5.0;\n\nimport \"openzeppelin-solidity/contracts/math/SafeMath.sol\";\nimport \"./BokkyPooBahsDateTimeContract.sol\";\nimport \"./usingOraclize.sol\";\n\nimport \"./Owned.sol\";\nimport \"./Token.sol\";\nimport \"./Exchange.sol\";\n\nimport \"./Members.sol\";\nimport \"./Merchants.sol\";\n\nimport \"./Installment.sol\";\nimport \"./Package.sol\";\n\ncontract Bnpl is Owned {\n  using SafeMath for uint;\n\n  enum RANK {\n    BRONZE,\n    SILVER,\n    GOLD\n  }\n\n  enum BNPLSTAT{\n    //UNENROLLED,\n    NONE,\n    PROCESSING,\n    LATE,\n    BANNED\n  }\n\n\n  enum ORDERSTATS {\n      CREATED,    //  -> installment \n      LOADED,     // package \n      DONE,       //  1 2 way \n      PROCESSING, // installment \n      FINISHED,\n      CANCELLED   // package    -> initcost  -> \n  }\n\n  // reference datecontract\n  BokkyPooBahsDateTimeContract public dateTime;\n  Members public members;\n  Merchants public merchants;\n  Exchange public exchange;\n\n\n  // Variables\n  address public feeAccount;\n  uint public feePercent; // the fee percentage\n\n  address public payee;\n\n  mapping(uint => _Order) public orders;\n  uint public orderCount;\n\n  //mapping(uint => bool) public orderCancelled;\n  //mapping(uint => bool) public orderFilled;\n\n  //STATUSES public status;\n\n\n\n  event Fill(\n      uint    id,\n      address buyer,\n      address seller,\n      address tokenKind,\n      uint    totalPrice,\n      uint    initcost,\n      uint    installmentPeriod,\n      uint    timestamp\n  );\n  event Order(\n      uint    id,\n      address buyer,\n      address seller,\n      address tokenKind,\n      uint    totalPrice,\n      uint    installmentPeriod,\n      uint    timestamp\n  );\n  event Cancel(\n      uint    id,\n      address buyer,\n      address seller,\n      address tokenKind,\n      uint    totalPrice,\n      uint    initcost,\n      uint    installmentPeriod,\n      uint    timestamp\n  );\n  event Trade(\n      uint    id,\n      address buyer,\n      address seller,\n      address tokenKind,\n      uint    totalPrice,\n      uint    initcost,\n      uint    installmentPeriod,\n      uint    timestamp\n\n  );\n\n  event BlackListed(address indexed target);\n  event DeleteFromBlacklist(address indexed target);\n\n  struct _Order {\n    uint        id;\n    address     buyer;\n    address     seller;\n    uint        productNum;\n    uint        qty;\n    address     tokenKind;\n    uint        initCost;\n    uint        totalPrice;\n    Installment installmentCon;\n    Package     packageCon;\n    ORDERSTATS  orderStat;\n    uint256     timestamp;\n  } \n\n  constructor () Owned(msg.sender) public {\n    \n    // members = new Members(address(this));\n    // merchants = new Merchants(address(this));\n  }\n\n  function setFee(address _feeAccount, uint _feePercent) public onlyOwner {\n    feeAccount = _feeAccount;\n    feePercent = _feePercent;\n  }\n\n  function setPayee(address _payee) public onlyOwner {\n    payee = _payee; \n  }\n\n  function setDatetime(address _dateTime) public onlyOwner {\n    dateTime = BokkyPooBahsDateTimeContract(_dateTime);\n  }\n\n  function setExchange(address _exchange) public {\n    exchange = Exchange(_exchange);\n  }\n\n  function setMembers(address _members) public {\n    members = Members(_members);\n  }\n\n  function setMerchants(address _merchants) public {\n    merchants = Merchants(_merchants);\n  }\n\n  //  bnpl  .\n  function registerMember(address _member) public onlyOwner {\n    members.initMemberBnplInfo(_member);\n  }\n\n  function makeBnplOrder\n  (\n    address _seller,\n    uint    _prodNum,\n    uint    _qty,\n    address _token,\n    uint    _initCost\n  ) public {\n    //     .\n    require(members.canMemberBnpl(msg.sender) == true, 'member can bnpl');\n    require(merchants.isAuth(_seller) == true, 'seller is authorized');\n\n    // // initcost   .\n    require(_initCost <= exchange.balanceOf(_token,msg.sender), 'have enough money');\n\n    //  init  . (1way)\n    exchange.depositTokenTransfer(_token, msg.sender, payee, _initCost);\n\n    orderCount = orderCount.add(1);\n\n    uint totalPrice;\n    uint installmentCnt;\n    uint nextTimestamp;\n\n    ( , , totalPrice) = merchants.getProduct(_seller, _prodNum);\n    totalPrice = totalPrice.mul(_qty);\n\n    orders[orderCount] = _Order(\n      orderCount, \n      msg.sender,\n      _seller, \n      _prodNum,\n      _qty,\n      _token,\n      _initCost,\n      totalPrice,\n      Installment(0x0),\n      Package(0x0),\n      ORDERSTATS.CREATED,\n      now);\n\n\n    //  installment period  member  \n    installmentCnt = members.getMemberInstallments(msg.sender);\n\n    nextTimestamp = dateTime.addMonths(now, 1);\n\n    orders[orderCount].installmentCon = makeInstallmentCon(_initCost, totalPrice, installmentCnt, nextTimestamp);\n\n    // msg.sender  bnpl  \n    members.setMemberBnplStat(msg.sender, uint(BNPLSTAT.PROCESSING));\n\n    // event \n    // emit Order(orderCount, msg.sender, _seller, _token, _totalPrice, _initCost, now);\n  }\n\n  function makeInstallmentCon(uint _initCost, uint _totalPrice, uint _installmentCnt, uint _nextTimestamp) public returns(Installment) {\n    return new Installment(_initCost, _totalPrice, _installmentCnt, _nextTimestamp);\n  }\n\n  function makePackageCon(string memory _name, uint256 _trackingNum) public returns(Package) {\n    return new Package(_name, _trackingNum);\n  }\n\n  // seller     \n  function acceptOrder(uint _id, string memory _name, uint _trackingNum) public {\n    //    .\n    require(_id <= orderCount);\n\n    _Order storage order = orders[_id];\n\n    //msg.sender  _id  seller  .\n    require(msg.sender == order.seller);\n\n    order.packageCon = makePackageCon(_name, _trackingNum);\n\n    order.orderStat = ORDERSTATS.LOADED;\n\n  }\n  // it is only for testing!!\n  function orderTimeSub(uint _id) public {\n    //    .\n    require(_id <= orderCount);\n\n    _Order storage order = orders[_id];\n\n    uint timeMachine = order.timestamp;\n    timeMachine = dateTime.subDays(timeMachine, 2);\n    order.timestamp = timeMachine;\n  }\n\n  function installTimeSub(uint _id) public {\n    //    .\n    require(_id <= orderCount);\n\n    _Order storage order = orders[_id];\n\n    Installment curInstall = order.installmentCon;\n\n    uint timeMachine = curInstall.getNextInstallDeadline();\n    timeMachine = dateTime.subMonths(timeMachine, 1);\n    \n    curInstall.setNextInstallDeadline(timeMachine);\n  }\n\n\n  function manageWay1and2(uint _id) public {\n    //    .\n    require(_id <= orderCount);\n\n    _Order storage order = orders[_id];\n    require(dateTime.addDays(order.timestamp,1) < now, 'must execute in time!');\n\n    uint afterPrice = order.totalPrice;\n\n    afterPrice = afterPrice.div(feePercent);\n\n\n    // seller  (2way) \n    if(order.orderStat == ORDERSTATS.LOADED){\n      //   total cost \n      // order 1,2  \n      exchange.depositTokenTransfer(order.tokenKind, payee, order.seller, afterPrice);\n      order.orderStat = ORDERSTATS.DONE;\n\n      // emit \n    }else{\n      // (1way) , order \n      _cancelOrder(_id);\n      \n      // member bnpl stat \n      members.setMemberBnplStat(order.buyer, uint(BNPLSTAT.NONE));\n\n      // installcon \n      order.installmentCon.kill();\n    }\n  }\n\n  function _cancelOrder(uint _id) internal {\n    _Order storage order = orders[_id];\n\n    order.orderStat = ORDERSTATS.CANCELLED;\n    _refund(_id);\n  }\n\n  function _refund(uint _id) internal {\n    _Order storage order = orders[_id];\n\n    exchange.depositTokenTransfer(order.tokenKind, payee, order.buyer, order.initCost);\n  }\n\n  function payback(uint _id) public {\n    require(_id <= orderCount);\n\n    _Order storage order = orders[_id];\n\n    Installment curInstallCon = order.installmentCon;\n\n    require(orders[_id].orderStat == ORDERSTATS.DONE);\n    require(curInstallCon.getNextInstallDeadline() < now, 'must in time!');\n\n    // uint year; uint month; uint day;\n    // uint curYear; uint curMonth; uint curDay;\n    // //    \n    // (year, month, day) = dateTime.timestampToDate(curInstallCon.getNextInstallDeadline());\n    // (curYear, curMonth, curDay) = dateTime.timestampToDate(now);\n\n    //require(year == curYear && month == curMonth && day == curDay, 'must in day!');\n\n    uint paybackCost = curInstallCon.getPaybackCost();\n    uint lateFeeCost = curInstallCon.getLateFeeCost();\n\n    uint nextInstallTime = dateTime.addMonths(curInstallCon.getNextInstallDeadline(), 1);\n    uint nextLateFeeTime = dateTime.addDays(curInstallCon.getNextInstallDeadline(), 1);\n\n\n    if(curInstallCon.isLate() == false){\n      //   \n\n      if(curInstallCon.getRemainCnt() == 1){\n        //   \n        if(exchange.balanceOf(order.tokenKind, order.buyer) >= paybackCost)  {\n          // \n          exchange.depositTokenTransfer(order.tokenKind, order.buyer, payee, paybackCost) ;\n          curInstallCon.balanceIntallment();\n          order.orderStat = ORDERSTATS.FINISHED;\n        }else{\n          //  \n          curInstallCon.raiseLatefee();\n          //   \n          members.setMemberBnplStat(order.buyer, uint(BNPLSTAT.LATE));\n          curInstallCon.setNextFeeDeadline(nextLateFeeTime);\n        }\n      }else{\n        //   \n        if(exchange.balanceOf(order.tokenKind, order.buyer) >= paybackCost) {\n          // \n          exchange.depositTokenTransfer(order.tokenKind, order.buyer, payee, paybackCost) ;\n          curInstallCon.balanceIntallment();\n          curInstallCon.setNextInstallDeadline(nextInstallTime);\n\n        }else{\n          //  \n          curInstallCon.raiseLatefee();\n          //   \n          members.setMemberBnplStat(order.buyer, uint(BNPLSTAT.LATE));\n          curInstallCon.setNextFeeDeadline(nextLateFeeTime);\n        }\n      }\n\n    }else {\n      //  \n\n      if(exchange.balanceOf(order.tokenKind, order.buyer) >= lateFeeCost){\n        //   \n        exchange.depositTokenTransfer(order.tokenKind, order.buyer, payee, lateFeeCost);\n        members.setMemberBnplStat(order.buyer, uint(BNPLSTAT.PROCESSING));\n\n        curInstallCon.setNextInstallDeadline(nextInstallTime);\n      } else{\n        //   \n        curInstallCon.raiseLatefee();\n        curInstallCon.setNextFeeDeadline(nextLateFeeTime);\n      }\n    }\n  } \n\n}\n\n",
  "sourcePath": "/Users/mg/bnpl-dapp/src/contracts/Bnpl.sol",
  "compiler": {
    "name": "solc",
    "version": "0.5.16+commit.9c3226ce.Emscripten.clang"
  },
  "schemaVersion": "3.3.4",
  "updatedAt": "2021-06-21T11:11:28.314Z",
  "networkType": "ethereum",
  "devdoc": {
    "methods": {}
  },
  "userdoc": {
    "methods": {}
  }
}