{
  "contractName": "Bnpl",
  "abi": [
    {
      "inputs": [],
      "payable": false,
      "stateMutability": "nonpayable",
      "type": "constructor"
    },
    {
      "anonymous": false,
      "inputs": [
        {
          "indexed": true,
          "internalType": "address",
          "name": "target",
          "type": "address"
        }
      ],
      "name": "BlackListed",
      "type": "event"
    },
    {
      "anonymous": false,
      "inputs": [
        {
          "indexed": true,
          "internalType": "address",
          "name": "target",
          "type": "address"
        }
      ],
      "name": "DeleteFromBlacklist",
      "type": "event"
    },
    {
      "anonymous": false,
      "inputs": [
        {
          "indexed": false,
          "internalType": "uint256",
          "name": "",
          "type": "uint256"
        }
      ],
      "name": "FinishBnplOrder",
      "type": "event"
    },
    {
      "anonymous": false,
      "inputs": [
        {
          "indexed": false,
          "internalType": "uint256",
          "name": "",
          "type": "uint256"
        }
      ],
      "name": "Late",
      "type": "event"
    },
    {
      "anonymous": false,
      "inputs": [
        {
          "indexed": false,
          "internalType": "uint256",
          "name": "id",
          "type": "uint256"
        },
        {
          "indexed": false,
          "internalType": "address",
          "name": "buyer",
          "type": "address"
        },
        {
          "indexed": false,
          "internalType": "address",
          "name": "seller",
          "type": "address"
        },
        {
          "indexed": false,
          "internalType": "address",
          "name": "tokenKind",
          "type": "address"
        },
        {
          "indexed": false,
          "internalType": "uint256",
          "name": "totalPrice",
          "type": "uint256"
        },
        {
          "indexed": false,
          "internalType": "uint256",
          "name": "installmentPeriod",
          "type": "uint256"
        },
        {
          "indexed": false,
          "internalType": "uint256",
          "name": "timestamp",
          "type": "uint256"
        }
      ],
      "name": "Order",
      "type": "event"
    },
    {
      "anonymous": false,
      "inputs": [
        {
          "indexed": false,
          "internalType": "address",
          "name": "beforeAddress",
          "type": "address"
        },
        {
          "indexed": false,
          "internalType": "address",
          "name": "afterAddress",
          "type": "address"
        }
      ],
      "name": "TransferOwnership",
      "type": "event"
    },
    {
      "constant": true,
      "inputs": [],
      "name": "dateTime",
      "outputs": [
        {
          "internalType": "contract BokkyPooBahsDateTimeContract",
          "name": "",
          "type": "address"
        }
      ],
      "payable": false,
      "stateMutability": "view",
      "type": "function"
    },
    {
      "constant": true,
      "inputs": [],
      "name": "exchange",
      "outputs": [
        {
          "internalType": "contract Exchange",
          "name": "",
          "type": "address"
        }
      ],
      "payable": false,
      "stateMutability": "view",
      "type": "function"
    },
    {
      "constant": true,
      "inputs": [],
      "name": "feeAccount",
      "outputs": [
        {
          "internalType": "address",
          "name": "",
          "type": "address"
        }
      ],
      "payable": false,
      "stateMutability": "view",
      "type": "function"
    },
    {
      "constant": true,
      "inputs": [],
      "name": "feePercent",
      "outputs": [
        {
          "internalType": "uint256",
          "name": "",
          "type": "uint256"
        }
      ],
      "payable": false,
      "stateMutability": "view",
      "type": "function"
    },
    {
      "constant": true,
      "inputs": [],
      "name": "members",
      "outputs": [
        {
          "internalType": "contract Members",
          "name": "",
          "type": "address"
        }
      ],
      "payable": false,
      "stateMutability": "view",
      "type": "function"
    },
    {
      "constant": true,
      "inputs": [],
      "name": "merchants",
      "outputs": [
        {
          "internalType": "contract Merchants",
          "name": "",
          "type": "address"
        }
      ],
      "payable": false,
      "stateMutability": "view",
      "type": "function"
    },
    {
      "constant": true,
      "inputs": [],
      "name": "orderCount",
      "outputs": [
        {
          "internalType": "uint256",
          "name": "",
          "type": "uint256"
        }
      ],
      "payable": false,
      "stateMutability": "view",
      "type": "function"
    },
    {
      "constant": true,
      "inputs": [
        {
          "internalType": "uint256",
          "name": "",
          "type": "uint256"
        }
      ],
      "name": "orders",
      "outputs": [
        {
          "internalType": "uint256",
          "name": "id",
          "type": "uint256"
        },
        {
          "internalType": "address",
          "name": "buyer",
          "type": "address"
        },
        {
          "internalType": "address",
          "name": "seller",
          "type": "address"
        },
        {
          "internalType": "uint256",
          "name": "productNum",
          "type": "uint256"
        },
        {
          "internalType": "uint256",
          "name": "qty",
          "type": "uint256"
        },
        {
          "internalType": "address",
          "name": "tokenKind",
          "type": "address"
        },
        {
          "internalType": "uint256",
          "name": "initCost",
          "type": "uint256"
        },
        {
          "internalType": "uint256",
          "name": "totalPrice",
          "type": "uint256"
        },
        {
          "internalType": "contract Installment",
          "name": "installmentCon",
          "type": "address"
        },
        {
          "internalType": "contract Package",
          "name": "packageCon",
          "type": "address"
        },
        {
          "internalType": "enum Bnpl.ORDERSTATS",
          "name": "orderStat",
          "type": "uint8"
        },
        {
          "internalType": "uint256",
          "name": "timestamp",
          "type": "uint256"
        }
      ],
      "payable": false,
      "stateMutability": "view",
      "type": "function"
    },
    {
      "constant": true,
      "inputs": [],
      "name": "owner",
      "outputs": [
        {
          "internalType": "address",
          "name": "",
          "type": "address"
        }
      ],
      "payable": false,
      "stateMutability": "view",
      "type": "function"
    },
    {
      "constant": true,
      "inputs": [],
      "name": "payee",
      "outputs": [
        {
          "internalType": "address",
          "name": "",
          "type": "address"
        }
      ],
      "payable": false,
      "stateMutability": "view",
      "type": "function"
    },
    {
      "constant": false,
      "inputs": [
        {
          "internalType": "address",
          "name": "_new",
          "type": "address"
        }
      ],
      "name": "transferOwnership",
      "outputs": [],
      "payable": false,
      "stateMutability": "nonpayable",
      "type": "function"
    },
    {
      "constant": false,
      "inputs": [
        {
          "internalType": "address",
          "name": "_feeAccount",
          "type": "address"
        },
        {
          "internalType": "uint256",
          "name": "_feePercent",
          "type": "uint256"
        }
      ],
      "name": "setFee",
      "outputs": [],
      "payable": false,
      "stateMutability": "nonpayable",
      "type": "function"
    },
    {
      "constant": false,
      "inputs": [
        {
          "internalType": "address",
          "name": "_payee",
          "type": "address"
        }
      ],
      "name": "setPayee",
      "outputs": [],
      "payable": false,
      "stateMutability": "nonpayable",
      "type": "function"
    },
    {
      "constant": false,
      "inputs": [
        {
          "internalType": "address",
          "name": "_dateTime",
          "type": "address"
        }
      ],
      "name": "setDatetime",
      "outputs": [],
      "payable": false,
      "stateMutability": "nonpayable",
      "type": "function"
    },
    {
      "constant": false,
      "inputs": [
        {
          "internalType": "address",
          "name": "_exchange",
          "type": "address"
        }
      ],
      "name": "setExchange",
      "outputs": [],
      "payable": false,
      "stateMutability": "nonpayable",
      "type": "function"
    },
    {
      "constant": false,
      "inputs": [
        {
          "internalType": "address",
          "name": "_members",
          "type": "address"
        }
      ],
      "name": "setMembers",
      "outputs": [],
      "payable": false,
      "stateMutability": "nonpayable",
      "type": "function"
    },
    {
      "constant": false,
      "inputs": [
        {
          "internalType": "address",
          "name": "_merchants",
          "type": "address"
        }
      ],
      "name": "setMerchants",
      "outputs": [],
      "payable": false,
      "stateMutability": "nonpayable",
      "type": "function"
    },
    {
      "constant": false,
      "inputs": [
        {
          "internalType": "address",
          "name": "_member",
          "type": "address"
        }
      ],
      "name": "registerMember",
      "outputs": [],
      "payable": false,
      "stateMutability": "nonpayable",
      "type": "function"
    },
    {
      "constant": false,
      "inputs": [
        {
          "internalType": "address",
          "name": "_seller",
          "type": "address"
        },
        {
          "internalType": "uint256",
          "name": "_prodNum",
          "type": "uint256"
        },
        {
          "internalType": "uint256",
          "name": "_qty",
          "type": "uint256"
        },
        {
          "internalType": "address",
          "name": "_token",
          "type": "address"
        },
        {
          "internalType": "uint256",
          "name": "_initCost",
          "type": "uint256"
        }
      ],
      "name": "makeBnplOrder",
      "outputs": [],
      "payable": false,
      "stateMutability": "nonpayable",
      "type": "function"
    },
    {
      "constant": false,
      "inputs": [
        {
          "internalType": "uint256",
          "name": "_initCost",
          "type": "uint256"
        },
        {
          "internalType": "uint256",
          "name": "_totalPrice",
          "type": "uint256"
        },
        {
          "internalType": "uint256",
          "name": "_installmentCnt",
          "type": "uint256"
        },
        {
          "internalType": "uint256",
          "name": "_nextTimestamp",
          "type": "uint256"
        }
      ],
      "name": "makeInstallmentCon",
      "outputs": [
        {
          "internalType": "contract Installment",
          "name": "",
          "type": "address"
        }
      ],
      "payable": false,
      "stateMutability": "nonpayable",
      "type": "function"
    },
    {
      "constant": false,
      "inputs": [
        {
          "internalType": "address",
          "name": "_from",
          "type": "address"
        },
        {
          "internalType": "string",
          "name": "_name",
          "type": "string"
        },
        {
          "internalType": "uint256",
          "name": "_trackingNum",
          "type": "uint256"
        }
      ],
      "name": "makePackageCon",
      "outputs": [
        {
          "internalType": "contract Package",
          "name": "",
          "type": "address"
        }
      ],
      "payable": false,
      "stateMutability": "nonpayable",
      "type": "function"
    },
    {
      "constant": false,
      "inputs": [
        {
          "internalType": "uint256",
          "name": "_id",
          "type": "uint256"
        },
        {
          "internalType": "address",
          "name": "_from",
          "type": "address"
        },
        {
          "internalType": "string",
          "name": "_name",
          "type": "string"
        },
        {
          "internalType": "uint256",
          "name": "_trackingNum",
          "type": "uint256"
        }
      ],
      "name": "acceptOrder",
      "outputs": [],
      "payable": false,
      "stateMutability": "nonpayable",
      "type": "function"
    },
    {
      "constant": false,
      "inputs": [
        {
          "internalType": "uint256",
          "name": "_id",
          "type": "uint256"
        }
      ],
      "name": "orderTimeSub",
      "outputs": [],
      "payable": false,
      "stateMutability": "nonpayable",
      "type": "function"
    },
    {
      "constant": false,
      "inputs": [
        {
          "internalType": "uint256",
          "name": "_id",
          "type": "uint256"
        }
      ],
      "name": "installTimeSub",
      "outputs": [],
      "payable": false,
      "stateMutability": "nonpayable",
      "type": "function"
    },
    {
      "constant": false,
      "inputs": [
        {
          "internalType": "uint256",
          "name": "_id",
          "type": "uint256"
        }
      ],
      "name": "manageWay1and2",
      "outputs": [],
      "payable": false,
      "stateMutability": "nonpayable",
      "type": "function"
    },
    {
      "constant": false,
      "inputs": [
        {
          "internalType": "uint256",
          "name": "_id",
          "type": "uint256"
        },
        {
          "internalType": "address",
          "name": "_from",
          "type": "address"
        },
        {
          "internalType": "address",
          "name": "_to",
          "type": "address"
        }
      ],
      "name": "deliverPackage",
      "outputs": [],
      "payable": false,
      "stateMutability": "nonpayable",
      "type": "function"
    },
    {
      "constant": false,
      "inputs": [
        {
          "internalType": "uint256",
          "name": "_id",
          "type": "uint256"
        },
        {
          "internalType": "address",
          "name": "_to",
          "type": "address"
        }
      ],
      "name": "receivePackage",
      "outputs": [],
      "payable": false,
      "stateMutability": "nonpayable",
      "type": "function"
    },
    {
      "constant": false,
      "inputs": [
        {
          "internalType": "uint256",
          "name": "_id",
          "type": "uint256"
        }
      ],
      "name": "payback",
      "outputs": [],
      "payable": false,
      "stateMutability": "nonpayable",
      "type": "function"
    }
  ],
  "bytecode": "0x608060405234801561001057600080fd5b5033806000806101000a81548173ffffffffffffffffffffffffffffffffffffffff021916908373ffffffffffffffffffffffffffffffffffffffff1602179055505061608e806100626000396000f3fe60806040523480156200001157600080fd5b5060043610620001f05760003560e01c80638da5cb5b1162000111578063bdd4d18d11620000a5578063e8ae4c1b116200007b578063e8ae4c1b1462000b68578063f2fde38b1462000bed578063f3796bdc1462000c34578063fcb4888e1462000c7b57620001f0565b8063bdd4d18d1462000a7f578063d2f7265a1462000acb578063e55156b51462000b1757620001f0565b8063a846c2fd11620000e7578063a846c2fd146200083e578063a85c38ef146200086f578063ae90b21314620009ec578063b7399f081462000a3857620001f0565b80638da5cb5b1462000712578063966d2033146200075e578063a7b947d014620007ed57620001f0565b806367b1f5df1162000189578063741c6dc6116200015f578063741c6dc614620006045780637fd6f15c14620006755780638968cbaf14620006955780638bcc880114620006c657620001f0565b806367b1f5df1462000497578063694c4f7914620004de5780636a36d70914620005d357620001f0565b8063410459ad11620001cb578063410459ad146200037157806348c8cd4114620003b85780634d5f9f5f146200040457806365e17c9d146200044b57620001f0565b80630bd0888a14620001f557806313bf942014620003205780632453ffa81462000351575b600080fd5b620002de600480360360608110156200020d57600080fd5b81019080803573ffffffffffffffffffffffffffffffffffffffff169060200190929190803590602001906401000000008111156200024b57600080fd5b8201836020820111156200025e57600080fd5b803590602001918460018302840111640100000000831117156200028157600080fd5b91908080601f016020809104026020016040519081016040528093929190818152602001838380828437600081840152601f19601f8201169050808301925050505050505091929192908035906020019092919050505062000cc2565b604051808273ffffffffffffffffffffffffffffffffffffffff1673ffffffffffffffffffffffffffffffffffffffff16815260200191505060405180910390f35b6200034f600480360360208110156200033857600080fd5b810190808035906020019092919050505062000da8565b005b6200035b6200106a565b6040518082815260200191505060405180910390f35b620003b6600480360360208110156200038957600080fd5b81019080803573ffffffffffffffffffffffffffffffffffffffff16906020019092919050505062001070565b005b620003c26200110e565b604051808273ffffffffffffffffffffffffffffffffffffffff1673ffffffffffffffffffffffffffffffffffffffff16815260200191505060405180910390f35b62000449600480360360208110156200041c57600080fd5b81019080803573ffffffffffffffffffffffffffffffffffffffff16906020019092919050505062001134565b005b62000455620011d2565b604051808273ffffffffffffffffffffffffffffffffffffffff1673ffffffffffffffffffffffffffffffffffffffff16815260200191505060405180910390f35b620004dc60048036036020811015620004af57600080fd5b81019080803573ffffffffffffffffffffffffffffffffffffffff169060200190929190505050620011f8565b005b620005d160048036036080811015620004f657600080fd5b8101908080359060200190929190803573ffffffffffffffffffffffffffffffffffffffff169060200190929190803590602001906401000000008111156200053e57600080fd5b8201836020820111156200055157600080fd5b803590602001918460018302840111640100000000831117156200057457600080fd5b91908080601f016020809104026020016040519081016040528093929190818152602001838380828437600081840152601f19601f820116905080830192505050505050509192919290803590602001909291905050506200123c565b005b6200060260048036036020811015620005eb57600080fd5b81019080803590602001909291905050506200133d565b005b62000673600480360360608110156200061c57600080fd5b8101908080359060200190929190803573ffffffffffffffffffffffffffffffffffffffff169060200190929190803573ffffffffffffffffffffffffffffffffffffffff16906020019092919050505062001839565b005b6200067f6200195d565b6040518082815260200191505060405180910390f35b620006c460048036036020811015620006ad57600080fd5b810190808035906020019092919050505062001963565b005b620006d062001b18565b604051808273ffffffffffffffffffffffffffffffffffffffff1673ffffffffffffffffffffffffffffffffffffffff16815260200191505060405180910390f35b6200071c62001b3e565b604051808273ffffffffffffffffffffffffffffffffffffffff1673ffffffffffffffffffffffffffffffffffffffff16815260200191505060405180910390f35b620007ab600480360360808110156200077657600080fd5b810190808035906020019092919080359060200190929190803590602001909291908035906020019092919050505062001b63565b604051808273ffffffffffffffffffffffffffffffffffffffff1673ffffffffffffffffffffffffffffffffffffffff16815260200191505060405180910390f35b6200083c600480360360408110156200080557600080fd5b8101908080359060200190929190803573ffffffffffffffffffffffffffffffffffffffff16906020019092919050505062001bbe565b005b6200086d600480360360208110156200085657600080fd5b810190808035906020019092919050505062001d2e565b005b6200089e600480360360208110156200088757600080fd5b8101908080359060200190929190505050620035d5565b604051808d81526020018c73ffffffffffffffffffffffffffffffffffffffff1673ffffffffffffffffffffffffffffffffffffffff1681526020018b73ffffffffffffffffffffffffffffffffffffffff1673ffffffffffffffffffffffffffffffffffffffff1681526020018a81526020018981526020018873ffffffffffffffffffffffffffffffffffffffff1673ffffffffffffffffffffffffffffffffffffffff1681526020018781526020018681526020018573ffffffffffffffffffffffffffffffffffffffff1673ffffffffffffffffffffffffffffffffffffffff1681526020018473ffffffffffffffffffffffffffffffffffffffff1673ffffffffffffffffffffffffffffffffffffffff168152602001836006811115620009c757fe5b60ff1681526020018281526020019c5050505050505050505050505060405180910390f35b620009f6620036e2565b604051808273ffffffffffffffffffffffffffffffffffffffff1673ffffffffffffffffffffffffffffffffffffffff16815260200191505060405180910390f35b62000a7d6004803603602081101562000a5057600080fd5b81019080803573ffffffffffffffffffffffffffffffffffffffff16906020019092919050505062003708565b005b62000a896200374c565b604051808273ffffffffffffffffffffffffffffffffffffffff1673ffffffffffffffffffffffffffffffffffffffff16815260200191505060405180910390f35b62000ad562003772565b604051808273ffffffffffffffffffffffffffffffffffffffff1673ffffffffffffffffffffffffffffffffffffffff16815260200191505060405180910390f35b62000b666004803603604081101562000b2f57600080fd5b81019080803573ffffffffffffffffffffffffffffffffffffffff1690602001909291908035906020019092919050505062003798565b005b62000beb600480360360a081101562000b8057600080fd5b81019080803573ffffffffffffffffffffffffffffffffffffffff1690602001909291908035906020019092919080359060200190929190803573ffffffffffffffffffffffffffffffffffffffff169060200190929190803590602001909291905050506200383e565b005b62000c326004803603602081101562000c0557600080fd5b81019080803573ffffffffffffffffffffffffffffffffffffffff16906020019092919050505062004605565b005b62000c796004803603602081101562000c4c57600080fd5b81019080803573ffffffffffffffffffffffffffffffffffffffff16906020019092919050505062004781565b005b62000cc06004803603602081101562000c9357600080fd5b81019080803573ffffffffffffffffffffffffffffffffffffffff169060200190929190505050620047c5565b005b600083838360405162000cd59062004b64565b808473ffffffffffffffffffffffffffffffffffffffff1673ffffffffffffffffffffffffffffffffffffffff16815260200180602001838152602001828103825284818151815260200191508051906020019080838360005b8381101562000d4c57808201518184015260208101905062000d2f565b50505050905090810190601f16801562000d7a5780820380516001836020036101000a031916815260200191505b50945050505050604051809103906000f08015801562000d9e573d6000803e3d6000fd5b5090509392505050565b60095481111562000db857600080fd5b600060086000838152602001908152602001600020905060008160080160009054906101000a900473ffffffffffffffffffffffffffffffffffffffff16905060008173ffffffffffffffffffffffffffffffffffffffff166378447a746040518163ffffffff1660e01b815260040160206040518083038186803b15801562000e4157600080fd5b505afa15801562000e56573d6000803e3d6000fd5b505050506040513d602081101562000e6d57600080fd5b81019080805190602001909291905050509050600160009054906101000a900473ffffffffffffffffffffffffffffffffffffffff1673ffffffffffffffffffffffffffffffffffffffff1663ad203bd48260016040518363ffffffff1660e01b8152600401808381526020018281526020019250505060206040518083038186803b15801562000efd57600080fd5b505afa15801562000f12573d6000803e3d6000fd5b505050506040513d602081101562000f2957600080fd5b81019080805190602001909291905050509050600160009054906101000a900473ffffffffffffffffffffffffffffffffffffffff1673ffffffffffffffffffffffffffffffffffffffff166250155382600c6040518363ffffffff1660e01b8152600401808381526020018281526020019250505060206040518083038186803b15801562000fb857600080fd5b505afa15801562000fcd573d6000803e3d6000fd5b505050506040513d602081101562000fe457600080fd5b810190808051906020019092919050505090508173ffffffffffffffffffffffffffffffffffffffff166354cba894826040518263ffffffff1660e01b815260040180828152602001915050600060405180830381600087803b1580156200104b57600080fd5b505af115801562001060573d6000803e3d6000fd5b5050505050505050565b60095481565b6000809054906101000a900473ffffffffffffffffffffffffffffffffffffffff1673ffffffffffffffffffffffffffffffffffffffff163373ffffffffffffffffffffffffffffffffffffffff1614620010ca57600080fd5b80600760006101000a81548173ffffffffffffffffffffffffffffffffffffffff021916908373ffffffffffffffffffffffffffffffffffffffff16021790555050565b600160009054906101000a900473ffffffffffffffffffffffffffffffffffffffff1681565b6000809054906101000a900473ffffffffffffffffffffffffffffffffffffffff1673ffffffffffffffffffffffffffffffffffffffff163373ffffffffffffffffffffffffffffffffffffffff16146200118e57600080fd5b80600160006101000a81548173ffffffffffffffffffffffffffffffffffffffff021916908373ffffffffffffffffffffffffffffffffffffffff16021790555050565b600560009054906101000a900473ffffffffffffffffffffffffffffffffffffffff1681565b80600460006101000a81548173ffffffffffffffffffffffffffffffffffffffff021916908373ffffffffffffffffffffffffffffffffffffffff16021790555050565b6009548411156200124c57600080fd5b60006008600086815260200190815260200160002090508060020160009054906101000a900473ffffffffffffffffffffffffffffffffffffffff1673ffffffffffffffffffffffffffffffffffffffff163373ffffffffffffffffffffffffffffffffffffffff1614620012c057600080fd5b620012cd84848462000cc2565b8160090160006101000a81548173ffffffffffffffffffffffffffffffffffffffff021916908373ffffffffffffffffffffffffffffffffffffffff16021790555060018160090160146101000a81548160ff021916908360068111156200133157fe5b02179055505050505050565b6009548111156200134d57600080fd5b600060086000838152602001908152602001600020905042600160009054906101000a900473ffffffffffffffffffffffffffffffffffffffff1673ffffffffffffffffffffffffffffffffffffffff16637217523c83600a015460016040518363ffffffff1660e01b8152600401808381526020018281526020019250505060206040518083038186803b158015620013e657600080fd5b505afa158015620013fb573d6000803e3d6000fd5b505050506040513d60208110156200141257600080fd5b81019080805190602001909291905050501062001497576040517f08c379a00000000000000000000000000000000000000000000000000000000081526004018080602001828103825260158152602001807f6d757374206578656375746520696e2074696d6521000000000000000000000081525060200191505060405180910390fd5b600081600701549050620014b760065482620048dd90919063ffffffff16565b905060016006811115620014c757fe5b8260090160149054906101000a900460ff166006811115620014e557fe5b1415620016ae57600460009054906101000a900473ffffffffffffffffffffffffffffffffffffffff1673ffffffffffffffffffffffffffffffffffffffff16638a4fe0548360050160009054906101000a900473ffffffffffffffffffffffffffffffffffffffff16600760009054906101000a900473ffffffffffffffffffffffffffffffffffffffff168560020160009054906101000a900473ffffffffffffffffffffffffffffffffffffffff16856040518563ffffffff1660e01b8152600401808573ffffffffffffffffffffffffffffffffffffffff1673ffffffffffffffffffffffffffffffffffffffff1681526020018473ffffffffffffffffffffffffffffffffffffffff1673ffffffffffffffffffffffffffffffffffffffff1681526020018373ffffffffffffffffffffffffffffffffffffffff1673ffffffffffffffffffffffffffffffffffffffff168152602001828152602001945050505050600060405180830381600087803b1580156200166857600080fd5b505af11580156200167d573d6000803e3d6000fd5b5050505060028260090160146101000a81548160ff02191690836006811115620016a357fe5b021790555062001834565b620016b98362004905565b600260009054906101000a900473ffffffffffffffffffffffffffffffffffffffff1673ffffffffffffffffffffffffffffffffffffffff16633395bf498360010160009054906101000a900473ffffffffffffffffffffffffffffffffffffffff16600060038111156200172a57fe5b6040518363ffffffff1660e01b8152600401808373ffffffffffffffffffffffffffffffffffffffff1673ffffffffffffffffffffffffffffffffffffffff16815260200182815260200192505050600060405180830381600087803b1580156200179457600080fd5b505af1158015620017a9573d6000803e3d6000fd5b505050508160080160009054906101000a900473ffffffffffffffffffffffffffffffffffffffff1673ffffffffffffffffffffffffffffffffffffffff166341c0e1b56040518163ffffffff1660e01b8152600401600060405180830381600087803b1580156200181a57600080fd5b505af11580156200182f573d6000803e3d6000fd5b505050505b505050565b6009548311156200184957600080fd5b600060086000858152602001908152602001600020905060008160090160009054906101000a900473ffffffffffffffffffffffffffffffffffffffff1690508073ffffffffffffffffffffffffffffffffffffffff1663b6d9d45185856040518363ffffffff1660e01b8152600401808373ffffffffffffffffffffffffffffffffffffffff1673ffffffffffffffffffffffffffffffffffffffff1681526020018273ffffffffffffffffffffffffffffffffffffffff1673ffffffffffffffffffffffffffffffffffffffff16815260200192505050600060405180830381600087803b1580156200193d57600080fd5b505af115801562001952573d6000803e3d6000fd5b505050505050505050565b60065481565b6009548111156200197357600080fd5b6000600860008381526020019081526020016000209050600081600a01549050600160009054906101000a900473ffffffffffffffffffffffffffffffffffffffff1673ffffffffffffffffffffffffffffffffffffffff1663c7b6fd6a8260016040518363ffffffff1660e01b8152600401808381526020018281526020019250505060206040518083038186803b15801562001a1057600080fd5b505afa15801562001a25573d6000803e3d6000fd5b505050506040513d602081101562001a3c57600080fd5b81019080805190602001909291905050509050600160009054906101000a900473ffffffffffffffffffffffffffffffffffffffff1673ffffffffffffffffffffffffffffffffffffffff166250155382600c6040518363ffffffff1660e01b8152600401808381526020018281526020019250505060206040518083038186803b15801562001acb57600080fd5b505afa15801562001ae0573d6000803e3d6000fd5b505050506040513d602081101562001af757600080fd5b810190808051906020019092919050505090508082600a0181905550505050565b600360009054906101000a900473ffffffffffffffffffffffffffffffffffffffff1681565b6000809054906101000a900473ffffffffffffffffffffffffffffffffffffffff1681565b60008484848460405162001b779062004b72565b80858152602001848152602001838152602001828152602001945050505050604051809103906000f08015801562001bb3573d6000803e3d6000fd5b509050949350505050565b60095482111562001bce57600080fd5b600060086000848152602001908152602001600020905060008160090160009054906101000a900473ffffffffffffffffffffffffffffffffffffffff1690508073ffffffffffffffffffffffffffffffffffffffff16639d01174f846040518263ffffffff1660e01b8152600401808273ffffffffffffffffffffffffffffffffffffffff1673ffffffffffffffffffffffffffffffffffffffff168152602001915050600060405180830381600087803b15801562001c8e57600080fd5b505af115801562001ca3573d6000803e3d6000fd5b505050508160010160009054906101000a900473ffffffffffffffffffffffffffffffffffffffff1673ffffffffffffffffffffffffffffffffffffffff168373ffffffffffffffffffffffffffffffffffffffff16141562001d285760048260090160146101000a81548160ff0219169083600681111562001d2257fe5b02179055505b50505050565b60095481111562001d3e57600080fd5b600060086000838152602001908152602001600020905060008160080160009054906101000a900473ffffffffffffffffffffffffffffffffffffffff1690506002600681111562001d8c57fe5b6008600085815260200190815260200160002060090160149054906101000a900460ff16600681111562001dbc57fe5b148062001e0457506003600681111562001dd257fe5b6008600085815260200190815260200160002060090160149054906101000a900460ff16600681111562001e0257fe5b145b8062001e4b57506004600681111562001e1957fe5b6008600085815260200190815260200160002060090160149054906101000a900460ff16600681111562001e4957fe5b145b62001e5557600080fd5b60008173ffffffffffffffffffffffffffffffffffffffff16637223ad666040518163ffffffff1660e01b815260040160206040518083038186803b15801562001e9e57600080fd5b505afa15801562001eb3573d6000803e3d6000fd5b505050506040513d602081101562001eca57600080fd5b8101908080519060200190929190505050905060008273ffffffffffffffffffffffffffffffffffffffff1663183d0e2e6040518163ffffffff1660e01b815260040160206040518083038186803b15801562001f2657600080fd5b505afa15801562001f3b573d6000803e3d6000fd5b505050506040513d602081101562001f5257600080fd5b810190808051906020019092919050505090506000600160009054906101000a900473ffffffffffffffffffffffffffffffffffffffff1673ffffffffffffffffffffffffffffffffffffffff16634355644d8573ffffffffffffffffffffffffffffffffffffffff166378447a746040518163ffffffff1660e01b815260040160206040518083038186803b15801562001fec57600080fd5b505afa15801562002001573d6000803e3d6000fd5b505050506040513d60208110156200201857600080fd5b810190808051906020019092919050505060016040518363ffffffff1660e01b8152600401808381526020018281526020019250505060206040518083038186803b1580156200206757600080fd5b505afa1580156200207c573d6000803e3d6000fd5b505050506040513d60208110156200209357600080fd5b810190808051906020019092919050505090506000600160009054906101000a900473ffffffffffffffffffffffffffffffffffffffff1673ffffffffffffffffffffffffffffffffffffffff16637217523c8673ffffffffffffffffffffffffffffffffffffffff166378447a746040518163ffffffff1660e01b815260040160206040518083038186803b1580156200212d57600080fd5b505afa15801562002142573d6000803e3d6000fd5b505050506040513d60208110156200215957600080fd5b810190808051906020019092919050505060016040518363ffffffff1660e01b8152600401808381526020018281526020019250505060206040518083038186803b158015620021a857600080fd5b505afa158015620021bd573d6000803e3d6000fd5b505050506040513d6020811015620021d457600080fd5b81019080805190602001909291905050509050600015158573ffffffffffffffffffffffffffffffffffffffff166381c17a156040518163ffffffff1660e01b815260040160206040518083038186803b1580156200223257600080fd5b505afa15801562002247573d6000803e3d6000fd5b505050506040513d60208110156200225e57600080fd5b810190808051906020019092919050505015151415620030025760018573ffffffffffffffffffffffffffffffffffffffff1663cc9967bf6040518163ffffffff1660e01b815260040160206040518083038186803b158015620022c157600080fd5b505afa158015620022d6573d6000803e3d6000fd5b505050506040513d6020811015620022ed57600080fd5b8101908080519060200190929190505050141562002a6d5783600460009054906101000a900473ffffffffffffffffffffffffffffffffffffffff1673ffffffffffffffffffffffffffffffffffffffff1663f7888aec8860050160009054906101000a900473ffffffffffffffffffffffffffffffffffffffff168960010160009054906101000a900473ffffffffffffffffffffffffffffffffffffffff166040518363ffffffff1660e01b8152600401808373ffffffffffffffffffffffffffffffffffffffff1673ffffffffffffffffffffffffffffffffffffffff1681526020018273ffffffffffffffffffffffffffffffffffffffff1673ffffffffffffffffffffffffffffffffffffffff1681526020019250505060206040518083038186803b1580156200242257600080fd5b505afa15801562002437573d6000803e3d6000fd5b505050506040513d60208110156200244e57600080fd5b810190808051906020019092919050505010620028a357600460009054906101000a900473ffffffffffffffffffffffffffffffffffffffff1673ffffffffffffffffffffffffffffffffffffffff16638a4fe0548760050160009054906101000a900473ffffffffffffffffffffffffffffffffffffffff168860010160009054906101000a900473ffffffffffffffffffffffffffffffffffffffff16600760009054906101000a900473ffffffffffffffffffffffffffffffffffffffff16886040518563ffffffff1660e01b8152600401808573ffffffffffffffffffffffffffffffffffffffff1673ffffffffffffffffffffffffffffffffffffffff1681526020018473ffffffffffffffffffffffffffffffffffffffff1673ffffffffffffffffffffffffffffffffffffffff1681526020018373ffffffffffffffffffffffffffffffffffffffff1673ffffffffffffffffffffffffffffffffffffffff168152602001828152602001945050505050600060405180830381600087803b158015620025e157600080fd5b505af1158015620025f6573d6000803e3d6000fd5b505050508473ffffffffffffffffffffffffffffffffffffffff16636bec79ae6040518163ffffffff1660e01b8152600401600060405180830381600087803b1580156200264357600080fd5b505af115801562002658573d6000803e3d6000fd5b5050505060058660090160146101000a81548160ff021916908360068111156200267e57fe5b0217905550600260009054906101000a900473ffffffffffffffffffffffffffffffffffffffff1673ffffffffffffffffffffffffffffffffffffffff16633395bf498760010160009054906101000a900473ffffffffffffffffffffffffffffffffffffffff1660006003811115620026f457fe5b6040518363ffffffff1660e01b8152600401808373ffffffffffffffffffffffffffffffffffffffff1673ffffffffffffffffffffffffffffffffffffffff16815260200182815260200192505050600060405180830381600087803b1580156200275e57600080fd5b505af115801562002773573d6000803e3d6000fd5b50505050600260009054906101000a900473ffffffffffffffffffffffffffffffffffffffff1673ffffffffffffffffffffffffffffffffffffffff1663b146a3838760010160009054906101000a900473ffffffffffffffffffffffffffffffffffffffff1688600701546040518363ffffffff1660e01b8152600401808373ffffffffffffffffffffffffffffffffffffffff1673ffffffffffffffffffffffffffffffffffffffff16815260200182815260200192505050600060405180830381600087803b1580156200284957600080fd5b505af11580156200285e573d6000803e3d6000fd5b505050507f5928e2c46f98f546ec6d038684590f09042bd67cd54109230189224133b4465986600001546040518082815260200191505060405180910390a162002a67565b8473ffffffffffffffffffffffffffffffffffffffff1663022973f36040518163ffffffff1660e01b8152600401600060405180830381600087803b158015620028ec57600080fd5b505af115801562002901573d6000803e3d6000fd5b50505050600260009054906101000a900473ffffffffffffffffffffffffffffffffffffffff1673ffffffffffffffffffffffffffffffffffffffff16633395bf498760010160009054906101000a900473ffffffffffffffffffffffffffffffffffffffff16600260038111156200297657fe5b6040518363ffffffff1660e01b8152600401808373ffffffffffffffffffffffffffffffffffffffff1673ffffffffffffffffffffffffffffffffffffffff16815260200182815260200192505050600060405180830381600087803b158015620029e057600080fd5b505af1158015620029f5573d6000803e3d6000fd5b505050508473ffffffffffffffffffffffffffffffffffffffff1663fea90332826040518263ffffffff1660e01b815260040180828152602001915050600060405180830381600087803b15801562002a4d57600080fd5b505af115801562002a62573d6000803e3d6000fd5b505050505b62002ffc565b83600460009054906101000a900473ffffffffffffffffffffffffffffffffffffffff1673ffffffffffffffffffffffffffffffffffffffff1663f7888aec8860050160009054906101000a900473ffffffffffffffffffffffffffffffffffffffff168960010160009054906101000a900473ffffffffffffffffffffffffffffffffffffffff166040518363ffffffff1660e01b8152600401808373ffffffffffffffffffffffffffffffffffffffff1673ffffffffffffffffffffffffffffffffffffffff1681526020018273ffffffffffffffffffffffffffffffffffffffff1673ffffffffffffffffffffffffffffffffffffffff1681526020019250505060206040518083038186803b15801562002b8a57600080fd5b505afa15801562002b9f573d6000803e3d6000fd5b505050506040513d602081101562002bb657600080fd5b81019080805190602001909291905050501062002e3757600460009054906101000a900473ffffffffffffffffffffffffffffffffffffffff1673ffffffffffffffffffffffffffffffffffffffff16638a4fe0548760050160009054906101000a900473ffffffffffffffffffffffffffffffffffffffff168860010160009054906101000a900473ffffffffffffffffffffffffffffffffffffffff16600760009054906101000a900473ffffffffffffffffffffffffffffffffffffffff16886040518563ffffffff1660e01b8152600401808573ffffffffffffffffffffffffffffffffffffffff1673ffffffffffffffffffffffffffffffffffffffff1681526020018473ffffffffffffffffffffffffffffffffffffffff1673ffffffffffffffffffffffffffffffffffffffff1681526020018373ffffffffffffffffffffffffffffffffffffffff1673ffffffffffffffffffffffffffffffffffffffff168152602001828152602001945050505050600060405180830381600087803b15801562002d4957600080fd5b505af115801562002d5e573d6000803e3d6000fd5b505050508473ffffffffffffffffffffffffffffffffffffffff16636bec79ae6040518163ffffffff1660e01b8152600401600060405180830381600087803b15801562002dab57600080fd5b505af115801562002dc0573d6000803e3d6000fd5b505050508473ffffffffffffffffffffffffffffffffffffffff166354cba894836040518263ffffffff1660e01b815260040180828152602001915050600060405180830381600087803b15801562002e1857600080fd5b505af115801562002e2d573d6000803e3d6000fd5b5050505062002ffb565b8473ffffffffffffffffffffffffffffffffffffffff1663022973f36040518163ffffffff1660e01b8152600401600060405180830381600087803b15801562002e8057600080fd5b505af115801562002e95573d6000803e3d6000fd5b50505050600260009054906101000a900473ffffffffffffffffffffffffffffffffffffffff1673ffffffffffffffffffffffffffffffffffffffff16633395bf498760010160009054906101000a900473ffffffffffffffffffffffffffffffffffffffff166002600381111562002f0a57fe5b6040518363ffffffff1660e01b8152600401808373ffffffffffffffffffffffffffffffffffffffff1673ffffffffffffffffffffffffffffffffffffffff16815260200182815260200192505050600060405180830381600087803b15801562002f7457600080fd5b505af115801562002f89573d6000803e3d6000fd5b505050508473ffffffffffffffffffffffffffffffffffffffff1663fea90332826040518263ffffffff1660e01b815260040180828152602001915050600060405180830381600087803b15801562002fe157600080fd5b505af115801562002ff6573d6000803e3d6000fd5b505050505b5b620035cc565b82600460009054906101000a900473ffffffffffffffffffffffffffffffffffffffff1673ffffffffffffffffffffffffffffffffffffffff1663f7888aec8860050160009054906101000a900473ffffffffffffffffffffffffffffffffffffffff168960010160009054906101000a900473ffffffffffffffffffffffffffffffffffffffff166040518363ffffffff1660e01b8152600401808373ffffffffffffffffffffffffffffffffffffffff1673ffffffffffffffffffffffffffffffffffffffff1681526020018273ffffffffffffffffffffffffffffffffffffffff1673ffffffffffffffffffffffffffffffffffffffff1681526020019250505060206040518083038186803b1580156200311f57600080fd5b505afa15801562003134573d6000803e3d6000fd5b505050506040513d60208110156200314b57600080fd5b810190808051906020019092919050505010620034fb578473ffffffffffffffffffffffffffffffffffffffff16630da231826040518163ffffffff1660e01b8152600401600060405180830381600087803b158015620031ab57600080fd5b505af1158015620031c0573d6000803e3d6000fd5b50505050600460009054906101000a900473ffffffffffffffffffffffffffffffffffffffff1673ffffffffffffffffffffffffffffffffffffffff16638a4fe0548760050160009054906101000a900473ffffffffffffffffffffffffffffffffffffffff168860010160009054906101000a900473ffffffffffffffffffffffffffffffffffffffff16600760009054906101000a900473ffffffffffffffffffffffffffffffffffffffff16876040518563ffffffff1660e01b8152600401808573ffffffffffffffffffffffffffffffffffffffff1673ffffffffffffffffffffffffffffffffffffffff1681526020018473ffffffffffffffffffffffffffffffffffffffff1673ffffffffffffffffffffffffffffffffffffffff1681526020018373ffffffffffffffffffffffffffffffffffffffff1673ffffffffffffffffffffffffffffffffffffffff168152602001828152602001945050505050600060405180830381600087803b1580156200334057600080fd5b505af115801562003355573d6000803e3d6000fd5b50505050600260009054906101000a900473ffffffffffffffffffffffffffffffffffffffff1673ffffffffffffffffffffffffffffffffffffffff16633395bf498760010160009054906101000a900473ffffffffffffffffffffffffffffffffffffffff1660016003811115620033ca57fe5b6040518363ffffffff1660e01b8152600401808373ffffffffffffffffffffffffffffffffffffffff1673ffffffffffffffffffffffffffffffffffffffff16815260200182815260200192505050600060405180830381600087803b1580156200343457600080fd5b505af115801562003449573d6000803e3d6000fd5b505050508473ffffffffffffffffffffffffffffffffffffffff166354cba894836040518263ffffffff1660e01b815260040180828152602001915050600060405180830381600087803b158015620034a157600080fd5b505af1158015620034b6573d6000803e3d6000fd5b505050507f3ce7fa972d49dd994bf0c26b1ea726a85ad145fc5fad2f76c4f0fcef67d5802186600001546040518082815260200191505060405180910390a1620035cb565b8473ffffffffffffffffffffffffffffffffffffffff1663022973f36040518163ffffffff1660e01b8152600401600060405180830381600087803b1580156200354457600080fd5b505af115801562003559573d6000803e3d6000fd5b505050508473ffffffffffffffffffffffffffffffffffffffff1663fea90332826040518263ffffffff1660e01b815260040180828152602001915050600060405180830381600087803b158015620035b157600080fd5b505af1158015620035c6573d6000803e3d6000fd5b505050505b5b50505050505050565b60086020528060005260406000206000915090508060000154908060010160009054906101000a900473ffffffffffffffffffffffffffffffffffffffff16908060020160009054906101000a900473ffffffffffffffffffffffffffffffffffffffff16908060030154908060040154908060050160009054906101000a900473ffffffffffffffffffffffffffffffffffffffff16908060060154908060070154908060080160009054906101000a900473ffffffffffffffffffffffffffffffffffffffff16908060090160009054906101000a900473ffffffffffffffffffffffffffffffffffffffff16908060090160149054906101000a900460ff169080600a015490508c565b600760009054906101000a900473ffffffffffffffffffffffffffffffffffffffff1681565b80600360006101000a81548173ffffffffffffffffffffffffffffffffffffffff021916908373ffffffffffffffffffffffffffffffffffffffff16021790555050565b600260009054906101000a900473ffffffffffffffffffffffffffffffffffffffff1681565b600460009054906101000a900473ffffffffffffffffffffffffffffffffffffffff1681565b6000809054906101000a900473ffffffffffffffffffffffffffffffffffffffff1673ffffffffffffffffffffffffffffffffffffffff163373ffffffffffffffffffffffffffffffffffffffff1614620037f257600080fd5b81600560006101000a81548173ffffffffffffffffffffffffffffffffffffffff021916908373ffffffffffffffffffffffffffffffffffffffff160217905550806006819055505050565b60011515600260009054906101000a900473ffffffffffffffffffffffffffffffffffffffff1673ffffffffffffffffffffffffffffffffffffffff16639a63d820336040518263ffffffff1660e01b8152600401808273ffffffffffffffffffffffffffffffffffffffff1673ffffffffffffffffffffffffffffffffffffffff16815260200191505060206040518083038186803b158015620038e257600080fd5b505afa158015620038f7573d6000803e3d6000fd5b505050506040513d60208110156200390e57600080fd5b810190808051906020019092919050505015151462003995576040517f08c379a000000000000000000000000000000000000000000000000000000000815260040180806020018281038252600f8152602001807f6d656d6265722063616e20626e706c000000000000000000000000000000000081525060200191505060405180910390fd5b60011515600360009054906101000a900473ffffffffffffffffffffffffffffffffffffffff1673ffffffffffffffffffffffffffffffffffffffff16632520e7ff876040518263ffffffff1660e01b8152600401808273ffffffffffffffffffffffffffffffffffffffff1673ffffffffffffffffffffffffffffffffffffffff16815260200191505060206040518083038186803b15801562003a3957600080fd5b505afa15801562003a4e573d6000803e3d6000fd5b505050506040513d602081101562003a6557600080fd5b810190808051906020019092919050505015151462003aec576040517f08c379a00000000000000000000000000000000000000000000000000000000081526004018080602001828103825260148152602001807f73656c6c657220697320617574686f72697a656400000000000000000000000081525060200191505060405180910390fd5b600460009054906101000a900473ffffffffffffffffffffffffffffffffffffffff1673ffffffffffffffffffffffffffffffffffffffff1663f7888aec83336040518363ffffffff1660e01b8152600401808373ffffffffffffffffffffffffffffffffffffffff1673ffffffffffffffffffffffffffffffffffffffff1681526020018273ffffffffffffffffffffffffffffffffffffffff1673ffffffffffffffffffffffffffffffffffffffff1681526020019250505060206040518083038186803b15801562003bc057600080fd5b505afa15801562003bd5573d6000803e3d6000fd5b505050506040513d602081101562003bec57600080fd5b810190808051906020019092919050505081111562003c73576040517f08c379a00000000000000000000000000000000000000000000000000000000081526004018080602001828103825260118152602001807f6861766520656e6f756768206d6f6e657900000000000000000000000000000081525060200191505060405180910390fd5b600460009054906101000a900473ffffffffffffffffffffffffffffffffffffffff1673ffffffffffffffffffffffffffffffffffffffff16638a4fe0548333600760009054906101000a900473ffffffffffffffffffffffffffffffffffffffff16856040518563ffffffff1660e01b8152600401808573ffffffffffffffffffffffffffffffffffffffff1673ffffffffffffffffffffffffffffffffffffffff1681526020018473ffffffffffffffffffffffffffffffffffffffff1673ffffffffffffffffffffffffffffffffffffffff1681526020018373ffffffffffffffffffffffffffffffffffffffff1673ffffffffffffffffffffffffffffffffffffffff168152602001828152602001945050505050600060405180830381600087803b15801562003da757600080fd5b505af115801562003dbc573d6000803e3d6000fd5b5050505062003dd860016009546200495290919063ffffffff16565b6009819055506000806000600360009054906101000a900473ffffffffffffffffffffffffffffffffffffffff1673ffffffffffffffffffffffffffffffffffffffff166369d5f81e89896040518363ffffffff1660e01b8152600401808373ffffffffffffffffffffffffffffffffffffffff1673ffffffffffffffffffffffffffffffffffffffff1681526020018281526020019250505060006040518083038186803b15801562003e8b57600080fd5b505afa15801562003ea0573d6000803e3d6000fd5b505050506040513d6000823e3d601f19601f82011682018060405250606081101562003ecb57600080fd5b810190808051604051939291908464010000000082111562003eec57600080fd5b8382019150602082018581111562003f0357600080fd5b825186600182028301116401000000008211171562003f2157600080fd5b8083526020830192505050908051906020019080838360005b8381101562003f5757808201518184015260208101905062003f3a565b50505050905090810190601f16801562003f855780820380516001836020036101000a031916815260200191505b506040526020018051604051939291908464010000000082111562003fa957600080fd5b8382019150602082018581111562003fc057600080fd5b825186600182028301116401000000008211171562003fde57600080fd5b8083526020830192505050908051906020019080838360005b838110156200401457808201518184015260208101905062003ff7565b50505050905090810190601f168015620040425780820380516001836020036101000a031916815260200191505b50604052602001805190602001909291905050509091509050809350506200407486846200497290919063ffffffff16565b925060405180610180016040528060095481526020013373ffffffffffffffffffffffffffffffffffffffff1681526020018973ffffffffffffffffffffffffffffffffffffffff1681526020018881526020018781526020018673ffffffffffffffffffffffffffffffffffffffff168152602001858152602001848152602001600073ffffffffffffffffffffffffffffffffffffffff168152602001600073ffffffffffffffffffffffffffffffffffffffff168152602001600060068111156200413e57fe5b8152602001428152506008600060095481526020019081526020016000206000820151816000015560208201518160010160006101000a81548173ffffffffffffffffffffffffffffffffffffffff021916908373ffffffffffffffffffffffffffffffffffffffff16021790555060408201518160020160006101000a81548173ffffffffffffffffffffffffffffffffffffffff021916908373ffffffffffffffffffffffffffffffffffffffff160217905550606082015181600301556080820151816004015560a08201518160050160006101000a81548173ffffffffffffffffffffffffffffffffffffffff021916908373ffffffffffffffffffffffffffffffffffffffff16021790555060c0820151816006015560e082015181600701556101008201518160080160006101000a81548173ffffffffffffffffffffffffffffffffffffffff021916908373ffffffffffffffffffffffffffffffffffffffff1602179055506101208201518160090160006101000a81548173ffffffffffffffffffffffffffffffffffffffff021916908373ffffffffffffffffffffffffffffffffffffffff1602179055506101408201518160090160146101000a81548160ff021916908360068111156200431957fe5b021790555061016082015181600a0155905050600260009054906101000a900473ffffffffffffffffffffffffffffffffffffffff1673ffffffffffffffffffffffffffffffffffffffff1663ca1f3ac6336040518263ffffffff1660e01b8152600401808273ffffffffffffffffffffffffffffffffffffffff1673ffffffffffffffffffffffffffffffffffffffff16815260200191505060206040518083038186803b158015620043cc57600080fd5b505afa158015620043e1573d6000803e3d6000fd5b505050506040513d6020811015620043f857600080fd5b81019080805190602001909291905050509150600160009054906101000a900473ffffffffffffffffffffffffffffffffffffffff1673ffffffffffffffffffffffffffffffffffffffff16634355644d4260016040518363ffffffff1660e01b8152600401808381526020018281526020019250505060206040518083038186803b1580156200448857600080fd5b505afa1580156200449d573d6000803e3d6000fd5b505050506040513d6020811015620044b457600080fd5b81019080805190602001909291905050509050620044d58484848462001b63565b60086000600954815260200190815260200160002060080160006101000a81548173ffffffffffffffffffffffffffffffffffffffff021916908373ffffffffffffffffffffffffffffffffffffffff160217905550600260009054906101000a900473ffffffffffffffffffffffffffffffffffffffff1673ffffffffffffffffffffffffffffffffffffffff16633395bf4933600160038111156200457857fe5b6040518363ffffffff1660e01b8152600401808373ffffffffffffffffffffffffffffffffffffffff1673ffffffffffffffffffffffffffffffffffffffff16815260200182815260200192505050600060405180830381600087803b158015620045e257600080fd5b505af1158015620045f7573d6000803e3d6000fd5b505050505050505050505050565b6000809054906101000a900473ffffffffffffffffffffffffffffffffffffffff1673ffffffffffffffffffffffffffffffffffffffff163373ffffffffffffffffffffffffffffffffffffffff16146200465f57600080fd5b60008060009054906101000a900473ffffffffffffffffffffffffffffffffffffffff169050816000806101000a81548173ffffffffffffffffffffffffffffffffffffffff021916908373ffffffffffffffffffffffffffffffffffffffff1602179055507f5c486528ec3e3f0ea91181cff8116f02bfa350e03b8b6f12e00765adbb5af85c816000809054906101000a900473ffffffffffffffffffffffffffffffffffffffff16604051808373ffffffffffffffffffffffffffffffffffffffff1673ffffffffffffffffffffffffffffffffffffffff1681526020018273ffffffffffffffffffffffffffffffffffffffff1673ffffffffffffffffffffffffffffffffffffffff1681526020019250505060405180910390a15050565b80600260006101000a81548173ffffffffffffffffffffffffffffffffffffffff021916908373ffffffffffffffffffffffffffffffffffffffff16021790555050565b6000809054906101000a900473ffffffffffffffffffffffffffffffffffffffff1673ffffffffffffffffffffffffffffffffffffffff163373ffffffffffffffffffffffffffffffffffffffff16146200481f57600080fd5b600260009054906101000a900473ffffffffffffffffffffffffffffffffffffffff1673ffffffffffffffffffffffffffffffffffffffff166328631c62826040518263ffffffff1660e01b8152600401808273ffffffffffffffffffffffffffffffffffffffff1673ffffffffffffffffffffffffffffffffffffffff168152602001915050600060405180830381600087803b158015620048c157600080fd5b505af1158015620048d6573d6000803e3d6000fd5b5050505050565b6000808211620048ec57600080fd5b6000828481620048f857fe5b0490508091505092915050565b600060086000838152602001908152602001600020905060068160090160146101000a81548160ff021916908360068111156200493e57fe5b02179055506200494e82620049b0565b5050565b6000808284019050838110156200496857600080fd5b8091505092915050565b600080831415620049875760009050620049aa565b60008284029050828482816200499957fe5b0414620049a557600080fd5b809150505b92915050565b6000600860008381526020019081526020016000209050600460009054906101000a900473ffffffffffffffffffffffffffffffffffffffff1673ffffffffffffffffffffffffffffffffffffffff16638a4fe0548260050160009054906101000a900473ffffffffffffffffffffffffffffffffffffffff16600760009054906101000a900473ffffffffffffffffffffffffffffffffffffffff168460010160009054906101000a900473ffffffffffffffffffffffffffffffffffffffff1685600601546040518563ffffffff1660e01b8152600401808573ffffffffffffffffffffffffffffffffffffffff1673ffffffffffffffffffffffffffffffffffffffff1681526020018473ffffffffffffffffffffffffffffffffffffffff1673ffffffffffffffffffffffffffffffffffffffff1681526020018373ffffffffffffffffffffffffffffffffffffffff1673ffffffffffffffffffffffffffffffffffffffff168152602001828152602001945050505050600060405180830381600087803b15801562004b4757600080fd5b505af115801562004b5c573d6000803e3d6000fd5b505050505050565b6109d88062004b8183390190565b610b0180620055598339019056fe608060405234801561001057600080fd5b506040516109d83803806109d88339818101604052606081101561003357600080fd5b81019080805190602001909291908051604051939291908464010000000082111561005d57600080fd5b8382019150602082018581111561007357600080fd5b825186600182028301116401000000008211171561009057600080fd5b8083526020830192505050908051906020019080838360005b838110156100c45780820151818401526020810190506100a9565b50505050905090810190601f1680156100f15780820380516001836020036101000a031916815260200191505b5060405260200180519060200190929190505050816000908051906020019061011b929190610268565b508060018190555082600260006101000a81548173ffffffffffffffffffffffffffffffffffffffff021916908373ffffffffffffffffffffffffffffffffffffffff1602179055506000600260146101000a81548160ff0219169083600281111561018357fe5b02179055507f1017e91081484254db5f1102b30b3b9093fa9c0153485ddb0ed8c8071222d7df83844260405180806020018573ffffffffffffffffffffffffffffffffffffffff1673ffffffffffffffffffffffffffffffffffffffff1681526020018473ffffffffffffffffffffffffffffffffffffffff1673ffffffffffffffffffffffffffffffffffffffff168152602001838152602001828103825260068152602001807f435245415445000000000000000000000000000000000000000000000000000081525060200194505050505060405180910390a150505061030d565b828054600181600116156101000203166002900490600052602060002090601f016020900481019282601f106102a957805160ff19168380011785556102d7565b828001600101855582156102d7579182015b828111156102d65782518255916020019190600101906102bb565b5b5090506102e491906102e8565b5090565b61030a91905b808211156103065760008160009055506001016102ee565b5090565b90565b6106bc8061031c6000396000f3fe608060405234801561001057600080fd5b50600436106100575760003560e01c806306fdde031461005c578063200d2ed2146100df578063481c6a751461010b5780639d01174f14610155578063b6d9d45114610199575b600080fd5b6100646101fd565b6040518080602001828103825283818151815260200191508051906020019080838360005b838110156100a4578082015181840152602081019050610089565b50505050905090810190601f1680156100d15780820380516001836020036101000a031916815260200191505b509250505060405180910390f35b6100e761029b565b604051808260028111156100f757fe5b60ff16815260200191505060405180910390f35b6101136102ae565b604051808273ffffffffffffffffffffffffffffffffffffffff1673ffffffffffffffffffffffffffffffffffffffff16815260200191505060405180910390f35b6101976004803603602081101561016b57600080fd5b81019080803573ffffffffffffffffffffffffffffffffffffffff1690602001909291905050506102d4565b005b6101fb600480360360408110156101af57600080fd5b81019080803573ffffffffffffffffffffffffffffffffffffffff169060200190929190803573ffffffffffffffffffffffffffffffffffffffff16906020019092919050505061045e565b005b60008054600181600116156101000203166002900480601f0160208091040260200160405190810160405280929190818152602001828054600181600116156101000203166002900480156102935780601f1061026857610100808354040283529160200191610293565b820191906000526020600020905b81548152906001019060200180831161027657829003601f168201915b505050505081565b600260149054906101000a900460ff1681565b600260009054906101000a900473ffffffffffffffffffffffffffffffffffffffff1681565b600260009054906101000a900473ffffffffffffffffffffffffffffffffffffffff1673ffffffffffffffffffffffffffffffffffffffff168173ffffffffffffffffffffffffffffffffffffffff161461032e57600080fd5b6001600281111561033b57fe5b600260149054906101000a900460ff16600281111561035657fe5b1461036057600080fd5b60028060146101000a81548160ff0219169083600281111561037e57fe5b02179055507f1017e91081484254db5f1102b30b3b9093fa9c0153485ddb0ed8c8071222d7df81824260405180806020018573ffffffffffffffffffffffffffffffffffffffff1673ffffffffffffffffffffffffffffffffffffffff1681526020018473ffffffffffffffffffffffffffffffffffffffff1673ffffffffffffffffffffffffffffffffffffffff168152602001838152602001828103825260078152602001807f524543454956450000000000000000000000000000000000000000000000000081525060200194505050505060405180910390a150565b600260009054906101000a900473ffffffffffffffffffffffffffffffffffffffff1673ffffffffffffffffffffffffffffffffffffffff168273ffffffffffffffffffffffffffffffffffffffff16146104b857600080fd5b600260009054906101000a900473ffffffffffffffffffffffffffffffffffffffff1673ffffffffffffffffffffffffffffffffffffffff168173ffffffffffffffffffffffffffffffffffffffff16141561051357600080fd5b6001600281111561052057fe5b600260149054906101000a900460ff16600281111561053b57fe5b141561054657600080fd5b6001600260146101000a81548160ff0219169083600281111561056557fe5b021790555080600260006101000a81548173ffffffffffffffffffffffffffffffffffffffff021916908373ffffffffffffffffffffffffffffffffffffffff1602179055507f1017e91081484254db5f1102b30b3b9093fa9c0153485ddb0ed8c8071222d7df82824260405180806020018573ffffffffffffffffffffffffffffffffffffffff1673ffffffffffffffffffffffffffffffffffffffff1681526020018473ffffffffffffffffffffffffffffffffffffffff1673ffffffffffffffffffffffffffffffffffffffff168152602001838152602001828103825260048152602001807f53454e440000000000000000000000000000000000000000000000000000000081525060200194505050505060405180910390a1505056fea265627a7a723158200a91d297c3365712ca7bcbced2c6bc7724b8b002a74457ba714a2ee8ab193f1b64736f6c63430005100032608060405234801561001057600080fd5b50604051610b01380380610b018339818101604052608081101561003357600080fd5b810190808051906020019092919080519060200190929190805190602001909291908051906020019092919050505033806000806101000a81548173ffffffffffffffffffffffffffffffffffffffff021916908373ffffffffffffffffffffffffffffffffffffffff160217905550506100bb848461012460201b6109331790919060201c565b600181905550816002819055506100e360025460015461014460201b61090d1790919060201c565b60038190555080600481905550600060058190555060006006819055506001600060146101000a81548160ff0219169083151502179055505050505061016a565b60008282111561013357600080fd5b600082840390508091505092915050565b600080821161015257600080fd5b600082848161015d57fe5b0490508091505092915050565b610988806101796000396000f3fe608060405234801561001057600080fd5b50600436106101005760003560e01c806378447a7411610097578063f2fde38b11610066578063f2fde38b14610261578063fde8a5b9146102a5578063fea90332146102c3578063ff705a16146102f157610100565b806378447a74146101b957806381c17a15146101d75780638da5cb5b146101f9578063cc9967bf1461024357610100565b806341c0e1b5116100d357806341c0e1b51461015957806354cba894146101635780636bec79ae146101915780637223ad661461019b57610100565b8063022973f3146101055780630da231821461010f578063183d0e2e146101195780632e422c5014610137575b600080fd5b61010d61030f565b005b610117610392565b005b610121610415565b6040518082815260200191505060405180910390f35b61013f61043f565b604051808215151515815260200191505060405180910390f35b610161610455565b005b61018f6004803603602081101561017957600080fd5b81019080803590602001909291905050506104ca565b005b6101996104f4565b005b6101a36105c1565b6040518082815260200191505060405180910390f35b6101c1610615565b6040518082815260200191505060405180910390f35b6101df61063f565b604051808215151515815260200191505060405180910390f35b61020161066c565b604051808273ffffffffffffffffffffffffffffffffffffffff1673ffffffffffffffffffffffffffffffffffffffff16815260200191505060405180910390f35b61024b610691565b6040518082815260200191505060405180910390f35b6102a36004803603602081101561027757600080fd5b81019080803573ffffffffffffffffffffffffffffffffffffffff1690602001909291905050506106bb565b005b6102ad610836565b6040518082815260200191505060405180910390f35b6102ef600480360360208110156102d957600080fd5b8101908080359060200190929190505050610860565b005b6102f961088a565b6040518082815260200191505060405180910390f35b60011515600060149054906101000a900460ff1615151461032f57600080fd5b60006103486005546001546108b490919063ffffffff16565b90506103726103e86103646003846108d390919063ffffffff16565b61090d90919063ffffffff16565b9050610389816005546108b490919063ffffffff16565b60058190555050565b6000809054906101000a900473ffffffffffffffffffffffffffffffffffffffff1673ffffffffffffffffffffffffffffffffffffffff163373ffffffffffffffffffffffffffffffffffffffff16146103eb57600080fd5b60011515600060149054906101000a900460ff1615151461040b57600080fd5b6000600581905550565b600060011515600060149054906101000a900460ff1615151461043757600080fd5b600554905090565b60008060149054906101000a900460ff16905090565b6000809054906101000a900473ffffffffffffffffffffffffffffffffffffffff1673ffffffffffffffffffffffffffffffffffffffff163373ffffffffffffffffffffffffffffffffffffffff16146104ae57600080fd5b60008060146101000a81548160ff021916908315150217905550565b60011515600060149054906101000a900460ff161515146104ea57600080fd5b8060048190555050565b6000809054906101000a900473ffffffffffffffffffffffffffffffffffffffff1673ffffffffffffffffffffffffffffffffffffffff163373ffffffffffffffffffffffffffffffffffffffff161461054d57600080fd5b60011515600060149054906101000a900460ff1615151461056d57600080fd5b610583600160025461093390919063ffffffff16565b600281905550600060025414156105a15760006001819055506105bf565b6105b860035460015461093390919063ffffffff16565b6001819055505b565b600060011515600060149054906101000a900460ff161515146105e357600080fd5b600060025414156105f75760009050610612565b6001600254141561060c576001549050610612565b60035490505b90565b600060011515600060149054906101000a900460ff1615151461063757600080fd5b600454905090565b600060011515600060149054906101000a900460ff1615151461066157600080fd5b600060055411905090565b6000809054906101000a900473ffffffffffffffffffffffffffffffffffffffff1681565b600060011515600060149054906101000a900460ff161515146106b357600080fd5b600254905090565b6000809054906101000a900473ffffffffffffffffffffffffffffffffffffffff1673ffffffffffffffffffffffffffffffffffffffff163373ffffffffffffffffffffffffffffffffffffffff161461071457600080fd5b60008060009054906101000a900473ffffffffffffffffffffffffffffffffffffffff169050816000806101000a81548173ffffffffffffffffffffffffffffffffffffffff021916908373ffffffffffffffffffffffffffffffffffffffff1602179055507f5c486528ec3e3f0ea91181cff8116f02bfa350e03b8b6f12e00765adbb5af85c816000809054906101000a900473ffffffffffffffffffffffffffffffffffffffff16604051808373ffffffffffffffffffffffffffffffffffffffff1673ffffffffffffffffffffffffffffffffffffffff1681526020018273ffffffffffffffffffffffffffffffffffffffff1673ffffffffffffffffffffffffffffffffffffffff1681526020019250505060405180910390a15050565b600060011515600060149054906101000a900460ff1615151461085857600080fd5b600654905090565b60011515600060149054906101000a900460ff1615151461088057600080fd5b8060068190555050565b600060011515600060149054906101000a900460ff161515146108ac57600080fd5b600154905090565b6000808284019050838110156108c957600080fd5b8091505092915050565b6000808314156108e65760009050610907565b60008284029050828482816108f757fe5b041461090257600080fd5b809150505b92915050565b600080821161091b57600080fd5b600082848161092657fe5b0490508091505092915050565b60008282111561094257600080fd5b60008284039050809150509291505056fea265627a7a72315820dc56d4ce709bfd7a03772e9e9673fbb6cb09c42fef341e7ef8bfcbdfcfae038e64736f6c63430005100032a265627a7a72315820eb97099291d53632e8caad043b6ecb81255931bc3774dc7e651438f0b654685864736f6c63430005100032",
  "source": "pragma solidity ^0.5.0;\n\nimport \"openzeppelin-solidity/contracts/math/SafeMath.sol\";\nimport \"./BokkyPooBahsDateTimeContract.sol\";\nimport \"./usingOraclize.sol\";\n\nimport \"./Owned.sol\";\nimport \"./Token.sol\";\nimport \"./Exchange.sol\";\n\nimport \"./Members.sol\";\nimport \"./Merchants.sol\";\n\nimport \"./Installment.sol\";\nimport \"./Package.sol\";\n\ncontract Bnpl is Owned {\n  using SafeMath for uint;\n\n  enum RANK {\n    BRONZE,\n    SILVER,\n    GOLD\n  }\n\n  enum BNPLSTAT{\n    //UNENROLLED,\n    NONE,\n    PROCESSING,\n    LATE,\n    BANNED\n  }\n\n\n  enum ORDERSTATS {\n      CREATED,    //  -> installment \n      LOADED,     // package \n      DONE,       //  1 2 way \n      PROCESSING, // package, installment \n      ONLYLOAN,   // installment, latefee  \n      FINISHED,   //   \n      CANCELLED   // package    -> initcost  -> \n  }\n\n  // reference datecontract\n  BokkyPooBahsDateTimeContract public dateTime;\n  Members public members;\n  Merchants public merchants;\n  Exchange public exchange;\n\n\n  // Variables\n  address public feeAccount;\n  uint public feePercent; // the fee percentage\n\n  address public payee;\n\n  mapping(uint => _Order) public orders;\n  uint public orderCount;\n\n  event Order(\n      uint    id,\n      address buyer,\n      address seller,\n      address tokenKind,\n      uint    totalPrice,\n      uint    installmentPeriod,\n      uint    timestamp\n  );\n\n  event BlackListed(address indexed target);\n  event DeleteFromBlacklist(address indexed target);\n\n  event FinishBnplOrder(uint);\n  event Late(uint);\n\n  struct _Order {\n    uint        id;\n    address     buyer;\n    address     seller;\n    uint        productNum;\n    uint        qty;\n    address     tokenKind;\n    uint        initCost;\n    uint        totalPrice;\n    Installment installmentCon;\n    Package     packageCon;\n    ORDERSTATS  orderStat;\n    uint256     timestamp;\n  } \n\n  constructor () Owned(msg.sender) public {\n    \n    // members = new Members(address(this));\n    // merchants = new Merchants(address(this));\n  }\n\n  function setFee(address _feeAccount, uint _feePercent) public onlyOwner {\n    feeAccount = _feeAccount;\n    feePercent = _feePercent;\n  }\n\n  function setPayee(address _payee) public onlyOwner {\n    payee = _payee; \n  }\n\n  function setDatetime(address _dateTime) public onlyOwner {\n    dateTime = BokkyPooBahsDateTimeContract(_dateTime);\n  }\n\n  function setExchange(address _exchange) public {\n    exchange = Exchange(_exchange);\n  }\n\n  function setMembers(address _members) public {\n    members = Members(_members);\n  }\n\n  function setMerchants(address _merchants) public {\n    merchants = Merchants(_merchants);\n  }\n\n  //  bnpl  .\n  function registerMember(address _member) public onlyOwner {\n    members.initMemberBnplInfo(_member);\n  }\n\n  function makeBnplOrder\n  (\n    address _seller,\n    uint    _prodNum,\n    uint    _qty,\n    address _token,\n    uint    _initCost\n  ) public {\n    //     .\n    require(members.canMemberBnpl(msg.sender) == true, 'member can bnpl');\n    require(merchants.isAuth(_seller) == true, 'seller is authorized');\n\n    // // initcost   .\n    require(_initCost <= exchange.balanceOf(_token,msg.sender), 'have enough money');\n\n    //  init  . (1way)\n    exchange.depositTokenTransfer(_token, msg.sender, payee, _initCost);\n\n    orderCount = orderCount.add(1);\n\n    uint totalPrice;\n    uint installmentCnt;\n    uint nextTimestamp;\n\n    ( , , totalPrice) = merchants.getProduct(_seller, _prodNum);\n    totalPrice = totalPrice.mul(_qty);\n\n    orders[orderCount] = _Order(\n      orderCount, \n      msg.sender,\n      _seller, \n      _prodNum,\n      _qty,\n      _token,\n      _initCost,\n      totalPrice,\n      Installment(0x0),\n      Package(0x0),\n      ORDERSTATS.CREATED,\n      now);\n\n\n    //  installment period  member  \n    installmentCnt = members.getMemberInstallments(msg.sender);\n\n    nextTimestamp = dateTime.addMonths(now, 1);\n\n    orders[orderCount].installmentCon = makeInstallmentCon(_initCost, totalPrice, installmentCnt, nextTimestamp);\n\n    // msg.sender  bnpl  \n    members.setMemberBnplStat(msg.sender, uint(BNPLSTAT.PROCESSING));\n\n    // event \n    // emit Order(orderCount, msg.sender, _seller, _token, _totalPrice, _initCost, now);\n  }\n\n  function makeInstallmentCon(uint _initCost, uint _totalPrice, uint _installmentCnt, uint _nextTimestamp) public returns(Installment) {\n    return  new Installment(_initCost, _totalPrice, _installmentCnt, _nextTimestamp);\n  }\n\n  function makePackageCon(address _from, string memory _name, uint256 _trackingNum) public returns(Package) {\n    return new Package(_from, _name, _trackingNum);\n  }\n\n  // seller     \n  function acceptOrder(uint _id, address _from, string memory _name, uint _trackingNum) public {\n    //    .\n    require(_id <= orderCount);\n\n    _Order storage order = orders[_id];\n\n    //msg.sender  _id  seller  .\n    require(msg.sender == order.seller);\n\n    order.packageCon = makePackageCon(_from, _name, _trackingNum);\n\n    order.orderStat = ORDERSTATS.LOADED;\n\n  }\n  // it is only for testing!!\n  function orderTimeSub(uint _id) public {\n    //    .\n    require(_id <= orderCount);\n\n    _Order storage order = orders[_id];\n\n    uint timeMachine = order.timestamp;\n    timeMachine = dateTime.subDays(timeMachine, 1);\n    timeMachine = dateTime.subHours(timeMachine, 12);\n\n    order.timestamp = timeMachine;\n  }\n\n  function installTimeSub(uint _id) public {\n    //    .\n    require(_id <= orderCount);\n\n    _Order storage order = orders[_id];\n\n    Installment curInstall = order.installmentCon;\n\n    uint timeMachine = curInstall.getNextInstallDeadline();\n    timeMachine = dateTime.subMonths(timeMachine, 1);\n    timeMachine = dateTime.subHours(timeMachine, 12);\n    \n    curInstall.setNextInstallDeadline(timeMachine);\n  }\n\n\n  function manageWay1and2(uint _id) public {\n    //    .\n    require(_id <= orderCount);\n\n    _Order storage order = orders[_id];\n    require(dateTime.addDays(order.timestamp,1) < now, 'must execute in time!');\n\n    uint afterPrice = order.totalPrice;\n\n    afterPrice = afterPrice.div(feePercent);\n\n\n    // seller  (2way) \n    if(order.orderStat == ORDERSTATS.LOADED){\n      //   total cost \n      // order 1,2  \n      exchange.depositTokenTransfer(order.tokenKind, payee, order.seller, afterPrice);\n      order.orderStat = ORDERSTATS.DONE;\n\n      // emit \n    }else{\n      // (1way) , order \n      _cancelOrder(_id);\n      \n      // member bnpl stat \n      members.setMemberBnplStat(order.buyer, uint(BNPLSTAT.NONE));\n\n      // installcon \n      order.installmentCon.kill();\n    }\n  }\n\n  function _cancelOrder(uint _id) internal {\n    _Order storage order = orders[_id];\n\n    order.orderStat = ORDERSTATS.CANCELLED;\n    _refund(_id);\n  }\n\n  function _refund(uint _id) internal {\n    _Order storage order = orders[_id];\n\n    exchange.depositTokenTransfer(order.tokenKind, payee, order.buyer, order.initCost);\n  }\n\n  function deliverPackage(uint _id, address _from, address _to) public {\n    require(_id <= orderCount);\n\n    _Order storage order = orders[_id];\n\n    Package curPackage = order.packageCon;\n\n    curPackage.send(_from, _to);\n\n  }\n\n  function receivePackage(uint _id, address _to) public {\n    require(_id <= orderCount);\n\n    _Order storage order = orders[_id];\n\n    Package curPackage = order.packageCon;\n\n    curPackage.receive(_to);\n\n    if(_to == order.buyer){\n      // finish delivery\n      order.orderStat = ORDERSTATS.ONLYLOAN;\n    }\n\n  }\n\n\n\n  function payback(uint _id) public {\n    require(_id <= orderCount);\n\n    _Order storage order = orders[_id];\n\n    Installment curInstallCon = order.installmentCon;\n\n    require(orders[_id].orderStat == ORDERSTATS.DONE \n      || orders[_id].orderStat == ORDERSTATS.PROCESSING \n      || orders[_id].orderStat == ORDERSTATS.ONLYLOAN);\n\n    //require(curInstallCon.getNextInstallDeadline() < now, 'must in time!');\n\n    // uint year; uint month; uint day;\n    // uint curYear; uint curMonth; uint curDay;\n    // //    \n    // (year, month, day) = dateTime.timestampToDate(curInstallCon.getNextInstallDeadline());\n    // (curYear, curMonth, curDay) = dateTime.timestampToDate(now);\n\n    // require(year == curYear && month == curMonth && day == curDay, 'must in day!');\n\n    uint paybackCost = curInstallCon.getPaybackCost();\n    uint lateFeeCost = curInstallCon.getLateFeeCost();\n\n    uint nextInstallTime = dateTime.addMonths(curInstallCon.getNextInstallDeadline(), 1);\n    uint nextLateFeeTime = dateTime.addDays(curInstallCon.getNextInstallDeadline(), 1);\n\n\n    if(curInstallCon.isLate() == false){\n      //   \n\n      if(curInstallCon.getRemainCnt() == 1){\n        //   \n        if(exchange.balanceOf(order.tokenKind, order.buyer) >= paybackCost)  {\n          // \n          exchange.depositTokenTransfer(order.tokenKind, order.buyer, payee, paybackCost) ;\n          curInstallCon.balanceIntallment();\n\n          // BNPL \n          order.orderStat = ORDERSTATS.FINISHED;\n          members.setMemberBnplStat(order.buyer, uint(BNPLSTAT.NONE));\n          // update memberbnpls\n          members.updateMemberBnpls(order.buyer, order.totalPrice);\n\n          emit FinishBnplOrder(order.id);\n        }else{\n          //  \n          curInstallCon.raiseLatefee();\n          //   \n          members.setMemberBnplStat(order.buyer, uint(BNPLSTAT.LATE));\n          curInstallCon.setNextFeeDeadline(nextLateFeeTime);\n        }\n      }else{\n        //   \n        if(exchange.balanceOf(order.tokenKind, order.buyer) >= paybackCost) {\n          // \n          exchange.depositTokenTransfer(order.tokenKind, order.buyer, payee, paybackCost) ;\n          curInstallCon.balanceIntallment();\n          curInstallCon.setNextInstallDeadline(nextInstallTime);\n\n        }else{\n          //  \n          curInstallCon.raiseLatefee();\n          //   \n          members.setMemberBnplStat(order.buyer, uint(BNPLSTAT.LATE));\n          curInstallCon.setNextFeeDeadline(nextLateFeeTime);\n        }\n      }\n\n    }else {\n      //  \n\n      if(exchange.balanceOf(order.tokenKind, order.buyer) >= lateFeeCost){\n\n\n        //   \n        //  \n        curInstallCon.balanceLateFee();\n        //  \n        exchange.depositTokenTransfer(order.tokenKind, order.buyer, payee, lateFeeCost);\n        //   \n        members.setMemberBnplStat(order.buyer, uint(BNPLSTAT.PROCESSING));\n\n        //nextInstallTime = dateTime.addMonths(curInstallCon.getNextFeeDeadline(), 1);\n\n        curInstallCon.setNextInstallDeadline(nextInstallTime);\n        emit Late(order.id);\n\n      } else{\n        //   \n        curInstallCon.raiseLatefee();\n        curInstallCon.setNextFeeDeadline(nextLateFeeTime);\n      }\n    }\n  } \n\n}\n\n",
  "sourcePath": "/Users/mg/bnpl-dapp/src/contracts/Bnpl.sol",
  "compiler": {
    "name": "solc",
    "version": "0.5.16+commit.9c3226ce.Emscripten.clang"
  },
  "schemaVersion": "3.3.4",
  "updatedAt": "2021-06-21T17:56:08.289Z",
  "devdoc": {
    "methods": {}
  },
  "userdoc": {
    "methods": {}
  }
}