{
  "contractName": "BokkyPooBahsDateTimeContract",
  "abi": [
    {
      "constant": true,
      "inputs": [],
      "name": "DOW_FRI",
      "outputs": [
        {
          "internalType": "uint256",
          "name": "",
          "type": "uint256"
        }
      ],
      "payable": false,
      "stateMutability": "view",
      "type": "function"
    },
    {
      "constant": true,
      "inputs": [],
      "name": "DOW_MON",
      "outputs": [
        {
          "internalType": "uint256",
          "name": "",
          "type": "uint256"
        }
      ],
      "payable": false,
      "stateMutability": "view",
      "type": "function"
    },
    {
      "constant": true,
      "inputs": [],
      "name": "DOW_SAT",
      "outputs": [
        {
          "internalType": "uint256",
          "name": "",
          "type": "uint256"
        }
      ],
      "payable": false,
      "stateMutability": "view",
      "type": "function"
    },
    {
      "constant": true,
      "inputs": [],
      "name": "DOW_SUN",
      "outputs": [
        {
          "internalType": "uint256",
          "name": "",
          "type": "uint256"
        }
      ],
      "payable": false,
      "stateMutability": "view",
      "type": "function"
    },
    {
      "constant": true,
      "inputs": [],
      "name": "DOW_THU",
      "outputs": [
        {
          "internalType": "uint256",
          "name": "",
          "type": "uint256"
        }
      ],
      "payable": false,
      "stateMutability": "view",
      "type": "function"
    },
    {
      "constant": true,
      "inputs": [],
      "name": "DOW_TUE",
      "outputs": [
        {
          "internalType": "uint256",
          "name": "",
          "type": "uint256"
        }
      ],
      "payable": false,
      "stateMutability": "view",
      "type": "function"
    },
    {
      "constant": true,
      "inputs": [],
      "name": "DOW_WED",
      "outputs": [
        {
          "internalType": "uint256",
          "name": "",
          "type": "uint256"
        }
      ],
      "payable": false,
      "stateMutability": "view",
      "type": "function"
    },
    {
      "constant": true,
      "inputs": [],
      "name": "OFFSET19700101",
      "outputs": [
        {
          "internalType": "int256",
          "name": "",
          "type": "int256"
        }
      ],
      "payable": false,
      "stateMutability": "view",
      "type": "function"
    },
    {
      "constant": true,
      "inputs": [],
      "name": "SECONDS_PER_DAY",
      "outputs": [
        {
          "internalType": "uint256",
          "name": "",
          "type": "uint256"
        }
      ],
      "payable": false,
      "stateMutability": "view",
      "type": "function"
    },
    {
      "constant": true,
      "inputs": [],
      "name": "SECONDS_PER_HOUR",
      "outputs": [
        {
          "internalType": "uint256",
          "name": "",
          "type": "uint256"
        }
      ],
      "payable": false,
      "stateMutability": "view",
      "type": "function"
    },
    {
      "constant": true,
      "inputs": [],
      "name": "SECONDS_PER_MINUTE",
      "outputs": [
        {
          "internalType": "uint256",
          "name": "",
          "type": "uint256"
        }
      ],
      "payable": false,
      "stateMutability": "view",
      "type": "function"
    },
    {
      "constant": true,
      "inputs": [],
      "name": "_now",
      "outputs": [
        {
          "internalType": "uint256",
          "name": "timestamp",
          "type": "uint256"
        }
      ],
      "payable": false,
      "stateMutability": "view",
      "type": "function"
    },
    {
      "constant": true,
      "inputs": [],
      "name": "_nowDateTime",
      "outputs": [
        {
          "internalType": "uint256",
          "name": "year",
          "type": "uint256"
        },
        {
          "internalType": "uint256",
          "name": "month",
          "type": "uint256"
        },
        {
          "internalType": "uint256",
          "name": "day",
          "type": "uint256"
        },
        {
          "internalType": "uint256",
          "name": "hour",
          "type": "uint256"
        },
        {
          "internalType": "uint256",
          "name": "minute",
          "type": "uint256"
        },
        {
          "internalType": "uint256",
          "name": "second",
          "type": "uint256"
        }
      ],
      "payable": false,
      "stateMutability": "view",
      "type": "function"
    },
    {
      "constant": true,
      "inputs": [
        {
          "internalType": "uint256",
          "name": "year",
          "type": "uint256"
        },
        {
          "internalType": "uint256",
          "name": "month",
          "type": "uint256"
        },
        {
          "internalType": "uint256",
          "name": "day",
          "type": "uint256"
        }
      ],
      "name": "_daysFromDate",
      "outputs": [
        {
          "internalType": "uint256",
          "name": "_days",
          "type": "uint256"
        }
      ],
      "payable": false,
      "stateMutability": "pure",
      "type": "function"
    },
    {
      "constant": true,
      "inputs": [
        {
          "internalType": "uint256",
          "name": "_days",
          "type": "uint256"
        }
      ],
      "name": "_daysToDate",
      "outputs": [
        {
          "internalType": "uint256",
          "name": "year",
          "type": "uint256"
        },
        {
          "internalType": "uint256",
          "name": "month",
          "type": "uint256"
        },
        {
          "internalType": "uint256",
          "name": "day",
          "type": "uint256"
        }
      ],
      "payable": false,
      "stateMutability": "pure",
      "type": "function"
    },
    {
      "constant": true,
      "inputs": [
        {
          "internalType": "uint256",
          "name": "year",
          "type": "uint256"
        },
        {
          "internalType": "uint256",
          "name": "month",
          "type": "uint256"
        },
        {
          "internalType": "uint256",
          "name": "day",
          "type": "uint256"
        }
      ],
      "name": "timestampFromDate",
      "outputs": [
        {
          "internalType": "uint256",
          "name": "timestamp",
          "type": "uint256"
        }
      ],
      "payable": false,
      "stateMutability": "pure",
      "type": "function"
    },
    {
      "constant": true,
      "inputs": [
        {
          "internalType": "uint256",
          "name": "year",
          "type": "uint256"
        },
        {
          "internalType": "uint256",
          "name": "month",
          "type": "uint256"
        },
        {
          "internalType": "uint256",
          "name": "day",
          "type": "uint256"
        },
        {
          "internalType": "uint256",
          "name": "hour",
          "type": "uint256"
        },
        {
          "internalType": "uint256",
          "name": "minute",
          "type": "uint256"
        },
        {
          "internalType": "uint256",
          "name": "second",
          "type": "uint256"
        }
      ],
      "name": "timestampFromDateTime",
      "outputs": [
        {
          "internalType": "uint256",
          "name": "timestamp",
          "type": "uint256"
        }
      ],
      "payable": false,
      "stateMutability": "pure",
      "type": "function"
    },
    {
      "constant": true,
      "inputs": [
        {
          "internalType": "uint256",
          "name": "timestamp",
          "type": "uint256"
        }
      ],
      "name": "timestampToDate",
      "outputs": [
        {
          "internalType": "uint256",
          "name": "year",
          "type": "uint256"
        },
        {
          "internalType": "uint256",
          "name": "month",
          "type": "uint256"
        },
        {
          "internalType": "uint256",
          "name": "day",
          "type": "uint256"
        }
      ],
      "payable": false,
      "stateMutability": "pure",
      "type": "function"
    },
    {
      "constant": true,
      "inputs": [
        {
          "internalType": "uint256",
          "name": "timestamp",
          "type": "uint256"
        }
      ],
      "name": "timestampToDateTime",
      "outputs": [
        {
          "internalType": "uint256",
          "name": "year",
          "type": "uint256"
        },
        {
          "internalType": "uint256",
          "name": "month",
          "type": "uint256"
        },
        {
          "internalType": "uint256",
          "name": "day",
          "type": "uint256"
        },
        {
          "internalType": "uint256",
          "name": "hour",
          "type": "uint256"
        },
        {
          "internalType": "uint256",
          "name": "minute",
          "type": "uint256"
        },
        {
          "internalType": "uint256",
          "name": "second",
          "type": "uint256"
        }
      ],
      "payable": false,
      "stateMutability": "pure",
      "type": "function"
    },
    {
      "constant": true,
      "inputs": [
        {
          "internalType": "uint256",
          "name": "year",
          "type": "uint256"
        },
        {
          "internalType": "uint256",
          "name": "month",
          "type": "uint256"
        },
        {
          "internalType": "uint256",
          "name": "day",
          "type": "uint256"
        }
      ],
      "name": "isValidDate",
      "outputs": [
        {
          "internalType": "bool",
          "name": "valid",
          "type": "bool"
        }
      ],
      "payable": false,
      "stateMutability": "pure",
      "type": "function"
    },
    {
      "constant": true,
      "inputs": [
        {
          "internalType": "uint256",
          "name": "year",
          "type": "uint256"
        },
        {
          "internalType": "uint256",
          "name": "month",
          "type": "uint256"
        },
        {
          "internalType": "uint256",
          "name": "day",
          "type": "uint256"
        },
        {
          "internalType": "uint256",
          "name": "hour",
          "type": "uint256"
        },
        {
          "internalType": "uint256",
          "name": "minute",
          "type": "uint256"
        },
        {
          "internalType": "uint256",
          "name": "second",
          "type": "uint256"
        }
      ],
      "name": "isValidDateTime",
      "outputs": [
        {
          "internalType": "bool",
          "name": "valid",
          "type": "bool"
        }
      ],
      "payable": false,
      "stateMutability": "pure",
      "type": "function"
    },
    {
      "constant": true,
      "inputs": [
        {
          "internalType": "uint256",
          "name": "timestamp",
          "type": "uint256"
        }
      ],
      "name": "isLeapYear",
      "outputs": [
        {
          "internalType": "bool",
          "name": "leapYear",
          "type": "bool"
        }
      ],
      "payable": false,
      "stateMutability": "pure",
      "type": "function"
    },
    {
      "constant": true,
      "inputs": [
        {
          "internalType": "uint256",
          "name": "year",
          "type": "uint256"
        }
      ],
      "name": "_isLeapYear",
      "outputs": [
        {
          "internalType": "bool",
          "name": "leapYear",
          "type": "bool"
        }
      ],
      "payable": false,
      "stateMutability": "pure",
      "type": "function"
    },
    {
      "constant": true,
      "inputs": [
        {
          "internalType": "uint256",
          "name": "timestamp",
          "type": "uint256"
        }
      ],
      "name": "isWeekDay",
      "outputs": [
        {
          "internalType": "bool",
          "name": "weekDay",
          "type": "bool"
        }
      ],
      "payable": false,
      "stateMutability": "pure",
      "type": "function"
    },
    {
      "constant": true,
      "inputs": [
        {
          "internalType": "uint256",
          "name": "timestamp",
          "type": "uint256"
        }
      ],
      "name": "isWeekEnd",
      "outputs": [
        {
          "internalType": "bool",
          "name": "weekEnd",
          "type": "bool"
        }
      ],
      "payable": false,
      "stateMutability": "pure",
      "type": "function"
    },
    {
      "constant": true,
      "inputs": [
        {
          "internalType": "uint256",
          "name": "timestamp",
          "type": "uint256"
        }
      ],
      "name": "getDaysInMonth",
      "outputs": [
        {
          "internalType": "uint256",
          "name": "daysInMonth",
          "type": "uint256"
        }
      ],
      "payable": false,
      "stateMutability": "pure",
      "type": "function"
    },
    {
      "constant": true,
      "inputs": [
        {
          "internalType": "uint256",
          "name": "year",
          "type": "uint256"
        },
        {
          "internalType": "uint256",
          "name": "month",
          "type": "uint256"
        }
      ],
      "name": "_getDaysInMonth",
      "outputs": [
        {
          "internalType": "uint256",
          "name": "daysInMonth",
          "type": "uint256"
        }
      ],
      "payable": false,
      "stateMutability": "pure",
      "type": "function"
    },
    {
      "constant": true,
      "inputs": [
        {
          "internalType": "uint256",
          "name": "timestamp",
          "type": "uint256"
        }
      ],
      "name": "getDayOfWeek",
      "outputs": [
        {
          "internalType": "uint256",
          "name": "dayOfWeek",
          "type": "uint256"
        }
      ],
      "payable": false,
      "stateMutability": "pure",
      "type": "function"
    },
    {
      "constant": true,
      "inputs": [
        {
          "internalType": "uint256",
          "name": "timestamp",
          "type": "uint256"
        }
      ],
      "name": "getYear",
      "outputs": [
        {
          "internalType": "uint256",
          "name": "year",
          "type": "uint256"
        }
      ],
      "payable": false,
      "stateMutability": "pure",
      "type": "function"
    },
    {
      "constant": true,
      "inputs": [
        {
          "internalType": "uint256",
          "name": "timestamp",
          "type": "uint256"
        }
      ],
      "name": "getMonth",
      "outputs": [
        {
          "internalType": "uint256",
          "name": "month",
          "type": "uint256"
        }
      ],
      "payable": false,
      "stateMutability": "pure",
      "type": "function"
    },
    {
      "constant": true,
      "inputs": [
        {
          "internalType": "uint256",
          "name": "timestamp",
          "type": "uint256"
        }
      ],
      "name": "getDay",
      "outputs": [
        {
          "internalType": "uint256",
          "name": "day",
          "type": "uint256"
        }
      ],
      "payable": false,
      "stateMutability": "pure",
      "type": "function"
    },
    {
      "constant": true,
      "inputs": [
        {
          "internalType": "uint256",
          "name": "timestamp",
          "type": "uint256"
        }
      ],
      "name": "getHour",
      "outputs": [
        {
          "internalType": "uint256",
          "name": "hour",
          "type": "uint256"
        }
      ],
      "payable": false,
      "stateMutability": "pure",
      "type": "function"
    },
    {
      "constant": true,
      "inputs": [
        {
          "internalType": "uint256",
          "name": "timestamp",
          "type": "uint256"
        }
      ],
      "name": "getMinute",
      "outputs": [
        {
          "internalType": "uint256",
          "name": "minute",
          "type": "uint256"
        }
      ],
      "payable": false,
      "stateMutability": "pure",
      "type": "function"
    },
    {
      "constant": true,
      "inputs": [
        {
          "internalType": "uint256",
          "name": "timestamp",
          "type": "uint256"
        }
      ],
      "name": "getSecond",
      "outputs": [
        {
          "internalType": "uint256",
          "name": "second",
          "type": "uint256"
        }
      ],
      "payable": false,
      "stateMutability": "pure",
      "type": "function"
    },
    {
      "constant": true,
      "inputs": [
        {
          "internalType": "uint256",
          "name": "timestamp",
          "type": "uint256"
        },
        {
          "internalType": "uint256",
          "name": "_years",
          "type": "uint256"
        }
      ],
      "name": "addYears",
      "outputs": [
        {
          "internalType": "uint256",
          "name": "newTimestamp",
          "type": "uint256"
        }
      ],
      "payable": false,
      "stateMutability": "pure",
      "type": "function"
    },
    {
      "constant": true,
      "inputs": [
        {
          "internalType": "uint256",
          "name": "timestamp",
          "type": "uint256"
        },
        {
          "internalType": "uint256",
          "name": "_months",
          "type": "uint256"
        }
      ],
      "name": "addMonths",
      "outputs": [
        {
          "internalType": "uint256",
          "name": "newTimestamp",
          "type": "uint256"
        }
      ],
      "payable": false,
      "stateMutability": "pure",
      "type": "function"
    },
    {
      "constant": true,
      "inputs": [
        {
          "internalType": "uint256",
          "name": "timestamp",
          "type": "uint256"
        },
        {
          "internalType": "uint256",
          "name": "_days",
          "type": "uint256"
        }
      ],
      "name": "addDays",
      "outputs": [
        {
          "internalType": "uint256",
          "name": "newTimestamp",
          "type": "uint256"
        }
      ],
      "payable": false,
      "stateMutability": "pure",
      "type": "function"
    },
    {
      "constant": true,
      "inputs": [
        {
          "internalType": "uint256",
          "name": "timestamp",
          "type": "uint256"
        },
        {
          "internalType": "uint256",
          "name": "_hours",
          "type": "uint256"
        }
      ],
      "name": "addHours",
      "outputs": [
        {
          "internalType": "uint256",
          "name": "newTimestamp",
          "type": "uint256"
        }
      ],
      "payable": false,
      "stateMutability": "pure",
      "type": "function"
    },
    {
      "constant": true,
      "inputs": [
        {
          "internalType": "uint256",
          "name": "timestamp",
          "type": "uint256"
        },
        {
          "internalType": "uint256",
          "name": "_minutes",
          "type": "uint256"
        }
      ],
      "name": "addMinutes",
      "outputs": [
        {
          "internalType": "uint256",
          "name": "newTimestamp",
          "type": "uint256"
        }
      ],
      "payable": false,
      "stateMutability": "pure",
      "type": "function"
    },
    {
      "constant": true,
      "inputs": [
        {
          "internalType": "uint256",
          "name": "timestamp",
          "type": "uint256"
        },
        {
          "internalType": "uint256",
          "name": "_seconds",
          "type": "uint256"
        }
      ],
      "name": "addSeconds",
      "outputs": [
        {
          "internalType": "uint256",
          "name": "newTimestamp",
          "type": "uint256"
        }
      ],
      "payable": false,
      "stateMutability": "pure",
      "type": "function"
    },
    {
      "constant": true,
      "inputs": [
        {
          "internalType": "uint256",
          "name": "timestamp",
          "type": "uint256"
        },
        {
          "internalType": "uint256",
          "name": "_years",
          "type": "uint256"
        }
      ],
      "name": "subYears",
      "outputs": [
        {
          "internalType": "uint256",
          "name": "newTimestamp",
          "type": "uint256"
        }
      ],
      "payable": false,
      "stateMutability": "pure",
      "type": "function"
    },
    {
      "constant": true,
      "inputs": [
        {
          "internalType": "uint256",
          "name": "timestamp",
          "type": "uint256"
        },
        {
          "internalType": "uint256",
          "name": "_months",
          "type": "uint256"
        }
      ],
      "name": "subMonths",
      "outputs": [
        {
          "internalType": "uint256",
          "name": "newTimestamp",
          "type": "uint256"
        }
      ],
      "payable": false,
      "stateMutability": "pure",
      "type": "function"
    },
    {
      "constant": true,
      "inputs": [
        {
          "internalType": "uint256",
          "name": "timestamp",
          "type": "uint256"
        },
        {
          "internalType": "uint256",
          "name": "_days",
          "type": "uint256"
        }
      ],
      "name": "subDays",
      "outputs": [
        {
          "internalType": "uint256",
          "name": "newTimestamp",
          "type": "uint256"
        }
      ],
      "payable": false,
      "stateMutability": "pure",
      "type": "function"
    },
    {
      "constant": true,
      "inputs": [
        {
          "internalType": "uint256",
          "name": "timestamp",
          "type": "uint256"
        },
        {
          "internalType": "uint256",
          "name": "_hours",
          "type": "uint256"
        }
      ],
      "name": "subHours",
      "outputs": [
        {
          "internalType": "uint256",
          "name": "newTimestamp",
          "type": "uint256"
        }
      ],
      "payable": false,
      "stateMutability": "pure",
      "type": "function"
    },
    {
      "constant": true,
      "inputs": [
        {
          "internalType": "uint256",
          "name": "timestamp",
          "type": "uint256"
        },
        {
          "internalType": "uint256",
          "name": "_minutes",
          "type": "uint256"
        }
      ],
      "name": "subMinutes",
      "outputs": [
        {
          "internalType": "uint256",
          "name": "newTimestamp",
          "type": "uint256"
        }
      ],
      "payable": false,
      "stateMutability": "pure",
      "type": "function"
    },
    {
      "constant": true,
      "inputs": [
        {
          "internalType": "uint256",
          "name": "timestamp",
          "type": "uint256"
        },
        {
          "internalType": "uint256",
          "name": "_seconds",
          "type": "uint256"
        }
      ],
      "name": "subSeconds",
      "outputs": [
        {
          "internalType": "uint256",
          "name": "newTimestamp",
          "type": "uint256"
        }
      ],
      "payable": false,
      "stateMutability": "pure",
      "type": "function"
    },
    {
      "constant": true,
      "inputs": [
        {
          "internalType": "uint256",
          "name": "fromTimestamp",
          "type": "uint256"
        },
        {
          "internalType": "uint256",
          "name": "toTimestamp",
          "type": "uint256"
        }
      ],
      "name": "diffYears",
      "outputs": [
        {
          "internalType": "uint256",
          "name": "_years",
          "type": "uint256"
        }
      ],
      "payable": false,
      "stateMutability": "pure",
      "type": "function"
    },
    {
      "constant": true,
      "inputs": [
        {
          "internalType": "uint256",
          "name": "fromTimestamp",
          "type": "uint256"
        },
        {
          "internalType": "uint256",
          "name": "toTimestamp",
          "type": "uint256"
        }
      ],
      "name": "diffMonths",
      "outputs": [
        {
          "internalType": "uint256",
          "name": "_months",
          "type": "uint256"
        }
      ],
      "payable": false,
      "stateMutability": "pure",
      "type": "function"
    },
    {
      "constant": true,
      "inputs": [
        {
          "internalType": "uint256",
          "name": "fromTimestamp",
          "type": "uint256"
        },
        {
          "internalType": "uint256",
          "name": "toTimestamp",
          "type": "uint256"
        }
      ],
      "name": "diffDays",
      "outputs": [
        {
          "internalType": "uint256",
          "name": "_days",
          "type": "uint256"
        }
      ],
      "payable": false,
      "stateMutability": "pure",
      "type": "function"
    },
    {
      "constant": true,
      "inputs": [
        {
          "internalType": "uint256",
          "name": "fromTimestamp",
          "type": "uint256"
        },
        {
          "internalType": "uint256",
          "name": "toTimestamp",
          "type": "uint256"
        }
      ],
      "name": "diffHours",
      "outputs": [
        {
          "internalType": "uint256",
          "name": "_hours",
          "type": "uint256"
        }
      ],
      "payable": false,
      "stateMutability": "pure",
      "type": "function"
    },
    {
      "constant": true,
      "inputs": [
        {
          "internalType": "uint256",
          "name": "fromTimestamp",
          "type": "uint256"
        },
        {
          "internalType": "uint256",
          "name": "toTimestamp",
          "type": "uint256"
        }
      ],
      "name": "diffMinutes",
      "outputs": [
        {
          "internalType": "uint256",
          "name": "_minutes",
          "type": "uint256"
        }
      ],
      "payable": false,
      "stateMutability": "pure",
      "type": "function"
    },
    {
      "constant": true,
      "inputs": [
        {
          "internalType": "uint256",
          "name": "fromTimestamp",
          "type": "uint256"
        },
        {
          "internalType": "uint256",
          "name": "toTimestamp",
          "type": "uint256"
        }
      ],
      "name": "diffSeconds",
      "outputs": [
        {
          "internalType": "uint256",
          "name": "_seconds",
          "type": "uint256"
        }
      ],
      "payable": false,
      "stateMutability": "pure",
      "type": "function"
    }
  ],
  "bytecode": "0x608060405234801561001057600080fd5b50611e0b806100206000396000f3fe608060405234801561001057600080fd5b506004361061030b5760003560e01c80638aa001fc1161019d578063c7b6fd6a116100e9578063de5101af116100a2578063f615ed541161007c578063f615ed5414610f84578063f9fd525014610fd0578063fa93f88314610fee578063ff2258cb146110305761030b565b8063de5101af14610eb1578063e955643014610f01578063ea1c169014610f1f5761030b565b8063c7b6fd6a14610d79578063c7edf88c14610dc5578063c9d3462214610de3578063cfbb9f3714610e2f578063d2b5074314610e4d578063d6582d0d14610e6b5761030b565b80639e524caa11610156578063ad203bd411610130578063ad203bd414610c83578063b05eb08d14610ccf578063b3bb8cd414610d15578063b8d16dbc14610d335761030b565b80639e524caa14610bd7578063a324ad2414610c23578063a3f144ae14610c655761030b565b80638aa001fc14610a585780638bbf51b714610a9a5780638d4a2d3914610ab857806390059aed14610b045780639220d42614610b5457806392d6631314610b955761030b565b80634355644d1161025c5780635e05bd6d116102155780637217523c116101ef5780637217523c1461095657806374f0314f146109a25780637be34109146109c057806389a3a00d14610a0c5761030b565b80635e05bd6d1461085457806362fb9697146108c857806365c72840146109145761030b565b80634355644d146106c05780634371c4651461070c578063442b8c7914610752578063444fda821461079e5780634b321502146107ea5780634df86126146108365761030b565b80631f4f77b2116102c95780632af123b8116102a35780632af123b81461056e5780633293d007146105ba5780633e239e1a146106325780633f9e0eb7146106745761030b565b80631f4f77b2146104b857806322f8a2b81461050e57806329441674146105505761030b565b80625015531461031057806302e98e0d1461035c57806310848ddf146103a8578063126702a0146103ea57806314b2d6dc146104085780631e0582e914610462575b600080fd5b6103466004803603604081101561032657600080fd5b81019080803590602001909291908035906020019092919050505061107c565b6040518082815260200191505060405180910390f35b6103926004803603604081101561037257600080fd5b810190808035906020019092919080359060200190929190505050611090565b6040518082815260200191505060405180910390f35b6103d4600480360360208110156103be57600080fd5b81019080803590602001909291905050506110a4565b6040518082815260200191505060405180910390f35b6103f26110b6565b6040518082815260200191505060405180910390f35b6104486004803603606081101561041e57600080fd5b810190808035906020019092919080359060200190929190803590602001909291905050506110bb565b604051808215151515815260200191505060405180910390f35b6104a26004803603606081101561047857600080fd5b810190808035906020019092919080359060200190929190803590602001909291905050506110d1565b6040518082815260200191505060405180910390f35b6104f8600480360360608110156104ce57600080fd5b810190808035906020019092919080359060200190929190803590602001909291905050506110e7565b6040518082815260200191505060405180910390f35b61053a6004803603602081101561052457600080fd5b81019080803590602001909291905050506110fd565b6040518082815260200191505060405180910390f35b61055861110f565b6040518082815260200191505060405180910390f35b6105a46004803603604081101561058457600080fd5b810190808035906020019092919080359060200190929190505050611114565b6040518082815260200191505060405180910390f35b610618600480360360c08110156105d057600080fd5b81019080803590602001909291908035906020019092919080359060200190929190803590602001909291908035906020019092919080359060200190929190505050611128565b604051808215151515815260200191505060405180910390f35b61065e6004803603602081101561064857600080fd5b8101908080359060200190929190505050611144565b6040518082815260200191505060405180910390f35b6106aa6004803603604081101561068a57600080fd5b810190808035906020019092919080359060200190929190505050611156565b6040518082815260200191505060405180910390f35b6106f6600480360360408110156106d657600080fd5b81019080803590602001909291908035906020019092919050505061116a565b6040518082815260200191505060405180910390f35b6107386004803603602081101561072257600080fd5b810190808035906020019092919050505061117e565b604051808215151515815260200191505060405180910390f35b6107886004803603604081101561076857600080fd5b810190808035906020019092919080359060200190929190505050611190565b6040518082815260200191505060405180910390f35b6107d4600480360360408110156107b457600080fd5b8101908080359060200190929190803590602001909291905050506111a4565b6040518082815260200191505060405180910390f35b6108206004803603604081101561080057600080fd5b8101908080359060200190929190803590602001909291905050506111b8565b6040518082815260200191505060405180910390f35b61083e6111cc565b6040518082815260200191505060405180910390f35b6108b2600480360360c081101561086a57600080fd5b810190808035906020019092919080359060200190929190803590602001909291908035906020019092919080359060200190929190803590602001909291905050506111d2565b6040518082815260200191505060405180910390f35b6108fe600480360360408110156108de57600080fd5b8101908080359060200190929190803590602001909291905050506111ee565b6040518082815260200191505060405180910390f35b6109406004803603602081101561092a57600080fd5b8101908080359060200190929190505050611202565b6040518082815260200191505060405180910390f35b61098c6004803603604081101561096c57600080fd5b810190808035906020019092919080359060200190929190505050611214565b6040518082815260200191505060405180910390f35b6109aa611228565b6040518082815260200191505060405180910390f35b6109f6600480360360408110156109d657600080fd5b81019080803590602001909291908035906020019092919050505061122f565b6040518082815260200191505060405180910390f35b610a4260048036036040811015610a2257600080fd5b810190808035906020019092919080359060200190929190505050611243565b6040518082815260200191505060405180910390f35b610a8460048036036020811015610a6e57600080fd5b8101908080359060200190929190505050611257565b6040518082815260200191505060405180910390f35b610aa2611269565b6040518082815260200191505060405180910390f35b610aee60048036036040811015610ace57600080fd5b81019080803590602001909291908035906020019092919050505061126e565b6040518082815260200191505060405180910390f35b610b3060048036036020811015610b1a57600080fd5b8101908080359060200190929190505050611282565b60405180848152602001838152602001828152602001935050505060405180910390f35b610b5c61129d565b60405180878152602001868152602001858152602001848152602001838152602001828152602001965050505050505060405180910390f35b610bc160048036036020811015610bab57600080fd5b81019080803590602001909291905050506112cf565b6040518082815260200191505060405180910390f35b610c0d60048036036040811015610bed57600080fd5b8101908080359060200190929190803590602001909291905050506112e1565b6040518082815260200191505060405180910390f35b610c4f60048036036020811015610c3957600080fd5b81019080803590602001909291905050506112f5565b6040518082815260200191505060405180910390f35b610c6d611307565b6040518082815260200191505060405180910390f35b610cb960048036036040811015610c9957600080fd5b81019080803590602001909291908035906020019092919050505061130e565b6040518082815260200191505060405180910390f35b610cfb60048036036020811015610ce557600080fd5b8101908080359060200190929190505050611322565b604051808215151515815260200191505060405180910390f35b610d1d611334565b6040518082815260200191505060405180910390f35b610d5f60048036036020811015610d4957600080fd5b810190808035906020019092919050505061133c565b604051808215151515815260200191505060405180910390f35b610daf60048036036040811015610d8f57600080fd5b81019080803590602001909291908035906020019092919050505061134e565b6040518082815260200191505060405180910390f35b610dcd611362565b6040518082815260200191505060405180910390f35b610e1960048036036040811015610df957600080fd5b810190808035906020019092919080359060200190929190505050611367565b6040518082815260200191505060405180910390f35b610e3761137b565b6040518082815260200191505060405180910390f35b610e55611380565b6040518082815260200191505060405180910390f35b610e9760048036036020811015610e8157600080fd5b8101908080359060200190929190505050611385565b604051808215151515815260200191505060405180910390f35b610edd60048036036020811015610ec757600080fd5b8101908080359060200190929190505050611397565b60405180848152602001838152602001828152602001935050505060405180910390f35b610f096113b8565b6040518082815260200191505060405180910390f35b610f4b60048036036020811015610f3557600080fd5b81019080803590602001909291905050506113bd565b60405180878152602001868152602001858152602001848152602001838152602001828152602001965050505050505060405180910390f35b610fba60048036036040811015610f9a57600080fd5b8101908080359060200190929190803590602001909291905050506113f0565b6040518082815260200191505060405180910390f35b610fd8611404565b6040518082815260200191505060405180910390f35b61101a6004803603602081101561100457600080fd5b8101908080359060200190929190505050611409565b6040518082815260200191505060405180910390f35b6110666004803603604081101561104657600080fd5b81019080803590602001909291908035906020019092919050505061141b565b6040518082815260200191505060405180910390f35b6000611088838361142f565b905092915050565b600061109c838361144d565b905092915050565b60006110af82611471565b9050919050565b600281565b60006110c88484846114a3565b90509392505050565b60006110de8484846114fa565b90509392505050565b60006110f48484846115a9565b90509392505050565b6000611108826115c4565b9050919050565b600781565b600061112083836115ef565b905092915050565b6000611138878787878787611614565b90509695505050505050565b600061114f82611657565b9050919050565b6000611162838361167d565b905092915050565b60006111768383611708565b905092915050565b6000611189826117a4565b9050919050565b600061119c83836117ba565b905092915050565b60006111b08383611831565b905092915050565b60006111c483836118a8565b905092915050565b610e1081565b60006111e28787878787876118c6565b90509695505050505050565b60006111fa83836118f1565b905092915050565b600061120d8261190b565b9050919050565b60006112208383611930565b905092915050565b6201518081565b600061123b838361194f565b905092915050565b600061124f83836119b1565b905092915050565b6000611262826119ce565b9050919050565b600381565b600061127a83836119e2565b905092915050565b6000806000611290846119fc565b9250925092509193909250565b6000806000806000806112af42611ad0565b809650819750829850839950849a50859b50505050505050909192939495565b60006112da82611b4b565b9050919050565b60006112ed8383611b6e565b905092915050565b600061130082611b8b565b9050919050565b62253d8c81565b600061131a8383611baf565b905092915050565b600061132d82611c4e565b9050919050565b600042905090565b600061134782611c91565b9050919050565b600061135a8383611cbe565b905092915050565b600681565b60006113738383611cdd565b905092915050565b600481565b600581565b600061139082611d03565b9050919050565b60008060006113a584611d19565b8093508194508295505050509193909250565b603c81565b6000806000806000806113cf87611ad0565b809650819750829850839950849a50859b5050505050505091939550919395565b60006113fc8383611d46565b905092915050565b600181565b600061141482611d60565b9050919050565b60006114278383611d84565b905092915050565b6000610e108202830390508281111561144757600080fd5b92915050565b60008183111561145c57600080fd5b603c8383038161146857fe5b04905092915050565b600080600061148b62015180858161148557fe5b046119fc565b509150915061149a828261167d565b92505050919050565b60006107b284101580156114b75750600083115b80156114c45750600c8311155b156114f35760006114d5858561167d565b90506000831180156114e75750808311155b156114f157600191505b505b9392505050565b60006107b284101561150b57600080fd5b600084905060008490506000849050600062253d8c60046064600c600e87038161153157fe5b056113248801018161153f57fe5b056003028161154a57fe5b05600c80600c600e88038161155b57fe5b0502600287030361016f028161156d57fe5b056004600c600e88038161157d57fe5b056112c08901016105b5028161158f57fe5b05617d4b8603010103039050809450505050509392505050565b6000620151806115ba8585856114fa565b0290509392505050565b6000806201518083816115d357fe5b0490506001600760038301816115e557fe5b0601915050919050565b6000818311156115fe57600080fd5b610e108383038161160b57fe5b04905092915050565b60006116218787876114a3565b1561164d576018841080156116365750603c83105b80156116425750603c82105b1561164c57600190505b5b9695505050505050565b60008062015180838161166657fe5b069050610e10818161167457fe5b04915050919050565b6000600182148061168e5750600382145b806116995750600582145b806116a45750600782145b806116af5750600882145b806116ba5750600a82145b806116c55750600c82145b156116d357601f9050611702565b600282146116e457601e9050611701565b6116ed83611c4e565b6116f857601c6116fb565b601d5b60ff1690505b5b92915050565b60008060008061172362015180878161171d57fe5b046119fc565b9250925092508482019150600c600183038161173b57fe5b04830192506001600c600184038161174f57fe5b06019150600061175f848461167d565b90508082111561176d578091505b62015180878161177957fe5b06620151806117898686866114fa565b020194508685101561179a57600080fd5b5050505092915050565b600060066117b1836115c4565b10159050919050565b6000806000806117d56201518087816117cf57fe5b046119fc565b925092509250848301925060006117ec848461167d565b9050808211156117fa578091505b62015180878161180657fe5b06620151806118168686866114fa565b020194508685101561182757600080fd5b5050505092915050565b60008060008061184c62015180878161184657fe5b046119fc565b92509250925084830392506000611863848461167d565b905080821115611871578091505b62015180878161187d57fe5b066201518061188d8686866114fa565b020194508685111561189e57600080fd5b5050505092915050565b6000610e10820283019050828110156118c057600080fd5b92915050565b600081603c8402610e108602620151806118e18b8b8b6114fa565b0201010190509695505050505050565b60008183111561190057600080fd5b828203905092915050565b600061192262015180838161191c57fe5b046119fc565b909150905080915050919050565b6000620151808202830190508281101561194957600080fd5b92915050565b60008183111561195e57600080fd5b60008061197662015180868161197057fe5b046119fc565b509150915060008061199362015180878161198d57fe5b046119fc565b509150915082600c850282600c850201030394505050505092915050565b6000603c820283019050828110156119c857600080fd5b92915050565b6000603c82816119da57fe5b069050919050565b60008183019050828110156119f657600080fd5b92915050565b600080600080849050600062253d8c62010bd98301019050600062023ab18260040281611a2557fe5b059050600460038262023ab1020181611a3a57fe5b0582039150600062164b0960018401610fa00281611a5457fe5b059050601f6004826105b50281611a6757fe5b058403019250600061098f8460500281611a7d57fe5b059050600060508261098f0281611a9057fe5b0585039050600b8281611a9f57fe5b05945084600c0260028301039150848360318603606402010192508298508197508096505050505050509193909250565b600080600080600080611aee620151808881611ae857fe5b046119fc565b8096508197508298505050506000620151808881611b0857fe5b069050610e108181611b1657fe5b049350610e108181611b2457fe5b069050603c8181611b3157fe5b049250603c8181611b3e57fe5b0691505091939550919395565b6000611b62620151808381611b5c57fe5b046119fc565b90505080915050919050565b6000603c82028303905082811115611b8557600080fd5b92915050565b6000611ba2620151808381611b9c57fe5b046119fc565b9091505080915050919050565b600080600080611bca620151808781611bc457fe5b046119fc565b92509250925060008560018403600c860201039050600c8181611be957fe5b0493506001600c8281611bf857fe5b060192506000611c08858561167d565b905080831115611c16578092505b620151808881611c2257fe5b0662015180611c328787876114fa565b0201955087861115611c4357600080fd5b505050505092915050565b60008060048381611c5b57fe5b06148015611c745750600060648381611c7057fe5b0614155b80611c8a575060006101908381611c8757fe5b06145b9050919050565b600080611ca9620151808481611ca357fe5b046119fc565b50509050611cb681611c4e565b915050919050565b60006201518082028303905082811115611cd757600080fd5b92915050565b600081831115611cec57600080fd5b6201518083830381611cfa57fe5b04905092915050565b60006005611d10836115c4565b11159050919050565b6000806000611d33620151808581611d2d57fe5b046119fc565b8093508194508295505050509193909250565b6000818303905082811115611d5a57600080fd5b92915050565b600080610e108381611d6e57fe5b069050603c8181611d7b57fe5b04915050919050565b600081831115611d9357600080fd5b6000611daa620151808581611da457fe5b046119fc565b505090506000611dc5620151808581611dbf57fe5b046119fc565b50509050818103925050509291505056fea265627a7a7231582021b901c5e9d856fc170cb74a9f00d21c71582274295a058b15e4ff869b698b9664736f6c63430005100032",
  "source": "pragma solidity ^0.5.0;\n\n// ----------------------------------------------------------------------------\n// BokkyPooBah's DateTime Library v1.00 - Contract Instance\n//\n// A gas-efficient Solidity date and time library\n//\n// https://github.com/bokkypoobah/BokkyPooBahsDateTimeLibrary\n//\n// Tested date range 1970/01/01 to 2345/12/31\n//\n// Conventions:\n// Unit      | Range         | Notes\n// :-------- |:-------------:|:-----\n// timestamp | >= 0          | Unix timestamp, number of seconds since 1970/01/01 00:00:00 UTC\n// year      | 1970 ... 2345 |\n// month     | 1 ... 12      |\n// day       | 1 ... 31      |\n// hour      | 0 ... 23      |\n// minute    | 0 ... 59      |\n// second    | 0 ... 59      |\n// dayOfWeek | 1 ... 7       | 1 = Monday, ..., 7 = Sunday\n//\n//\n// Enjoy. (c) BokkyPooBah / Bok Consulting Pty Ltd 2018.\n//\n// GNU Lesser General Public License 3.0\n// https://www.gnu.org/licenses/lgpl-3.0.en.html\n// ----------------------------------------------------------------------------\n\nimport \"./BokkyPooBahsDateTimeLibrary.sol\";\n\ncontract BokkyPooBahsDateTimeContract {\n    uint public constant SECONDS_PER_DAY = 24 * 60 * 60;\n    uint public constant SECONDS_PER_HOUR = 60 * 60;\n    uint public constant SECONDS_PER_MINUTE = 60;\n    int public constant OFFSET19700101 = 2440588;\n\n    uint public constant DOW_MON = 1;\n    uint public constant DOW_TUE = 2;\n    uint public constant DOW_WED = 3;\n    uint public constant DOW_THU = 4;\n    uint public constant DOW_FRI = 5;\n    uint public constant DOW_SAT = 6;\n    uint public constant DOW_SUN = 7;\n\n    function _now() public view returns (uint timestamp) {\n        timestamp = now;\n    }\n    function _nowDateTime() public view returns (uint year, uint month, uint day, uint hour, uint minute, uint second) {\n        (year, month, day, hour, minute, second) = BokkyPooBahsDateTimeLibrary.timestampToDateTime(now);\n    }\n    function _daysFromDate(uint year, uint month, uint day) public pure returns (uint _days) {\n        return BokkyPooBahsDateTimeLibrary._daysFromDate(year, month, day);\n    }\n    function _daysToDate(uint _days) public pure returns (uint year, uint month, uint day) {\n        return BokkyPooBahsDateTimeLibrary._daysToDate(_days);\n    }\n    function timestampFromDate(uint year, uint month, uint day) public pure returns (uint timestamp) {\n        return BokkyPooBahsDateTimeLibrary.timestampFromDate(year, month, day);\n    }\n    function timestampFromDateTime(uint year, uint month, uint day, uint hour, uint minute, uint second) public pure returns (uint timestamp) {\n        return BokkyPooBahsDateTimeLibrary.timestampFromDateTime(year, month, day, hour, minute, second);\n    }\n    function timestampToDate(uint timestamp) public pure returns (uint year, uint month, uint day) {\n        (year, month, day) = BokkyPooBahsDateTimeLibrary.timestampToDate(timestamp);\n    }\n    function timestampToDateTime(uint timestamp) public pure returns (uint year, uint month, uint day, uint hour, uint minute, uint second) {\n        (year, month, day, hour, minute, second) = BokkyPooBahsDateTimeLibrary.timestampToDateTime(timestamp);\n    }\n\n    function isValidDate(uint year, uint month, uint day) public pure returns (bool valid) {\n        valid = BokkyPooBahsDateTimeLibrary.isValidDate(year, month, day);\n    }\n    function isValidDateTime(uint year, uint month, uint day, uint hour, uint minute, uint second) public pure returns (bool valid) {\n        valid = BokkyPooBahsDateTimeLibrary.isValidDateTime(year, month, day, hour, minute, second);\n    }\n    function isLeapYear(uint timestamp) public pure returns (bool leapYear) {\n        leapYear = BokkyPooBahsDateTimeLibrary.isLeapYear(timestamp);\n    }\n    function _isLeapYear(uint year) public pure returns (bool leapYear) {\n        leapYear = BokkyPooBahsDateTimeLibrary._isLeapYear(year);\n    }\n    function isWeekDay(uint timestamp) public pure returns (bool weekDay) {\n        weekDay = BokkyPooBahsDateTimeLibrary.isWeekDay(timestamp);\n    }\n    function isWeekEnd(uint timestamp) public pure returns (bool weekEnd) {\n        weekEnd = BokkyPooBahsDateTimeLibrary.isWeekEnd(timestamp);\n    }\n\n    function getDaysInMonth(uint timestamp) public pure returns (uint daysInMonth) {\n        daysInMonth = BokkyPooBahsDateTimeLibrary.getDaysInMonth(timestamp);\n    }\n    function _getDaysInMonth(uint year, uint month) public pure returns (uint daysInMonth) {\n        daysInMonth = BokkyPooBahsDateTimeLibrary._getDaysInMonth(year, month);\n    }\n    function getDayOfWeek(uint timestamp) public pure returns (uint dayOfWeek) {\n        dayOfWeek = BokkyPooBahsDateTimeLibrary.getDayOfWeek(timestamp);\n    }\n\n    function getYear(uint timestamp) public pure returns (uint year) {\n        year = BokkyPooBahsDateTimeLibrary.getYear(timestamp);\n    }\n    function getMonth(uint timestamp) public pure returns (uint month) {\n        month = BokkyPooBahsDateTimeLibrary.getMonth(timestamp);\n    }\n    function getDay(uint timestamp) public pure returns (uint day) {\n        day = BokkyPooBahsDateTimeLibrary.getDay(timestamp);\n    }\n    function getHour(uint timestamp) public pure returns (uint hour) {\n        hour = BokkyPooBahsDateTimeLibrary.getHour(timestamp);\n    }\n    function getMinute(uint timestamp) public pure returns (uint minute) {\n        minute = BokkyPooBahsDateTimeLibrary.getMinute(timestamp);\n    }\n    function getSecond(uint timestamp) public pure returns (uint second) {\n        second = BokkyPooBahsDateTimeLibrary.getSecond(timestamp);\n    }\n\n    function addYears(uint timestamp, uint _years) public pure returns (uint newTimestamp) {\n        newTimestamp = BokkyPooBahsDateTimeLibrary.addYears(timestamp, _years);\n    }\n    function addMonths(uint timestamp, uint _months) public pure returns (uint newTimestamp) {\n        newTimestamp = BokkyPooBahsDateTimeLibrary.addMonths(timestamp, _months);\n    }\n    function addDays(uint timestamp, uint _days) public pure returns (uint newTimestamp) {\n        newTimestamp = BokkyPooBahsDateTimeLibrary.addDays(timestamp, _days);\n    }\n    function addHours(uint timestamp, uint _hours) public pure returns (uint newTimestamp) {\n        newTimestamp = BokkyPooBahsDateTimeLibrary.addHours(timestamp, _hours);\n    }\n    function addMinutes(uint timestamp, uint _minutes) public pure returns (uint newTimestamp) {\n        newTimestamp = BokkyPooBahsDateTimeLibrary.addMinutes(timestamp, _minutes);\n    }\n    function addSeconds(uint timestamp, uint _seconds) public pure returns (uint newTimestamp) {\n        newTimestamp = BokkyPooBahsDateTimeLibrary.addSeconds(timestamp, _seconds);\n    }\n\n    function subYears(uint timestamp, uint _years) public pure returns (uint newTimestamp) {\n        newTimestamp = BokkyPooBahsDateTimeLibrary.subYears(timestamp, _years);\n    }\n    function subMonths(uint timestamp, uint _months) public pure returns (uint newTimestamp) {\n        newTimestamp = BokkyPooBahsDateTimeLibrary.subMonths(timestamp, _months);\n    }\n    function subDays(uint timestamp, uint _days) public pure returns (uint newTimestamp) {\n        newTimestamp = BokkyPooBahsDateTimeLibrary.subDays(timestamp, _days);\n    }\n    function subHours(uint timestamp, uint _hours) public pure returns (uint newTimestamp) {\n        newTimestamp = BokkyPooBahsDateTimeLibrary.subHours(timestamp, _hours);\n    }\n    function subMinutes(uint timestamp, uint _minutes) public pure returns (uint newTimestamp) {\n        newTimestamp = BokkyPooBahsDateTimeLibrary.subMinutes(timestamp, _minutes);\n    }\n    function subSeconds(uint timestamp, uint _seconds) public pure returns (uint newTimestamp) {\n        newTimestamp = BokkyPooBahsDateTimeLibrary.subSeconds(timestamp, _seconds);\n    }\n\n    function diffYears(uint fromTimestamp, uint toTimestamp) public pure returns (uint _years) {\n        _years = BokkyPooBahsDateTimeLibrary.diffYears(fromTimestamp, toTimestamp);\n    }\n    function diffMonths(uint fromTimestamp, uint toTimestamp) public pure returns (uint _months) {\n        _months = BokkyPooBahsDateTimeLibrary.diffMonths(fromTimestamp, toTimestamp);\n    }\n    function diffDays(uint fromTimestamp, uint toTimestamp) public pure returns (uint _days) {\n        _days = BokkyPooBahsDateTimeLibrary.diffDays(fromTimestamp, toTimestamp);\n    }\n    function diffHours(uint fromTimestamp, uint toTimestamp) public pure returns (uint _hours) {\n        _hours = BokkyPooBahsDateTimeLibrary.diffHours(fromTimestamp, toTimestamp);\n    }\n    function diffMinutes(uint fromTimestamp, uint toTimestamp) public pure returns (uint _minutes) {\n        _minutes = BokkyPooBahsDateTimeLibrary.diffMinutes(fromTimestamp, toTimestamp);\n    }\n    function diffSeconds(uint fromTimestamp, uint toTimestamp) public pure returns (uint _seconds) {\n        _seconds = BokkyPooBahsDateTimeLibrary.diffSeconds(fromTimestamp, toTimestamp);\n    }\n}\n",
  "sourcePath": "/Users/mg/bnpl-dapp/src/contracts/BokkyPooBahsDateTimeContract.sol",
  "compiler": {
    "name": "solc",
    "version": "0.5.16+commit.9c3226ce.Emscripten.clang"
  },
  "schemaVersion": "3.3.4",
  "updatedAt": "2021-06-19T00:15:09.664Z",
  "networkType": "ethereum",
  "devdoc": {
    "methods": {}
  },
  "userdoc": {
    "methods": {}
  }
}