{
  "contractName": "GetPrice",
  "abi": [
    {
      "inputs": [],
      "payable": false,
      "stateMutability": "nonpayable",
      "type": "constructor"
    },
    {
      "constant": true,
      "inputs": [],
      "name": "randomNumber",
      "outputs": [
        {
          "internalType": "uint256",
          "name": "",
          "type": "uint256"
        }
      ],
      "payable": false,
      "stateMutability": "view",
      "type": "function"
    },
    {
      "constant": true,
      "inputs": [],
      "name": "request_id",
      "outputs": [
        {
          "internalType": "bytes32",
          "name": "",
          "type": "bytes32"
        }
      ],
      "payable": false,
      "stateMutability": "view",
      "type": "function"
    },
    {
      "constant": false,
      "inputs": [],
      "name": "request",
      "outputs": [],
      "payable": false,
      "stateMutability": "nonpayable",
      "type": "function"
    },
    {
      "constant": false,
      "inputs": [
        {
          "internalType": "bytes32",
          "name": "_myid",
          "type": "bytes32"
        },
        {
          "internalType": "string",
          "name": "_result",
          "type": "string"
        }
      ],
      "name": "__callback",
      "outputs": [],
      "payable": false,
      "stateMutability": "nonpayable",
      "type": "function"
    },
    {
      "constant": false,
      "inputs": [
        {
          "internalType": "bytes32",
          "name": "_myid",
          "type": "bytes32"
        },
        {
          "internalType": "string",
          "name": "_result",
          "type": "string"
        },
        {
          "internalType": "bytes",
          "name": "_proof",
          "type": "bytes"
        }
      ],
      "name": "__callback",
      "outputs": [],
      "payable": false,
      "stateMutability": "nonpayable",
      "type": "function"
    },
    {
      "constant": false,
      "inputs": [
        {
          "internalType": "uint256",
          "name": "_result",
          "type": "uint256"
        }
      ],
      "name": "__callback",
      "outputs": [],
      "payable": false,
      "stateMutability": "nonpayable",
      "type": "function"
    }
  ],
  "bytecode": "0x608060405234801561001057600080fd5b50736f485c8bf6fc43ea212e93bbf8ce046c7f1cb475600160006101000a81548173ffffffffffffffffffffffffffffffffffffffff021916908373ffffffffffffffffffffffffffffffffffffffff160217905550611400806100756000396000f3fe608060405234801561001057600080fd5b50600436106100625760003560e01c806327dc297e14610067578063338cdca11461012c57806338bbfa501461013657806338be706d146102925780635829df43146102c0578063ccbac9f5146102de575b600080fd5b61012a6004803603604081101561007d57600080fd5b8101908080359060200190929190803590602001906401000000008111156100a457600080fd5b8201836020820111156100b657600080fd5b803590602001918460018302840111640100000000831117156100d857600080fd5b91908080601f016020809104026020016040519081016040528093929190818152602001838380828437600081840152601f19601f8201169050808301925050505050505091929192905050506102fc565b005b61013461033f565b005b6102906004803603606081101561014c57600080fd5b81019080803590602001909291908035906020019064010000000081111561017357600080fd5b82018360208201111561018557600080fd5b803590602001918460018302840111640100000000831117156101a757600080fd5b91908080601f016020809104026020016040519081016040528093929190818152602001838380828437600081840152601f19601f8201169050808301925050505050505091929192908035906020019064010000000081111561020a57600080fd5b82018360208201111561021c57600080fd5b8035906020019184600183028401116401000000008311171561023e57600080fd5b91908080601f016020809104026020016040519081016040528093929190818152602001838380828437600081840152601f19601f820116905080830192505050505050509192919290505050610418565b005b6102be600480360360208110156102a857600080fd5b810190808035906020019092919050505061043b565b005b6102c8610484565b6040518082815260200191505060405180910390f35b6102e661048a565b6040518082815260200191505060405180910390f35b61033b828260006040519080825280601f01601f1916602001820160405280156103355781602001600182028038833980820191505090505b50610418565b5050565b6103b36040518060400160405280600c81526020017f576f6c6672616d416c70686100000000000000000000000000000000000000008152506040518060400160405280601d81526020017f72616e646f6d206e756d626572206265747765656e203120616e642036000000815250610490565b6006819055506104106040518060400160405280600381526020017f55524c00000000000000000000000000000000000000000000000000000000008152506040518060e0016040528060a6815260200161132660a69139610490565b600681905550565b6000801b600360008060001b815260200190815260200160002081905550505050565b6104436109d6565b73ffffffffffffffffffffffffffffffffffffffff163373ffffffffffffffffffffffffffffffffffffffff161461047a57600080fd5b8060058190555050565b60065481565b60055481565b60008073ffffffffffffffffffffffffffffffffffffffff16600160009054906101000a900473ffffffffffffffffffffffffffffffffffffffff1673ffffffffffffffffffffffffffffffffffffffff16148061051857506000610516600160009054906101000a900473ffffffffffffffffffffffffffffffffffffffff16610cf3565b145b15610529576105276000610cfe565b505b600160009054906101000a900473ffffffffffffffffffffffffffffffffffffffff1673ffffffffffffffffffffffffffffffffffffffff166338cc48316040518163ffffffff1660e01b8152600401602060405180830381600087803b15801561059357600080fd5b505af11580156105a7573d6000803e3d6000fd5b505050506040513d60208110156105bd57600080fd5b810190808051906020019092919050505073ffffffffffffffffffffffffffffffffffffffff166000809054906101000a900473ffffffffffffffffffffffffffffffffffffffff1673ffffffffffffffffffffffffffffffffffffffff161461070657600160009054906101000a900473ffffffffffffffffffffffffffffffffffffffff1673ffffffffffffffffffffffffffffffffffffffff166338cc48316040518163ffffffff1660e01b8152600401602060405180830381600087803b15801561068b57600080fd5b505af115801561069f573d6000803e3d6000fd5b505050506040513d60208110156106b557600080fd5b81019080805190602001909291905050506000806101000a81548173ffffffffffffffffffffffffffffffffffffffff021916908373ffffffffffffffffffffffffffffffffffffffff1602179055505b60008060009054906101000a900473ffffffffffffffffffffffffffffffffffffffff1673ffffffffffffffffffffffffffffffffffffffff1663524f3889856040518263ffffffff1660e01b81526004018080602001828103825283818151815260200191508051906020019080838360005b8381101561079557808201518184015260208101905061077a565b50505050905090810190601f1680156107c25780820380516001836020036101000a031916815260200191505b5092505050602060405180830381600087803b1580156107e157600080fd5b505af11580156107f5573d6000803e3d6000fd5b505050506040513d602081101561080b57600080fd5b8101908080519060200190929190505050905062030d403a02670de0b6b3a764000001811115610841576000801b9150506109d0565b6000809054906101000a900473ffffffffffffffffffffffffffffffffffffffff1673ffffffffffffffffffffffffffffffffffffffff1663adf59f9982600087876040518563ffffffff1660e01b8152600401808481526020018060200180602001838103835285818151815260200191508051906020019080838360005b838110156108dc5780820151818401526020810190506108c1565b50505050905090810190601f1680156109095780820380516001836020036101000a031916815260200191505b50838103825284818151815260200191508051906020019080838360005b83811015610942578082015181840152602081019050610927565b50505050905090810190601f16801561096f5780820380516001836020036101000a031916815260200191505b50955050505050506020604051808303818588803b15801561099057600080fd5b505af11580156109a4573d6000803e3d6000fd5b50505050506040513d60208110156109bb57600080fd5b81019080805190602001909291905050509150505b92915050565b60008073ffffffffffffffffffffffffffffffffffffffff16600160009054906101000a900473ffffffffffffffffffffffffffffffffffffffff1673ffffffffffffffffffffffffffffffffffffffff161480610a5e57506000610a5c600160009054906101000a900473ffffffffffffffffffffffffffffffffffffffff16610cf3565b145b15610a6f57610a6d6000610cfe565b505b600160009054906101000a900473ffffffffffffffffffffffffffffffffffffffff1673ffffffffffffffffffffffffffffffffffffffff166338cc48316040518163ffffffff1660e01b8152600401602060405180830381600087803b158015610ad957600080fd5b505af1158015610aed573d6000803e3d6000fd5b505050506040513d6020811015610b0357600080fd5b810190808051906020019092919050505073ffffffffffffffffffffffffffffffffffffffff166000809054906101000a900473ffffffffffffffffffffffffffffffffffffffff1673ffffffffffffffffffffffffffffffffffffffff1614610c4c57600160009054906101000a900473ffffffffffffffffffffffffffffffffffffffff1673ffffffffffffffffffffffffffffffffffffffff166338cc48316040518163ffffffff1660e01b8152600401602060405180830381600087803b158015610bd157600080fd5b505af1158015610be5573d6000803e3d6000fd5b505050506040513d6020811015610bfb57600080fd5b81019080805190602001909291905050506000806101000a81548173ffffffffffffffffffffffffffffffffffffffff021916908373ffffffffffffffffffffffffffffffffffffffff1602179055505b6000809054906101000a900473ffffffffffffffffffffffffffffffffffffffff1673ffffffffffffffffffffffffffffffffffffffff1663c281d19e6040518163ffffffff1660e01b815260040160206040518083038186803b158015610cb357600080fd5b505afa158015610cc7573d6000803e3d6000fd5b505050506040513d6020811015610cdd57600080fd5b8101908080519060200190929190505050905090565b6000813b9050919050565b6000610d08610d0f565b9050919050565b600080610d2f731d3b2638a7cc9f2cb3d298a3da7a90b67e5506ed610cf3565b1115610dd157731d3b2638a7cc9f2cb3d298a3da7a90b67e5506ed600160006101000a81548173ffffffffffffffffffffffffffffffffffffffff021916908373ffffffffffffffffffffffffffffffffffffffff160217905550610dc86040518060400160405280600b81526020017f6574685f6d61696e6e6574000000000000000000000000000000000000000000815250611266565b60019050611263565b6000610df073c03a2615d5efaf5f49f60b7bb6583eaec212fdf1610cf3565b1115610e925773c03a2615d5efaf5f49f60b7bb6583eaec212fdf1600160006101000a81548173ffffffffffffffffffffffffffffffffffffffff021916908373ffffffffffffffffffffffffffffffffffffffff160217905550610e896040518060400160405280600c81526020017f6574685f726f707374656e330000000000000000000000000000000000000000815250611266565b60019050611263565b6000610eb173b7a07bcf2ba2f2703b24c0691b5278999c59ac7e610cf3565b1115610f535773b7a07bcf2ba2f2703b24c0691b5278999c59ac7e600160006101000a81548173ffffffffffffffffffffffffffffffffffffffff021916908373ffffffffffffffffffffffffffffffffffffffff160217905550610f4a6040518060400160405280600981526020017f6574685f6b6f76616e0000000000000000000000000000000000000000000000815250611266565b60019050611263565b6000610f7273146500cfd35b22e4a392fe0adc06de1a1368ed48610cf3565b11156110145773146500cfd35b22e4a392fe0adc06de1a1368ed48600160006101000a81548173ffffffffffffffffffffffffffffffffffffffff021916908373ffffffffffffffffffffffffffffffffffffffff16021790555061100b6040518060400160405280600b81526020017f6574685f72696e6b656279000000000000000000000000000000000000000000815250611266565b60019050611263565b600061103373a2998efd205fb9d4b4963afb70778d6354ad3a41610cf3565b11156110d55773a2998efd205fb9d4b4963afb70778d6354ad3a41600160006101000a81548173ffffffffffffffffffffffffffffffffffffffff021916908373ffffffffffffffffffffffffffffffffffffffff1602179055506110cc6040518060400160405280600a81526020017f6574685f676f65726c6900000000000000000000000000000000000000000000815250611266565b60019050611263565b60006110f4736f485c8bf6fc43ea212e93bbf8ce046c7f1cb475610cf3565b111561115857736f485c8bf6fc43ea212e93bbf8ce046c7f1cb475600160006101000a81548173ffffffffffffffffffffffffffffffffffffffff021916908373ffffffffffffffffffffffffffffffffffffffff16021790555060019050611263565b60006111777320e12a1f859b3feae5fb2a0a32c18f5a65555bbf610cf3565b11156111db577320e12a1f859b3feae5fb2a0a32c18f5a65555bbf600160006101000a81548173ffffffffffffffffffffffffffffffffffffffff021916908373ffffffffffffffffffffffffffffffffffffffff16021790555060019050611263565b60006111fa7351efaf4c8b3c9afbd5ab9f4bbc82784ab6ef8faa610cf3565b111561125e577351efaf4c8b3c9afbd5ab9f4bbc82784ab6ef8faa600160006101000a81548173ffffffffffffffffffffffffffffffffffffffff021916908373ffffffffffffffffffffffffffffffffffffffff16021790555060019050611263565b600090505b90565b806002908051906020019061127c929190611280565b5050565b828054600181600116156101000203166002900490600052602060002090601f016020900481019282601f106112c157805160ff19168380011785556112ef565b828001600101855582156112ef579182015b828111156112ee5782518255916020019190600101906112d3565b5b5090506112fc9190611300565b5090565b61132291905b8082111561131e576000816000905550600101611306565b5090565b9056fe6a736f6e2868747470733a2f2f7777772e6b6f7265616578696d2e676f2e6b722f736974652f70726f6772616d2f66696e616e6369616c2f65786368616e67654a534f4e3f617574686b65793d356e5667484f62704b6b6e4871456a4d4b314c51306e4133435a414c6541507026736561726368646174653d323031383031303226646174613d41503031266375725f756e69743d555344292e302e6465616c5f6261735f72a265627a7a72315820b2ea4992511863ac74d2f1c06fc12c2033cc51efc7c780bc5dca69d88b93553564736f6c63430005100032",
  "source": "pragma solidity ^0.5.0;\n//import \"github.com/oraclize/ethereum-api/oraclizeAPI.sol\";\nimport \"./usingOraclize.sol\";\n\ncontract GetPrice is usingOraclize {\n\tuint256 public randomNumber;\n\tbytes32 public request_id;\n\n\tconstructor() public {\n\t\tOAR = OraclizeAddrResolverI(0x6f485C8BF6fc43eA212E93BBF8ce046C7f1cb475);\n\t}\n\n\tfunction request() public {\n\t\trequest_id = oraclize_query(\"WolframAlpha\", \"random number between 1 and 6\");\n\t\trequest_id = oraclize_query(\"URL\",\n  \t\t\t\t\"json(https://www.koreaexim.go.kr/site/program/financial/exchangeJSON?authkey=5nVgHObpKknHqEjMK1LQ0nA3CZALeAPp&searchdate=20180102&data=AP01&cur_unit=USD).0.deal_bas_r\");\n\n\t}\n\n\tfunction __callback(uint256 _result) public {\n\t\trequire(msg.sender == oraclize_cbAddress());\n\n\t\trandomNumber = _result;\n\t}\n\n}\n\n// pragma solidity ^0.4.25;\n// import \"github.com/oraclize/ethereum-api/oraclizeAPI_0.4.25.sol\";\n\n// contract 환율계산함수 is usingOraclize {\n// string public exchage_rates;\n// event NewOraclizeQuery(string description);\n//      event NewSomeValue(string value);\n// constructor() public {\n//         update();\n//     }\n// function __callback(bytes32 myid, string result) public {\n//         (myid);\n//         require (msg.sender == oraclize_cbAddress());\n//         exchage_rates = result;\n//         emit NewSomeValue(exchage_rates);\n//         // do something with exchage_rates\n//     }\n// function update() public payable {\n//         if (oraclize_getPrice(\"URL\") > address(this).balance) {\n//             emit NewOraclizeQuery(\"Oraclize query was NOT sent, please add some ETH to cover for the query fee\");\n//         } else {\n//             emit NewOraclizeQuery(\"Oraclize query was sent, standing by for the answer exchange_rate\");\n//             oraclize_query(\"URL\", \"[URL, 검색어, 수식 등]\");\n//         }\n//     }\n// }\n\n\n/*\npragma solidity ^0.4.1;\nimport \"github.com/oraclize/ethereum-api/oraclizeAPI.sol\";\n\n\n//   \"oraclize_\" prepended methods indicate inheritance from \"usingOraclize\"\n \ncontract EthUsdPriceTicker is usingOraclize {\n\n    uint public ethUsd;\n\n    event newOraclizeQuery(string description);\n    event newCallbackResult(string result);\n\n    function EthUsdPriceTicker() payable {\n        // signals TLSN proof generation and storage on IPFS\n        oraclize_setProof(proofType_TLSNotary | proofStorage_IPFS);\n\n        // requests query\n        queryTicker();\n    }\n\n    function __callback(bytes32 _queryId, string _result, bytes _proof) public {\n        if (msg.sender != oraclize_cbAddress()) throw;\n        newCallbackResult(_result);\n\n        \n        // * Parse the result string into an unsigned integer for on-chain use.\n        // * Uses inherited \"parseInt\" helper from \"usingOraclize\", allowing for\n        // * a string result such as \"123.45\" to be converted to uint 12345.\n        \n        ethUsd = parseInt(_result, 2);\n\n        // called from callback since we're polling the price\n        queryTicker();\n    }\n\n    function queryTicker() public payable {\n        if (oraclize_getPrice(\"URL\") > this.balance) {\n            newOraclizeQuery(\"Oraclize query was NOT sent, please add some ETH\n                to cover for the query fee\");\n        } else {\n            newOraclizeQuery(\"Oraclize query was sent, standing by for the\n                answer...\");\n\n            // query params are (delay in seconds, datasource type,\n            // datasource argument)\n            // specifies JSONPath, to fetch specific portion of JSON API result\n            oraclize_query(60 * 10, \"URL\",\n                \"json(https://min-api.cryptocompare.com/data/price?\\\n                fsym=ETH&tsyms=USD,EUR,GBP).USD\");\n        }\n    }\n}\n\n*/",
  "sourcePath": "/Users/mg/bnpl-dapp/src/contracts/GetPrice.sol",
  "compiler": {
    "name": "solc",
    "version": "0.5.16+commit.9c3226ce.Emscripten.clang"
  },
  "schemaVersion": "3.3.4",
  "updatedAt": "2021-05-22T07:17:53.799Z",
  "networkType": "ethereum",
  "devdoc": {
    "methods": {
      "__callback(bytes32,string)": {
        "details": "The following `__callback` functions are just placeholders ideally     meant to be defined in child contract when proofs are used.     The function bodies simply silence compiler warnings."
      }
    }
  },
  "userdoc": {
    "methods": {}
  }
}