{
  "contractName": "GetPrice",
  "abi": [
    {
      "inputs": [],
      "payable": false,
      "stateMutability": "nonpayable",
      "type": "constructor"
    },
    {
      "constant": true,
      "inputs": [],
      "name": "randomNumber",
      "outputs": [
        {
          "internalType": "uint256",
          "name": "",
          "type": "uint256"
        }
      ],
      "payable": false,
      "stateMutability": "view",
      "type": "function"
    },
    {
      "constant": true,
      "inputs": [],
      "name": "request_id",
      "outputs": [
        {
          "internalType": "bytes32",
          "name": "",
          "type": "bytes32"
        }
      ],
      "payable": false,
      "stateMutability": "view",
      "type": "function"
    },
    {
      "constant": false,
      "inputs": [],
      "name": "request",
      "outputs": [],
      "payable": false,
      "stateMutability": "nonpayable",
      "type": "function"
    },
    {
      "constant": false,
      "inputs": [
        {
          "internalType": "bytes32",
          "name": "_myid",
          "type": "bytes32"
        },
        {
          "internalType": "string",
          "name": "_result",
          "type": "string"
        }
      ],
      "name": "__callback",
      "outputs": [],
      "payable": false,
      "stateMutability": "nonpayable",
      "type": "function"
    },
    {
      "constant": false,
      "inputs": [
        {
          "internalType": "bytes32",
          "name": "_myid",
          "type": "bytes32"
        },
        {
          "internalType": "string",
          "name": "_result",
          "type": "string"
        },
        {
          "internalType": "bytes",
          "name": "_proof",
          "type": "bytes"
        }
      ],
      "name": "__callback",
      "outputs": [],
      "payable": false,
      "stateMutability": "nonpayable",
      "type": "function"
    },
    {
      "constant": false,
      "inputs": [
        {
          "internalType": "uint256",
          "name": "_result",
          "type": "uint256"
        }
      ],
      "name": "__callback",
      "outputs": [],
      "payable": false,
      "stateMutability": "nonpayable",
      "type": "function"
    }
  ],
  "bytecode": "0x608060405234801561001057600080fd5b50736f485c8bf6fc43ea212e93bbf8ce046c7f1cb475600160006101000a81548173ffffffffffffffffffffffffffffffffffffffff021916908373ffffffffffffffffffffffffffffffffffffffff1602179055506112fd806100756000396000f3fe608060405234801561001057600080fd5b50600436106100625760003560e01c806327dc297e14610067578063338cdca11461012c57806338bbfa501461013657806338be706d146102925780635829df43146102c0578063ccbac9f5146102de575b600080fd5b61012a6004803603604081101561007d57600080fd5b8101908080359060200190929190803590602001906401000000008111156100a457600080fd5b8201836020820111156100b657600080fd5b803590602001918460018302840111640100000000831117156100d857600080fd5b91908080601f016020809104026020016040519081016040528093929190818152602001838380828437600081840152601f19601f8201169050808301925050505050505091929192905050506102fc565b005b61013461033f565b005b6102906004803603606081101561014c57600080fd5b81019080803590602001909291908035906020019064010000000081111561017357600080fd5b82018360208201111561018557600080fd5b803590602001918460018302840111640100000000831117156101a757600080fd5b91908080601f016020809104026020016040519081016040528093929190818152602001838380828437600081840152601f19601f8201169050808301925050505050505091929192908035906020019064010000000081111561020a57600080fd5b82018360208201111561021c57600080fd5b8035906020019184600183028401116401000000008311171561023e57600080fd5b91908080601f016020809104026020016040519081016040528093929190818152602001838380828437600081840152601f19601f8201169050808301925050505050505091929192905050506103bb565b005b6102be600480360360208110156102a857600080fd5b81019080803590602001909291905050506103de565b005b6102c8610427565b6040518082815260200191505060405180910390f35b6102e661042d565b6040518082815260200191505060405180910390f35b61033b828260006040519080825280601f01601f1916602001820160405280156103355781602001600182028038833980820191505090505b506103bb565b5050565b6103b36040518060400160405280600c81526020017f576f6c6672616d416c70686100000000000000000000000000000000000000008152506040518060400160405280601d81526020017f72616e646f6d206e756d626572206265747765656e203120616e642036000000815250610433565b600681905550565b6000801b600360008060001b815260200190815260200160002081905550505050565b6103e6610979565b73ffffffffffffffffffffffffffffffffffffffff163373ffffffffffffffffffffffffffffffffffffffff161461041d57600080fd5b8060058190555050565b60065481565b60055481565b60008073ffffffffffffffffffffffffffffffffffffffff16600160009054906101000a900473ffffffffffffffffffffffffffffffffffffffff1673ffffffffffffffffffffffffffffffffffffffff1614806104bb575060006104b9600160009054906101000a900473ffffffffffffffffffffffffffffffffffffffff16610c96565b145b156104cc576104ca6000610ca1565b505b600160009054906101000a900473ffffffffffffffffffffffffffffffffffffffff1673ffffffffffffffffffffffffffffffffffffffff166338cc48316040518163ffffffff1660e01b8152600401602060405180830381600087803b15801561053657600080fd5b505af115801561054a573d6000803e3d6000fd5b505050506040513d602081101561056057600080fd5b810190808051906020019092919050505073ffffffffffffffffffffffffffffffffffffffff166000809054906101000a900473ffffffffffffffffffffffffffffffffffffffff1673ffffffffffffffffffffffffffffffffffffffff16146106a957600160009054906101000a900473ffffffffffffffffffffffffffffffffffffffff1673ffffffffffffffffffffffffffffffffffffffff166338cc48316040518163ffffffff1660e01b8152600401602060405180830381600087803b15801561062e57600080fd5b505af1158015610642573d6000803e3d6000fd5b505050506040513d602081101561065857600080fd5b81019080805190602001909291905050506000806101000a81548173ffffffffffffffffffffffffffffffffffffffff021916908373ffffffffffffffffffffffffffffffffffffffff1602179055505b60008060009054906101000a900473ffffffffffffffffffffffffffffffffffffffff1673ffffffffffffffffffffffffffffffffffffffff1663524f3889856040518263ffffffff1660e01b81526004018080602001828103825283818151815260200191508051906020019080838360005b8381101561073857808201518184015260208101905061071d565b50505050905090810190601f1680156107655780820380516001836020036101000a031916815260200191505b5092505050602060405180830381600087803b15801561078457600080fd5b505af1158015610798573d6000803e3d6000fd5b505050506040513d60208110156107ae57600080fd5b8101908080519060200190929190505050905062030d403a02670de0b6b3a7640000018111156107e4576000801b915050610973565b6000809054906101000a900473ffffffffffffffffffffffffffffffffffffffff1673ffffffffffffffffffffffffffffffffffffffff1663adf59f9982600087876040518563ffffffff1660e01b8152600401808481526020018060200180602001838103835285818151815260200191508051906020019080838360005b8381101561087f578082015181840152602081019050610864565b50505050905090810190601f1680156108ac5780820380516001836020036101000a031916815260200191505b50838103825284818151815260200191508051906020019080838360005b838110156108e55780820151818401526020810190506108ca565b50505050905090810190601f1680156109125780820380516001836020036101000a031916815260200191505b50955050505050506020604051808303818588803b15801561093357600080fd5b505af1158015610947573d6000803e3d6000fd5b50505050506040513d602081101561095e57600080fd5b81019080805190602001909291905050509150505b92915050565b60008073ffffffffffffffffffffffffffffffffffffffff16600160009054906101000a900473ffffffffffffffffffffffffffffffffffffffff1673ffffffffffffffffffffffffffffffffffffffff161480610a01575060006109ff600160009054906101000a900473ffffffffffffffffffffffffffffffffffffffff16610c96565b145b15610a1257610a106000610ca1565b505b600160009054906101000a900473ffffffffffffffffffffffffffffffffffffffff1673ffffffffffffffffffffffffffffffffffffffff166338cc48316040518163ffffffff1660e01b8152600401602060405180830381600087803b158015610a7c57600080fd5b505af1158015610a90573d6000803e3d6000fd5b505050506040513d6020811015610aa657600080fd5b810190808051906020019092919050505073ffffffffffffffffffffffffffffffffffffffff166000809054906101000a900473ffffffffffffffffffffffffffffffffffffffff1673ffffffffffffffffffffffffffffffffffffffff1614610bef57600160009054906101000a900473ffffffffffffffffffffffffffffffffffffffff1673ffffffffffffffffffffffffffffffffffffffff166338cc48316040518163ffffffff1660e01b8152600401602060405180830381600087803b158015610b7457600080fd5b505af1158015610b88573d6000803e3d6000fd5b505050506040513d6020811015610b9e57600080fd5b81019080805190602001909291905050506000806101000a81548173ffffffffffffffffffffffffffffffffffffffff021916908373ffffffffffffffffffffffffffffffffffffffff1602179055505b6000809054906101000a900473ffffffffffffffffffffffffffffffffffffffff1673ffffffffffffffffffffffffffffffffffffffff1663c281d19e6040518163ffffffff1660e01b815260040160206040518083038186803b158015610c5657600080fd5b505afa158015610c6a573d6000803e3d6000fd5b505050506040513d6020811015610c8057600080fd5b8101908080519060200190929190505050905090565b6000813b9050919050565b6000610cab610cb2565b9050919050565b600080610cd2731d3b2638a7cc9f2cb3d298a3da7a90b67e5506ed610c96565b1115610d7457731d3b2638a7cc9f2cb3d298a3da7a90b67e5506ed600160006101000a81548173ffffffffffffffffffffffffffffffffffffffff021916908373ffffffffffffffffffffffffffffffffffffffff160217905550610d6b6040518060400160405280600b81526020017f6574685f6d61696e6e6574000000000000000000000000000000000000000000815250611209565b60019050611206565b6000610d9373c03a2615d5efaf5f49f60b7bb6583eaec212fdf1610c96565b1115610e355773c03a2615d5efaf5f49f60b7bb6583eaec212fdf1600160006101000a81548173ffffffffffffffffffffffffffffffffffffffff021916908373ffffffffffffffffffffffffffffffffffffffff160217905550610e2c6040518060400160405280600c81526020017f6574685f726f707374656e330000000000000000000000000000000000000000815250611209565b60019050611206565b6000610e5473b7a07bcf2ba2f2703b24c0691b5278999c59ac7e610c96565b1115610ef65773b7a07bcf2ba2f2703b24c0691b5278999c59ac7e600160006101000a81548173ffffffffffffffffffffffffffffffffffffffff021916908373ffffffffffffffffffffffffffffffffffffffff160217905550610eed6040518060400160405280600981526020017f6574685f6b6f76616e0000000000000000000000000000000000000000000000815250611209565b60019050611206565b6000610f1573146500cfd35b22e4a392fe0adc06de1a1368ed48610c96565b1115610fb75773146500cfd35b22e4a392fe0adc06de1a1368ed48600160006101000a81548173ffffffffffffffffffffffffffffffffffffffff021916908373ffffffffffffffffffffffffffffffffffffffff160217905550610fae6040518060400160405280600b81526020017f6574685f72696e6b656279000000000000000000000000000000000000000000815250611209565b60019050611206565b6000610fd673a2998efd205fb9d4b4963afb70778d6354ad3a41610c96565b11156110785773a2998efd205fb9d4b4963afb70778d6354ad3a41600160006101000a81548173ffffffffffffffffffffffffffffffffffffffff021916908373ffffffffffffffffffffffffffffffffffffffff16021790555061106f6040518060400160405280600a81526020017f6574685f676f65726c6900000000000000000000000000000000000000000000815250611209565b60019050611206565b6000611097736f485c8bf6fc43ea212e93bbf8ce046c7f1cb475610c96565b11156110fb57736f485c8bf6fc43ea212e93bbf8ce046c7f1cb475600160006101000a81548173ffffffffffffffffffffffffffffffffffffffff021916908373ffffffffffffffffffffffffffffffffffffffff16021790555060019050611206565b600061111a7320e12a1f859b3feae5fb2a0a32c18f5a65555bbf610c96565b111561117e577320e12a1f859b3feae5fb2a0a32c18f5a65555bbf600160006101000a81548173ffffffffffffffffffffffffffffffffffffffff021916908373ffffffffffffffffffffffffffffffffffffffff16021790555060019050611206565b600061119d7351efaf4c8b3c9afbd5ab9f4bbc82784ab6ef8faa610c96565b1115611201577351efaf4c8b3c9afbd5ab9f4bbc82784ab6ef8faa600160006101000a81548173ffffffffffffffffffffffffffffffffffffffff021916908373ffffffffffffffffffffffffffffffffffffffff16021790555060019050611206565b600090505b90565b806002908051906020019061121f929190611223565b5050565b828054600181600116156101000203166002900490600052602060002090601f016020900481019282601f1061126457805160ff1916838001178555611292565b82800160010185558215611292579182015b82811115611291578251825591602001919060010190611276565b5b50905061129f91906112a3565b5090565b6112c591905b808211156112c15760008160009055506001016112a9565b5090565b9056fea265627a7a7231582062388d6552d19213908db5a33be27f9c1fa55b4cb6e00cdd60256c3ff4f9ca0464736f6c63430005100032",
  "source": "pragma solidity ^0.5.0;\n//import \"github.com/oraclize/ethereum-api/oraclizeAPI.sol\";\nimport \"./usingOraclize.sol\";\n\ncontract GetPrice is usingOraclize {\n\tuint256 public randomNumber;\n\tbytes32 public request_id;\n\n\tconstructor() public {\n\t\tOAR = OraclizeAddrResolverI(0x6f485C8BF6fc43eA212E93BBF8ce046C7f1cb475);\n\t}\n\n\tfunction request() public {\n\t\trequest_id = oraclize_query(\"WolframAlpha\", \"random number between 1 and 6\");\n\t\t//request_id = oraclize_query(\"URL\",\n  \t\t//\t\t\"json(https://www.koreaexim.go.kr/site/program/financial/exchangeJSON?authkey=5nVgHObpKknHqEjMK1LQ0nA3CZALeAPp&searchdate=20180102&data=AP01&cur_unit=USD).0.deal_bas_r\");\n\n\t}\n\n\tfunction __callback(uint256 _result) public {\n\t\trequire(msg.sender == oraclize_cbAddress());\n\n\t\trandomNumber = _result;\n\t}\n\n}\n\n// pragma solidity ^0.4.25;\n// import \"github.com/oraclize/ethereum-api/oraclizeAPI_0.4.25.sol\";\n\n// contract 환율계산함수 is usingOraclize {\n// string public exchage_rates;\n// event NewOraclizeQuery(string description);\n//      event NewSomeValue(string value);\n// constructor() public {\n//         update();\n//     }\n// function __callback(bytes32 myid, string result) public {\n//         (myid);\n//         require (msg.sender == oraclize_cbAddress());\n//         exchage_rates = result;\n//         emit NewSomeValue(exchage_rates);\n//         // do something with exchage_rates\n//     }\n// function update() public payable {\n//         if (oraclize_getPrice(\"URL\") > address(this).balance) {\n//             emit NewOraclizeQuery(\"Oraclize query was NOT sent, please add some ETH to cover for the query fee\");\n//         } else {\n//             emit NewOraclizeQuery(\"Oraclize query was sent, standing by for the answer exchange_rate\");\n//             oraclize_query(\"URL\", \"[URL, 검색어, 수식 등]\");\n//         }\n//     }\n// }",
  "sourcePath": "/Users/mg/bnpl-dapp/src/contracts/GetPrice.sol",
  "compiler": {
    "name": "solc",
    "version": "0.5.16+commit.9c3226ce.Emscripten.clang"
  },
  "schemaVersion": "3.3.4",
  "updatedAt": "2021-05-16T11:01:10.974Z",
  "devdoc": {
    "methods": {
      "__callback(bytes32,string)": {
        "details": "The following `__callback` functions are just placeholders ideally     meant to be defined in child contract when proofs are used.     The function bodies simply silence compiler warnings."
      }
    }
  },
  "userdoc": {
    "methods": {}
  }
}