{
  "contractName": "Installment",
  "abi": [
    {
      "inputs": [
        {
          "internalType": "uint256",
          "name": "_initCost",
          "type": "uint256"
        },
        {
          "internalType": "uint256",
          "name": "_totalCost",
          "type": "uint256"
        },
        {
          "internalType": "uint256",
          "name": "_installmentCnt",
          "type": "uint256"
        },
        {
          "internalType": "uint256",
          "name": "_timestamp",
          "type": "uint256"
        }
      ],
      "payable": false,
      "stateMutability": "nonpayable",
      "type": "constructor"
    },
    {
      "anonymous": false,
      "inputs": [
        {
          "indexed": false,
          "internalType": "address",
          "name": "beforeAddress",
          "type": "address"
        },
        {
          "indexed": false,
          "internalType": "address",
          "name": "afterAddress",
          "type": "address"
        }
      ],
      "name": "TransferOwnership",
      "type": "event"
    },
    {
      "constant": true,
      "inputs": [],
      "name": "owner",
      "outputs": [
        {
          "internalType": "address",
          "name": "",
          "type": "address"
        }
      ],
      "payable": false,
      "stateMutability": "view",
      "type": "function"
    },
    {
      "constant": false,
      "inputs": [
        {
          "internalType": "address",
          "name": "_new",
          "type": "address"
        }
      ],
      "name": "transferOwnership",
      "outputs": [],
      "payable": false,
      "stateMutability": "nonpayable",
      "type": "function"
    },
    {
      "constant": true,
      "inputs": [],
      "name": "isAvail",
      "outputs": [
        {
          "internalType": "bool",
          "name": "",
          "type": "bool"
        }
      ],
      "payable": false,
      "stateMutability": "view",
      "type": "function"
    },
    {
      "constant": false,
      "inputs": [],
      "name": "kill",
      "outputs": [],
      "payable": false,
      "stateMutability": "nonpayable",
      "type": "function"
    },
    {
      "constant": true,
      "inputs": [],
      "name": "getRemainCnt",
      "outputs": [
        {
          "internalType": "uint256",
          "name": "",
          "type": "uint256"
        }
      ],
      "payable": false,
      "stateMutability": "view",
      "type": "function"
    },
    {
      "constant": true,
      "inputs": [],
      "name": "getRemainCost",
      "outputs": [
        {
          "internalType": "uint256",
          "name": "",
          "type": "uint256"
        }
      ],
      "payable": false,
      "stateMutability": "view",
      "type": "function"
    },
    {
      "constant": true,
      "inputs": [],
      "name": "getPaybackCost",
      "outputs": [
        {
          "internalType": "uint256",
          "name": "",
          "type": "uint256"
        }
      ],
      "payable": false,
      "stateMutability": "view",
      "type": "function"
    },
    {
      "constant": true,
      "inputs": [],
      "name": "getLateFeeCost",
      "outputs": [
        {
          "internalType": "uint256",
          "name": "",
          "type": "uint256"
        }
      ],
      "payable": false,
      "stateMutability": "view",
      "type": "function"
    },
    {
      "constant": true,
      "inputs": [],
      "name": "getNextInstallDeadline",
      "outputs": [
        {
          "internalType": "uint256",
          "name": "",
          "type": "uint256"
        }
      ],
      "payable": false,
      "stateMutability": "view",
      "type": "function"
    },
    {
      "constant": true,
      "inputs": [],
      "name": "getNextFeeDeadline",
      "outputs": [
        {
          "internalType": "uint256",
          "name": "",
          "type": "uint256"
        }
      ],
      "payable": false,
      "stateMutability": "view",
      "type": "function"
    },
    {
      "constant": false,
      "inputs": [
        {
          "internalType": "uint256",
          "name": "_timestamp",
          "type": "uint256"
        }
      ],
      "name": "setNextInstallDeadline",
      "outputs": [],
      "payable": false,
      "stateMutability": "nonpayable",
      "type": "function"
    },
    {
      "constant": false,
      "inputs": [
        {
          "internalType": "uint256",
          "name": "_timestamp",
          "type": "uint256"
        }
      ],
      "name": "setNextFeeDeadline",
      "outputs": [],
      "payable": false,
      "stateMutability": "nonpayable",
      "type": "function"
    },
    {
      "constant": true,
      "inputs": [],
      "name": "isLate",
      "outputs": [
        {
          "internalType": "bool",
          "name": "",
          "type": "bool"
        }
      ],
      "payable": false,
      "stateMutability": "view",
      "type": "function"
    },
    {
      "constant": false,
      "inputs": [],
      "name": "balanceIntallment",
      "outputs": [],
      "payable": false,
      "stateMutability": "nonpayable",
      "type": "function"
    },
    {
      "constant": false,
      "inputs": [],
      "name": "balanceLateFee",
      "outputs": [],
      "payable": false,
      "stateMutability": "nonpayable",
      "type": "function"
    },
    {
      "constant": false,
      "inputs": [],
      "name": "raiseLatefee",
      "outputs": [],
      "payable": false,
      "stateMutability": "nonpayable",
      "type": "function"
    }
  ],
  "bytecode": "0x608060405234801561001057600080fd5b50604051610b01380380610b018339818101604052608081101561003357600080fd5b810190808051906020019092919080519060200190929190805190602001909291908051906020019092919050505033806000806101000a81548173ffffffffffffffffffffffffffffffffffffffff021916908373ffffffffffffffffffffffffffffffffffffffff160217905550506100bb848461012460201b6109331790919060201c565b600181905550816002819055506100e360025460015461014460201b61090d1790919060201c565b60038190555080600481905550600060058190555060006006819055506001600060146101000a81548160ff0219169083151502179055505050505061016a565b60008282111561013357600080fd5b600082840390508091505092915050565b600080821161015257600080fd5b600082848161015d57fe5b0490508091505092915050565b610988806101796000396000f3fe608060405234801561001057600080fd5b50600436106101005760003560e01c806378447a7411610097578063f2fde38b11610066578063f2fde38b14610261578063fde8a5b9146102a5578063fea90332146102c3578063ff705a16146102f157610100565b806378447a74146101b957806381c17a15146101d75780638da5cb5b146101f9578063cc9967bf1461024357610100565b806341c0e1b5116100d357806341c0e1b51461015957806354cba894146101635780636bec79ae146101915780637223ad661461019b57610100565b8063022973f3146101055780630da231821461010f578063183d0e2e146101195780632e422c5014610137575b600080fd5b61010d61030f565b005b610117610392565b005b610121610415565b6040518082815260200191505060405180910390f35b61013f61043f565b604051808215151515815260200191505060405180910390f35b610161610455565b005b61018f6004803603602081101561017957600080fd5b81019080803590602001909291905050506104ca565b005b6101996104f4565b005b6101a36105c1565b6040518082815260200191505060405180910390f35b6101c1610615565b6040518082815260200191505060405180910390f35b6101df61063f565b604051808215151515815260200191505060405180910390f35b61020161066c565b604051808273ffffffffffffffffffffffffffffffffffffffff1673ffffffffffffffffffffffffffffffffffffffff16815260200191505060405180910390f35b61024b610691565b6040518082815260200191505060405180910390f35b6102a36004803603602081101561027757600080fd5b81019080803573ffffffffffffffffffffffffffffffffffffffff1690602001909291905050506106bb565b005b6102ad610836565b6040518082815260200191505060405180910390f35b6102ef600480360360208110156102d957600080fd5b8101908080359060200190929190505050610860565b005b6102f961088a565b6040518082815260200191505060405180910390f35b60011515600060149054906101000a900460ff1615151461032f57600080fd5b60006103486005546001546108b490919063ffffffff16565b90506103726103e86103646003846108d390919063ffffffff16565b61090d90919063ffffffff16565b9050610389816005546108b490919063ffffffff16565b60058190555050565b6000809054906101000a900473ffffffffffffffffffffffffffffffffffffffff1673ffffffffffffffffffffffffffffffffffffffff163373ffffffffffffffffffffffffffffffffffffffff16146103eb57600080fd5b60011515600060149054906101000a900460ff1615151461040b57600080fd5b6000600581905550565b600060011515600060149054906101000a900460ff1615151461043757600080fd5b600554905090565b60008060149054906101000a900460ff16905090565b6000809054906101000a900473ffffffffffffffffffffffffffffffffffffffff1673ffffffffffffffffffffffffffffffffffffffff163373ffffffffffffffffffffffffffffffffffffffff16146104ae57600080fd5b60008060146101000a81548160ff021916908315150217905550565b60011515600060149054906101000a900460ff161515146104ea57600080fd5b8060048190555050565b6000809054906101000a900473ffffffffffffffffffffffffffffffffffffffff1673ffffffffffffffffffffffffffffffffffffffff163373ffffffffffffffffffffffffffffffffffffffff161461054d57600080fd5b60011515600060149054906101000a900460ff1615151461056d57600080fd5b610583600160025461093390919063ffffffff16565b600281905550600060025414156105a15760006001819055506105bf565b6105b860035460015461093390919063ffffffff16565b6001819055505b565b600060011515600060149054906101000a900460ff161515146105e357600080fd5b600060025414156105f75760009050610612565b6001600254141561060c576001549050610612565b60035490505b90565b600060011515600060149054906101000a900460ff1615151461063757600080fd5b600454905090565b600060011515600060149054906101000a900460ff1615151461066157600080fd5b600060055411905090565b6000809054906101000a900473ffffffffffffffffffffffffffffffffffffffff1681565b600060011515600060149054906101000a900460ff161515146106b357600080fd5b600254905090565b6000809054906101000a900473ffffffffffffffffffffffffffffffffffffffff1673ffffffffffffffffffffffffffffffffffffffff163373ffffffffffffffffffffffffffffffffffffffff161461071457600080fd5b60008060009054906101000a900473ffffffffffffffffffffffffffffffffffffffff169050816000806101000a81548173ffffffffffffffffffffffffffffffffffffffff021916908373ffffffffffffffffffffffffffffffffffffffff1602179055507f5c486528ec3e3f0ea91181cff8116f02bfa350e03b8b6f12e00765adbb5af85c816000809054906101000a900473ffffffffffffffffffffffffffffffffffffffff16604051808373ffffffffffffffffffffffffffffffffffffffff1673ffffffffffffffffffffffffffffffffffffffff1681526020018273ffffffffffffffffffffffffffffffffffffffff1673ffffffffffffffffffffffffffffffffffffffff1681526020019250505060405180910390a15050565b600060011515600060149054906101000a900460ff1615151461085857600080fd5b600654905090565b60011515600060149054906101000a900460ff1615151461088057600080fd5b8060068190555050565b600060011515600060149054906101000a900460ff161515146108ac57600080fd5b600154905090565b6000808284019050838110156108c957600080fd5b8091505092915050565b6000808314156108e65760009050610907565b60008284029050828482816108f757fe5b041461090257600080fd5b809150505b92915050565b600080821161091b57600080fd5b600082848161092657fe5b0490508091505092915050565b60008282111561094257600080fd5b60008284039050809150509291505056fea265627a7a72315820dc56d4ce709bfd7a03772e9e9673fbb6cb09c42fef341e7ef8bfcbdfcfae038e64736f6c63430005100032",
  "source": "pragma solidity ^0.5.0;\n\nimport \"./Token.sol\";\nimport \"./Owned.sol\";\nimport \"openzeppelin-solidity/contracts/math/SafeMath.sol\";\n\n\ncontract Installment is Owned {\n  using SafeMath for uint;\n\n  bool avail;\n\n\t// 할부\n  uint remainCost;     // 앞으로 남은 할부 금액\n  uint remainCnt;      // 앞으로 남은 할부 횟수\n  uint paybackCost;    // 4주동안 내야할 금액\n  uint nextInstallDeadline;   // 다음 할부 결제 날짜\n\n\n  // 연체료\n  uint remainFee;     // 앞으로 남은 연체료\n  uint nextFeeDeadline;   // 다음 연체 날짜\n\n\tconstructor (\n    uint _initCost, \n    uint _totalCost, \n    uint _installmentCnt, \n    uint _timestamp\n  ) Owned(msg.sender) public {\n\t\tremainCost = _totalCost.sub(_initCost);\n    remainCnt = _installmentCnt;\n    paybackCost = remainCost.div(remainCnt);\n    nextInstallDeadline = _timestamp;\n\n    remainFee = 0;\n    nextFeeDeadline = 0;\n\n    avail = true;\n\t}\n\n  modifier onlyAvail() { require(avail == true); _; }\n\n  function isAvail() public view returns(bool) {\n    return avail;\n  }\n\n  function kill() public onlyOwner {\n    avail = false;\n  }\n\n  function getRemainCnt() public view onlyAvail returns(uint) {\n    return remainCnt;\n  }\n\n  function getRemainCost() public view onlyAvail returns(uint) {\n    return remainCost;\n  }\n\n  function getPaybackCost() public view onlyAvail returns(uint) {\n    if(remainCnt==0)\n      return 0;\n\n    if(remainCnt == 1){\n      return remainCost;\n    }else {\n      return paybackCost;\n    }\n  }\n\n  function getLateFeeCost() public view onlyAvail returns(uint) {\n    return remainFee;\n  }\n\n  function getNextInstallDeadline() public view onlyAvail returns(uint) {\n    return nextInstallDeadline;\n  }\n\n  function getNextFeeDeadline() public view onlyAvail returns(uint) {\n    return nextFeeDeadline;\n  }\n\n  // 한 달 후\n  function setNextInstallDeadline(uint _timestamp) public onlyAvail{\n    nextInstallDeadline = _timestamp;\n  }\n\n  // 하루 후\n  function setNextFeeDeadline(uint _timestamp) public onlyAvail{\n    nextFeeDeadline = _timestamp;\n  }\n\n\n  function isLate() public view onlyAvail returns(bool) {\n    return remainFee > 0;\n  }\n\n  // 정산하기\n  function balanceIntallment() public onlyOwner onlyAvail {\n\n    // 정산 완료\n    remainCnt = remainCnt.sub(1);\n    if(remainCnt == 0){\n      remainCost = 0;\n    } else {\n      remainCost = remainCost.sub(paybackCost);\n    }\n\n  }\n\n  // 연체료 정산하기\n  function balanceLateFee() public onlyOwner onlyAvail {\n\n    // 정산 완료\n    remainFee = 0;\n  }\n\n  function raiseLatefee() public onlyAvail {\n      // 이 함수의 실행 시간은 nextdeadline 과 같은 날짜에만 실행이 가능하다.\n\n      uint addFee = remainCost.add(remainFee);\n\n      addFee = addFee.mul(3).div(1000);\n\n      remainFee = remainFee.add(addFee);\n  }\n\n\n\n    // function paybackInstallment(address _token, address _buyer) public {\n  //   // nextDeadline 이랑 비교하는 것이 필요 즉 이 함수의 실행 날짜가 데드라인 날짜와 같은지 확인\n  //   // require();        \n\n\n\n  //   uint256 paycost = memberInstallments[_buyer].paybackCost;\n  //   uint256 term = 30 days;\n\n  //   // 자기 할부값보다 지금 자금이 많아야한다.\n  //   if (bnpl.balanceOf(_token,_buyer) >= paycost) {\n  //       memberInstallments[_buyer].remainCost = memberInstallments[_buyer].remainCost.sub(paycost);\n  //       memberInstallments[_buyer].nextDeadline = memberInstallments[_buyer].nextDeadline.add(term);\n  //   }\n  //   else { // 자금이 없으므로 연체가 된다.\n  //       memberInstallments[_buyer].isLate = true;\n\n  //       // 수수료는 하루 당 0.03% 로 책정\n  //       uint256 initfee = memberInstallments[_buyer].remainCost.mul(3).div(1000);\n  //       term = 1 days;\n\n  //       memberLatefees[_buyer] = Latefee({\n  //           remainFee : initfee,\n  //           nextDeadline : memberInstallments[_buyer].nextDeadline.add(term) \n  //       });\n  //   }\n  // }\n\n  // function paybackLatefee(address _token, address _buyer, uint256 paybackFee) public {\n  //     // 이 함수를 실행한 시간은 언제나 가능하다\n\n  //     // 이 함수는 buyer 만 가능하다\n  //     require(msg.sender == _buyer);\n\n  //     // 연체료가 있을 때에만 실행가능\n  //     require(memberInstallments[_buyer].isLate);\n  //     // 연체료보다 지갑에 든게 많아야한다.\n  //     require(bnpl.balanceOf(_token,_buyer) >= paybackFee \n  //         && memberLatefees[_buyer].remainFee >= paybackFee);\n\n  //     memberLatefees[_buyer].remainFee = memberLatefees[_buyer].remainFee.sub(paybackFee);\n\n  //     // 연체료 다 갚은 경우\n  //     if(memberLatefees[_buyer].remainFee == 0) {\n  //         memberInstallments[_buyer].isLate = false;\n  //     }\n  // }\n\n\n}",
  "sourcePath": "/Users/mg/bnpl-dapp/src/contracts/Installment.sol",
  "compiler": {
    "name": "solc",
    "version": "0.5.16+commit.9c3226ce.Emscripten.clang"
  },
  "schemaVersion": "3.3.4",
  "updatedAt": "2021-06-21T15:55:21.647Z",
  "networkType": "ethereum",
  "devdoc": {
    "methods": {}
  },
  "userdoc": {
    "methods": {}
  }
}