{
  "contractName": "Installment",
  "abi": [
    {
      "inputs": [
        {
          "internalType": "uint256",
          "name": "_initCost",
          "type": "uint256"
        },
        {
          "internalType": "uint256",
          "name": "_totalCost",
          "type": "uint256"
        },
        {
          "internalType": "uint256",
          "name": "_installmentCnt",
          "type": "uint256"
        },
        {
          "internalType": "uint256",
          "name": "_timestamp",
          "type": "uint256"
        }
      ],
      "payable": false,
      "stateMutability": "nonpayable",
      "type": "constructor"
    },
    {
      "anonymous": false,
      "inputs": [
        {
          "indexed": false,
          "internalType": "address",
          "name": "beforeAddress",
          "type": "address"
        },
        {
          "indexed": false,
          "internalType": "address",
          "name": "afterAddress",
          "type": "address"
        }
      ],
      "name": "TransferOwnership",
      "type": "event"
    },
    {
      "constant": true,
      "inputs": [],
      "name": "owner",
      "outputs": [
        {
          "internalType": "address",
          "name": "",
          "type": "address"
        }
      ],
      "payable": false,
      "stateMutability": "view",
      "type": "function"
    },
    {
      "constant": false,
      "inputs": [
        {
          "internalType": "address",
          "name": "_new",
          "type": "address"
        }
      ],
      "name": "transferOwnership",
      "outputs": [],
      "payable": false,
      "stateMutability": "nonpayable",
      "type": "function"
    },
    {
      "constant": true,
      "inputs": [],
      "name": "isAvail",
      "outputs": [
        {
          "internalType": "bool",
          "name": "",
          "type": "bool"
        }
      ],
      "payable": false,
      "stateMutability": "view",
      "type": "function"
    },
    {
      "constant": false,
      "inputs": [],
      "name": "kill",
      "outputs": [],
      "payable": false,
      "stateMutability": "nonpayable",
      "type": "function"
    },
    {
      "constant": true,
      "inputs": [],
      "name": "getRemainCnt",
      "outputs": [
        {
          "internalType": "uint256",
          "name": "",
          "type": "uint256"
        }
      ],
      "payable": false,
      "stateMutability": "view",
      "type": "function"
    },
    {
      "constant": true,
      "inputs": [],
      "name": "getRemainCost",
      "outputs": [
        {
          "internalType": "uint256",
          "name": "",
          "type": "uint256"
        }
      ],
      "payable": false,
      "stateMutability": "view",
      "type": "function"
    },
    {
      "constant": true,
      "inputs": [],
      "name": "getPaybackCost",
      "outputs": [
        {
          "internalType": "uint256",
          "name": "",
          "type": "uint256"
        }
      ],
      "payable": false,
      "stateMutability": "view",
      "type": "function"
    },
    {
      "constant": true,
      "inputs": [],
      "name": "getLateFeeCost",
      "outputs": [
        {
          "internalType": "uint256",
          "name": "",
          "type": "uint256"
        }
      ],
      "payable": false,
      "stateMutability": "view",
      "type": "function"
    },
    {
      "constant": true,
      "inputs": [],
      "name": "getNextInstallDeadline",
      "outputs": [
        {
          "internalType": "uint256",
          "name": "",
          "type": "uint256"
        }
      ],
      "payable": false,
      "stateMutability": "view",
      "type": "function"
    },
    {
      "constant": false,
      "inputs": [
        {
          "internalType": "uint256",
          "name": "_timestamp",
          "type": "uint256"
        }
      ],
      "name": "setNextInstallDeadline",
      "outputs": [],
      "payable": false,
      "stateMutability": "nonpayable",
      "type": "function"
    },
    {
      "constant": false,
      "inputs": [
        {
          "internalType": "uint256",
          "name": "_timestamp",
          "type": "uint256"
        }
      ],
      "name": "setNextFeeDeadline",
      "outputs": [],
      "payable": false,
      "stateMutability": "nonpayable",
      "type": "function"
    },
    {
      "constant": true,
      "inputs": [],
      "name": "isLate",
      "outputs": [
        {
          "internalType": "bool",
          "name": "",
          "type": "bool"
        }
      ],
      "payable": false,
      "stateMutability": "view",
      "type": "function"
    },
    {
      "constant": false,
      "inputs": [],
      "name": "balanceIntallment",
      "outputs": [],
      "payable": false,
      "stateMutability": "nonpayable",
      "type": "function"
    },
    {
      "constant": false,
      "inputs": [],
      "name": "balanceLateFee",
      "outputs": [],
      "payable": false,
      "stateMutability": "nonpayable",
      "type": "function"
    },
    {
      "constant": false,
      "inputs": [],
      "name": "raiseLatefee",
      "outputs": [],
      "payable": false,
      "stateMutability": "nonpayable",
      "type": "function"
    }
  ],
  "bytecode": "0x608060405234801561001057600080fd5b50604051610b13380380610b138339818101604052608081101561003357600080fd5b810190808051906020019092919080519060200190929190805190602001909291908051906020019092919050505033806000806101000a81548173ffffffffffffffffffffffffffffffffffffffff021916908373ffffffffffffffffffffffffffffffffffffffff160217905550506100bb848461011460201b6109551790919060201c565b600181905550816002819055506100e360025460015461013460201b61092f1790919060201c565b600381905550806004819055506001600060146101000a81548160ff0219169083151502179055505050505061015a565b60008282111561012357600080fd5b600082840390508091505092915050565b600080821161014257600080fd5b600082848161014d57fe5b0490508091505092915050565b6109aa806101696000396000f3fe608060405234801561001057600080fd5b50600436106100f55760003560e01c80637223ad6611610097578063cc9967bf11610066578063cc9967bf14610238578063f2fde38b14610256578063fea903321461029a578063ff705a16146102c8576100f5565b80637223ad661461019057806378447a74146101ae57806381c17a15146101cc5780638da5cb5b146101ee576100f5565b80632e422c50116100d35780632e422c501461012c57806341c0e1b51461014e57806354cba894146101585780636bec79ae14610186576100f5565b8063022973f3146100fa5780630da2318214610104578063183d0e2e1461010e575b600080fd5b6101026102e6565b005b61010c610369565b005b61011661044b565b6040518082815260200191505060405180910390f35b610134610475565b604051808215151515815260200191505060405180910390f35b61015661048b565b005b6101846004803603602081101561016e57600080fd5b8101908080359060200190929190505050610500565b005b61018e61052a565b005b61019861060c565b6040518082815260200191505060405180910390f35b6101b6610660565b6040518082815260200191505060405180910390f35b6101d461068a565b604051808215151515815260200191505060405180910390f35b6101f66106b8565b604051808273ffffffffffffffffffffffffffffffffffffffff1673ffffffffffffffffffffffffffffffffffffffff16815260200191505060405180910390f35b6102406106dd565b6040518082815260200191505060405180910390f35b6102986004803603602081101561026c57600080fd5b81019080803573ffffffffffffffffffffffffffffffffffffffff169060200190929190505050610707565b005b6102c6600480360360208110156102b057600080fd5b8101908080359060200190929190505050610882565b005b6102d06108ac565b6040518082815260200191505060405180910390f35b60011515600060149054906101000a900460ff1615151461030657600080fd5b600061031f6005546001546108d690919063ffffffff16565b90506103496103e861033b6003846108f590919063ffffffff16565b61092f90919063ffffffff16565b9050610360816005546108d690919063ffffffff16565b60058190555050565b6000809054906101000a900473ffffffffffffffffffffffffffffffffffffffff1673ffffffffffffffffffffffffffffffffffffffff163373ffffffffffffffffffffffffffffffffffffffff16146103c257600080fd5b60011515600060149054906101000a900460ff161515146103e257600080fd5b6103f8600160025461095590919063ffffffff16565b6002819055506000600254141561042b5761042060035460015461095590919063ffffffff16565b600181905550610449565b61044260035460015461095590919063ffffffff16565b6001819055505b565b600060011515600060149054906101000a900460ff1615151461046d57600080fd5b600554905090565b60008060149054906101000a900460ff16905090565b6000809054906101000a900473ffffffffffffffffffffffffffffffffffffffff1673ffffffffffffffffffffffffffffffffffffffff163373ffffffffffffffffffffffffffffffffffffffff16146104e457600080fd5b60008060146101000a81548160ff021916908315150217905550565b60011515600060149054906101000a900460ff1615151461052057600080fd5b8060048190555050565b6000809054906101000a900473ffffffffffffffffffffffffffffffffffffffff1673ffffffffffffffffffffffffffffffffffffffff163373ffffffffffffffffffffffffffffffffffffffff161461058357600080fd5b60011515600060149054906101000a900460ff161515146105a357600080fd5b6105b9600160025461095590919063ffffffff16565b600281905550600060025414156105ec576105e160035460015461095590919063ffffffff16565b60018190555061060a565b61060360035460015461095590919063ffffffff16565b6001819055505b565b600060011515600060149054906101000a900460ff1615151461062e57600080fd5b60006002541415610642576000905061065d565b6001600254141561065757600154905061065d565b60035490505b90565b600060011515600060149054906101000a900460ff1615151461068257600080fd5b600454905090565b600060011515600060149054906101000a900460ff161515146106ac57600080fd5b60006005541015905090565b6000809054906101000a900473ffffffffffffffffffffffffffffffffffffffff1681565b600060011515600060149054906101000a900460ff161515146106ff57600080fd5b600254905090565b6000809054906101000a900473ffffffffffffffffffffffffffffffffffffffff1673ffffffffffffffffffffffffffffffffffffffff163373ffffffffffffffffffffffffffffffffffffffff161461076057600080fd5b60008060009054906101000a900473ffffffffffffffffffffffffffffffffffffffff169050816000806101000a81548173ffffffffffffffffffffffffffffffffffffffff021916908373ffffffffffffffffffffffffffffffffffffffff1602179055507f5c486528ec3e3f0ea91181cff8116f02bfa350e03b8b6f12e00765adbb5af85c816000809054906101000a900473ffffffffffffffffffffffffffffffffffffffff16604051808373ffffffffffffffffffffffffffffffffffffffff1673ffffffffffffffffffffffffffffffffffffffff1681526020018273ffffffffffffffffffffffffffffffffffffffff1673ffffffffffffffffffffffffffffffffffffffff1681526020019250505060405180910390a15050565b60011515600060149054906101000a900460ff161515146108a257600080fd5b8060068190555050565b600060011515600060149054906101000a900460ff161515146108ce57600080fd5b600154905090565b6000808284019050838110156108eb57600080fd5b8091505092915050565b6000808314156109085760009050610929565b600082840290508284828161091957fe5b041461092457600080fd5b809150505b92915050565b600080821161093d57600080fd5b600082848161094857fe5b0490508091505092915050565b60008282111561096457600080fd5b60008284039050809150509291505056fea265627a7a72315820fbe1b9686a64b22d8ecb3de66641162eac9cec892dc4989cc29e66db6cb6873f64736f6c63430005100032",
  "source": "pragma solidity ^0.5.0;\n\nimport \"./Token.sol\";\nimport \"./Owned.sol\";\nimport \"openzeppelin-solidity/contracts/math/SafeMath.sol\";\n\n\ncontract Installment is Owned {\n  using SafeMath for uint;\n\n  bool avail;\n\n\t// 할부\n  uint remainCost;     // 앞으로 남은 할부 금액\n  uint remainCnt;      // 앞으로 남은 할부 횟수\n  uint paybackCost;    // 4주동안 내야할 금액\n  uint nextInstallDeadline;   // 다음 할부 결제 날짜\n\n\n  // 연체료\n  uint remainFee;     // 앞으로 남은 연체료\n  uint nextFeeDeadline;   // 다음 연체 날짜\n\n\tconstructor (\n    uint _initCost, \n    uint _totalCost, \n    uint _installmentCnt, \n    uint _timestamp\n  ) Owned(msg.sender) public {\n\t\tremainCost = _totalCost.sub(_initCost);\n    remainCnt = _installmentCnt;\n    paybackCost = remainCost.div(remainCnt);\n    nextInstallDeadline = _timestamp;\n\n    avail = true;\n\t}\n\n  modifier onlyAvail() { require(avail == true); _; }\n\n  function isAvail() public view returns(bool) {\n    return avail;\n  }\n\n  function kill() public onlyOwner {\n    avail = false;\n  }\n\n  function getRemainCnt() public view onlyAvail returns(uint) {\n    return remainCnt;\n  }\n\n  function getRemainCost() public view onlyAvail returns(uint) {\n    return remainCost;\n  }\n\n  function getPaybackCost() public view onlyAvail returns(uint) {\n    if(remainCnt==0)\n      return 0;\n\n    if(remainCnt == 1){\n      return remainCost;\n    }else {\n      return paybackCost;\n    }\n  }\n\n  function getLateFeeCost() public view onlyAvail returns(uint) {\n    return remainFee;\n  }\n\n  function getNextInstallDeadline() public view onlyAvail returns(uint) {\n    return nextInstallDeadline;\n  }\n\n  // 한 달 후\n  function setNextInstallDeadline(uint _timestamp) public onlyAvail{\n    nextInstallDeadline = _timestamp;\n  }\n\n  // 하루 후\n  function setNextFeeDeadline(uint _timestamp) public onlyAvail{\n    nextFeeDeadline = _timestamp;\n  }\n\n\n  function isLate() public view onlyAvail returns(bool) {\n    return remainFee >= 0;\n  }\n\n  // 정산하기\n  function balanceIntallment() public onlyOwner onlyAvail {\n\n    // 정산 완료\n    remainCnt = remainCnt.sub(1);\n    if(remainCnt == 0){\n      remainCost = remainCost.sub(paybackCost);\n    }else{\n      remainCost = remainCost.sub(paybackCost);\n    }\n\n  }\n\n  // 연체료 정산하기\n  function balanceLateFee() public onlyOwner onlyAvail {\n\n    // 정산 완료\n    remainCnt = remainCnt.sub(1);\n    if(remainCnt == 0){\n      remainCost = remainCost.sub(paybackCost);\n    }else{\n      remainCost = remainCost.sub(paybackCost);\n    }\n\n  }\n\n  function raiseLatefee() public onlyAvail {\n      // 이 함수의 실행 시간은 nextdeadline 과 같은 날짜에만 실행이 가능하다.\n\n      uint addFee = remainCost.add(remainFee);\n\n      addFee = addFee.mul(3).div(1000);\n\n      remainFee = remainFee.add(addFee);\n  }\n\n\n\n    // function paybackInstallment(address _token, address _buyer) public {\n  //   // nextDeadline 이랑 비교하는 것이 필요 즉 이 함수의 실행 날짜가 데드라인 날짜와 같은지 확인\n  //   // require();        \n\n\n\n  //   uint256 paycost = memberInstallments[_buyer].paybackCost;\n  //   uint256 term = 30 days;\n\n  //   // 자기 할부값보다 지금 자금이 많아야한다.\n  //   if (bnpl.balanceOf(_token,_buyer) >= paycost) {\n  //       memberInstallments[_buyer].remainCost = memberInstallments[_buyer].remainCost.sub(paycost);\n  //       memberInstallments[_buyer].nextDeadline = memberInstallments[_buyer].nextDeadline.add(term);\n  //   }\n  //   else { // 자금이 없으므로 연체가 된다.\n  //       memberInstallments[_buyer].isLate = true;\n\n  //       // 수수료는 하루 당 0.03% 로 책정\n  //       uint256 initfee = memberInstallments[_buyer].remainCost.mul(3).div(1000);\n  //       term = 1 days;\n\n  //       memberLatefees[_buyer] = Latefee({\n  //           remainFee : initfee,\n  //           nextDeadline : memberInstallments[_buyer].nextDeadline.add(term) \n  //       });\n  //   }\n  // }\n\n  // function paybackLatefee(address _token, address _buyer, uint256 paybackFee) public {\n  //     // 이 함수를 실행한 시간은 언제나 가능하다\n\n  //     // 이 함수는 buyer 만 가능하다\n  //     require(msg.sender == _buyer);\n\n  //     // 연체료가 있을 때에만 실행가능\n  //     require(memberInstallments[_buyer].isLate);\n  //     // 연체료보다 지갑에 든게 많아야한다.\n  //     require(bnpl.balanceOf(_token,_buyer) >= paybackFee \n  //         && memberLatefees[_buyer].remainFee >= paybackFee);\n\n  //     memberLatefees[_buyer].remainFee = memberLatefees[_buyer].remainFee.sub(paybackFee);\n\n  //     // 연체료 다 갚은 경우\n  //     if(memberLatefees[_buyer].remainFee == 0) {\n  //         memberInstallments[_buyer].isLate = false;\n  //     }\n  // }\n\n\n}",
  "sourcePath": "/Users/mg/bnpl-dapp/src/contracts/Installment.sol",
  "compiler": {
    "name": "solc",
    "version": "0.5.16+commit.9c3226ce.Emscripten.clang"
  },
  "schemaVersion": "3.3.4",
  "updatedAt": "2021-06-21T11:11:28.341Z",
  "networkType": "ethereum",
  "devdoc": {
    "methods": {}
  },
  "userdoc": {
    "methods": {}
  }
}