{
  "contractName": "Installment",
  "abi": [
    {
      "inputs": [
        {
          "internalType": "uint256",
          "name": "_initCost",
          "type": "uint256"
        },
        {
          "internalType": "uint256",
          "name": "_totalCost",
          "type": "uint256"
        },
        {
          "internalType": "uint256",
          "name": "_installmentCnt",
          "type": "uint256"
        },
        {
          "internalType": "uint256",
          "name": "_timestamp",
          "type": "uint256"
        }
      ],
      "payable": false,
      "stateMutability": "nonpayable",
      "type": "constructor"
    },
    {
      "anonymous": false,
      "inputs": [
        {
          "indexed": false,
          "internalType": "address",
          "name": "beforeAddress",
          "type": "address"
        },
        {
          "indexed": false,
          "internalType": "address",
          "name": "afterAddress",
          "type": "address"
        }
      ],
      "name": "TransferOwnership",
      "type": "event"
    },
    {
      "constant": true,
      "inputs": [],
      "name": "owner",
      "outputs": [
        {
          "internalType": "address",
          "name": "",
          "type": "address"
        }
      ],
      "payable": false,
      "stateMutability": "view",
      "type": "function"
    },
    {
      "constant": false,
      "inputs": [
        {
          "internalType": "address",
          "name": "_new",
          "type": "address"
        }
      ],
      "name": "transferOwnership",
      "outputs": [],
      "payable": false,
      "stateMutability": "nonpayable",
      "type": "function"
    },
    {
      "constant": true,
      "inputs": [],
      "name": "getRemainCost",
      "outputs": [
        {
          "internalType": "uint256",
          "name": "",
          "type": "uint256"
        }
      ],
      "payable": false,
      "stateMutability": "view",
      "type": "function"
    },
    {
      "constant": true,
      "inputs": [],
      "name": "getPaybackCost",
      "outputs": [
        {
          "internalType": "uint256",
          "name": "",
          "type": "uint256"
        }
      ],
      "payable": false,
      "stateMutability": "view",
      "type": "function"
    },
    {
      "constant": true,
      "inputs": [],
      "name": "getLateFeeCost",
      "outputs": [
        {
          "internalType": "uint256",
          "name": "",
          "type": "uint256"
        }
      ],
      "payable": false,
      "stateMutability": "view",
      "type": "function"
    },
    {
      "constant": true,
      "inputs": [],
      "name": "getNextInstallDeadline",
      "outputs": [
        {
          "internalType": "uint256",
          "name": "",
          "type": "uint256"
        }
      ],
      "payable": false,
      "stateMutability": "view",
      "type": "function"
    },
    {
      "constant": false,
      "inputs": [
        {
          "internalType": "uint256",
          "name": "_timestamp",
          "type": "uint256"
        }
      ],
      "name": "setNextInstallDeadline",
      "outputs": [],
      "payable": false,
      "stateMutability": "nonpayable",
      "type": "function"
    },
    {
      "constant": false,
      "inputs": [
        {
          "internalType": "uint256",
          "name": "_timestamp",
          "type": "uint256"
        }
      ],
      "name": "setNextFeeDeadline",
      "outputs": [],
      "payable": false,
      "stateMutability": "nonpayable",
      "type": "function"
    },
    {
      "constant": true,
      "inputs": [],
      "name": "isLate",
      "outputs": [
        {
          "internalType": "bool",
          "name": "",
          "type": "bool"
        }
      ],
      "payable": false,
      "stateMutability": "view",
      "type": "function"
    },
    {
      "constant": false,
      "inputs": [],
      "name": "balanceIntallment",
      "outputs": [],
      "payable": false,
      "stateMutability": "nonpayable",
      "type": "function"
    },
    {
      "constant": false,
      "inputs": [],
      "name": "balanceLateFee",
      "outputs": [],
      "payable": false,
      "stateMutability": "nonpayable",
      "type": "function"
    },
    {
      "constant": false,
      "inputs": [],
      "name": "raiseLatefee",
      "outputs": [],
      "payable": false,
      "stateMutability": "nonpayable",
      "type": "function"
    }
  ],
  "bytecode": "0x608060405234801561001057600080fd5b506040516108763803806108768339818101604052608081101561003357600080fd5b810190808051906020019092919080519060200190929190805190602001909291908051906020019092919050505033806000806101000a81548173ffffffffffffffffffffffffffffffffffffffff021916908373ffffffffffffffffffffffffffffffffffffffff160217905550506100bb84846100f960201b6106d31790919060201c565b600181905550816002819055506100e360025460015461011960201b6106ad1790919060201c565b600381905550806004819055505050505061013f565b60008282111561010857600080fd5b600082840390508091505092915050565b600080821161012757600080fd5b600082848161013257fe5b0490508091505092915050565b6107288061014e6000396000f3fe608060405234801561001057600080fd5b50600436106100b45760003560e01c806378447a741161007157806378447a741461014157806381c17a151461015f5780638da5cb5b14610181578063f2fde38b146101cb578063fea903321461020f578063ff705a161461023d576100b4565b8063022973f3146100b95780630da23182146100c3578063183d0e2e146100cd57806354cba894146100eb5780636bec79ae146101195780637223ad6614610123575b600080fd5b6100c161025b565b005b6100cb6102be565b005b6100d5610380565b6040518082815260200191505060405180910390f35b6101176004803603602081101561010157600080fd5b810190808035906020019092919050505061038a565b005b610121610394565b005b61012b610456565b6040518082815260200191505060405180910390f35b610149610489565b6040518082815260200191505060405180910390f35b610167610493565b604051808215151515815260200191505060405180910390f35b6101896104a0565b604051808273ffffffffffffffffffffffffffffffffffffffff1673ffffffffffffffffffffffffffffffffffffffff16815260200191505060405180910390f35b61020d600480360360208110156101e157600080fd5b81019080803573ffffffffffffffffffffffffffffffffffffffff1690602001909291905050506104c5565b005b61023b6004803603602081101561022557600080fd5b8101908080359060200190929190505050610640565b005b61024561064a565b6040518082815260200191505060405180910390f35b600061027460055460015461065490919063ffffffff16565b905061029e6103e861029060038461067390919063ffffffff16565b6106ad90919063ffffffff16565b90506102b58160055461065490919063ffffffff16565b60058190555050565b6000809054906101000a900473ffffffffffffffffffffffffffffffffffffffff1673ffffffffffffffffffffffffffffffffffffffff163373ffffffffffffffffffffffffffffffffffffffff161461031757600080fd5b61032d60016002546106d390919063ffffffff16565b60028190555060006002541415610360576103556003546001546106d390919063ffffffff16565b60018190555061037e565b6103776003546001546106d390919063ffffffff16565b6001819055505b565b6000600554905090565b8060048190555050565b6000809054906101000a900473ffffffffffffffffffffffffffffffffffffffff1673ffffffffffffffffffffffffffffffffffffffff163373ffffffffffffffffffffffffffffffffffffffff16146103ed57600080fd5b61040360016002546106d390919063ffffffff16565b600281905550600060025414156104365761042b6003546001546106d390919063ffffffff16565b600181905550610454565b61044d6003546001546106d390919063ffffffff16565b6001819055505b565b600080600254141561046b5760009050610486565b60016002541415610480576001549050610486565b60035490505b90565b6000600454905090565b6000806005541015905090565b6000809054906101000a900473ffffffffffffffffffffffffffffffffffffffff1681565b6000809054906101000a900473ffffffffffffffffffffffffffffffffffffffff1673ffffffffffffffffffffffffffffffffffffffff163373ffffffffffffffffffffffffffffffffffffffff161461051e57600080fd5b60008060009054906101000a900473ffffffffffffffffffffffffffffffffffffffff169050816000806101000a81548173ffffffffffffffffffffffffffffffffffffffff021916908373ffffffffffffffffffffffffffffffffffffffff1602179055507f5c486528ec3e3f0ea91181cff8116f02bfa350e03b8b6f12e00765adbb5af85c816000809054906101000a900473ffffffffffffffffffffffffffffffffffffffff16604051808373ffffffffffffffffffffffffffffffffffffffff1673ffffffffffffffffffffffffffffffffffffffff1681526020018273ffffffffffffffffffffffffffffffffffffffff1673ffffffffffffffffffffffffffffffffffffffff1681526020019250505060405180910390a15050565b8060068190555050565b6000600154905090565b60008082840190508381101561066957600080fd5b8091505092915050565b60008083141561068657600090506106a7565b600082840290508284828161069757fe5b04146106a257600080fd5b809150505b92915050565b60008082116106bb57600080fd5b60008284816106c657fe5b0490508091505092915050565b6000828211156106e257600080fd5b60008284039050809150509291505056fea265627a7a723158203b89c07600a6403a3c87d5518559b0836c302438924991d741fae799c185141964736f6c63430005100032",
  "source": "pragma solidity ^0.5.0;\n\nimport \"./Token.sol\";\nimport \"./Owned.sol\";\nimport \"openzeppelin-solidity/contracts/math/SafeMath.sol\";\n\n\ncontract Installment is Owned {\n  using SafeMath for uint;\n\n\t// 할부\n  uint remainCost;     // 앞으로 남은 할부 금액\n  uint remainCnt;      // 앞으로 남은 할부 횟수\n  uint paybackCost;    // 4주동안 내야할 금액\n  uint nextInstallDeadline;   // 다음 할부 결제 날짜\n\n\n  // 연체료\n  uint remainFee;     // 앞으로 남은 연체료\n  uint nextFeeDeadline;   // 다음 연체 날짜\n\n\tconstructor (\n    uint _initCost, \n    uint _totalCost, \n    uint _installmentCnt, \n    uint _timestamp\n  ) Owned(msg.sender) public {\n\t\tremainCost = _totalCost.sub(_initCost);\n    remainCnt = _installmentCnt;\n    paybackCost = remainCost.div(remainCnt);\n    nextInstallDeadline = _timestamp;\n\t}\n\n  function getRemainCost() public view returns(uint){\n    return remainCost;\n  }\n\n\n  function getPaybackCost() public view returns(uint){\n    if(remainCnt==0)\n      return 0;\n\n    if(remainCnt == 1){\n      return remainCost;\n    }else {\n      return paybackCost;\n    }\n  }\n\n  function getLateFeeCost() public view returns(uint){\n    return remainFee;\n  }\n\n  function getNextInstallDeadline() public view returns(uint) {\n    return nextInstallDeadline;\n  }\n\n  // 한 달 후\n  function setNextInstallDeadline(uint _timestamp) public {\n    nextInstallDeadline = _timestamp;\n  }\n\n  // 하루 후\n  function setNextFeeDeadline(uint _timestamp) public {\n    nextFeeDeadline = _timestamp;\n  }\n\n\n  function isLate() public view returns(bool) {\n    return remainFee >= 0;\n  }\n\n  // 정산하기\n  function balanceIntallment() public onlyOwner {\n\n    // 정산 완료\n    remainCnt = remainCnt.sub(1);\n    if(remainCnt == 0){\n      remainCost = remainCost.sub(paybackCost);\n    }else{\n      remainCost = remainCost.sub(paybackCost);\n    }\n\n  }\n\n  // 연체료 정산하기\n  function balanceLateFee() public onlyOwner {\n\n    // 정산 완료\n    remainCnt = remainCnt.sub(1);\n    if(remainCnt == 0){\n      remainCost = remainCost.sub(paybackCost);\n    }else{\n      remainCost = remainCost.sub(paybackCost);\n    }\n\n  }\n\n  function raiseLatefee() public {\n      // 이 함수의 실행 시간은 nextdeadline 과 같은 날짜에만 실행이 가능하다.\n\n      uint addFee = remainCost.add(remainFee);\n\n      addFee = addFee.mul(3).div(1000);\n\n      remainFee = remainFee.add(addFee);\n  }\n\n\n\n    // function paybackInstallment(address _token, address _buyer) public {\n  //   // nextDeadline 이랑 비교하는 것이 필요 즉 이 함수의 실행 날짜가 데드라인 날짜와 같은지 확인\n  //   // require();        \n\n\n\n  //   uint256 paycost = memberInstallments[_buyer].paybackCost;\n  //   uint256 term = 30 days;\n\n  //   // 자기 할부값보다 지금 자금이 많아야한다.\n  //   if (bnpl.balanceOf(_token,_buyer) >= paycost) {\n  //       memberInstallments[_buyer].remainCost = memberInstallments[_buyer].remainCost.sub(paycost);\n  //       memberInstallments[_buyer].nextDeadline = memberInstallments[_buyer].nextDeadline.add(term);\n  //   }\n  //   else { // 자금이 없으므로 연체가 된다.\n  //       memberInstallments[_buyer].isLate = true;\n\n  //       // 수수료는 하루 당 0.03% 로 책정\n  //       uint256 initfee = memberInstallments[_buyer].remainCost.mul(3).div(1000);\n  //       term = 1 days;\n\n  //       memberLatefees[_buyer] = Latefee({\n  //           remainFee : initfee,\n  //           nextDeadline : memberInstallments[_buyer].nextDeadline.add(term) \n  //       });\n  //   }\n  // }\n\n  // function paybackLatefee(address _token, address _buyer, uint256 paybackFee) public {\n  //     // 이 함수를 실행한 시간은 언제나 가능하다\n\n  //     // 이 함수는 buyer 만 가능하다\n  //     require(msg.sender == _buyer);\n\n  //     // 연체료가 있을 때에만 실행가능\n  //     require(memberInstallments[_buyer].isLate);\n  //     // 연체료보다 지갑에 든게 많아야한다.\n  //     require(bnpl.balanceOf(_token,_buyer) >= paybackFee \n  //         && memberLatefees[_buyer].remainFee >= paybackFee);\n\n  //     memberLatefees[_buyer].remainFee = memberLatefees[_buyer].remainFee.sub(paybackFee);\n\n  //     // 연체료 다 갚은 경우\n  //     if(memberLatefees[_buyer].remainFee == 0) {\n  //         memberInstallments[_buyer].isLate = false;\n  //     }\n  // }\n\n\n}",
  "sourcePath": "/Users/mg/bnpl-dapp/src/contracts/Installment.sol",
  "compiler": {
    "name": "solc",
    "version": "0.5.16+commit.9c3226ce.Emscripten.clang"
  },
  "schemaVersion": "3.3.4",
  "updatedAt": "2021-06-21T02:43:59.597Z",
  "networkType": "ethereum",
  "devdoc": {
    "methods": {}
  },
  "userdoc": {
    "methods": {}
  }
}