{
  "contractName": "Members",
  "abi": [
    {
      "inputs": [],
      "payable": false,
      "stateMutability": "nonpayable",
      "type": "constructor"
    },
    {
      "anonymous": false,
      "inputs": [
        {
          "indexed": false,
          "internalType": "address",
          "name": "beforeAddress",
          "type": "address"
        },
        {
          "indexed": false,
          "internalType": "address",
          "name": "afterAddress",
          "type": "address"
        }
      ],
      "name": "TransferOwnership",
      "type": "event"
    },
    {
      "constant": true,
      "inputs": [
        {
          "internalType": "address",
          "name": "",
          "type": "address"
        }
      ],
      "name": "memberBnpls",
      "outputs": [
        {
          "internalType": "enum Members.BNPLSTAT",
          "name": "stat",
          "type": "uint8"
        },
        {
          "internalType": "uint256",
          "name": "targetOrder",
          "type": "uint256"
        },
        {
          "internalType": "uint256",
          "name": "times",
          "type": "uint256"
        },
        {
          "internalType": "uint256",
          "name": "sum",
          "type": "uint256"
        },
        {
          "internalType": "enum Members.RANK",
          "name": "rank",
          "type": "uint8"
        }
      ],
      "payable": false,
      "stateMutability": "view",
      "type": "function"
    },
    {
      "constant": true,
      "inputs": [
        {
          "internalType": "address",
          "name": "",
          "type": "address"
        }
      ],
      "name": "memberInfos",
      "outputs": [
        {
          "internalType": "string",
          "name": "name",
          "type": "string"
        },
        {
          "internalType": "string",
          "name": "socialNumber",
          "type": "string"
        },
        {
          "internalType": "string",
          "name": "phoneNumber",
          "type": "string"
        },
        {
          "internalType": "string",
          "name": "bankName",
          "type": "string"
        },
        {
          "internalType": "string",
          "name": "accountNumber",
          "type": "string"
        }
      ],
      "payable": false,
      "stateMutability": "view",
      "type": "function"
    },
    {
      "constant": true,
      "inputs": [],
      "name": "owner",
      "outputs": [
        {
          "internalType": "address",
          "name": "",
          "type": "address"
        }
      ],
      "payable": false,
      "stateMutability": "view",
      "type": "function"
    },
    {
      "constant": true,
      "inputs": [
        {
          "internalType": "uint256",
          "name": "",
          "type": "uint256"
        }
      ],
      "name": "rank",
      "outputs": [
        {
          "internalType": "string",
          "name": "name",
          "type": "string"
        },
        {
          "internalType": "uint256",
          "name": "times",
          "type": "uint256"
        },
        {
          "internalType": "uint256",
          "name": "sum",
          "type": "uint256"
        },
        {
          "internalType": "uint256",
          "name": "rate",
          "type": "uint256"
        },
        {
          "internalType": "uint256",
          "name": "installmentCount",
          "type": "uint256"
        }
      ],
      "payable": false,
      "stateMutability": "view",
      "type": "function"
    },
    {
      "constant": false,
      "inputs": [
        {
          "internalType": "address",
          "name": "_new",
          "type": "address"
        }
      ],
      "name": "transferOwnership",
      "outputs": [],
      "payable": false,
      "stateMutability": "nonpayable",
      "type": "function"
    },
    {
      "constant": false,
      "inputs": [
        {
          "internalType": "address",
          "name": "_member",
          "type": "address"
        },
        {
          "internalType": "string",
          "name": "_name",
          "type": "string"
        },
        {
          "internalType": "string",
          "name": "_socialNumber",
          "type": "string"
        },
        {
          "internalType": "string",
          "name": "_phoneNumber",
          "type": "string"
        },
        {
          "internalType": "string",
          "name": "_bankName",
          "type": "string"
        },
        {
          "internalType": "string",
          "name": "_accountNumber",
          "type": "string"
        }
      ],
      "name": "initMemberInfo",
      "outputs": [],
      "payable": false,
      "stateMutability": "nonpayable",
      "type": "function"
    },
    {
      "constant": true,
      "inputs": [
        {
          "internalType": "address",
          "name": "_member",
          "type": "address"
        }
      ],
      "name": "getMemberinfo",
      "outputs": [
        {
          "internalType": "string",
          "name": "",
          "type": "string"
        },
        {
          "internalType": "string",
          "name": "",
          "type": "string"
        },
        {
          "internalType": "string",
          "name": "",
          "type": "string"
        },
        {
          "internalType": "string",
          "name": "",
          "type": "string"
        },
        {
          "internalType": "string",
          "name": "",
          "type": "string"
        }
      ],
      "payable": false,
      "stateMutability": "view",
      "type": "function"
    },
    {
      "constant": true,
      "inputs": [
        {
          "internalType": "address",
          "name": "_buyer",
          "type": "address"
        }
      ],
      "name": "getMemberStat",
      "outputs": [
        {
          "internalType": "enum Members.BNPLSTAT",
          "name": "",
          "type": "uint8"
        }
      ],
      "payable": false,
      "stateMutability": "view",
      "type": "function"
    },
    {
      "constant": false,
      "inputs": [
        {
          "internalType": "address",
          "name": "_buyer",
          "type": "address"
        },
        {
          "internalType": "uint256",
          "name": "_money",
          "type": "uint256"
        }
      ],
      "name": "updateMemberBnpls",
      "outputs": [],
      "payable": false,
      "stateMutability": "nonpayable",
      "type": "function"
    }
  ],
  "bytecode": "0x60806040523480156200001157600080fd5b5033806000806101000a81548173ffffffffffffffffffffffffffffffffffffffff021916908373ffffffffffffffffffffffffffffffffffffffff160217905550506040518060a001604052806040518060400160405280600481526020017f476f6c64000000000000000000000000000000000000000000000000000000008152508152602001600581526020016107d081526020016107d08152602001600a8152506001600280811115620000c557fe5b60038110620000d057fe5b600502016000820151816000019080519060200190620000f2929190620002b8565b50602082015181600101556040820151816002015560608201518160030155608082015181600401559050506040518060a001604052806040518060400160405280600681526020017f53696c76657200000000000000000000000000000000000000000000000000008152508152602001600381526020016103e881526020016103e88152602001600581525060018060028111156200018f57fe5b600381106200019a57fe5b600502016000820151816000019080519060200190620001bc929190620002b8565b50602082015181600101556040820151816002015560608201518160030155608082015181600401559050506040518060a001604052806040518060400160405280600681526020017f42726f6e7a650000000000000000000000000000000000000000000000000000815250815260200160008152602001600081526020016101f4815260200160018152506001600060028111156200025957fe5b600381106200026457fe5b60050201600082015181600001908051906020019062000286929190620002b8565b506020820151816001015560408201518160020155606082015181600301556080820151816004015590505062000367565b828054600181600116156101000203166002900490600052602060002090601f016020900481019282601f10620002fb57805160ff19168380011785556200032c565b828001600101855582156200032c579182015b828111156200032b5782518255916020019190600101906200030e565b5b5090506200033b91906200033f565b5090565b6200036491905b808211156200036057600081600090555060010162000346565b5090565b90565b611ce280620003776000396000f3fe608060405234801561001057600080fd5b50600436106100935760003560e01c8063b146a38311610066578063b146a3831461050f578063b37c191b1461055d578063c853663914610620578063dada62061461088d578063f2fde38b14610afa57610093565b80635e5d30f31461009857806385db1778146103cf5780638da5cb5b1461045f57806391bfa3e2146104a9575b600080fd5b6103cd600480360360c08110156100ae57600080fd5b81019080803573ffffffffffffffffffffffffffffffffffffffff169060200190929190803590602001906401000000008111156100eb57600080fd5b8201836020820111156100fd57600080fd5b8035906020019184600183028401116401000000008311171561011f57600080fd5b91908080601f016020809104026020016040519081016040528093929190818152602001838380828437600081840152601f19601f8201169050808301925050505050505091929192908035906020019064010000000081111561018257600080fd5b82018360208201111561019457600080fd5b803590602001918460018302840111640100000000831117156101b657600080fd5b91908080601f016020809104026020016040519081016040528093929190818152602001838380828437600081840152601f19601f8201169050808301925050505050505091929192908035906020019064010000000081111561021957600080fd5b82018360208201111561022b57600080fd5b8035906020019184600183028401116401000000008311171561024d57600080fd5b91908080601f016020809104026020016040519081016040528093929190818152602001838380828437600081840152601f19601f820116905080830192505050505050509192919290803590602001906401000000008111156102b057600080fd5b8201836020820111156102c257600080fd5b803590602001918460018302840111640100000000831117156102e457600080fd5b91908080601f016020809104026020016040519081016040528093929190818152602001838380828437600081840152601f19601f8201169050808301925050505050505091929192908035906020019064010000000081111561034757600080fd5b82018360208201111561035957600080fd5b8035906020019184600183028401116401000000008311171561037b57600080fd5b91908080601f016020809104026020016040519081016040528093929190818152602001838380828437600081840152601f19601f820116905080830192505050505050509192919290505050610b3e565b005b610411600480360360208110156103e557600080fd5b81019080803573ffffffffffffffffffffffffffffffffffffffff169060200190929190505050610ca2565b6040518086600381111561042157fe5b60ff16815260200185815260200184815260200183815260200182600281111561044757fe5b60ff1681526020019550505050505060405180910390f35b610467610cf2565b604051808273ffffffffffffffffffffffffffffffffffffffff1673ffffffffffffffffffffffffffffffffffffffff16815260200191505060405180910390f35b6104eb600480360360208110156104bf57600080fd5b81019080803573ffffffffffffffffffffffffffffffffffffffff169060200190929190505050610d17565b604051808260038111156104fb57fe5b60ff16815260200191505060405180910390f35b61055b6004803603604081101561052557600080fd5b81019080803573ffffffffffffffffffffffffffffffffffffffff16906020019092919080359060200190929190505050610d70565b005b6105896004803603602081101561057357600080fd5b81019080803590602001909291905050506111a0565b6040518080602001868152602001858152602001848152602001838152602001828103825287818151815260200191508051906020019080838360005b838110156105e15780820151818401526020810190506105c6565b50505050905090810190601f16801561060e5780820380516001836020036101000a031916815260200191505b50965050505050505060405180910390f35b6106626004803603602081101561063657600080fd5b81019080803573ffffffffffffffffffffffffffffffffffffffff169060200190929190505050611271565b60405180806020018060200180602001806020018060200186810386528b818151815260200191508051906020019080838360005b838110156106b2578082015181840152602081019050610697565b50505050905090810190601f1680156106df5780820380516001836020036101000a031916815260200191505b5086810385528a818151815260200191508051906020019080838360005b838110156107185780820151818401526020810190506106fd565b50505050905090810190601f1680156107455780820380516001836020036101000a031916815260200191505b50868103845289818151815260200191508051906020019080838360005b8381101561077e578082015181840152602081019050610763565b50505050905090810190601f1680156107ab5780820380516001836020036101000a031916815260200191505b50868103835288818151815260200191508051906020019080838360005b838110156107e45780820151818401526020810190506107c9565b50505050905090810190601f1680156108115780820380516001836020036101000a031916815260200191505b50868103825287818151815260200191508051906020019080838360005b8381101561084a57808201518184015260208101905061082f565b50505050905090810190601f1680156108775780820380516001836020036101000a031916815260200191505b509a505050505050505050505060405180910390f35b6108cf600480360360208110156108a357600080fd5b81019080803573ffffffffffffffffffffffffffffffffffffffff16906020019092919050505061159f565b60405180806020018060200180602001806020018060200186810386528b818151815260200191508051906020019080838360005b8381101561091f578082015181840152602081019050610904565b50505050905090810190601f16801561094c5780820380516001836020036101000a031916815260200191505b5086810385528a818151815260200191508051906020019080838360005b8381101561098557808201518184015260208101905061096a565b50505050905090810190601f1680156109b25780820380516001836020036101000a031916815260200191505b50868103845289818151815260200191508051906020019080838360005b838110156109eb5780820151818401526020810190506109d0565b50505050905090810190601f168015610a185780820380516001836020036101000a031916815260200191505b50868103835288818151815260200191508051906020019080838360005b83811015610a51578082015181840152602081019050610a36565b50505050905090810190601f168015610a7e5780820380516001836020036101000a031916815260200191505b50868103825287818151815260200191508051906020019080838360005b83811015610ab7578082015181840152602081019050610a9c565b50505050905090810190601f168015610ae45780820380516001836020036101000a031916815260200191505b509a505050505050505050505060405180910390f35b610b3c60048036036020811015610b1057600080fd5b81019080803573ffffffffffffffffffffffffffffffffffffffff169060200190929190505050611977565b005b6000809054906101000a900473ffffffffffffffffffffffffffffffffffffffff1673ffffffffffffffffffffffffffffffffffffffff163373ffffffffffffffffffffffffffffffffffffffff1614610b9757600080fd5b6040518060a0016040528086815260200185815260200184815260200183815260200182815250601060008873ffffffffffffffffffffffffffffffffffffffff1673ffffffffffffffffffffffffffffffffffffffff1681526020019081526020016000206000820151816000019080519060200190610c19929190611c08565b506020820151816001019080519060200190610c36929190611c08565b506040820151816002019080519060200190610c53929190611c08565b506060820151816003019080519060200190610c70929190611c08565b506080820151816004019080519060200190610c8d929190611c08565b50905050610c9a86611af2565b505050505050565b60116020528060005260406000206000915090508060000160009054906101000a900460ff16908060010154908060020154908060030154908060040160009054906101000a900460ff16905085565b6000809054906101000a900473ffffffffffffffffffffffffffffffffffffffff1681565b6000601160008373ffffffffffffffffffffffffffffffffffffffff1673ffffffffffffffffffffffffffffffffffffffff16815260200190815260200160002060000160009054906101000a900460ff169050919050565b6000809054906101000a900473ffffffffffffffffffffffffffffffffffffffff1673ffffffffffffffffffffffffffffffffffffffff163373ffffffffffffffffffffffffffffffffffffffff1614610dc957600080fd5b610e1f6001601160008573ffffffffffffffffffffffffffffffffffffffff1673ffffffffffffffffffffffffffffffffffffffff16815260200190815260200160002060020154611be990919063ffffffff16565b601160008473ffffffffffffffffffffffffffffffffffffffff1673ffffffffffffffffffffffffffffffffffffffff16815260200190815260200160002060020181905550610eba81601160008573ffffffffffffffffffffffffffffffffffffffff1673ffffffffffffffffffffffffffffffffffffffff16815260200190815260200160002060030154611be990919063ffffffff16565b601160008473ffffffffffffffffffffffffffffffffffffffff1673ffffffffffffffffffffffffffffffffffffffff168152602001908152602001600020600301819055506000601160008473ffffffffffffffffffffffffffffffffffffffff1673ffffffffffffffffffffffffffffffffffffffff16815260200190815260200160002060000160006101000a81548160ff02191690836003811115610f5f57fe5b02179055506000601160008473ffffffffffffffffffffffffffffffffffffffff1673ffffffffffffffffffffffffffffffffffffffff16815260200190815260200160002060040160009054906101000a900460ff169050600280811115610fc457fe5b816002811115610fd057fe5b1415610fdb5761119b565b60016002811115610fe857fe5b816002811115610ff457fe5b14156110cc57600160028081111561100857fe5b6003811061101257fe5b6005020160020154601160008573ffffffffffffffffffffffffffffffffffffffff1673ffffffffffffffffffffffffffffffffffffffff16815260200190815260200160002060030154106110c7576002601160008573ffffffffffffffffffffffffffffffffffffffff1673ffffffffffffffffffffffffffffffffffffffff16815260200190815260200160002060040160006101000a81548160ff021916908360028111156110c157fe5b02179055505b61119a565b60018060028111156110da57fe5b600381106110e457fe5b6005020160020154601160008573ffffffffffffffffffffffffffffffffffffffff1673ffffffffffffffffffffffffffffffffffffffff1681526020019081526020016000206003015410611199576001601160008573ffffffffffffffffffffffffffffffffffffffff1673ffffffffffffffffffffffffffffffffffffffff16815260200190815260200160002060040160006101000a81548160ff0219169083600281111561119357fe5b02179055505b5b5b505050565b600181600381106111ad57fe5b60050201600091509050806000018054600181600116156101000203166002900480601f01602080910402602001604051908101604052809291908181526020018280546001816001161561010002031660029004801561124f5780601f106112245761010080835404028352916020019161124f565b820191906000526020600020905b81548152906001019060200180831161123257829003601f168201915b5050505050908060010154908060020154908060030154908060040154905085565b6010602052806000526040600020600091509050806000018054600181600116156101000203166002900480601f01602080910402602001604051908101604052809291908181526020018280546001816001161561010002031660029004801561131d5780601f106112f25761010080835404028352916020019161131d565b820191906000526020600020905b81548152906001019060200180831161130057829003601f168201915b505050505090806001018054600181600116156101000203166002900480601f0160208091040260200160405190810160405280929190818152602001828054600181600116156101000203166002900480156113bb5780601f10611390576101008083540402835291602001916113bb565b820191906000526020600020905b81548152906001019060200180831161139e57829003601f168201915b505050505090806002018054600181600116156101000203166002900480601f0160208091040260200160405190810160405280929190818152602001828054600181600116156101000203166002900480156114595780601f1061142e57610100808354040283529160200191611459565b820191906000526020600020905b81548152906001019060200180831161143c57829003601f168201915b505050505090806003018054600181600116156101000203166002900480601f0160208091040260200160405190810160405280929190818152602001828054600181600116156101000203166002900480156114f75780601f106114cc576101008083540402835291602001916114f7565b820191906000526020600020905b8154815290600101906020018083116114da57829003601f168201915b505050505090806004018054600181600116156101000203166002900480601f0160208091040260200160405190810160405280929190818152602001828054600181600116156101000203166002900480156115955780601f1061156a57610100808354040283529160200191611595565b820191906000526020600020905b81548152906001019060200180831161157857829003601f168201915b5050505050905085565b60608060608060606000809054906101000a900473ffffffffffffffffffffffffffffffffffffffff1673ffffffffffffffffffffffffffffffffffffffff163373ffffffffffffffffffffffffffffffffffffffff161461160057600080fd5b6000601060008873ffffffffffffffffffffffffffffffffffffffff1673ffffffffffffffffffffffffffffffffffffffff16815260200190815260200160002090508060000181600101826002018360030184600401848054600181600116156101000203166002900480601f0160208091040260200160405190810160405280929190818152602001828054600181600116156101000203166002900480156116ec5780601f106116c1576101008083540402835291602001916116ec565b820191906000526020600020905b8154815290600101906020018083116116cf57829003601f168201915b50505050509450838054600181600116156101000203166002900480601f0160208091040260200160405190810160405280929190818152602001828054600181600116156101000203166002900480156117885780601f1061175d57610100808354040283529160200191611788565b820191906000526020600020905b81548152906001019060200180831161176b57829003601f168201915b50505050509350828054600181600116156101000203166002900480601f0160208091040260200160405190810160405280929190818152602001828054600181600116156101000203166002900480156118245780601f106117f957610100808354040283529160200191611824565b820191906000526020600020905b81548152906001019060200180831161180757829003601f168201915b50505050509250818054600181600116156101000203166002900480601f0160208091040260200160405190810160405280929190818152602001828054600181600116156101000203166002900480156118c05780601f10611895576101008083540402835291602001916118c0565b820191906000526020600020905b8154815290600101906020018083116118a357829003601f168201915b50505050509150808054600181600116156101000203166002900480601f01602080910402602001604051908101604052809291908181526020018280546001816001161561010002031660029004801561195c5780601f106119315761010080835404028352916020019161195c565b820191906000526020600020905b81548152906001019060200180831161193f57829003601f168201915b50505050509050955095509550955095505091939590929450565b6000809054906101000a900473ffffffffffffffffffffffffffffffffffffffff1673ffffffffffffffffffffffffffffffffffffffff163373ffffffffffffffffffffffffffffffffffffffff16146119d057600080fd5b60008060009054906101000a900473ffffffffffffffffffffffffffffffffffffffff169050816000806101000a81548173ffffffffffffffffffffffffffffffffffffffff021916908373ffffffffffffffffffffffffffffffffffffffff1602179055507f5c486528ec3e3f0ea91181cff8116f02bfa350e03b8b6f12e00765adbb5af85c816000809054906101000a900473ffffffffffffffffffffffffffffffffffffffff16604051808373ffffffffffffffffffffffffffffffffffffffff1673ffffffffffffffffffffffffffffffffffffffff1681526020018273ffffffffffffffffffffffffffffffffffffffff1673ffffffffffffffffffffffffffffffffffffffff1681526020019250505060405180910390a15050565b6040518060a0016040528060006003811115611b0a57fe5b815260200160008152602001600081526020016000815260200160006002811115611b3157fe5b815250601160008373ffffffffffffffffffffffffffffffffffffffff1673ffffffffffffffffffffffffffffffffffffffff16815260200190815260200160002060008201518160000160006101000a81548160ff02191690836003811115611b9757fe5b021790555060208201518160010155604082015181600201556060820151816003015560808201518160040160006101000a81548160ff02191690836002811115611bde57fe5b021790555090505050565b600080828401905083811015611bfe57600080fd5b8091505092915050565b828054600181600116156101000203166002900490600052602060002090601f016020900481019282601f10611c4957805160ff1916838001178555611c77565b82800160010185558215611c77579182015b82811115611c76578251825591602001919060010190611c5b565b5b509050611c849190611c88565b5090565b611caa91905b80821115611ca6576000816000905550600101611c8e565b5090565b9056fea265627a7a7231582052a12d744e5f4e01f429880326a7a4b39273dc4dd6d2071db9ebff0390d1f47664736f6c63430005100032",
  "source": "pragma solidity ^0.5.0;\n\n\nimport \"openzeppelin-solidity/contracts/math/SafeMath.sol\";\nimport \"./Owned.sol\";\n\n\ncontract Members is Owned {\n  using SafeMath for uint;\n\n  enum RANK {\n    BRONZE,\n    SILVER,\n    GOLD\n  }\n\n  enum BNPLSTAT{\n    NONE,\n    PROCESSING,\n    LATE,\n    BANNED\n  }\n\n  MemberRank[3] public rank; //     \n\n  mapping(address => MemberInfo) public memberInfos; //  \n\n  mapping(address => memberBnpl) public memberBnpls; //  bnpl  \n\n  //   \n  struct MemberRank {\n      string name; // \n      uint times; //   \n      uint sum; //   \n      uint rate; // \n      uint installmentCount; //   \n  }\n\n  //  \n  struct MemberInfo {\n    string name;\n    string socialNumber;\n    string phoneNumber;\n    string bankName;\n    string accountNumber;\n  }\n\n  //   \n  struct memberBnpl{\n    BNPLSTAT stat;\n    uint targetOrder;\n    uint times; //  \n    uint sum; //  \n    RANK rank; //  \n  }\n\n  constructor() public Owned(msg.sender) {\n      // \n      //   \n      //   \n      // \n      //   \n\n      rank[uint(RANK.GOLD)] = MemberRank({\n              name: \"Gold\",\n              times: 5,\n              sum: 2000,\n              rate: 2000,\n              installmentCount: 10\n      });\n      rank[uint(RANK.SILVER)] = MemberRank({\n              name: \"Silver\",\n              times: 3,\n              sum: 1000,\n              rate: 1000,\n              installmentCount: 5\n      });\n      rank[uint(RANK.BRONZE)] = MemberRank({\n              name: \"Bronze\",\n              times: 0,\n              sum: 0,\n              rate: 500,\n              installmentCount: 1\n      });\n  }\n\n  function initMemberInfo\n  (    \n    address _member,\n    string memory _name,\n    string memory _socialNumber,\n    string memory _phoneNumber,\n    string memory _bankName,\n    string memory _accountNumber\n  ) public onlyOwner {\n    memberInfos[_member] = MemberInfo(_name, _socialNumber, _phoneNumber, _bankName, _accountNumber);\n    _initMemberBnplInfo(_member);\n  }\n\n  function _initMemberBnplInfo(address _member) internal {\n    memberBnpls[_member] = memberBnpl(BNPLSTAT.NONE, 0, 0, 0, RANK.BRONZE);\n  }\n\n  function getMemberinfo(address _member) public onlyOwner view returns(string memory, string memory, string memory, string memory, string memory) {\n    MemberInfo storage info = memberInfos[_member];\n    return (\n      info.name, \n      info.socialNumber,\n      info.phoneNumber,\n      info.bankName,\n      info.accountNumber\n    );\n  }\n\n  function getMemberStat(address _buyer) public view returns(BNPLSTAT) {\n    return memberBnpls[_buyer].stat;\n  }\n\n  //  stat   .\n  function updateMemberBnpls(address _buyer, uint _money) public onlyOwner {\n    memberBnpls[_buyer].times = memberBnpls[_buyer].times.add(1);\n    memberBnpls[_buyer].sum = memberBnpls[_buyer].sum.add(_money);\n\n    memberBnpls[_buyer].stat = BNPLSTAT.NONE;\n\n    RANK _rank = memberBnpls[_buyer].rank;\n\n    if( _rank == RANK.GOLD) {\n      // memberBnpls[_buyer].rank = GOLD;\n    }else if(_rank == RANK.SILVER) {\n      if ( memberBnpls[_buyer].sum >= rank[uint(RANK.GOLD)].sum){\n        memberBnpls[_buyer].rank = RANK.GOLD;\n      }\n    }else {\n      if ( memberBnpls[_buyer].sum >= rank[uint(RANK.SILVER)].sum){\n        memberBnpls[_buyer].rank = RANK.SILVER;\n      }\n    }\n  }\n\n}  \n",
  "sourcePath": "/Users/mg/bnpl-dapp/src/contracts/Members.sol",
  "compiler": {
    "name": "solc",
    "version": "0.5.16+commit.9c3226ce.Emscripten.clang"
  },
  "schemaVersion": "3.3.4",
  "updatedAt": "2021-06-20T04:36:53.712Z",
  "devdoc": {
    "methods": {}
  },
  "userdoc": {
    "methods": {}
  }
}