{
  "contractName": "Members",
  "abi": [
    {
      "inputs": [
        {
          "internalType": "address",
          "name": "_owner",
          "type": "address"
        }
      ],
      "payable": false,
      "stateMutability": "nonpayable",
      "type": "constructor"
    },
    {
      "anonymous": false,
      "inputs": [
        {
          "indexed": false,
          "internalType": "address",
          "name": "beforeAddress",
          "type": "address"
        },
        {
          "indexed": false,
          "internalType": "address",
          "name": "afterAddress",
          "type": "address"
        }
      ],
      "name": "TransferOwnership",
      "type": "event"
    },
    {
      "constant": true,
      "inputs": [
        {
          "internalType": "address",
          "name": "",
          "type": "address"
        }
      ],
      "name": "MemberInfos",
      "outputs": [
        {
          "internalType": "string",
          "name": "name",
          "type": "string"
        },
        {
          "internalType": "string",
          "name": "socialNumber",
          "type": "string"
        },
        {
          "internalType": "string",
          "name": "phoneNumber",
          "type": "string"
        },
        {
          "internalType": "string",
          "name": "bankName",
          "type": "string"
        },
        {
          "internalType": "string",
          "name": "accountNumber",
          "type": "string"
        }
      ],
      "payable": false,
      "stateMutability": "view",
      "type": "function"
    },
    {
      "constant": true,
      "inputs": [],
      "name": "bnpl",
      "outputs": [
        {
          "internalType": "contract Bnpl",
          "name": "",
          "type": "address"
        }
      ],
      "payable": false,
      "stateMutability": "view",
      "type": "function"
    },
    {
      "constant": true,
      "inputs": [
        {
          "internalType": "address",
          "name": "",
          "type": "address"
        }
      ],
      "name": "bnplHistory",
      "outputs": [
        {
          "internalType": "uint256",
          "name": "times",
          "type": "uint256"
        },
        {
          "internalType": "uint256",
          "name": "sum",
          "type": "uint256"
        },
        {
          "internalType": "uint256",
          "name": "statusIndex",
          "type": "uint256"
        }
      ],
      "payable": false,
      "stateMutability": "view",
      "type": "function"
    },
    {
      "constant": true,
      "inputs": [],
      "name": "datetime",
      "outputs": [
        {
          "internalType": "contract BokkyPooBahsDateTimeContract",
          "name": "",
          "type": "address"
        }
      ],
      "payable": false,
      "stateMutability": "view",
      "type": "function"
    },
    {
      "constant": true,
      "inputs": [
        {
          "internalType": "address",
          "name": "",
          "type": "address"
        }
      ],
      "name": "memberInstallments",
      "outputs": [
        {
          "internalType": "uint256",
          "name": "remainCost",
          "type": "uint256"
        },
        {
          "internalType": "uint256",
          "name": "remainCnt",
          "type": "uint256"
        },
        {
          "internalType": "uint256",
          "name": "paybackCost",
          "type": "uint256"
        },
        {
          "internalType": "uint256",
          "name": "nextDeadline",
          "type": "uint256"
        },
        {
          "internalType": "bool",
          "name": "isLate",
          "type": "bool"
        }
      ],
      "payable": false,
      "stateMutability": "view",
      "type": "function"
    },
    {
      "constant": true,
      "inputs": [
        {
          "internalType": "address",
          "name": "",
          "type": "address"
        }
      ],
      "name": "memberLatefees",
      "outputs": [
        {
          "internalType": "uint256",
          "name": "remainFee",
          "type": "uint256"
        },
        {
          "internalType": "uint256",
          "name": "nextDeadline",
          "type": "uint256"
        }
      ],
      "payable": false,
      "stateMutability": "view",
      "type": "function"
    },
    {
      "constant": true,
      "inputs": [],
      "name": "owner",
      "outputs": [
        {
          "internalType": "address",
          "name": "",
          "type": "address"
        }
      ],
      "payable": false,
      "stateMutability": "view",
      "type": "function"
    },
    {
      "constant": true,
      "inputs": [
        {
          "internalType": "uint256",
          "name": "",
          "type": "uint256"
        }
      ],
      "name": "status",
      "outputs": [
        {
          "internalType": "string",
          "name": "name",
          "type": "string"
        },
        {
          "internalType": "uint256",
          "name": "times",
          "type": "uint256"
        },
        {
          "internalType": "uint256",
          "name": "sum",
          "type": "uint256"
        },
        {
          "internalType": "uint8",
          "name": "rate",
          "type": "uint8"
        },
        {
          "internalType": "uint8",
          "name": "installmentCount",
          "type": "uint8"
        }
      ],
      "payable": false,
      "stateMutability": "view",
      "type": "function"
    },
    {
      "constant": false,
      "inputs": [
        {
          "internalType": "address",
          "name": "_new",
          "type": "address"
        }
      ],
      "name": "transferOwnership",
      "outputs": [],
      "payable": false,
      "stateMutability": "nonpayable",
      "type": "function"
    },
    {
      "constant": false,
      "inputs": [
        {
          "internalType": "address",
          "name": "_bnpl",
          "type": "address"
        }
      ],
      "name": "setBnpl",
      "outputs": [],
      "payable": false,
      "stateMutability": "nonpayable",
      "type": "function"
    },
    {
      "constant": false,
      "inputs": [
        {
          "internalType": "address",
          "name": "_datetime",
          "type": "address"
        }
      ],
      "name": "setDatetime",
      "outputs": [],
      "payable": false,
      "stateMutability": "nonpayable",
      "type": "function"
    },
    {
      "constant": false,
      "inputs": [
        {
          "internalType": "address",
          "name": "_buyer",
          "type": "address"
        },
        {
          "internalType": "uint256",
          "name": "_remainCost",
          "type": "uint256"
        },
        {
          "internalType": "uint8",
          "name": "_remainCnt",
          "type": "uint8"
        },
        {
          "internalType": "uint256",
          "name": "_paybackCost",
          "type": "uint256"
        }
      ],
      "name": "makeInstallmentPlan",
      "outputs": [],
      "payable": false,
      "stateMutability": "nonpayable",
      "type": "function"
    },
    {
      "constant": false,
      "inputs": [
        {
          "internalType": "address",
          "name": "_token",
          "type": "address"
        },
        {
          "internalType": "address",
          "name": "_buyer",
          "type": "address"
        }
      ],
      "name": "paybackInstallment",
      "outputs": [],
      "payable": false,
      "stateMutability": "nonpayable",
      "type": "function"
    },
    {
      "constant": false,
      "inputs": [
        {
          "internalType": "address",
          "name": "_token",
          "type": "address"
        },
        {
          "internalType": "address",
          "name": "_buyer",
          "type": "address"
        },
        {
          "internalType": "uint256",
          "name": "paybackFee",
          "type": "uint256"
        }
      ],
      "name": "paybackLatefee",
      "outputs": [],
      "payable": false,
      "stateMutability": "nonpayable",
      "type": "function"
    },
    {
      "constant": false,
      "inputs": [
        {
          "internalType": "address",
          "name": "_buyer",
          "type": "address"
        }
      ],
      "name": "raiseLatefee",
      "outputs": [],
      "payable": false,
      "stateMutability": "nonpayable",
      "type": "function"
    },
    {
      "constant": true,
      "inputs": [
        {
          "internalType": "address",
          "name": "_buyer",
          "type": "address"
        }
      ],
      "name": "isBlacklist",
      "outputs": [
        {
          "internalType": "bool",
          "name": "",
          "type": "bool"
        }
      ],
      "payable": false,
      "stateMutability": "view",
      "type": "function"
    },
    {
      "constant": false,
      "inputs": [
        {
          "internalType": "uint256",
          "name": "_index",
          "type": "uint256"
        },
        {
          "internalType": "string",
          "name": "_name",
          "type": "string"
        },
        {
          "internalType": "uint256",
          "name": "_times",
          "type": "uint256"
        },
        {
          "internalType": "uint256",
          "name": "_sum",
          "type": "uint256"
        },
        {
          "internalType": "uint8",
          "name": "_rate",
          "type": "uint8"
        }
      ],
      "name": "editStatus",
      "outputs": [],
      "payable": false,
      "stateMutability": "nonpayable",
      "type": "function"
    },
    {
      "constant": false,
      "inputs": [
        {
          "internalType": "address",
          "name": "_member",
          "type": "address"
        },
        {
          "internalType": "uint256",
          "name": "_value",
          "type": "uint256"
        }
      ],
      "name": "updateHistory",
      "outputs": [],
      "payable": false,
      "stateMutability": "nonpayable",
      "type": "function"
    },
    {
      "constant": true,
      "inputs": [
        {
          "internalType": "address",
          "name": "_member",
          "type": "address"
        }
      ],
      "name": "getCashbackRate",
      "outputs": [
        {
          "internalType": "uint8",
          "name": "rate",
          "type": "uint8"
        }
      ],
      "payable": false,
      "stateMutability": "view",
      "type": "function"
    }
  ],
  "bytecode": "0x60806040523480156200001157600080fd5b506040516200282e3803806200282e833981810160405260208110156200003757600080fd5b810190808051906020019092919050505080806000806101000a81548173ffffffffffffffffffffffffffffffffffffffff021916908373ffffffffffffffffffffffffffffffffffffffff160217905550506040518060a001604052806040518060400160405280600481526020017f476f6c640000000000000000000000000000000000000000000000000000000081525081526020016001815260200160018152602001600160ff168152602001600160ff168152506003600060038110620000ff57fe5b6004020160008201518160000190805190602001906200012192919062000364565b50602082015181600101556040820151816002015560608201518160030160006101000a81548160ff021916908360ff16021790555060808201518160030160016101000a81548160ff021916908360ff1602179055509050506040518060a001604052806040518060400160405280600681526020017f53696c766572000000000000000000000000000000000000000000000000000081525081526020016001815260200160018152602001600160ff168152602001600160ff168152506003600160038110620001f057fe5b6004020160008201518160000190805190602001906200021292919062000364565b50602082015181600101556040820151816002015560608201518160030160006101000a81548160ff021916908360ff16021790555060808201518160030160016101000a81548160ff021916908360ff1602179055509050506040518060a001604052806040518060400160405280600681526020017f42726f6e7a65000000000000000000000000000000000000000000000000000081525081526020016001815260200160018152602001600160ff168152602001600160ff168152506003600260038110620002e157fe5b6004020160008201518160000190805190602001906200030392919062000364565b50602082015181600101556040820151816002015560608201518160030160006101000a81548160ff021916908360ff16021790555060808201518160030160016101000a81548160ff021916908360ff1602179055509050505062000413565b828054600181600116156101000203166002900490600052602060002090601f016020900481019282601f10620003a757805160ff1916838001178555620003d8565b82800160010185558215620003d8579182015b82811115620003d7578251825591602001919060010190620003ba565b5b509050620003e79190620003eb565b5090565b6200041091905b808211156200040c576000816000905550600101620003f2565b5090565b90565b61240b80620004236000396000f3fe608060405234801561001057600080fd5b50600436106101215760003560e01c80636818a316116100ad5780638da5cb5b116100715780638da5cb5b146106fb578063d483728b14610745578063e851857c146109b2578063f2fde38b14610a2a578063f92d6eb114610a6e57610121565b80636818a31614610496578063777aff7d146104fa5780637ab749231461054857806384bcb9bd146105b657806386203bf71461061557610121565b80633c014858116100f45780633c0148581461029057806340d5605a146102d4578063421f80951461031e57806342d21ef7146103835780634d5f9f5f1461045257610121565b806318ffdf9f146101265780631b044cac1461018c578063333e99db146101d6578063390c587414610232575b600080fd5b6101686004803603602081101561013c57600080fd5b81019080803573ffffffffffffffffffffffffffffffffffffffff169060200190929190505050610ab2565b60405180848152602001838152602001828152602001935050505060405180910390f35b610194610adc565b604051808273ffffffffffffffffffffffffffffffffffffffff1673ffffffffffffffffffffffffffffffffffffffff16815260200191505060405180910390f35b610218600480360360208110156101ec57600080fd5b81019080803573ffffffffffffffffffffffffffffffffffffffff169060200190929190505050610b02565b604051808215151515815260200191505060405180910390f35b6102746004803603602081101561024857600080fd5b81019080803573ffffffffffffffffffffffffffffffffffffffff169060200190929190505050610bb4565b604051808260ff1660ff16815260200191505060405180910390f35b6102d2600480360360208110156102a657600080fd5b81019080803573ffffffffffffffffffffffffffffffffffffffff169060200190929190505050610c21565b005b6102dc610e2b565b604051808273ffffffffffffffffffffffffffffffffffffffff1673ffffffffffffffffffffffffffffffffffffffff16815260200191505060405180910390f35b6103816004803603608081101561033457600080fd5b81019080803573ffffffffffffffffffffffffffffffffffffffff16906020019092919080359060200190929190803560ff16906020019092919080359060200190929190505050610e51565b005b6103af6004803603602081101561039957600080fd5b8101908080359060200190929190505050610fbb565b60405180806020018681526020018581526020018460ff1660ff1681526020018360ff1660ff168152602001828103825287818151815260200191508051906020019080838360005b838110156104135780820151818401526020810190506103f8565b50505050905090810190601f1680156104405780820380516001836020036101000a031916815260200191505b50965050505050505060405180910390f35b6104946004803603602081101561046857600080fd5b81019080803573ffffffffffffffffffffffffffffffffffffffff1690602001909291905050506110a6565b005b6104f8600480360360408110156104ac57600080fd5b81019080803573ffffffffffffffffffffffffffffffffffffffff169060200190929190803573ffffffffffffffffffffffffffffffffffffffff169060200190929190505050611143565b005b6105466004803603604081101561051057600080fd5b81019080803573ffffffffffffffffffffffffffffffffffffffff16906020019092919080359060200190929190505050611630565b005b6105b46004803603606081101561055e57600080fd5b81019080803573ffffffffffffffffffffffffffffffffffffffff169060200190929190803573ffffffffffffffffffffffffffffffffffffffff1690602001909291908035906020019092919050505061188e565b005b6105f8600480360360208110156105cc57600080fd5b81019080803573ffffffffffffffffffffffffffffffffffffffff169060200190929190505050611bce565b604051808381526020018281526020019250505060405180910390f35b6106f9600480360360a081101561062b57600080fd5b81019080803590602001909291908035906020019064010000000081111561065257600080fd5b82018360208201111561066457600080fd5b8035906020019184600183028401116401000000008311171561068657600080fd5b91908080601f016020809104026020016040519081016040528093929190818152602001838380828437600081840152601f19601f8201169050808301925050505050505091929192908035906020019092919080359060200190929190803560ff169060200190929190505050611bf2565b005b610703611ce4565b604051808273ffffffffffffffffffffffffffffffffffffffff1673ffffffffffffffffffffffffffffffffffffffff16815260200191505060405180910390f35b6107876004803603602081101561075b57600080fd5b81019080803573ffffffffffffffffffffffffffffffffffffffff169060200190929190505050611d09565b60405180806020018060200180602001806020018060200186810386528b818151815260200191508051906020019080838360005b838110156107d75780820151818401526020810190506107bc565b50505050905090810190601f1680156108045780820380516001836020036101000a031916815260200191505b5086810385528a818151815260200191508051906020019080838360005b8381101561083d578082015181840152602081019050610822565b50505050905090810190601f16801561086a5780820380516001836020036101000a031916815260200191505b50868103845289818151815260200191508051906020019080838360005b838110156108a3578082015181840152602081019050610888565b50505050905090810190601f1680156108d05780820380516001836020036101000a031916815260200191505b50868103835288818151815260200191508051906020019080838360005b838110156109095780820151818401526020810190506108ee565b50505050905090810190601f1680156109365780820380516001836020036101000a031916815260200191505b50868103825287818151815260200191508051906020019080838360005b8381101561096f578082015181840152602081019050610954565b50505050905090810190601f16801561099c5780820380516001836020036101000a031916815260200191505b509a505050505050505050505060405180910390f35b6109f4600480360360208110156109c857600080fd5b81019080803573ffffffffffffffffffffffffffffffffffffffff169060200190929190505050612037565b60405180868152602001858152602001848152602001838152602001821515151581526020019550505050505060405180910390f35b610a6c60048036036020811015610a4057600080fd5b81019080803573ffffffffffffffffffffffffffffffffffffffff16906020019092919050505061207a565b005b610ab060048036036020811015610a8457600080fd5b81019080803573ffffffffffffffffffffffffffffffffffffffff1690602001909291905050506121f5565b005b600f6020528060005260406000206000915090508060000154908060010154908060020154905083565b600160009054906101000a900473ffffffffffffffffffffffffffffffffffffffff1681565b60008060009054906101000a900473ffffffffffffffffffffffffffffffffffffffff1673ffffffffffffffffffffffffffffffffffffffff163373ffffffffffffffffffffffffffffffffffffffff1614610b5d57600080fd5b601160008373ffffffffffffffffffffffffffffffffffffffff1673ffffffffffffffffffffffffffffffffffffffff16815260200190815260200160002060040160009054906101000a900460ff169050919050565b60006003600f60008473ffffffffffffffffffffffffffffffffffffffff1673ffffffffffffffffffffffffffffffffffffffff1681526020019081526020016000206002015460038110610c0557fe5b6004020160030160009054906101000a900460ff169050919050565b6000809054906101000a900473ffffffffffffffffffffffffffffffffffffffff1673ffffffffffffffffffffffffffffffffffffffff163373ffffffffffffffffffffffffffffffffffffffff1614610c7a57600080fd5b6000610ce66103e8610cd86003601260008773ffffffffffffffffffffffffffffffffffffffff1673ffffffffffffffffffffffffffffffffffffffff1681526020019081526020016000206000015461229290919063ffffffff16565b6122cc90919063ffffffff16565b90506000620151809050610d4582601260008673ffffffffffffffffffffffffffffffffffffffff1673ffffffffffffffffffffffffffffffffffffffff168152602001908152602001600020600001546122f290919063ffffffff16565b601260008573ffffffffffffffffffffffffffffffffffffffff1673ffffffffffffffffffffffffffffffffffffffff16815260200190815260200160002060000181905550610de081601260008673ffffffffffffffffffffffffffffffffffffffff1673ffffffffffffffffffffffffffffffffffffffff168152602001908152602001600020600101546122f290919063ffffffff16565b601260008573ffffffffffffffffffffffffffffffffffffffff1673ffffffffffffffffffffffffffffffffffffffff16815260200190815260200160002060010181905550505050565b600260009054906101000a900473ffffffffffffffffffffffffffffffffffffffff1681565b6000809054906101000a900473ffffffffffffffffffffffffffffffffffffffff1673ffffffffffffffffffffffffffffffffffffffff163373ffffffffffffffffffffffffffffffffffffffff1614610eaa57600080fd5b6000601160008673ffffffffffffffffffffffffffffffffffffffff1673ffffffffffffffffffffffffffffffffffffffff1681526020019081526020016000206000015411610ef957600080fd5b6040518060a001604052808481526020018360ff16815260200182815260200162278d004201815260200160001515815250601160008673ffffffffffffffffffffffffffffffffffffffff1673ffffffffffffffffffffffffffffffffffffffff1681526020019081526020016000206000820151816000015560208201518160010155604082015181600201556060820151816003015560808201518160040160006101000a81548160ff02191690831515021790555090505050505050565b60038160038110610fc857fe5b60040201600091509050806000018054600181600116156101000203166002900480601f01602080910402602001604051908101604052809291908181526020018280546001816001161561010002031660029004801561106a5780601f1061103f5761010080835404028352916020019161106a565b820191906000526020600020905b81548152906001019060200180831161104d57829003601f168201915b5050505050908060010154908060020154908060030160009054906101000a900460ff16908060030160019054906101000a900460ff16905085565b6000809054906101000a900473ffffffffffffffffffffffffffffffffffffffff1673ffffffffffffffffffffffffffffffffffffffff163373ffffffffffffffffffffffffffffffffffffffff16146110ff57600080fd5b80600260006101000a81548173ffffffffffffffffffffffffffffffffffffffff021916908373ffffffffffffffffffffffffffffffffffffffff16021790555050565b6000809054906101000a900473ffffffffffffffffffffffffffffffffffffffff1673ffffffffffffffffffffffffffffffffffffffff163373ffffffffffffffffffffffffffffffffffffffff161461119c57600080fd5b60001515601160008373ffffffffffffffffffffffffffffffffffffffff1673ffffffffffffffffffffffffffffffffffffffff16815260200190815260200160002060040160009054906101000a900460ff161515146111fc57600080fd5b6000601160008373ffffffffffffffffffffffffffffffffffffffff1673ffffffffffffffffffffffffffffffffffffffff168152602001908152602001600020600201549050600062278d00905081600160009054906101000a900473ffffffffffffffffffffffffffffffffffffffff1673ffffffffffffffffffffffffffffffffffffffff1663f7888aec86866040518363ffffffff1660e01b8152600401808373ffffffffffffffffffffffffffffffffffffffff1673ffffffffffffffffffffffffffffffffffffffff1681526020018273ffffffffffffffffffffffffffffffffffffffff1673ffffffffffffffffffffffffffffffffffffffff1681526020019250505060206040518083038186803b15801561131f57600080fd5b505afa158015611333573d6000803e3d6000fd5b505050506040513d602081101561134957600080fd5b81019080805190602001909291905050501061149a576113b482601160008673ffffffffffffffffffffffffffffffffffffffff1673ffffffffffffffffffffffffffffffffffffffff1681526020019081526020016000206000015461231190919063ffffffff16565b601160008573ffffffffffffffffffffffffffffffffffffffff1673ffffffffffffffffffffffffffffffffffffffff1681526020019081526020016000206000018190555061144f81601160008673ffffffffffffffffffffffffffffffffffffffff1673ffffffffffffffffffffffffffffffffffffffff168152602001908152602001600020600301546122f290919063ffffffff16565b601160008573ffffffffffffffffffffffffffffffffffffffff1673ffffffffffffffffffffffffffffffffffffffff1681526020019081526020016000206003018190555061162a565b6001601160008573ffffffffffffffffffffffffffffffffffffffff1673ffffffffffffffffffffffffffffffffffffffff16815260200190815260200160002060040160006101000a81548160ff02191690831515021790555060006115616103e86115536003601160008973ffffffffffffffffffffffffffffffffffffffff1673ffffffffffffffffffffffffffffffffffffffff1681526020019081526020016000206000015461229290919063ffffffff16565b6122cc90919063ffffffff16565b905062015180915060405180604001604052808281526020016115cf84601160008973ffffffffffffffffffffffffffffffffffffffff1673ffffffffffffffffffffffffffffffffffffffff168152602001908152602001600020600301546122f290919063ffffffff16565b815250601260008673ffffffffffffffffffffffffffffffffffffffff1673ffffffffffffffffffffffffffffffffffffffff1681526020019081526020016000206000820151816000015560208201518160010155905050505b50505050565b6000809054906101000a900473ffffffffffffffffffffffffffffffffffffffff1673ffffffffffffffffffffffffffffffffffffffff163373ffffffffffffffffffffffffffffffffffffffff161461168957600080fd5b6001600f60008473ffffffffffffffffffffffffffffffffffffffff1673ffffffffffffffffffffffffffffffffffffffff1681526020019081526020016000206000016000828254019250508190555080600f60008473ffffffffffffffffffffffffffffffffffffffff1673ffffffffffffffffffffffffffffffffffffffff1681526020019081526020016000206001016000828254019250508190555060008060008090505b6003811015611840576003816003811061174957fe5b6004020160010154600f60008773ffffffffffffffffffffffffffffffffffffffff1673ffffffffffffffffffffffffffffffffffffffff16815260200190815260200160002060000154101580156117f85750600381600381106117aa57fe5b6004020160020154600f60008773ffffffffffffffffffffffffffffffffffffffff1673ffffffffffffffffffffffffffffffffffffffff1681526020019081526020016000206001015410155b801561182a57506003816003811061180c57fe5b6004020160030160009054906101000a900460ff1660ff168260ff16105b15611833578092505b8080600101915050611733565b5081600f60008673ffffffffffffffffffffffffffffffffffffffff1673ffffffffffffffffffffffffffffffffffffffff1681526020019081526020016000206002018190555050505050565b8173ffffffffffffffffffffffffffffffffffffffff163373ffffffffffffffffffffffffffffffffffffffff16146118c657600080fd5b601160008373ffffffffffffffffffffffffffffffffffffffff1673ffffffffffffffffffffffffffffffffffffffff16815260200190815260200160002060040160009054906101000a900460ff1661191f57600080fd5b80600160009054906101000a900473ffffffffffffffffffffffffffffffffffffffff1673ffffffffffffffffffffffffffffffffffffffff1663f7888aec85856040518363ffffffff1660e01b8152600401808373ffffffffffffffffffffffffffffffffffffffff1673ffffffffffffffffffffffffffffffffffffffff1681526020018273ffffffffffffffffffffffffffffffffffffffff1673ffffffffffffffffffffffffffffffffffffffff1681526020019250505060206040518083038186803b1580156119f357600080fd5b505afa158015611a07573d6000803e3d6000fd5b505050506040513d6020811015611a1d57600080fd5b810190808051906020019092919050505010158015611a7e575080601260008473ffffffffffffffffffffffffffffffffffffffff1673ffffffffffffffffffffffffffffffffffffffff1681526020019081526020016000206000015410155b611a8757600080fd5b611adc81601260008573ffffffffffffffffffffffffffffffffffffffff1673ffffffffffffffffffffffffffffffffffffffff1681526020019081526020016000206000015461231190919063ffffffff16565b601260008473ffffffffffffffffffffffffffffffffffffffff1673ffffffffffffffffffffffffffffffffffffffff168152602001908152602001600020600001819055506000601260008473ffffffffffffffffffffffffffffffffffffffff1673ffffffffffffffffffffffffffffffffffffffff168152602001908152602001600020600001541415611bc9576000601160008473ffffffffffffffffffffffffffffffffffffffff1673ffffffffffffffffffffffffffffffffffffffff16815260200190815260200160002060040160006101000a81548160ff0219169083151502179055505b505050565b60126020528060005260406000206000915090508060000154908060010154905082565b6000809054906101000a900473ffffffffffffffffffffffffffffffffffffffff1673ffffffffffffffffffffffffffffffffffffffff163373ffffffffffffffffffffffffffffffffffffffff1614611c4b57600080fd5b6003851015611cdd578360038660038110611c6257fe5b600402016000019080519060200190611c7c929190612331565b508260038660038110611c8b57fe5b60040201600101819055508160038660038110611ca457fe5b60040201600201819055508060038660038110611cbd57fe5b6004020160030160006101000a81548160ff021916908360ff1602179055505b5050505050565b6000809054906101000a900473ffffffffffffffffffffffffffffffffffffffff1681565b6010602052806000526040600020600091509050806000018054600181600116156101000203166002900480601f016020809104026020016040519081016040528092919081815260200182805460018160011615610100020316600290048015611db55780601f10611d8a57610100808354040283529160200191611db5565b820191906000526020600020905b815481529060010190602001808311611d9857829003601f168201915b505050505090806001018054600181600116156101000203166002900480601f016020809104026020016040519081016040528092919081815260200182805460018160011615610100020316600290048015611e535780601f10611e2857610100808354040283529160200191611e53565b820191906000526020600020905b815481529060010190602001808311611e3657829003601f168201915b505050505090806002018054600181600116156101000203166002900480601f016020809104026020016040519081016040528092919081815260200182805460018160011615610100020316600290048015611ef15780601f10611ec657610100808354040283529160200191611ef1565b820191906000526020600020905b815481529060010190602001808311611ed457829003601f168201915b505050505090806003018054600181600116156101000203166002900480601f016020809104026020016040519081016040528092919081815260200182805460018160011615610100020316600290048015611f8f5780601f10611f6457610100808354040283529160200191611f8f565b820191906000526020600020905b815481529060010190602001808311611f7257829003601f168201915b505050505090806004018054600181600116156101000203166002900480601f01602080910402602001604051908101604052809291908181526020018280546001816001161561010002031660029004801561202d5780601f106120025761010080835404028352916020019161202d565b820191906000526020600020905b81548152906001019060200180831161201057829003601f168201915b5050505050905085565b60116020528060005260406000206000915090508060000154908060010154908060020154908060030154908060040160009054906101000a900460ff16905085565b6000809054906101000a900473ffffffffffffffffffffffffffffffffffffffff1673ffffffffffffffffffffffffffffffffffffffff163373ffffffffffffffffffffffffffffffffffffffff16146120d357600080fd5b60008060009054906101000a900473ffffffffffffffffffffffffffffffffffffffff169050816000806101000a81548173ffffffffffffffffffffffffffffffffffffffff021916908373ffffffffffffffffffffffffffffffffffffffff1602179055507f5c486528ec3e3f0ea91181cff8116f02bfa350e03b8b6f12e00765adbb5af85c816000809054906101000a900473ffffffffffffffffffffffffffffffffffffffff16604051808373ffffffffffffffffffffffffffffffffffffffff1673ffffffffffffffffffffffffffffffffffffffff1681526020018273ffffffffffffffffffffffffffffffffffffffff1673ffffffffffffffffffffffffffffffffffffffff1681526020019250505060405180910390a15050565b6000809054906101000a900473ffffffffffffffffffffffffffffffffffffffff1673ffffffffffffffffffffffffffffffffffffffff163373ffffffffffffffffffffffffffffffffffffffff161461224e57600080fd5b80600160006101000a81548173ffffffffffffffffffffffffffffffffffffffff021916908373ffffffffffffffffffffffffffffffffffffffff16021790555050565b6000808314156122a557600090506122c6565b60008284029050828482816122b657fe5b04146122c157600080fd5b809150505b92915050565b60008082116122da57600080fd5b60008284816122e557fe5b0490508091505092915050565b60008082840190508381101561230757600080fd5b8091505092915050565b60008282111561232057600080fd5b600082840390508091505092915050565b828054600181600116156101000203166002900490600052602060002090601f016020900481019282601f1061237257805160ff19168380011785556123a0565b828001600101855582156123a0579182015b8281111561239f578251825591602001919060010190612384565b5b5090506123ad91906123b1565b5090565b6123d391905b808211156123cf5760008160009055506001016123b7565b5090565b9056fea265627a7a723158207a10d7f7883e0b8edd4a5a6b7778d9fade53bf69ba436f9c336af807b97bffb064736f6c63430005100032",
  "source": "pragma solidity ^0.5.0;\n\nimport \"./Owned.sol\";\nimport \"./Token.sol\";\nimport \"./Bnpl.sol\";\nimport \"./BokkyPooBahsDateTimeContract.sol\";\nimport \"openzeppelin-solidity/contracts/math/SafeMath.sol\";\n\ncontract Members is Owned {\n    using SafeMath for uint;\n\n\n    //Token public token; // ( ) \n    Bnpl public bnpl;  // bnpl \n    BokkyPooBahsDateTimeContract public datetime;\n\n    MemberStatus[3] public status; //   \n\n    mapping(address => History) public bnplHistory; //   \n\n    mapping(address => MemberInfo) public MemberInfos; //  \n    \n    mapping(address => Installment) public memberInstallments; //   \n\n    mapping(address => Latefee) public memberLatefees; \n\n    //  \n    struct MemberInfo {\n        string name;\n        string socialNumber;\n        string phoneNumber;\n        string bankName;\n        string accountNumber;\n        //bool blacklist;\n    }\n\n    //  \n    struct Installment {\n        //bool \n        uint256 remainCost;     //    \n        uint256 remainCnt;      //    \n        uint256 paybackCost;    // 4  \n        uint256 nextDeadline;   //    \n        bool    isLate;         // \n    }\n\n    struct Latefee {\n        uint256 remainFee;     //   \n        uint256 nextDeadline;   //   \n    }\n\n\n\n    //   \n    struct MemberStatus {\n        string name; // \n        uint256 times; //   \n        uint256 sum; //   \n        uint8 rate; // \n        uint8 installmentCount; //   \n    }\n    //   \n    struct History {\n        uint256 times; //  \n        uint256 sum; //  \n        uint256 statusIndex; //  \n    }\n \n    constructor(address _owner) Owned(_owner) public {\n        //\n        status[0] = MemberStatus({\n                name: \"Gold\",\n                times: 1,\n                sum: 1,\n                rate: 1,\n                installmentCount: 1\n        });\n        status[1] = MemberStatus({\n                name: \"Silver\",\n                times: 1,\n                sum: 1,\n                rate: 1,\n                installmentCount: 1\n        });\n        status[2] = MemberStatus({\n                name: \"Bronze\",\n                times: 1,\n                sum: 1,\n                rate: 1,\n                installmentCount: 1\n        });\n\n        //datetime = BokkyPooBahsDateTimeContract(_datetime);\n    }\n\n    //   \n    function setBnpl(address _bnpl) public onlyOwner {\n        bnpl = Bnpl(_bnpl);\n    }\n    \n    function setDatetime(address _datetime) public onlyOwner {\n        datetime = BokkyPooBahsDateTimeContract(_datetime);\n    }\n\n    //    \n    //modifier onlyToken() { require(msg.sender == token); _; }\n     \n    // //   \n    // function setToken(address _addr) public onlyOwner {\n    //     //  token = _addr;\n    // }\n\n    function makeInstallmentPlan(\n        address _buyer, \n        uint256 _remainCost, \n        uint8 _remainCnt,\n        uint256 _paybackCost\n    ) public onlyOwner {\n        //      .\n        require(memberInstallments[_buyer].remainCost > 0);\n\n        // memberInstallments[_buyer].remainCost = _remainCost;\n        // memberInstallments[_buyer].remainPeriod = _remainPeriod;\n        // memberInstallments[_buyer].paybackCost = _paybackCost;\n\n        memberInstallments[_buyer] = Installment({\n            remainCost : _remainCost,     //    \n            remainCnt : _remainCnt,   //    \n            paybackCost : _paybackCost,    // 4  \n            nextDeadline : now + 30 days,   //    \n            isLate : false         // \n        });\n\n    }\n     \n    function paybackInstallment(address _token, address _buyer) public onlyOwner {\n        // nextDeadline             \n        // require();        \n\n        //       .\n        require(memberInstallments[_buyer].isLate == false);\n\n        uint256 paycost = memberInstallments[_buyer].paybackCost;\n        uint256 term = 30 days;\n\n        //     .\n        if (bnpl.balanceOf(_token,_buyer) >= paycost) {\n            memberInstallments[_buyer].remainCost = memberInstallments[_buyer].remainCost.sub(paycost);\n            memberInstallments[_buyer].nextDeadline = memberInstallments[_buyer].nextDeadline.add(term);\n        }\n        else { //    .\n            memberInstallments[_buyer].isLate = true;\n\n            //    0.03%  \n            uint256 initfee = memberInstallments[_buyer].remainCost.mul(3).div(1000);\n            term = 1 days;\n\n            memberLatefees[_buyer] = Latefee({\n                remainFee : initfee,\n                nextDeadline : memberInstallments[_buyer].nextDeadline.add(term) \n            });\n        }\n    }\n\n    function paybackLatefee(address _token, address _buyer, uint256 paybackFee) public {\n        //      \n\n        //   buyer  \n        require(msg.sender == _buyer);\n\n        //    \n        require(memberInstallments[_buyer].isLate);\n        //    .\n        require(bnpl.balanceOf(_token,_buyer) >= paybackFee \n            && memberLatefees[_buyer].remainFee >= paybackFee);\n\n        memberLatefees[_buyer].remainFee = memberLatefees[_buyer].remainFee.sub(paybackFee);\n\n        //    \n        if(memberLatefees[_buyer].remainFee == 0) {\n            memberInstallments[_buyer].isLate = false;\n        }\n    }\n\n    function raiseLatefee(address _buyer) public onlyOwner {\n        //     nextdeadline     .\n\n        uint256 addFee = memberLatefees[_buyer].remainFee.mul(3).div(1000);\n        uint256 term = 1 days;\n\n        memberLatefees[_buyer].remainFee = memberLatefees[_buyer].remainFee.add(addFee);\n        memberLatefees[_buyer].nextDeadline = memberLatefees[_buyer].nextDeadline.add(term);\n    }\n\n    function isBlacklist(address _buyer) public view onlyOwner returns(bool) {\n        return memberInstallments[_buyer].isLate;\n    }\n\n    // //   \n    // function pushStatus(string memory _name, uint256 _times, uint256 _sum, uint8 _rate) public onlyOwner {\n    //     status.push(MemberStatus({\n    //         name: _name,\n    //         times: _times,\n    //         sum: _sum,\n    //         rate: _rate\n    //     }));\n    // }\n \n    //    \n    function editStatus(uint256 _index, string memory _name, uint256 _times, uint256 _sum, uint8 _rate) public onlyOwner {\n        if (_index < status.length) {\n            status[_index].name = _name;\n            status[_index].times = _times;\n            status[_index].sum = _sum;\n            status[_index].rate = _rate;\n        }\n    }\n     \n    //   \n    function updateHistory(address _member, uint256 _value) public onlyOwner {\n        bnplHistory[_member].times += 1;\n        bnplHistory[_member].sum += _value;\n        //    ( )\n        uint256 index;\n        uint8 tmprate;\n        for (uint i = 0; i < status.length; i++) {\n            //   ,           \n            if (bnplHistory[_member].times >= status[i].times &&\n                bnplHistory[_member].sum >= status[i].sum &&\n                tmprate < status[i].rate) {\n                index = i;\n            }\n        }\n        bnplHistory[_member].statusIndex = index;\n    }\n\n    //   (    )\n    function getCashbackRate(address _member) public view returns (uint8 rate) {\n        rate = status[bnplHistory[_member].statusIndex].rate;\n    }\n}",
  "sourcePath": "/Users/mg/bnpl-dapp/src/contracts/Members.sol",
  "compiler": {
    "name": "solc",
    "version": "0.5.16+commit.9c3226ce.Emscripten.clang"
  },
  "schemaVersion": "3.3.4",
  "updatedAt": "2021-06-19T04:34:04.958Z",
  "devdoc": {
    "methods": {}
  },
  "userdoc": {
    "methods": {}
  }
}