{
  "contractName": "Members",
  "abi": [
    {
      "anonymous": false,
      "inputs": [
        {
          "indexed": false,
          "internalType": "address",
          "name": "beforeAddress",
          "type": "address"
        },
        {
          "indexed": false,
          "internalType": "address",
          "name": "afterAddress",
          "type": "address"
        }
      ],
      "name": "TransferOwnership",
      "type": "event"
    },
    {
      "constant": true,
      "inputs": [],
      "name": "owner",
      "outputs": [
        {
          "internalType": "address",
          "name": "",
          "type": "address"
        }
      ],
      "payable": false,
      "stateMutability": "view",
      "type": "function"
    },
    {
      "constant": true,
      "inputs": [
        {
          "internalType": "uint256",
          "name": "",
          "type": "uint256"
        }
      ],
      "name": "status",
      "outputs": [
        {
          "internalType": "string",
          "name": "name",
          "type": "string"
        },
        {
          "internalType": "uint256",
          "name": "times",
          "type": "uint256"
        },
        {
          "internalType": "uint256",
          "name": "sum",
          "type": "uint256"
        },
        {
          "internalType": "uint8",
          "name": "rate",
          "type": "uint8"
        }
      ],
      "payable": false,
      "stateMutability": "view",
      "type": "function"
    },
    {
      "constant": true,
      "inputs": [],
      "name": "token",
      "outputs": [
        {
          "internalType": "address",
          "name": "",
          "type": "address"
        }
      ],
      "payable": false,
      "stateMutability": "view",
      "type": "function"
    },
    {
      "constant": true,
      "inputs": [
        {
          "internalType": "address",
          "name": "",
          "type": "address"
        }
      ],
      "name": "tradingHistory",
      "outputs": [
        {
          "internalType": "uint256",
          "name": "times",
          "type": "uint256"
        },
        {
          "internalType": "uint256",
          "name": "sum",
          "type": "uint256"
        },
        {
          "internalType": "uint256",
          "name": "statusIndex",
          "type": "uint256"
        }
      ],
      "payable": false,
      "stateMutability": "view",
      "type": "function"
    },
    {
      "constant": false,
      "inputs": [
        {
          "internalType": "address",
          "name": "_new",
          "type": "address"
        }
      ],
      "name": "transferOwnership",
      "outputs": [],
      "payable": false,
      "stateMutability": "nonpayable",
      "type": "function"
    },
    {
      "constant": false,
      "inputs": [
        {
          "internalType": "address",
          "name": "_addr",
          "type": "address"
        }
      ],
      "name": "setToken",
      "outputs": [],
      "payable": false,
      "stateMutability": "nonpayable",
      "type": "function"
    },
    {
      "constant": false,
      "inputs": [
        {
          "internalType": "string",
          "name": "_name",
          "type": "string"
        },
        {
          "internalType": "uint256",
          "name": "_times",
          "type": "uint256"
        },
        {
          "internalType": "uint256",
          "name": "_sum",
          "type": "uint256"
        },
        {
          "internalType": "uint8",
          "name": "_rate",
          "type": "uint8"
        }
      ],
      "name": "pushStatus",
      "outputs": [],
      "payable": false,
      "stateMutability": "nonpayable",
      "type": "function"
    },
    {
      "constant": false,
      "inputs": [
        {
          "internalType": "uint256",
          "name": "_index",
          "type": "uint256"
        },
        {
          "internalType": "string",
          "name": "_name",
          "type": "string"
        },
        {
          "internalType": "uint256",
          "name": "_times",
          "type": "uint256"
        },
        {
          "internalType": "uint256",
          "name": "_sum",
          "type": "uint256"
        },
        {
          "internalType": "uint8",
          "name": "_rate",
          "type": "uint8"
        }
      ],
      "name": "editStatus",
      "outputs": [],
      "payable": false,
      "stateMutability": "nonpayable",
      "type": "function"
    },
    {
      "constant": false,
      "inputs": [
        {
          "internalType": "address",
          "name": "_member",
          "type": "address"
        },
        {
          "internalType": "uint256",
          "name": "_value",
          "type": "uint256"
        }
      ],
      "name": "updateHistory",
      "outputs": [],
      "payable": false,
      "stateMutability": "nonpayable",
      "type": "function"
    },
    {
      "constant": true,
      "inputs": [
        {
          "internalType": "address",
          "name": "_member",
          "type": "address"
        }
      ],
      "name": "getCashbackRate",
      "outputs": [
        {
          "internalType": "uint8",
          "name": "rate",
          "type": "uint8"
        }
      ],
      "payable": false,
      "stateMutability": "view",
      "type": "function"
    }
  ],
  "bytecode": "0x6080604052336000806101000a81548173ffffffffffffffffffffffffffffffffffffffff021916908373ffffffffffffffffffffffffffffffffffffffff160217905550610f39806100536000396000f3fe608060405234801561001057600080fd5b506004361061009e5760003560e01c80638da5cb5b116100665780638da5cb5b1461033b57806394c3ab5614610385578063e2ceeb33146103eb578063f2fde38b146104c7578063fc0c546a1461050b5761009e565b8063144fa6d7146100a3578063390c5874146100e757806342d21ef714610145578063777aff7d1461020757806386203bf714610255575b600080fd5b6100e5600480360360208110156100b957600080fd5b81019080803573ffffffffffffffffffffffffffffffffffffffff169060200190929190505050610555565b005b610129600480360360208110156100fd57600080fd5b81019080803573ffffffffffffffffffffffffffffffffffffffff1690602001909291905050506105f2565b604051808260ff1660ff16815260200191505060405180910390f35b6101716004803603602081101561015b57600080fd5b8101908080359060200190929190505050610669565b60405180806020018581526020018481526020018360ff1660ff168152602001828103825286818151815260200191508051906020019080838360005b838110156101c95780820151818401526020810190506101ae565b50505050905090810190601f1680156101f65780820380516001836020036101000a031916815260200191505b509550505050505060405180910390f35b6102536004803603604081101561021d57600080fd5b81019080803573ffffffffffffffffffffffffffffffffffffffff1690602001909291908035906020019092919050505061074b565b005b610339600480360360a081101561026b57600080fd5b81019080803590602001909291908035906020019064010000000081111561029257600080fd5b8201836020820111156102a457600080fd5b803590602001918460018302840111640100000000831117156102c657600080fd5b91908080601f016020809104026020016040519081016040528093929190818152602001838380828437600081840152601f19601f8201169050808301925050505050505091929192908035906020019092919080359060200190929190803560ff1690602001909291905050506109cc565b005b610343610aea565b604051808273ffffffffffffffffffffffffffffffffffffffff1673ffffffffffffffffffffffffffffffffffffffff16815260200191505060405180910390f35b6103c76004803603602081101561039b57600080fd5b81019080803573ffffffffffffffffffffffffffffffffffffffff169060200190929190505050610b0f565b60405180848152602001838152602001828152602001935050505060405180910390f35b6104c56004803603608081101561040157600080fd5b810190808035906020019064010000000081111561041e57600080fd5b82018360208201111561043057600080fd5b8035906020019184600183028401116401000000008311171561045257600080fd5b91908080601f016020809104026020016040519081016040528093929190818152602001838380828437600081840152601f19601f8201169050808301925050505050505091929192908035906020019092919080359060200190929190803560ff169060200190929190505050610b39565b005b610509600480360360208110156104dd57600080fd5b81019080803573ffffffffffffffffffffffffffffffffffffffff169060200190929190505050610c3e565b005b610513610db9565b604051808273ffffffffffffffffffffffffffffffffffffffff1673ffffffffffffffffffffffffffffffffffffffff16815260200191505060405180910390f35b6000809054906101000a900473ffffffffffffffffffffffffffffffffffffffff1673ffffffffffffffffffffffffffffffffffffffff163373ffffffffffffffffffffffffffffffffffffffff16146105ae57600080fd5b80600160006101000a81548173ffffffffffffffffffffffffffffffffffffffff021916908373ffffffffffffffffffffffffffffffffffffffff16021790555050565b60006002600360008473ffffffffffffffffffffffffffffffffffffffff1673ffffffffffffffffffffffffffffffffffffffff168152602001908152602001600020600201548154811061064357fe5b906000526020600020906004020160030160009054906101000a900460ff169050919050565b6002818154811061067657fe5b9060005260206000209060040201600091509050806000018054600181600116156101000203166002900480601f0160208091040260200160405190810160405280929190818152602001828054600181600116156101000203166002900480156107225780601f106106f757610100808354040283529160200191610722565b820191906000526020600020905b81548152906001019060200180831161070557829003601f168201915b5050505050908060010154908060020154908060030160009054906101000a900460ff16905084565b600160009054906101000a900473ffffffffffffffffffffffffffffffffffffffff1673ffffffffffffffffffffffffffffffffffffffff163373ffffffffffffffffffffffffffffffffffffffff16146107a557600080fd5b6001600360008473ffffffffffffffffffffffffffffffffffffffff1673ffffffffffffffffffffffffffffffffffffffff1681526020019081526020016000206000016000828254019250508190555080600360008473ffffffffffffffffffffffffffffffffffffffff1673ffffffffffffffffffffffffffffffffffffffff1681526020019081526020016000206001016000828254019250508190555060008060008090505b60028054905081101561097e576002818154811061086957fe5b906000526020600020906004020160010154600360008773ffffffffffffffffffffffffffffffffffffffff1673ffffffffffffffffffffffffffffffffffffffff168152602001908152602001600020600001541015801561092c5750600281815481106108d457fe5b906000526020600020906004020160020154600360008773ffffffffffffffffffffffffffffffffffffffff1673ffffffffffffffffffffffffffffffffffffffff1681526020019081526020016000206001015410155b801561096857506002818154811061094057fe5b906000526020600020906004020160030160009054906101000a900460ff1660ff168260ff16105b15610971578092505b808060010191505061084f565b5081600360008673ffffffffffffffffffffffffffffffffffffffff1673ffffffffffffffffffffffffffffffffffffffff1681526020019081526020016000206002018190555050505050565b6000809054906101000a900473ffffffffffffffffffffffffffffffffffffffff1673ffffffffffffffffffffffffffffffffffffffff163373ffffffffffffffffffffffffffffffffffffffff1614610a2557600080fd5b600280549050851015610ae3578360028681548110610a4057fe5b90600052602060002090600402016000019080519060200190610a64929190610ddf565b508260028681548110610a7357fe5b9060005260206000209060040201600101819055508160028681548110610a9657fe5b9060005260206000209060040201600201819055508060028681548110610ab957fe5b906000526020600020906004020160030160006101000a81548160ff021916908360ff1602179055505b5050505050565b6000809054906101000a900473ffffffffffffffffffffffffffffffffffffffff1681565b60036020528060005260406000206000915090508060000154908060010154908060020154905083565b6000809054906101000a900473ffffffffffffffffffffffffffffffffffffffff1673ffffffffffffffffffffffffffffffffffffffff163373ffffffffffffffffffffffffffffffffffffffff1614610b9257600080fd5b600260405180608001604052808681526020018581526020018481526020018360ff16815250908060018154018082558091505090600182039060005260206000209060040201600090919290919091506000820151816000019080519060200190610bff929190610e5f565b50602082015181600101556040820151816002015560608201518160030160006101000a81548160ff021916908360ff16021790555050505050505050565b6000809054906101000a900473ffffffffffffffffffffffffffffffffffffffff1673ffffffffffffffffffffffffffffffffffffffff163373ffffffffffffffffffffffffffffffffffffffff1614610c9757600080fd5b60008060009054906101000a900473ffffffffffffffffffffffffffffffffffffffff169050816000806101000a81548173ffffffffffffffffffffffffffffffffffffffff021916908373ffffffffffffffffffffffffffffffffffffffff1602179055507f5c486528ec3e3f0ea91181cff8116f02bfa350e03b8b6f12e00765adbb5af85c816000809054906101000a900473ffffffffffffffffffffffffffffffffffffffff16604051808373ffffffffffffffffffffffffffffffffffffffff1673ffffffffffffffffffffffffffffffffffffffff1681526020018273ffffffffffffffffffffffffffffffffffffffff1673ffffffffffffffffffffffffffffffffffffffff1681526020019250505060405180910390a15050565b600160009054906101000a900473ffffffffffffffffffffffffffffffffffffffff1681565b828054600181600116156101000203166002900490600052602060002090601f016020900481019282601f10610e2057805160ff1916838001178555610e4e565b82800160010185558215610e4e579182015b82811115610e4d578251825591602001919060010190610e32565b5b509050610e5b9190610edf565b5090565b828054600181600116156101000203166002900490600052602060002090601f016020900481019282601f10610ea057805160ff1916838001178555610ece565b82800160010185558215610ece579182015b82811115610ecd578251825591602001919060010190610eb2565b5b509050610edb9190610edf565b5090565b610f0191905b80821115610efd576000816000905550600101610ee5565b5090565b9056fea265627a7a72315820d3e758132956d089f38d38b41030600c17b89c46fe8dc8818c1f438a8ceaacd964736f6c63430005100032",
  "source": "pragma solidity ^0.5.0;\n\nimport \"./Owned.sol\";\n\ncontract Members is Owned {\n    address public token; // 토큰(가상 화폐) 주소\n    MemberStatus[] public status; // 회원 등급 배열\n    mapping(address => History) public tradingHistory; // 회원별 거래 이력\n     \n    // 회원 등급용 구조체\n    struct MemberStatus {\n        string name; // 등급명\n        uint256 times; // 최저 거래 회수\n        uint256 sum; // 최저 거래 금액\n        uint8 rate; // 한도\n    }\n    // 거래 이력용 구조체\n    struct History {\n        uint256 times; // 거래 회수\n        uint256 sum; // 거래 금액\n        uint256 statusIndex; // 등급 인덱스\n    }\n \n    // 토큰 한정 메서드용 수식자\n    modifier onlyToken() { require(msg.sender == token); _; }\n     \n    // 토큰 주소 설정\n    function setToken(address _addr) public onlyOwner {\n        token = _addr;\n    }\n     \n    // 회원 등급 추가\n    function pushStatus(string memory _name, uint256 _times, uint256 _sum, uint8 _rate) public onlyOwner {\n        status.push(MemberStatus({\n            name: _name,\n            times: _times,\n            sum: _sum,\n            rate: _rate\n        }));\n    }\n \n    // 회원 등급 내용 변경\n    function editStatus(uint256 _index, string memory _name, uint256 _times, uint256 _sum, uint8 _rate) public onlyOwner {\n        if (_index < status.length) {\n            status[_index].name = _name;\n            status[_index].times = _times;\n            status[_index].sum = _sum;\n            status[_index].rate = _rate;\n        }\n    }\n     \n    // 거래 내역 갱신\n    function updateHistory(address _member, uint256 _value) public onlyToken {\n        tradingHistory[_member].times += 1;\n        tradingHistory[_member].sum += _value;\n        // 새로운 회원 등급 결정(거래마다 실행)\n        uint256 index;\n        uint8 tmprate;\n        for (uint i = 0; i < status.length; i++) {\n            // 최저 거래 횟수, 최저 거래 금액 충족 시 가장 캐시백 비율이 좋은 등급으로 설정\n            if (tradingHistory[_member].times >= status[i].times &&\n                tradingHistory[_member].sum >= status[i].sum &&\n                tmprate < status[i].rate) {\n                index = i;\n            }\n        }\n        tradingHistory[_member].statusIndex = index;\n    }\n\n    // 캐시백 비율 획득(회원의 등급에 해당하는 비율 확인)\n    function getCashbackRate(address _member) public view returns (uint8 rate) {\n        rate = status[tradingHistory[_member].statusIndex].rate;\n    }\n}",
  "sourcePath": "/Users/mg/bnpl-dapp/src/contracts/Members.sol",
  "compiler": {
    "name": "solc",
    "version": "0.5.16+commit.9c3226ce.Emscripten.clang"
  },
  "schemaVersion": "3.3.4",
  "updatedAt": "2021-05-16T11:01:10.974Z",
  "devdoc": {
    "methods": {}
  },
  "userdoc": {
    "methods": {}
  }
}