{
  "contractName": "Package",
  "abi": [
    {
      "inputs": [
        {
          "internalType": "string",
          "name": "_name",
          "type": "string"
        },
        {
          "internalType": "uint256",
          "name": "_price",
          "type": "uint256"
        }
      ],
      "payable": false,
      "stateMutability": "nonpayable",
      "type": "constructor"
    },
    {
      "anonymous": false,
      "inputs": [
        {
          "indexed": false,
          "internalType": "string",
          "name": "name",
          "type": "string"
        },
        {
          "indexed": false,
          "internalType": "address",
          "name": "account",
          "type": "address"
        },
        {
          "indexed": false,
          "internalType": "address",
          "name": "manager",
          "type": "address"
        },
        {
          "indexed": false,
          "internalType": "uint256",
          "name": "timestamp",
          "type": "uint256"
        }
      ],
      "name": "Action",
      "type": "event"
    },
    {
      "constant": true,
      "inputs": [],
      "name": "manager",
      "outputs": [
        {
          "internalType": "address",
          "name": "",
          "type": "address"
        }
      ],
      "payable": false,
      "stateMutability": "view",
      "type": "function"
    },
    {
      "constant": true,
      "inputs": [],
      "name": "name",
      "outputs": [
        {
          "internalType": "string",
          "name": "",
          "type": "string"
        }
      ],
      "payable": false,
      "stateMutability": "view",
      "type": "function"
    },
    {
      "constant": true,
      "inputs": [],
      "name": "status",
      "outputs": [
        {
          "internalType": "enum Package.STATUSES",
          "name": "",
          "type": "uint8"
        }
      ],
      "payable": false,
      "stateMutability": "view",
      "type": "function"
    },
    {
      "constant": false,
      "inputs": [
        {
          "internalType": "address",
          "name": "_to",
          "type": "address"
        }
      ],
      "name": "send",
      "outputs": [],
      "payable": false,
      "stateMutability": "nonpayable",
      "type": "function"
    },
    {
      "constant": false,
      "inputs": [],
      "name": "receive",
      "outputs": [],
      "payable": false,
      "stateMutability": "nonpayable",
      "type": "function"
    }
  ],
  "bytecode": "0x608060405234801561001057600080fd5b5060405161096a38038061096a8339818101604052604081101561003357600080fd5b810190808051604051939291908464010000000082111561005357600080fd5b8382019150602082018581111561006957600080fd5b825186600182028301116401000000008211171561008657600080fd5b8083526020830192505050908051906020019080838360005b838110156100ba57808201518184015260208101905061009f565b50505050905090810190601f1680156100e75780820380516001836020036101000a031916815260200191505b50604052602001805190602001909291905050508160009080519060200190610111929190610256565b5033600160006101000a81548173ffffffffffffffffffffffffffffffffffffffff021916908373ffffffffffffffffffffffffffffffffffffffff1602179055506000600160146101000a81548160ff0219169083600281111561017257fe5b02179055507f85bc0605b6ec0e27701499e22eab1c5cbff14b94d451755ad083dc2663b8ddfe33334260405180806020018573ffffffffffffffffffffffffffffffffffffffff1673ffffffffffffffffffffffffffffffffffffffff1681526020018473ffffffffffffffffffffffffffffffffffffffff1673ffffffffffffffffffffffffffffffffffffffff168152602001838152602001828103825260068152602001807f435245415445000000000000000000000000000000000000000000000000000081525060200194505050505060405180910390a150506102fb565b828054600181600116156101000203166002900490600052602060002090601f016020900481019282601f1061029757805160ff19168380011785556102c5565b828001600101855582156102c5579182015b828111156102c45782518255916020019190600101906102a9565b5b5090506102d291906102d6565b5090565b6102f891905b808211156102f45760008160009055506001016102dc565b5090565b90565b6106608061030a6000396000f3fe608060405234801561001057600080fd5b50600436106100575760003560e01c806306fdde031461005c578063200d2ed2146100df5780633e58c58c1461010b578063481c6a751461014f578063a3e76c0f14610199575b600080fd5b6100646101a3565b6040518080602001828103825283818151815260200191508051906020019080838360005b838110156100a4578082015181840152602081019050610089565b50505050905090810190601f1680156100d15780820380516001836020036101000a031916815260200191505b509250505060405180910390f35b6100e7610241565b604051808260028111156100f757fe5b60ff16815260200191505060405180910390f35b61014d6004803603602081101561012157600080fd5b81019080803573ffffffffffffffffffffffffffffffffffffffff169060200190929190505050610254565b005b61015761047b565b604051808273ffffffffffffffffffffffffffffffffffffffff1673ffffffffffffffffffffffffffffffffffffffff16815260200191505060405180910390f35b6101a16104a1565b005b60008054600181600116156101000203166002900480601f0160208091040260200160405190810160405280929190818152602001828054600181600116156101000203166002900480156102395780601f1061020e57610100808354040283529160200191610239565b820191906000526020600020905b81548152906001019060200180831161021c57829003601f168201915b505050505081565b600160149054906101000a900460ff1681565b600160009054906101000a900473ffffffffffffffffffffffffffffffffffffffff1673ffffffffffffffffffffffffffffffffffffffff163373ffffffffffffffffffffffffffffffffffffffff16146102ae57600080fd5b600160009054906101000a900473ffffffffffffffffffffffffffffffffffffffff1673ffffffffffffffffffffffffffffffffffffffff168173ffffffffffffffffffffffffffffffffffffffff16141561030957600080fd5b6001600281111561031657fe5b600160149054906101000a900460ff16600281111561033157fe5b141561033c57600080fd5b60018060146101000a81548160ff0219169083600281111561035a57fe5b021790555080600160006101000a81548173ffffffffffffffffffffffffffffffffffffffff021916908373ffffffffffffffffffffffffffffffffffffffff1602179055507f85bc0605b6ec0e27701499e22eab1c5cbff14b94d451755ad083dc2663b8ddfe33824260405180806020018573ffffffffffffffffffffffffffffffffffffffff1673ffffffffffffffffffffffffffffffffffffffff1681526020018473ffffffffffffffffffffffffffffffffffffffff1673ffffffffffffffffffffffffffffffffffffffff168152602001838152602001828103825260048152602001807f53454e440000000000000000000000000000000000000000000000000000000081525060200194505050505060405180910390a150565b600160009054906101000a900473ffffffffffffffffffffffffffffffffffffffff1681565b600160009054906101000a900473ffffffffffffffffffffffffffffffffffffffff1673ffffffffffffffffffffffffffffffffffffffff163373ffffffffffffffffffffffffffffffffffffffff16146104fb57600080fd5b6001600281111561050857fe5b600160149054906101000a900460ff16600281111561052357fe5b1461052d57600080fd5b6002600160146101000a81548160ff0219169083600281111561054c57fe5b02179055507f85bc0605b6ec0e27701499e22eab1c5cbff14b94d451755ad083dc2663b8ddfe33334260405180806020018573ffffffffffffffffffffffffffffffffffffffff1673ffffffffffffffffffffffffffffffffffffffff1681526020018473ffffffffffffffffffffffffffffffffffffffff1673ffffffffffffffffffffffffffffffffffffffff168152602001838152602001828103825260078152602001807f524543454956450000000000000000000000000000000000000000000000000081525060200194505050505060405180910390a156fea265627a7a7231582002c41e16c276fc1a9b2952376e9b541319d1013950015cfd57221a16fb2ff3cf64736f6c63430005100032",
  "source": "pragma solidity ^0.5.0;\n\ncontract Package {\n  string public name;\n  address public manager;\n\n  STATUSES public status;\n\n  enum STATUSES {\n    CREATED,\n    SENT,\n    RECEIVED\n  }\n\n  event Action(\n    string name,\n    address account,\n    address manager,\n    uint256 timestamp\n  );\n\n  constructor(string memory _name, uint256 _price) public {\n    // Set name\n    name = _name;\n\n    // Make deployer manager\n    manager = msg.sender;\n\n    // Update status to \"CREATED\"\n    status = STATUSES.CREATED;\n\n    // Log history\n    emit Action(\"CREATE\", msg.sender, msg.sender, now);\n  }\n\n  function send(address _to) public {\n    // Must be manager to send\n    require(msg.sender == manager);\n\n    // Cannot send to self\n    require(_to != manager);\n\n    // Can't be in \"SENT\" status\n    // Must be \"CREATED\" or \"RECEIVED\"\n    require(status != STATUSES.SENT);\n\n    // Update status to \"SENT\"\n    status = STATUSES.SENT;\n\n    // Make _to new manager\n    manager = _to;\n\n    // Log history\n    emit Action(\"SEND\", msg.sender, _to, now);\n  }\n\n  function receive() public {\n    // Must be manager to receive\n    require(msg.sender == manager);\n\n    // Must be in \"SENT\" status\n    // Cannot be \"CREATED\" or \"RECEIVED\"\n    require(status == STATUSES.SENT);\n\n    // Update status to \"RECEIVED\"\n    status = STATUSES.RECEIVED;\n\n    // Log history\n    emit Action(\"RECEIVE\", msg.sender, msg.sender, now);\n  }\n}\n",
  "sourcePath": "/Users/mg/bnpl-dapp/src/contracts/Package.sol",
  "compiler": {
    "name": "solc",
    "version": "0.5.16+commit.9c3226ce.Emscripten.clang"
  },
  "schemaVersion": "3.3.4",
  "updatedAt": "2021-06-18T23:25:03.391Z",
  "devdoc": {
    "methods": {}
  },
  "userdoc": {
    "methods": {}
  }
}