{
  "contractName": "Package",
  "abi": [
    {
      "inputs": [
        {
          "internalType": "address",
          "name": "_manager",
          "type": "address"
        },
        {
          "internalType": "string",
          "name": "_name",
          "type": "string"
        },
        {
          "internalType": "uint256",
          "name": "_trackingNum",
          "type": "uint256"
        }
      ],
      "payable": false,
      "stateMutability": "nonpayable",
      "type": "constructor"
    },
    {
      "anonymous": false,
      "inputs": [
        {
          "indexed": false,
          "internalType": "string",
          "name": "name",
          "type": "string"
        },
        {
          "indexed": false,
          "internalType": "address",
          "name": "account",
          "type": "address"
        },
        {
          "indexed": false,
          "internalType": "address",
          "name": "manager",
          "type": "address"
        },
        {
          "indexed": false,
          "internalType": "uint256",
          "name": "timestamp",
          "type": "uint256"
        }
      ],
      "name": "State",
      "type": "event"
    },
    {
      "constant": true,
      "inputs": [],
      "name": "manager",
      "outputs": [
        {
          "internalType": "address",
          "name": "",
          "type": "address"
        }
      ],
      "payable": false,
      "stateMutability": "view",
      "type": "function"
    },
    {
      "constant": true,
      "inputs": [],
      "name": "name",
      "outputs": [
        {
          "internalType": "string",
          "name": "",
          "type": "string"
        }
      ],
      "payable": false,
      "stateMutability": "view",
      "type": "function"
    },
    {
      "constant": true,
      "inputs": [],
      "name": "status",
      "outputs": [
        {
          "internalType": "enum Package.STATUSES",
          "name": "",
          "type": "uint8"
        }
      ],
      "payable": false,
      "stateMutability": "view",
      "type": "function"
    },
    {
      "constant": false,
      "inputs": [
        {
          "internalType": "address",
          "name": "_from",
          "type": "address"
        },
        {
          "internalType": "address",
          "name": "_to",
          "type": "address"
        }
      ],
      "name": "send",
      "outputs": [],
      "payable": false,
      "stateMutability": "nonpayable",
      "type": "function"
    },
    {
      "constant": false,
      "inputs": [
        {
          "internalType": "address",
          "name": "_to",
          "type": "address"
        }
      ],
      "name": "receive",
      "outputs": [],
      "payable": false,
      "stateMutability": "nonpayable",
      "type": "function"
    }
  ],
  "bytecode": "0x608060405234801561001057600080fd5b506040516109d83803806109d88339818101604052606081101561003357600080fd5b81019080805190602001909291908051604051939291908464010000000082111561005d57600080fd5b8382019150602082018581111561007357600080fd5b825186600182028301116401000000008211171561009057600080fd5b8083526020830192505050908051906020019080838360005b838110156100c45780820151818401526020810190506100a9565b50505050905090810190601f1680156100f15780820380516001836020036101000a031916815260200191505b5060405260200180519060200190929190505050816000908051906020019061011b929190610268565b508060018190555082600260006101000a81548173ffffffffffffffffffffffffffffffffffffffff021916908373ffffffffffffffffffffffffffffffffffffffff1602179055506000600260146101000a81548160ff0219169083600281111561018357fe5b02179055507f1017e91081484254db5f1102b30b3b9093fa9c0153485ddb0ed8c8071222d7df83844260405180806020018573ffffffffffffffffffffffffffffffffffffffff1673ffffffffffffffffffffffffffffffffffffffff1681526020018473ffffffffffffffffffffffffffffffffffffffff1673ffffffffffffffffffffffffffffffffffffffff168152602001838152602001828103825260068152602001807f435245415445000000000000000000000000000000000000000000000000000081525060200194505050505060405180910390a150505061030d565b828054600181600116156101000203166002900490600052602060002090601f016020900481019282601f106102a957805160ff19168380011785556102d7565b828001600101855582156102d7579182015b828111156102d65782518255916020019190600101906102bb565b5b5090506102e491906102e8565b5090565b61030a91905b808211156103065760008160009055506001016102ee565b5090565b90565b6106bc8061031c6000396000f3fe608060405234801561001057600080fd5b50600436106100575760003560e01c806306fdde031461005c578063200d2ed2146100df578063481c6a751461010b5780639d01174f14610155578063b6d9d45114610199575b600080fd5b6100646101fd565b6040518080602001828103825283818151815260200191508051906020019080838360005b838110156100a4578082015181840152602081019050610089565b50505050905090810190601f1680156100d15780820380516001836020036101000a031916815260200191505b509250505060405180910390f35b6100e761029b565b604051808260028111156100f757fe5b60ff16815260200191505060405180910390f35b6101136102ae565b604051808273ffffffffffffffffffffffffffffffffffffffff1673ffffffffffffffffffffffffffffffffffffffff16815260200191505060405180910390f35b6101976004803603602081101561016b57600080fd5b81019080803573ffffffffffffffffffffffffffffffffffffffff1690602001909291905050506102d4565b005b6101fb600480360360408110156101af57600080fd5b81019080803573ffffffffffffffffffffffffffffffffffffffff169060200190929190803573ffffffffffffffffffffffffffffffffffffffff16906020019092919050505061045e565b005b60008054600181600116156101000203166002900480601f0160208091040260200160405190810160405280929190818152602001828054600181600116156101000203166002900480156102935780601f1061026857610100808354040283529160200191610293565b820191906000526020600020905b81548152906001019060200180831161027657829003601f168201915b505050505081565b600260149054906101000a900460ff1681565b600260009054906101000a900473ffffffffffffffffffffffffffffffffffffffff1681565b600260009054906101000a900473ffffffffffffffffffffffffffffffffffffffff1673ffffffffffffffffffffffffffffffffffffffff168173ffffffffffffffffffffffffffffffffffffffff161461032e57600080fd5b6001600281111561033b57fe5b600260149054906101000a900460ff16600281111561035657fe5b1461036057600080fd5b60028060146101000a81548160ff0219169083600281111561037e57fe5b02179055507f1017e91081484254db5f1102b30b3b9093fa9c0153485ddb0ed8c8071222d7df81824260405180806020018573ffffffffffffffffffffffffffffffffffffffff1673ffffffffffffffffffffffffffffffffffffffff1681526020018473ffffffffffffffffffffffffffffffffffffffff1673ffffffffffffffffffffffffffffffffffffffff168152602001838152602001828103825260078152602001807f524543454956450000000000000000000000000000000000000000000000000081525060200194505050505060405180910390a150565b600260009054906101000a900473ffffffffffffffffffffffffffffffffffffffff1673ffffffffffffffffffffffffffffffffffffffff168273ffffffffffffffffffffffffffffffffffffffff16146104b857600080fd5b600260009054906101000a900473ffffffffffffffffffffffffffffffffffffffff1673ffffffffffffffffffffffffffffffffffffffff168173ffffffffffffffffffffffffffffffffffffffff16141561051357600080fd5b6001600281111561052057fe5b600260149054906101000a900460ff16600281111561053b57fe5b141561054657600080fd5b6001600260146101000a81548160ff0219169083600281111561056557fe5b021790555080600260006101000a81548173ffffffffffffffffffffffffffffffffffffffff021916908373ffffffffffffffffffffffffffffffffffffffff1602179055507f1017e91081484254db5f1102b30b3b9093fa9c0153485ddb0ed8c8071222d7df82824260405180806020018573ffffffffffffffffffffffffffffffffffffffff1673ffffffffffffffffffffffffffffffffffffffff1681526020018473ffffffffffffffffffffffffffffffffffffffff1673ffffffffffffffffffffffffffffffffffffffff168152602001838152602001828103825260048152602001807f53454e440000000000000000000000000000000000000000000000000000000081525060200194505050505060405180910390a1505056fea265627a7a723158200a91d297c3365712ca7bcbced2c6bc7724b8b002a74457ba714a2ee8ab193f1b64736f6c63430005100032",
  "source": "pragma solidity ^0.5.0;\n\ncontract Package {\n  string public name;\n  uint256 trackingNum;\n  address public manager;\n\n  STATUSES public status;\n\n  enum STATUSES {\n    CREATED,\n    SENT,\n    RECEIVED\n  }\n\n  event State(\n    string name,\n    address account,\n    address manager,\n    uint256 timestamp\n  );\n\n  constructor(address _manager, string memory _name, uint256 _trackingNum) public {\n    name = _name;\n    trackingNum = _trackingNum;\n\n    // Make deployer manager\n    manager = _manager;\n\n    status = STATUSES.CREATED;\n\n    // Log history\n    emit State(\"CREATE\", _manager, _manager, now);\n  }\n\n  function send(address _from, address _to) public {\n    // Must be manager to send\n    require(_from == manager);\n\n    // Cannot send to self\n    require(_to != manager);\n\n    // Can't be in \"SENT\" status\n    // Must be \"CREATED\" or \"RECEIVED\"\n    require(status != STATUSES.SENT);\n\n    // Update status to \"SENT\"\n    status = STATUSES.SENT;\n\n    // Make _to new manager\n    manager = _to;\n\n    // Log history\n    emit State(\"SEND\", _from, _to, now);\n  }\n\n  function receive(address _to) public {\n    // Must be manager to receive\n    require(_to == manager);\n\n    // Must be in \"SENT\" status\n    // Cannot be \"CREATED\" or \"RECEIVED\"\n    require(status == STATUSES.SENT);\n\n    // Update status to \"RECEIVED\"\n    status = STATUSES.RECEIVED;\n\n    // Log history\n    emit State(\"RECEIVE\", _to, _to, now);\n  }\n}\n",
  "sourcePath": "/Users/mg/bnpl-dapp/src/contracts/Package.sol",
  "compiler": {
    "name": "solc",
    "version": "0.5.16+commit.9c3226ce.Emscripten.clang"
  },
  "schemaVersion": "3.3.4",
  "updatedAt": "2021-06-21T15:55:21.644Z",
  "networkType": "ethereum",
  "devdoc": {
    "methods": {}
  },
  "userdoc": {
    "methods": {}
  }
}