{
  "contractName": "TestDateTime",
  "abi": [
    {
      "constant": true,
      "inputs": [],
      "name": "nextYear",
      "outputs": [
        {
          "internalType": "uint256",
          "name": "",
          "type": "uint256"
        }
      ],
      "payable": false,
      "stateMutability": "view",
      "type": "function"
    },
    {
      "constant": false,
      "inputs": [],
      "name": "test",
      "outputs": [],
      "payable": false,
      "stateMutability": "nonpayable",
      "type": "function"
    },
    {
      "constant": true,
      "inputs": [
        {
          "internalType": "uint256",
          "name": "year",
          "type": "uint256"
        },
        {
          "internalType": "uint256",
          "name": "month",
          "type": "uint256"
        },
        {
          "internalType": "uint256",
          "name": "day",
          "type": "uint256"
        }
      ],
      "name": "timestampFromDate",
      "outputs": [
        {
          "internalType": "uint256",
          "name": "timestamp",
          "type": "uint256"
        }
      ],
      "payable": false,
      "stateMutability": "pure",
      "type": "function"
    },
    {
      "constant": true,
      "inputs": [
        {
          "internalType": "uint256",
          "name": "year",
          "type": "uint256"
        },
        {
          "internalType": "uint256",
          "name": "month",
          "type": "uint256"
        },
        {
          "internalType": "uint256",
          "name": "day",
          "type": "uint256"
        },
        {
          "internalType": "uint256",
          "name": "hour",
          "type": "uint256"
        },
        {
          "internalType": "uint256",
          "name": "minute",
          "type": "uint256"
        },
        {
          "internalType": "uint256",
          "name": "second",
          "type": "uint256"
        }
      ],
      "name": "timestampFromDateTime",
      "outputs": [
        {
          "internalType": "uint256",
          "name": "timestamp",
          "type": "uint256"
        }
      ],
      "payable": false,
      "stateMutability": "pure",
      "type": "function"
    },
    {
      "constant": true,
      "inputs": [
        {
          "internalType": "uint256",
          "name": "timestamp",
          "type": "uint256"
        }
      ],
      "name": "timestampToDate",
      "outputs": [
        {
          "internalType": "uint256",
          "name": "year",
          "type": "uint256"
        },
        {
          "internalType": "uint256",
          "name": "month",
          "type": "uint256"
        },
        {
          "internalType": "uint256",
          "name": "day",
          "type": "uint256"
        }
      ],
      "payable": false,
      "stateMutability": "pure",
      "type": "function"
    },
    {
      "constant": true,
      "inputs": [
        {
          "internalType": "uint256",
          "name": "timestamp",
          "type": "uint256"
        }
      ],
      "name": "timestampToDateTime",
      "outputs": [
        {
          "internalType": "uint256",
          "name": "year",
          "type": "uint256"
        },
        {
          "internalType": "uint256",
          "name": "month",
          "type": "uint256"
        },
        {
          "internalType": "uint256",
          "name": "day",
          "type": "uint256"
        },
        {
          "internalType": "uint256",
          "name": "hour",
          "type": "uint256"
        },
        {
          "internalType": "uint256",
          "name": "minute",
          "type": "uint256"
        },
        {
          "internalType": "uint256",
          "name": "second",
          "type": "uint256"
        }
      ],
      "payable": false,
      "stateMutability": "pure",
      "type": "function"
    },
    {
      "constant": true,
      "inputs": [
        {
          "internalType": "uint256",
          "name": "timestamp",
          "type": "uint256"
        }
      ],
      "name": "isLeapYear",
      "outputs": [
        {
          "internalType": "bool",
          "name": "leapYear",
          "type": "bool"
        }
      ],
      "payable": false,
      "stateMutability": "pure",
      "type": "function"
    },
    {
      "constant": true,
      "inputs": [
        {
          "internalType": "uint256",
          "name": "year",
          "type": "uint256"
        }
      ],
      "name": "_isLeapYear",
      "outputs": [
        {
          "internalType": "bool",
          "name": "leapYear",
          "type": "bool"
        }
      ],
      "payable": false,
      "stateMutability": "pure",
      "type": "function"
    },
    {
      "constant": true,
      "inputs": [
        {
          "internalType": "uint256",
          "name": "timestamp",
          "type": "uint256"
        }
      ],
      "name": "isWeekDay",
      "outputs": [
        {
          "internalType": "bool",
          "name": "weekDay",
          "type": "bool"
        }
      ],
      "payable": false,
      "stateMutability": "pure",
      "type": "function"
    },
    {
      "constant": true,
      "inputs": [
        {
          "internalType": "uint256",
          "name": "timestamp",
          "type": "uint256"
        }
      ],
      "name": "isWeekEnd",
      "outputs": [
        {
          "internalType": "bool",
          "name": "weekEnd",
          "type": "bool"
        }
      ],
      "payable": false,
      "stateMutability": "pure",
      "type": "function"
    },
    {
      "constant": true,
      "inputs": [
        {
          "internalType": "uint256",
          "name": "timestamp",
          "type": "uint256"
        }
      ],
      "name": "getDaysInMonth",
      "outputs": [
        {
          "internalType": "uint256",
          "name": "daysInMonth",
          "type": "uint256"
        }
      ],
      "payable": false,
      "stateMutability": "pure",
      "type": "function"
    },
    {
      "constant": true,
      "inputs": [
        {
          "internalType": "uint256",
          "name": "year",
          "type": "uint256"
        },
        {
          "internalType": "uint256",
          "name": "month",
          "type": "uint256"
        }
      ],
      "name": "_getDaysInMonth",
      "outputs": [
        {
          "internalType": "uint256",
          "name": "daysInMonth",
          "type": "uint256"
        }
      ],
      "payable": false,
      "stateMutability": "pure",
      "type": "function"
    },
    {
      "constant": true,
      "inputs": [
        {
          "internalType": "uint256",
          "name": "timestamp",
          "type": "uint256"
        }
      ],
      "name": "getDayOfWeek",
      "outputs": [
        {
          "internalType": "uint256",
          "name": "dayOfWeek",
          "type": "uint256"
        }
      ],
      "payable": false,
      "stateMutability": "pure",
      "type": "function"
    },
    {
      "constant": true,
      "inputs": [
        {
          "internalType": "uint256",
          "name": "year",
          "type": "uint256"
        },
        {
          "internalType": "uint256",
          "name": "month",
          "type": "uint256"
        },
        {
          "internalType": "uint256",
          "name": "day",
          "type": "uint256"
        }
      ],
      "name": "isValidDate",
      "outputs": [
        {
          "internalType": "bool",
          "name": "valid",
          "type": "bool"
        }
      ],
      "payable": false,
      "stateMutability": "pure",
      "type": "function"
    },
    {
      "constant": true,
      "inputs": [
        {
          "internalType": "uint256",
          "name": "year",
          "type": "uint256"
        },
        {
          "internalType": "uint256",
          "name": "month",
          "type": "uint256"
        },
        {
          "internalType": "uint256",
          "name": "day",
          "type": "uint256"
        },
        {
          "internalType": "uint256",
          "name": "hour",
          "type": "uint256"
        },
        {
          "internalType": "uint256",
          "name": "minute",
          "type": "uint256"
        },
        {
          "internalType": "uint256",
          "name": "second",
          "type": "uint256"
        }
      ],
      "name": "isValidDateTime",
      "outputs": [
        {
          "internalType": "bool",
          "name": "valid",
          "type": "bool"
        }
      ],
      "payable": false,
      "stateMutability": "pure",
      "type": "function"
    },
    {
      "constant": true,
      "inputs": [
        {
          "internalType": "uint256",
          "name": "timestamp",
          "type": "uint256"
        }
      ],
      "name": "getYear",
      "outputs": [
        {
          "internalType": "uint256",
          "name": "year",
          "type": "uint256"
        }
      ],
      "payable": false,
      "stateMutability": "pure",
      "type": "function"
    },
    {
      "constant": true,
      "inputs": [
        {
          "internalType": "uint256",
          "name": "timestamp",
          "type": "uint256"
        }
      ],
      "name": "getMonth",
      "outputs": [
        {
          "internalType": "uint256",
          "name": "month",
          "type": "uint256"
        }
      ],
      "payable": false,
      "stateMutability": "pure",
      "type": "function"
    },
    {
      "constant": true,
      "inputs": [
        {
          "internalType": "uint256",
          "name": "timestamp",
          "type": "uint256"
        }
      ],
      "name": "getDay",
      "outputs": [
        {
          "internalType": "uint256",
          "name": "day",
          "type": "uint256"
        }
      ],
      "payable": false,
      "stateMutability": "pure",
      "type": "function"
    },
    {
      "constant": true,
      "inputs": [
        {
          "internalType": "uint256",
          "name": "timestamp",
          "type": "uint256"
        }
      ],
      "name": "getHour",
      "outputs": [
        {
          "internalType": "uint256",
          "name": "hour",
          "type": "uint256"
        }
      ],
      "payable": false,
      "stateMutability": "pure",
      "type": "function"
    },
    {
      "constant": true,
      "inputs": [
        {
          "internalType": "uint256",
          "name": "timestamp",
          "type": "uint256"
        }
      ],
      "name": "getMinute",
      "outputs": [
        {
          "internalType": "uint256",
          "name": "minute",
          "type": "uint256"
        }
      ],
      "payable": false,
      "stateMutability": "pure",
      "type": "function"
    },
    {
      "constant": true,
      "inputs": [
        {
          "internalType": "uint256",
          "name": "timestamp",
          "type": "uint256"
        }
      ],
      "name": "getSecond",
      "outputs": [
        {
          "internalType": "uint256",
          "name": "second",
          "type": "uint256"
        }
      ],
      "payable": false,
      "stateMutability": "pure",
      "type": "function"
    },
    {
      "constant": true,
      "inputs": [
        {
          "internalType": "uint256",
          "name": "timestamp",
          "type": "uint256"
        },
        {
          "internalType": "uint256",
          "name": "_years",
          "type": "uint256"
        }
      ],
      "name": "addYears",
      "outputs": [
        {
          "internalType": "uint256",
          "name": "newTimestamp",
          "type": "uint256"
        }
      ],
      "payable": false,
      "stateMutability": "pure",
      "type": "function"
    },
    {
      "constant": true,
      "inputs": [
        {
          "internalType": "uint256",
          "name": "timestamp",
          "type": "uint256"
        },
        {
          "internalType": "uint256",
          "name": "_months",
          "type": "uint256"
        }
      ],
      "name": "addMonths",
      "outputs": [
        {
          "internalType": "uint256",
          "name": "newTimestamp",
          "type": "uint256"
        }
      ],
      "payable": false,
      "stateMutability": "pure",
      "type": "function"
    },
    {
      "constant": true,
      "inputs": [
        {
          "internalType": "uint256",
          "name": "timestamp",
          "type": "uint256"
        },
        {
          "internalType": "uint256",
          "name": "_days",
          "type": "uint256"
        }
      ],
      "name": "addDays",
      "outputs": [
        {
          "internalType": "uint256",
          "name": "newTimestamp",
          "type": "uint256"
        }
      ],
      "payable": false,
      "stateMutability": "pure",
      "type": "function"
    },
    {
      "constant": true,
      "inputs": [
        {
          "internalType": "uint256",
          "name": "timestamp",
          "type": "uint256"
        },
        {
          "internalType": "uint256",
          "name": "_hours",
          "type": "uint256"
        }
      ],
      "name": "addHours",
      "outputs": [
        {
          "internalType": "uint256",
          "name": "newTimestamp",
          "type": "uint256"
        }
      ],
      "payable": false,
      "stateMutability": "pure",
      "type": "function"
    },
    {
      "constant": true,
      "inputs": [
        {
          "internalType": "uint256",
          "name": "timestamp",
          "type": "uint256"
        },
        {
          "internalType": "uint256",
          "name": "_minutes",
          "type": "uint256"
        }
      ],
      "name": "addMinutes",
      "outputs": [
        {
          "internalType": "uint256",
          "name": "newTimestamp",
          "type": "uint256"
        }
      ],
      "payable": false,
      "stateMutability": "pure",
      "type": "function"
    },
    {
      "constant": true,
      "inputs": [
        {
          "internalType": "uint256",
          "name": "timestamp",
          "type": "uint256"
        },
        {
          "internalType": "uint256",
          "name": "_seconds",
          "type": "uint256"
        }
      ],
      "name": "addSeconds",
      "outputs": [
        {
          "internalType": "uint256",
          "name": "newTimestamp",
          "type": "uint256"
        }
      ],
      "payable": false,
      "stateMutability": "pure",
      "type": "function"
    },
    {
      "constant": true,
      "inputs": [
        {
          "internalType": "uint256",
          "name": "timestamp",
          "type": "uint256"
        },
        {
          "internalType": "uint256",
          "name": "_years",
          "type": "uint256"
        }
      ],
      "name": "subYears",
      "outputs": [
        {
          "internalType": "uint256",
          "name": "newTimestamp",
          "type": "uint256"
        }
      ],
      "payable": false,
      "stateMutability": "pure",
      "type": "function"
    },
    {
      "constant": true,
      "inputs": [
        {
          "internalType": "uint256",
          "name": "timestamp",
          "type": "uint256"
        },
        {
          "internalType": "uint256",
          "name": "_months",
          "type": "uint256"
        }
      ],
      "name": "subMonths",
      "outputs": [
        {
          "internalType": "uint256",
          "name": "newTimestamp",
          "type": "uint256"
        }
      ],
      "payable": false,
      "stateMutability": "pure",
      "type": "function"
    },
    {
      "constant": true,
      "inputs": [
        {
          "internalType": "uint256",
          "name": "timestamp",
          "type": "uint256"
        },
        {
          "internalType": "uint256",
          "name": "_days",
          "type": "uint256"
        }
      ],
      "name": "subDays",
      "outputs": [
        {
          "internalType": "uint256",
          "name": "newTimestamp",
          "type": "uint256"
        }
      ],
      "payable": false,
      "stateMutability": "pure",
      "type": "function"
    },
    {
      "constant": true,
      "inputs": [
        {
          "internalType": "uint256",
          "name": "timestamp",
          "type": "uint256"
        },
        {
          "internalType": "uint256",
          "name": "_hours",
          "type": "uint256"
        }
      ],
      "name": "subHours",
      "outputs": [
        {
          "internalType": "uint256",
          "name": "newTimestamp",
          "type": "uint256"
        }
      ],
      "payable": false,
      "stateMutability": "pure",
      "type": "function"
    },
    {
      "constant": true,
      "inputs": [
        {
          "internalType": "uint256",
          "name": "timestamp",
          "type": "uint256"
        },
        {
          "internalType": "uint256",
          "name": "_minutes",
          "type": "uint256"
        }
      ],
      "name": "subMinutes",
      "outputs": [
        {
          "internalType": "uint256",
          "name": "newTimestamp",
          "type": "uint256"
        }
      ],
      "payable": false,
      "stateMutability": "pure",
      "type": "function"
    },
    {
      "constant": true,
      "inputs": [
        {
          "internalType": "uint256",
          "name": "timestamp",
          "type": "uint256"
        },
        {
          "internalType": "uint256",
          "name": "_seconds",
          "type": "uint256"
        }
      ],
      "name": "subSeconds",
      "outputs": [
        {
          "internalType": "uint256",
          "name": "newTimestamp",
          "type": "uint256"
        }
      ],
      "payable": false,
      "stateMutability": "pure",
      "type": "function"
    },
    {
      "constant": true,
      "inputs": [
        {
          "internalType": "uint256",
          "name": "fromTimestamp",
          "type": "uint256"
        },
        {
          "internalType": "uint256",
          "name": "toTimestamp",
          "type": "uint256"
        }
      ],
      "name": "diffYears",
      "outputs": [
        {
          "internalType": "uint256",
          "name": "_years",
          "type": "uint256"
        }
      ],
      "payable": false,
      "stateMutability": "pure",
      "type": "function"
    },
    {
      "constant": true,
      "inputs": [
        {
          "internalType": "uint256",
          "name": "fromTimestamp",
          "type": "uint256"
        },
        {
          "internalType": "uint256",
          "name": "toTimestamp",
          "type": "uint256"
        }
      ],
      "name": "diffMonths",
      "outputs": [
        {
          "internalType": "uint256",
          "name": "_months",
          "type": "uint256"
        }
      ],
      "payable": false,
      "stateMutability": "pure",
      "type": "function"
    },
    {
      "constant": true,
      "inputs": [
        {
          "internalType": "uint256",
          "name": "fromTimestamp",
          "type": "uint256"
        },
        {
          "internalType": "uint256",
          "name": "toTimestamp",
          "type": "uint256"
        }
      ],
      "name": "diffDays",
      "outputs": [
        {
          "internalType": "uint256",
          "name": "_days",
          "type": "uint256"
        }
      ],
      "payable": false,
      "stateMutability": "pure",
      "type": "function"
    },
    {
      "constant": true,
      "inputs": [
        {
          "internalType": "uint256",
          "name": "fromTimestamp",
          "type": "uint256"
        },
        {
          "internalType": "uint256",
          "name": "toTimestamp",
          "type": "uint256"
        }
      ],
      "name": "diffHours",
      "outputs": [
        {
          "internalType": "uint256",
          "name": "_hours",
          "type": "uint256"
        }
      ],
      "payable": false,
      "stateMutability": "pure",
      "type": "function"
    },
    {
      "constant": true,
      "inputs": [
        {
          "internalType": "uint256",
          "name": "fromTimestamp",
          "type": "uint256"
        },
        {
          "internalType": "uint256",
          "name": "toTimestamp",
          "type": "uint256"
        }
      ],
      "name": "diffMinutes",
      "outputs": [
        {
          "internalType": "uint256",
          "name": "_minutes",
          "type": "uint256"
        }
      ],
      "payable": false,
      "stateMutability": "pure",
      "type": "function"
    },
    {
      "constant": true,
      "inputs": [
        {
          "internalType": "uint256",
          "name": "fromTimestamp",
          "type": "uint256"
        },
        {
          "internalType": "uint256",
          "name": "toTimestamp",
          "type": "uint256"
        }
      ],
      "name": "diffSeconds",
      "outputs": [
        {
          "internalType": "uint256",
          "name": "_seconds",
          "type": "uint256"
        }
      ],
      "payable": false,
      "stateMutability": "pure",
      "type": "function"
    }
  ],
  "bytecode": "0x608060405234801561001057600080fd5b50611a96806100206000396000f3fe608060405234801561001057600080fd5b506004361061023c5760003560e01c80637217523c1161013b578063b8d16dbc116100b8578063ea1c16901161007c578063ea1c169014610c3d578063f615ed5414610ca2578063f8a8fd6d14610cee578063fa93f88314610cf8578063ff2258cb14610d3a5761023c565b8063b8d16dbc14610ac9578063c7b6fd6a14610b0f578063c9d3462214610b5b578063d6582d0d14610ba7578063de5101af14610bed5761023c565b806392d66313116100ff57806392d66313146109675780639e524caa146109a9578063a324ad24146109f5578063ad203bd414610a37578063b05eb08d14610a835761023c565b80637217523c146107f55780637be341091461084157806389a3a00d1461088d5780638aa001fc146108d95780638d4a2d391461091b5761023c565b80633e239e1a116101c9578063444fda821161018d578063444fda821461065b5780634b321502146106a75780635e05bd6d146106f357806362fb96971461076757806365c72840146107b35761023c565b80633e239e1a146104ef5780633f9e0eb7146105315780634355644d1461057d5780634371c465146105c9578063442b8c791461060f5761023c565b806314b2d6dc1161021057806314b2d6dc146103395780631f4f77b21461039357806322f8a2b8146103e95780632af123b81461042b5780633293d007146104775761023c565b80625015531461024157806302e98e0d1461028d57806310848ddf146102d9578063146bea7b1461031b575b600080fd5b6102776004803603604081101561025757600080fd5b810190808035906020019092919080359060200190929190505050610d86565b6040518082815260200191505060405180910390f35b6102c3600480360360408110156102a357600080fd5b810190808035906020019092919080359060200190929190505050610d9a565b6040518082815260200191505060405180910390f35b610305600480360360208110156102ef57600080fd5b8101908080359060200190929190505050610dae565b6040518082815260200191505060405180910390f35b610323610dc0565b6040518082815260200191505060405180910390f35b6103796004803603606081101561034f57600080fd5b81019080803590602001909291908035906020019092919080359060200190929190505050610dc6565b604051808215151515815260200191505060405180910390f35b6103d3600480360360608110156103a957600080fd5b81019080803590602001909291908035906020019092919080359060200190929190505050610ddc565b6040518082815260200191505060405180910390f35b610415600480360360208110156103ff57600080fd5b8101908080359060200190929190505050610df2565b6040518082815260200191505060405180910390f35b6104616004803603604081101561044157600080fd5b810190808035906020019092919080359060200190929190505050610e04565b6040518082815260200191505060405180910390f35b6104d5600480360360c081101561048d57600080fd5b81019080803590602001909291908035906020019092919080359060200190929190803590602001909291908035906020019092919080359060200190929190505050610e18565b604051808215151515815260200191505060405180910390f35b61051b6004803603602081101561050557600080fd5b8101908080359060200190929190505050610e34565b6040518082815260200191505060405180910390f35b6105676004803603604081101561054757600080fd5b810190808035906020019092919080359060200190929190505050610e46565b6040518082815260200191505060405180910390f35b6105b36004803603604081101561059357600080fd5b810190808035906020019092919080359060200190929190505050610e5a565b6040518082815260200191505060405180910390f35b6105f5600480360360208110156105df57600080fd5b8101908080359060200190929190505050610e6e565b604051808215151515815260200191505060405180910390f35b6106456004803603604081101561062557600080fd5b810190808035906020019092919080359060200190929190505050610e80565b6040518082815260200191505060405180910390f35b6106916004803603604081101561067157600080fd5b810190808035906020019092919080359060200190929190505050610e94565b6040518082815260200191505060405180910390f35b6106dd600480360360408110156106bd57600080fd5b810190808035906020019092919080359060200190929190505050610ea8565b6040518082815260200191505060405180910390f35b610751600480360360c081101561070957600080fd5b81019080803590602001909291908035906020019092919080359060200190929190803590602001909291908035906020019092919080359060200190929190505050610ebc565b6040518082815260200191505060405180910390f35b61079d6004803603604081101561077d57600080fd5b810190808035906020019092919080359060200190929190505050610ed8565b6040518082815260200191505060405180910390f35b6107df600480360360208110156107c957600080fd5b8101908080359060200190929190505050610eec565b6040518082815260200191505060405180910390f35b61082b6004803603604081101561080b57600080fd5b810190808035906020019092919080359060200190929190505050610efe565b6040518082815260200191505060405180910390f35b6108776004803603604081101561085757600080fd5b810190808035906020019092919080359060200190929190505050610f12565b6040518082815260200191505060405180910390f35b6108c3600480360360408110156108a357600080fd5b810190808035906020019092919080359060200190929190505050610f26565b6040518082815260200191505060405180910390f35b610905600480360360208110156108ef57600080fd5b8101908080359060200190929190505050610f3a565b6040518082815260200191505060405180910390f35b6109516004803603604081101561093157600080fd5b810190808035906020019092919080359060200190929190505050610f4c565b6040518082815260200191505060405180910390f35b6109936004803603602081101561097d57600080fd5b8101908080359060200190929190505050610f60565b6040518082815260200191505060405180910390f35b6109df600480360360408110156109bf57600080fd5b810190808035906020019092919080359060200190929190505050610f72565b6040518082815260200191505060405180910390f35b610a2160048036036020811015610a0b57600080fd5b8101908080359060200190929190505050610f86565b6040518082815260200191505060405180910390f35b610a6d60048036036040811015610a4d57600080fd5b810190808035906020019092919080359060200190929190505050610f98565b6040518082815260200191505060405180910390f35b610aaf60048036036020811015610a9957600080fd5b8101908080359060200190929190505050610fac565b604051808215151515815260200191505060405180910390f35b610af560048036036020811015610adf57600080fd5b8101908080359060200190929190505050610fbe565b604051808215151515815260200191505060405180910390f35b610b4560048036036040811015610b2557600080fd5b810190808035906020019092919080359060200190929190505050610fd0565b6040518082815260200191505060405180910390f35b610b9160048036036040811015610b7157600080fd5b810190808035906020019092919080359060200190929190505050610fe4565b6040518082815260200191505060405180910390f35b610bd360048036036020811015610bbd57600080fd5b8101908080359060200190929190505050610ff8565b604051808215151515815260200191505060405180910390f35b610c1960048036036020811015610c0357600080fd5b810190808035906020019092919050505061100a565b60405180848152602001838152602001828152602001935050505060405180910390f35b610c6960048036036020811015610c5357600080fd5b810190808035906020019092919050505061102b565b60405180878152602001868152602001858152602001848152602001838152602001828152602001965050505050505060405180910390f35b610cd860048036036040811015610cb857600080fd5b81019080803590602001909291908035906020019092919050505061105e565b6040518082815260200191505060405180910390f35b610cf6611072565b005b610d2460048036036020811015610d0e57600080fd5b8101908080359060200190929190505050611094565b6040518082815260200191505060405180910390f35b610d7060048036036040811015610d5057600080fd5b8101908080359060200190929190803590602001909291905050506110a6565b6040518082815260200191505060405180910390f35b6000610d9283836110ba565b905092915050565b6000610da683836110d8565b905092915050565b6000610db9826110fc565b9050919050565b60005481565b6000610dd384848461112e565b90509392505050565b6000610de9848484611185565b90509392505050565b6000610dfd826111a0565b9050919050565b6000610e1083836111cb565b905092915050565b6000610e288787878787876111f0565b90509695505050505050565b6000610e3f82611233565b9050919050565b6000610e528383611259565b905092915050565b6000610e6683836112e4565b905092915050565b6000610e7982611380565b9050919050565b6000610e8c8383611396565b905092915050565b6000610ea0838361140d565b905092915050565b6000610eb48383611484565b905092915050565b6000610ecc8787878787876114a2565b90509695505050505050565b6000610ee483836114cd565b905092915050565b6000610ef7826114e7565b9050919050565b6000610f0a838361150c565b905092915050565b6000610f1e838361152b565b905092915050565b6000610f32838361158d565b905092915050565b6000610f45826115aa565b9050919050565b6000610f5883836115be565b905092915050565b6000610f6b826115d8565b9050919050565b6000610f7e83836115fb565b905092915050565b6000610f9182611618565b9050919050565b6000610fa4838361163c565b905092915050565b6000610fb7826116db565b9050919050565b6000610fc98261171e565b9050919050565b6000610fdc838361174b565b905092915050565b6000610ff0838361176a565b905092915050565b600061100382611790565b9050919050565b6000806000611018846117a6565b8093508194508295505050509193909250565b60008060008060008061103d876117d3565b809650819750829850839950849a50859b5050505050505091939550919395565b600061106a838361184e565b905092915050565b600042905061108b60018261139690919063ffffffff16565b60008190555050565b600061109f82611868565b9050919050565b60006110b2838361188c565b905092915050565b6000610e10820283039050828111156110d257600080fd5b92915050565b6000818311156110e757600080fd5b603c838303816110f357fe5b04905092915050565b600080600061111662015180858161111057fe5b046118de565b50915091506111258282611259565b92505050919050565b60006107b284101580156111425750600083115b801561114f5750600c8311155b1561117e5760006111608585611259565b90506000831180156111725750808311155b1561117c57600191505b505b9392505050565b6000620151806111968585856119b2565b0290509392505050565b6000806201518083816111af57fe5b0490506001600760038301816111c157fe5b0601915050919050565b6000818311156111da57600080fd5b610e10838303816111e757fe5b04905092915050565b60006111fd87878761112e565b15611229576018841080156112125750603c83105b801561121e5750603c82105b1561122857600190505b5b9695505050505050565b60008062015180838161124257fe5b069050610e10818161125057fe5b04915050919050565b6000600182148061126a5750600382145b806112755750600582145b806112805750600782145b8061128b5750600882145b806112965750600a82145b806112a15750600c82145b156112af57601f90506112de565b600282146112c057601e90506112dd565b6112c9836116db565b6112d457601c6112d7565b601d5b60ff1690505b5b92915050565b6000806000806112ff6201518087816112f957fe5b046118de565b9250925092508482019150600c600183038161131757fe5b04830192506001600c600184038161132b57fe5b06019150600061133b8484611259565b905080821115611349578091505b62015180878161135557fe5b06620151806113658686866119b2565b020194508685101561137657600080fd5b5050505092915050565b6000600661138d836111a0565b10159050919050565b6000806000806113b16201518087816113ab57fe5b046118de565b925092509250848301925060006113c88484611259565b9050808211156113d6578091505b6201518087816113e257fe5b06620151806113f28686866119b2565b020194508685101561140357600080fd5b5050505092915050565b60008060008061142862015180878161142257fe5b046118de565b9250925092508483039250600061143f8484611259565b90508082111561144d578091505b62015180878161145957fe5b06620151806114698686866119b2565b020194508685111561147a57600080fd5b5050505092915050565b6000610e108202830190508281101561149c57600080fd5b92915050565b600081603c8402610e108602620151806114bd8b8b8b6119b2565b0201010190509695505050505050565b6000818311156114dc57600080fd5b828203905092915050565b60006114fe6201518083816114f857fe5b046118de565b909150905080915050919050565b6000620151808202830190508281101561152557600080fd5b92915050565b60008183111561153a57600080fd5b60008061155262015180868161154c57fe5b046118de565b509150915060008061156f62015180878161156957fe5b046118de565b509150915082600c850282600c850201030394505050505092915050565b6000603c820283019050828110156115a457600080fd5b92915050565b6000603c82816115b657fe5b069050919050565b60008183019050828110156115d257600080fd5b92915050565b60006115ef6201518083816115e957fe5b046118de565b90505080915050919050565b6000603c8202830390508281111561161257600080fd5b92915050565b600061162f62015180838161162957fe5b046118de565b9091505080915050919050565b60008060008061165762015180878161165157fe5b046118de565b92509250925060008560018403600c860201039050600c818161167657fe5b0493506001600c828161168557fe5b0601925060006116958585611259565b9050808311156116a3578092505b6201518088816116af57fe5b06620151806116bf8787876119b2565b02019550878611156116d057600080fd5b505050505092915050565b600080600483816116e857fe5b0614801561170157506000606483816116fd57fe5b0614155b8061171757506000610190838161171457fe5b06145b9050919050565b60008061173662015180848161173057fe5b046118de565b50509050611743816116db565b915050919050565b6000620151808202830390508281111561176457600080fd5b92915050565b60008183111561177957600080fd5b620151808383038161178757fe5b04905092915050565b6000600561179d836111a0565b11159050919050565b60008060006117c06201518085816117ba57fe5b046118de565b8093508194508295505050509193909250565b6000806000806000806117f16201518088816117eb57fe5b046118de565b809650819750829850505050600062015180888161180b57fe5b069050610e10818161181957fe5b049350610e10818161182757fe5b069050603c818161183457fe5b049250603c818161184157fe5b0691505091939550919395565b600081830390508281111561186257600080fd5b92915050565b600080610e10838161187657fe5b069050603c818161188357fe5b04915050919050565b60008183111561189b57600080fd5b60006118b26201518085816118ac57fe5b046118de565b5050905060006118cd6201518085816118c757fe5b046118de565b505090508181039250505092915050565b600080600080849050600062253d8c62010bd98301019050600062023ab1826004028161190757fe5b059050600460038262023ab102018161191c57fe5b0582039150600062164b0960018401610fa0028161193657fe5b059050601f6004826105b5028161194957fe5b058403019250600061098f846050028161195f57fe5b059050600060508261098f028161197257fe5b0585039050600b828161198157fe5b05945084600c0260028301039150848360318603606402010192508298508197508096505050505050509193909250565b60006107b28410156119c357600080fd5b600084905060008490506000849050600062253d8c60046064600c600e8703816119e957fe5b05611324880101816119f757fe5b0560030281611a0257fe5b05600c80600c600e880381611a1357fe5b0502600287030361016f0281611a2557fe5b056004600c600e880381611a3557fe5b056112c08901016105b50281611a4757fe5b05617d4b860301010303905080945050505050939250505056fea265627a7a72315820dd63049d7412e76e938618e823fa2d7eb1083640c508495c4799cc387fb358ba64736f6c63430005100032",
  "source": "pragma solidity ^0.5.0;\n\nimport \"./BokkyPooBahsDateTimeLibrary.sol\";\n\n// ----------------------------------------------------------------------------\n// Testing BokkyPooBah's DateTime Library\n//\n// https://github.com/bokkypoobah/BokkyPooBahsDateTimeLibrary\n//\n// Enjoy. (c) BokkyPooBah / Bok Consulting Pty Ltd 2018-2019. The MIT Licence.\n// ----------------------------------------------------------------------------\n\ncontract TestDateTime {\n    using BokkyPooBahsDateTimeLibrary for uint;\n\n    uint public nextYear;\n\n    function test() public {\n        uint today = now;\n        nextYear = today.addYears(1);\n    }\n\n    function timestampFromDate(uint year, uint month, uint day) public pure returns (uint timestamp) {\n        return BokkyPooBahsDateTimeLibrary.timestampFromDate(year, month, day);\n    }\n    function timestampFromDateTime(uint year, uint month, uint day, uint hour, uint minute, uint second) public pure returns (uint timestamp) {\n        return BokkyPooBahsDateTimeLibrary.timestampFromDateTime(year, month, day, hour, minute, second);\n    }\n    function timestampToDate(uint timestamp) public pure returns (uint year, uint month, uint day) {\n        (year, month, day) = BokkyPooBahsDateTimeLibrary.timestampToDate(timestamp);\n    }\n    function timestampToDateTime(uint timestamp) public pure returns (uint year, uint month, uint day, uint hour, uint minute, uint second) {\n        (year, month, day, hour, minute, second) = BokkyPooBahsDateTimeLibrary.timestampToDateTime(timestamp);\n    }\n\n    function isLeapYear(uint timestamp) public pure returns (bool leapYear) {\n        leapYear = BokkyPooBahsDateTimeLibrary.isLeapYear(timestamp);\n    }\n    function _isLeapYear(uint year) public pure returns (bool leapYear) {\n        leapYear = BokkyPooBahsDateTimeLibrary._isLeapYear(year);\n    }\n    function isWeekDay(uint timestamp) public pure returns (bool weekDay) {\n        weekDay = BokkyPooBahsDateTimeLibrary.isWeekDay(timestamp);\n    }\n    function isWeekEnd(uint timestamp) public pure returns (bool weekEnd) {\n        weekEnd = BokkyPooBahsDateTimeLibrary.isWeekEnd(timestamp);\n    }\n\n    function getDaysInMonth(uint timestamp) public pure returns (uint daysInMonth) {\n        daysInMonth = BokkyPooBahsDateTimeLibrary.getDaysInMonth(timestamp);\n    }\n    function _getDaysInMonth(uint year, uint month) public pure returns (uint daysInMonth) {\n        daysInMonth = BokkyPooBahsDateTimeLibrary._getDaysInMonth(year, month);\n    }\n    function getDayOfWeek(uint timestamp) public pure returns (uint dayOfWeek) {\n        dayOfWeek = BokkyPooBahsDateTimeLibrary.getDayOfWeek(timestamp);\n    }\n\n    function isValidDate(uint year, uint month, uint day) public pure returns (bool valid) {\n        valid = BokkyPooBahsDateTimeLibrary.isValidDate(year, month, day);\n    }\n    function isValidDateTime(uint year, uint month, uint day, uint hour, uint minute, uint second) public pure returns (bool valid) {\n        valid = BokkyPooBahsDateTimeLibrary.isValidDateTime(year, month, day, hour, minute, second);\n    }\n\n    function getYear(uint timestamp) public pure returns (uint year) {\n        year = BokkyPooBahsDateTimeLibrary.getYear(timestamp);\n    }\n    function getMonth(uint timestamp) public pure returns (uint month) {\n        month = BokkyPooBahsDateTimeLibrary.getMonth(timestamp);\n    }\n    function getDay(uint timestamp) public pure returns (uint day) {\n        day = BokkyPooBahsDateTimeLibrary.getDay(timestamp);\n    }\n    function getHour(uint timestamp) public pure returns (uint hour) {\n        hour = BokkyPooBahsDateTimeLibrary.getHour(timestamp);\n    }\n    function getMinute(uint timestamp) public pure returns (uint minute) {\n        minute = BokkyPooBahsDateTimeLibrary.getMinute(timestamp);\n    }\n    function getSecond(uint timestamp) public pure returns (uint second) {\n        second = BokkyPooBahsDateTimeLibrary.getSecond(timestamp);\n    }\n\n    function addYears(uint timestamp, uint _years) public pure returns (uint newTimestamp) {\n        newTimestamp = BokkyPooBahsDateTimeLibrary.addYears(timestamp, _years);\n    }\n    function addMonths(uint timestamp, uint _months) public pure returns (uint newTimestamp) {\n        newTimestamp = BokkyPooBahsDateTimeLibrary.addMonths(timestamp, _months);\n    }\n    function addDays(uint timestamp, uint _days) public pure returns (uint newTimestamp) {\n        newTimestamp = BokkyPooBahsDateTimeLibrary.addDays(timestamp, _days);\n    }\n    function addHours(uint timestamp, uint _hours) public pure returns (uint newTimestamp) {\n        newTimestamp = BokkyPooBahsDateTimeLibrary.addHours(timestamp, _hours);\n    }\n    function addMinutes(uint timestamp, uint _minutes) public pure returns (uint newTimestamp) {\n        newTimestamp = BokkyPooBahsDateTimeLibrary.addMinutes(timestamp, _minutes);\n    }\n    function addSeconds(uint timestamp, uint _seconds) public pure returns (uint newTimestamp) {\n        newTimestamp = BokkyPooBahsDateTimeLibrary.addSeconds(timestamp, _seconds);\n    }\n\n    function subYears(uint timestamp, uint _years) public pure returns (uint newTimestamp) {\n        newTimestamp = BokkyPooBahsDateTimeLibrary.subYears(timestamp, _years);\n    }\n    function subMonths(uint timestamp, uint _months) public pure returns (uint newTimestamp) {\n        newTimestamp = BokkyPooBahsDateTimeLibrary.subMonths(timestamp, _months);\n    }\n    function subDays(uint timestamp, uint _days) public pure returns (uint newTimestamp) {\n        newTimestamp = BokkyPooBahsDateTimeLibrary.subDays(timestamp, _days);\n    }\n    function subHours(uint timestamp, uint _hours) public pure returns (uint newTimestamp) {\n        newTimestamp = BokkyPooBahsDateTimeLibrary.subHours(timestamp, _hours);\n    }\n    function subMinutes(uint timestamp, uint _minutes) public pure returns (uint newTimestamp) {\n        newTimestamp = BokkyPooBahsDateTimeLibrary.subMinutes(timestamp, _minutes);\n    }\n    function subSeconds(uint timestamp, uint _seconds) public pure returns (uint newTimestamp) {\n        newTimestamp = BokkyPooBahsDateTimeLibrary.subSeconds(timestamp, _seconds);\n    }\n\n    function diffYears(uint fromTimestamp, uint toTimestamp) public pure returns (uint _years) {\n        _years = BokkyPooBahsDateTimeLibrary.diffYears(fromTimestamp, toTimestamp);\n    }\n    function diffMonths(uint fromTimestamp, uint toTimestamp) public pure returns (uint _months) {\n        _months = BokkyPooBahsDateTimeLibrary.diffMonths(fromTimestamp, toTimestamp);\n    }\n    function diffDays(uint fromTimestamp, uint toTimestamp) public pure returns (uint _days) {\n        _days = BokkyPooBahsDateTimeLibrary.diffDays(fromTimestamp, toTimestamp);\n    }\n    function diffHours(uint fromTimestamp, uint toTimestamp) public pure returns (uint _hours) {\n        _hours = BokkyPooBahsDateTimeLibrary.diffHours(fromTimestamp, toTimestamp);\n    }\n    function diffMinutes(uint fromTimestamp, uint toTimestamp) public pure returns (uint _minutes) {\n        _minutes = BokkyPooBahsDateTimeLibrary.diffMinutes(fromTimestamp, toTimestamp);\n    }\n    function diffSeconds(uint fromTimestamp, uint toTimestamp) public pure returns (uint _seconds) {\n        _seconds = BokkyPooBahsDateTimeLibrary.diffSeconds(fromTimestamp, toTimestamp);\n    }\n}\n",
  "sourcePath": "/Users/mg/bnpl-dapp/src/contracts/TestDateTime.sol",
  "compiler": {
    "name": "solc",
    "version": "0.5.16+commit.9c3226ce.Emscripten.clang"
  },
  "schemaVersion": "3.3.4",
  "updatedAt": "2021-06-17T08:52:06.376Z",
  "devdoc": {
    "methods": {}
  },
  "userdoc": {
    "methods": {}
  }
}